{
	"SimpleDEX_flattened.sol": {
		"SimpleDEX": {
			"abi": [
				{
					"inputs": [
						{
							"internalType": "address",
							"name": "_tokenA",
							"type": "address"
						},
						{
							"internalType": "address",
							"name": "_tokenB",
							"type": "address"
						}
					],
					"stateMutability": "nonpayable",
					"type": "constructor"
				},
				{
					"inputs": [
						{
							"internalType": "address",
							"name": "owner",
							"type": "address"
						}
					],
					"name": "OwnableInvalidOwner",
					"type": "error"
				},
				{
					"inputs": [
						{
							"internalType": "address",
							"name": "account",
							"type": "address"
						}
					],
					"name": "OwnableUnauthorizedAccount",
					"type": "error"
				},
				{
					"anonymous": false,
					"inputs": [
						{
							"indexed": false,
							"internalType": "uint256",
							"name": "amountA",
							"type": "uint256"
						},
						{
							"indexed": false,
							"internalType": "uint256",
							"name": "amountB",
							"type": "uint256"
						}
					],
					"name": "LiquidityAdded",
					"type": "event"
				},
				{
					"anonymous": false,
					"inputs": [
						{
							"indexed": false,
							"internalType": "uint256",
							"name": "amountA",
							"type": "uint256"
						},
						{
							"indexed": false,
							"internalType": "uint256",
							"name": "amountB",
							"type": "uint256"
						}
					],
					"name": "LiquidityRemoved",
					"type": "event"
				},
				{
					"anonymous": false,
					"inputs": [
						{
							"indexed": true,
							"internalType": "address",
							"name": "previousOwner",
							"type": "address"
						},
						{
							"indexed": true,
							"internalType": "address",
							"name": "newOwner",
							"type": "address"
						}
					],
					"name": "OwnershipTransferred",
					"type": "event"
				},
				{
					"anonymous": false,
					"inputs": [
						{
							"indexed": true,
							"internalType": "address",
							"name": "user",
							"type": "address"
						},
						{
							"indexed": false,
							"internalType": "uint256",
							"name": "amountIn",
							"type": "uint256"
						},
						{
							"indexed": false,
							"internalType": "uint256",
							"name": "amountOut",
							"type": "uint256"
						}
					],
					"name": "TokenSwapped",
					"type": "event"
				},
				{
					"inputs": [
						{
							"internalType": "uint256",
							"name": "amountA",
							"type": "uint256"
						},
						{
							"internalType": "uint256",
							"name": "amountB",
							"type": "uint256"
						}
					],
					"name": "addLiquidity",
					"outputs": [],
					"stateMutability": "nonpayable",
					"type": "function"
				},
				{
					"inputs": [
						{
							"internalType": "address",
							"name": "_token",
							"type": "address"
						}
					],
					"name": "getPrice",
					"outputs": [
						{
							"internalType": "uint256",
							"name": "",
							"type": "uint256"
						}
					],
					"stateMutability": "view",
					"type": "function"
				},
				{
					"inputs": [],
					"name": "owner",
					"outputs": [
						{
							"internalType": "address",
							"name": "",
							"type": "address"
						}
					],
					"stateMutability": "view",
					"type": "function"
				},
				{
					"inputs": [
						{
							"internalType": "uint256",
							"name": "amountA",
							"type": "uint256"
						},
						{
							"internalType": "uint256",
							"name": "amountB",
							"type": "uint256"
						}
					],
					"name": "removeLiquidity",
					"outputs": [],
					"stateMutability": "nonpayable",
					"type": "function"
				},
				{
					"inputs": [],
					"name": "renounceOwnership",
					"outputs": [],
					"stateMutability": "nonpayable",
					"type": "function"
				},
				{
					"inputs": [
						{
							"internalType": "uint256",
							"name": "amountAIn",
							"type": "uint256"
						}
					],
					"name": "swapAforB",
					"outputs": [],
					"stateMutability": "nonpayable",
					"type": "function"
				},
				{
					"inputs": [
						{
							"internalType": "uint256",
							"name": "amountBIn",
							"type": "uint256"
						}
					],
					"name": "swapBforA",
					"outputs": [],
					"stateMutability": "nonpayable",
					"type": "function"
				},
				{
					"inputs": [],
					"name": "tokenA",
					"outputs": [
						{
							"internalType": "contract IERC20",
							"name": "",
							"type": "address"
						}
					],
					"stateMutability": "view",
					"type": "function"
				},
				{
					"inputs": [],
					"name": "tokenB",
					"outputs": [
						{
							"internalType": "contract IERC20",
							"name": "",
							"type": "address"
						}
					],
					"stateMutability": "view",
					"type": "function"
				},
				{
					"inputs": [
						{
							"internalType": "address",
							"name": "newOwner",
							"type": "address"
						}
					],
					"name": "transferOwnership",
					"outputs": [],
					"stateMutability": "nonpayable",
					"type": "function"
				}
			],
			"devdoc": {
				"author": "[Gabriel iakantas]",
				"details": "Utiliza la fórmula de producto constante para los intercambios",
				"errors": {
					"OwnableInvalidOwner(address)": [
						{
							"details": "The owner is not a valid owner account. (eg. `address(0)`)"
						}
					],
					"OwnableUnauthorizedAccount(address)": [
						{
							"details": "The caller account is not authorized to perform an operation."
						}
					]
				},
				"events": {
					"LiquidityAdded(uint256,uint256)": {
						"params": {
							"amountA": "La cantidad de token A añadida",
							"amountB": "La cantidad de token B añadida"
						}
					},
					"LiquidityRemoved(uint256,uint256)": {
						"params": {
							"amountA": "La cantidad de token A retirada",
							"amountB": "La cantidad de token B retirada"
						}
					},
					"TokenSwapped(address,uint256,uint256)": {
						"params": {
							"amountIn": "La cantidad de tokens de entrada",
							"amountOut": "La cantidad de tokens de salida",
							"user": "La dirección del usuario que realiza el intercambio"
						}
					}
				},
				"kind": "dev",
				"methods": {
					"addLiquidity(uint256,uint256)": {
						"details": "Solo puede ser llamado por el propietario",
						"params": {
							"amountA": "La cantidad de token A para agregar",
							"amountB": "La cantidad de token B para agregar"
						}
					},
					"constructor": {
						"params": {
							"_tokenA": "Dirección del token A",
							"_tokenB": "Dirección del token B"
						}
					},
					"getPrice(address)": {
						"params": {
							"_token": "Dirección del token para obtener su precio"
						},
						"returns": {
							"_0": "El precio en términos del otro token"
						}
					},
					"owner()": {
						"details": "Returns the address of the current owner."
					},
					"removeLiquidity(uint256,uint256)": {
						"details": "Solo puede ser llamado por el propietario",
						"params": {
							"amountA": "La cantidad de token A para retirar",
							"amountB": "La cantidad de token B para retirar"
						}
					},
					"renounceOwnership()": {
						"details": "Leaves the contract without owner. It will not be possible to call `onlyOwner` functions. Can only be called by the current owner. NOTE: Renouncing ownership will leave the contract without an owner, thereby disabling any functionality that is only available to the owner."
					},
					"swapAforB(uint256)": {
						"params": {
							"amountAIn": "La cantidad de token A para intercambiar"
						}
					},
					"swapBforA(uint256)": {
						"params": {
							"amountBIn": "La cantidad de token B para intercambiar"
						}
					},
					"transferOwnership(address)": {
						"details": "Transfers ownership of the contract to a new account (`newOwner`). Can only be called by the current owner."
					}
				},
				"title": "Intercambio Descentralizado Simple (DEX)",
				"version": 1
			},
			"evm": {
				"assembly": "    /* \"SimpleDEX_flattened.sol\":7147:11960  contract SimpleDEX is Ownable {... */\n  mstore(0x40, 0x80)\n    /* \"SimpleDEX_flattened.sol\":8250:8391  constructor(address _tokenA, address _tokenB) Ownable(msg.sender) {... */\n  callvalue\n  dup1\n  iszero\n  tag_1\n  jumpi\n  0x00\n  dup1\n  revert\ntag_1:\n  pop\n  mload(0x40)\n  sub(codesize, bytecodeSize)\n  dup1\n  bytecodeSize\n  dup4\n  codecopy\n  dup2\n  dup2\n  add\n  0x40\n  mstore\n  dup2\n  add\n  swap1\n  tag_2\n  swap2\n  swap1\n  tag_3\n  jump\t// in\ntag_2:\n    /* \"SimpleDEX_flattened.sol\":8304:8314  msg.sender */\n  caller\n    /* \"SimpleDEX_flattened.sol\":5044:5045  0 */\n  0x00\n    /* \"SimpleDEX_flattened.sol\":5020:5046  initialOwner == address(0) */\n  0xffffffffffffffffffffffffffffffffffffffff\n  and\n    /* \"SimpleDEX_flattened.sol\":5020:5032  initialOwner */\n  dup2\n    /* \"SimpleDEX_flattened.sol\":5020:5046  initialOwner == address(0) */\n  0xffffffffffffffffffffffffffffffffffffffff\n  and\n  sub\n    /* \"SimpleDEX_flattened.sol\":5016:5111  if (initialOwner == address(0)) {... */\n  tag_7\n  jumpi\n    /* \"SimpleDEX_flattened.sol\":5097:5098  0 */\n  0x00\n    /* \"SimpleDEX_flattened.sol\":5069:5100  OwnableInvalidOwner(address(0)) */\n  mload(0x40)\n  0x1e4fbdf700000000000000000000000000000000000000000000000000000000\n  dup2\n  mstore\n  0x04\n  add\n  tag_8\n  swap2\n  swap1\n  tag_9\n  jump\t// in\ntag_8:\n  mload(0x40)\n  dup1\n  swap2\n  sub\n  swap1\n  revert\n    /* \"SimpleDEX_flattened.sol\":5016:5111  if (initialOwner == address(0)) {... */\ntag_7:\n    /* \"SimpleDEX_flattened.sol\":5120:5152  _transferOwnership(initialOwner) */\n  tag_10\n    /* \"SimpleDEX_flattened.sol\":5139:5151  initialOwner */\n  dup2\n    /* \"SimpleDEX_flattened.sol\":5120:5138  _transferOwnership */\n  shl(0x20, tag_11)\n    /* \"SimpleDEX_flattened.sol\":5120:5152  _transferOwnership(initialOwner) */\n  0x20\n  shr\n  jump\t// in\ntag_10:\n    /* \"SimpleDEX_flattened.sol\":4972:5159  constructor(address initialOwner) {... */\n  pop\n    /* \"SimpleDEX_flattened.sol\":8342:8349  _tokenA */\n  dup2\n    /* \"SimpleDEX_flattened.sol\":8326:8332  tokenA */\n  0x01\n  0x00\n    /* \"SimpleDEX_flattened.sol\":8326:8350  tokenA = IERC20(_tokenA) */\n  0x0100\n  exp\n  dup2\n  sload\n  dup2\n  0xffffffffffffffffffffffffffffffffffffffff\n  mul\n  not\n  and\n  swap1\n  dup4\n  0xffffffffffffffffffffffffffffffffffffffff\n  and\n  mul\n  or\n  swap1\n  sstore\n  pop\n    /* \"SimpleDEX_flattened.sol\":8376:8383  _tokenB */\n  dup1\n    /* \"SimpleDEX_flattened.sol\":8360:8366  tokenB */\n  0x02\n  0x00\n    /* \"SimpleDEX_flattened.sol\":8360:8384  tokenB = IERC20(_tokenB) */\n  0x0100\n  exp\n  dup2\n  sload\n  dup2\n  0xffffffffffffffffffffffffffffffffffffffff\n  mul\n  not\n  and\n  swap1\n  dup4\n  0xffffffffffffffffffffffffffffffffffffffff\n  and\n  mul\n  or\n  swap1\n  sstore\n  pop\n    /* \"SimpleDEX_flattened.sol\":8250:8391  constructor(address _tokenA, address _tokenB) Ownable(msg.sender) {... */\n  pop\n  pop\n    /* \"SimpleDEX_flattened.sol\":7147:11960  contract SimpleDEX is Ownable {... */\n  jump(tag_13)\n    /* \"SimpleDEX_flattened.sol\":6659:6846  function _transferOwnership(address newOwner) internal virtual {... */\ntag_11:\n    /* \"SimpleDEX_flattened.sol\":6732:6748  address oldOwner */\n  0x00\n    /* \"SimpleDEX_flattened.sol\":6751:6757  _owner */\n  dup1\n  0x00\n  swap1\n  sload\n  swap1\n  0x0100\n  exp\n  swap1\n  div\n  0xffffffffffffffffffffffffffffffffffffffff\n  and\n    /* \"SimpleDEX_flattened.sol\":6732:6757  address oldOwner = _owner */\n  swap1\n  pop\n    /* \"SimpleDEX_flattened.sol\":6776:6784  newOwner */\n  dup2\n    /* \"SimpleDEX_flattened.sol\":6767:6773  _owner */\n  0x00\n  dup1\n    /* \"SimpleDEX_flattened.sol\":6767:6784  _owner = newOwner */\n  0x0100\n  exp\n  dup2\n  sload\n  dup2\n  0xffffffffffffffffffffffffffffffffffffffff\n  mul\n  not\n  and\n  swap1\n  dup4\n  0xffffffffffffffffffffffffffffffffffffffff\n  and\n  mul\n  or\n  swap1\n  sstore\n  pop\n    /* \"SimpleDEX_flattened.sol\":6830:6838  newOwner */\n  dup2\n    /* \"SimpleDEX_flattened.sol\":6799:6839  OwnershipTransferred(oldOwner, newOwner) */\n  0xffffffffffffffffffffffffffffffffffffffff\n  and\n    /* \"SimpleDEX_flattened.sol\":6820:6828  oldOwner */\n  dup2\n    /* \"SimpleDEX_flattened.sol\":6799:6839  OwnershipTransferred(oldOwner, newOwner) */\n  0xffffffffffffffffffffffffffffffffffffffff\n  and\n  0x8be0079c531659141344cd1fd0a4f28419497f9722a3daafe3b4186f6b6457e0\n  mload(0x40)\n  mload(0x40)\n  dup1\n  swap2\n  sub\n  swap1\n  log3\n    /* \"SimpleDEX_flattened.sol\":6722:6846  {... */\n  pop\n    /* \"SimpleDEX_flattened.sol\":6659:6846  function _transferOwnership(address newOwner) internal virtual {... */\n  pop\n  jump\t// out\n    /* \"#utility.yul\":88:205   */\ntag_16:\n    /* \"#utility.yul\":197:198   */\n  0x00\n    /* \"#utility.yul\":194:195   */\n  dup1\n    /* \"#utility.yul\":187:199   */\n  revert\n    /* \"#utility.yul\":334:460   */\ntag_18:\n    /* \"#utility.yul\":371:378   */\n  0x00\n    /* \"#utility.yul\":411:453   */\n  0xffffffffffffffffffffffffffffffffffffffff\n    /* \"#utility.yul\":404:409   */\n  dup3\n    /* \"#utility.yul\":400:454   */\n  and\n    /* \"#utility.yul\":389:454   */\n  swap1\n  pop\n    /* \"#utility.yul\":334:460   */\n  swap2\n  swap1\n  pop\n  jump\t// out\n    /* \"#utility.yul\":466:562   */\ntag_19:\n    /* \"#utility.yul\":503:510   */\n  0x00\n    /* \"#utility.yul\":532:556   */\n  tag_29\n    /* \"#utility.yul\":550:555   */\n  dup3\n    /* \"#utility.yul\":532:556   */\n  tag_18\n  jump\t// in\ntag_29:\n    /* \"#utility.yul\":521:556   */\n  swap1\n  pop\n    /* \"#utility.yul\":466:562   */\n  swap2\n  swap1\n  pop\n  jump\t// out\n    /* \"#utility.yul\":568:690   */\ntag_20:\n    /* \"#utility.yul\":641:665   */\n  tag_31\n    /* \"#utility.yul\":659:664   */\n  dup2\n    /* \"#utility.yul\":641:665   */\n  tag_19\n  jump\t// in\ntag_31:\n    /* \"#utility.yul\":634:639   */\n  dup2\n    /* \"#utility.yul\":631:666   */\n  eq\n    /* \"#utility.yul\":621:684   */\n  tag_32\n  jumpi\n    /* \"#utility.yul\":680:681   */\n  0x00\n    /* \"#utility.yul\":677:678   */\n  dup1\n    /* \"#utility.yul\":670:682   */\n  revert\n    /* \"#utility.yul\":621:684   */\ntag_32:\n    /* \"#utility.yul\":568:690   */\n  pop\n  jump\t// out\n    /* \"#utility.yul\":696:839   */\ntag_21:\n    /* \"#utility.yul\":753:758   */\n  0x00\n    /* \"#utility.yul\":784:790   */\n  dup2\n    /* \"#utility.yul\":778:791   */\n  mload\n    /* \"#utility.yul\":769:791   */\n  swap1\n  pop\n    /* \"#utility.yul\":800:833   */\n  tag_34\n    /* \"#utility.yul\":827:832   */\n  dup2\n    /* \"#utility.yul\":800:833   */\n  tag_20\n  jump\t// in\ntag_34:\n    /* \"#utility.yul\":696:839   */\n  swap3\n  swap2\n  pop\n  pop\n  jump\t// out\n    /* \"#utility.yul\":845:1352   */\ntag_3:\n    /* \"#utility.yul\":924:930   */\n  0x00\n    /* \"#utility.yul\":932:938   */\n  dup1\n    /* \"#utility.yul\":981:983   */\n  0x40\n    /* \"#utility.yul\":969:978   */\n  dup4\n    /* \"#utility.yul\":960:967   */\n  dup6\n    /* \"#utility.yul\":956:979   */\n  sub\n    /* \"#utility.yul\":952:984   */\n  slt\n    /* \"#utility.yul\":949:1068   */\n  iszero\n  tag_36\n  jumpi\n    /* \"#utility.yul\":987:1066   */\n  tag_37\n  tag_16\n  jump\t// in\ntag_37:\n    /* \"#utility.yul\":949:1068   */\ntag_36:\n    /* \"#utility.yul\":1107:1108   */\n  0x00\n    /* \"#utility.yul\":1132:1196   */\n  tag_38\n    /* \"#utility.yul\":1188:1195   */\n  dup6\n    /* \"#utility.yul\":1179:1185   */\n  dup3\n    /* \"#utility.yul\":1168:1177   */\n  dup7\n    /* \"#utility.yul\":1164:1186   */\n  add\n    /* \"#utility.yul\":1132:1196   */\n  tag_21\n  jump\t// in\ntag_38:\n    /* \"#utility.yul\":1122:1196   */\n  swap3\n  pop\n    /* \"#utility.yul\":1078:1206   */\n  pop\n    /* \"#utility.yul\":1245:1247   */\n  0x20\n    /* \"#utility.yul\":1271:1335   */\n  tag_39\n    /* \"#utility.yul\":1327:1334   */\n  dup6\n    /* \"#utility.yul\":1318:1324   */\n  dup3\n    /* \"#utility.yul\":1307:1316   */\n  dup7\n    /* \"#utility.yul\":1303:1325   */\n  add\n    /* \"#utility.yul\":1271:1335   */\n  tag_21\n  jump\t// in\ntag_39:\n    /* \"#utility.yul\":1261:1335   */\n  swap2\n  pop\n    /* \"#utility.yul\":1216:1345   */\n  pop\n    /* \"#utility.yul\":845:1352   */\n  swap3\n  pop\n  swap3\n  swap1\n  pop\n  jump\t// out\n    /* \"#utility.yul\":1358:1476   */\ntag_22:\n    /* \"#utility.yul\":1445:1469   */\n  tag_41\n    /* \"#utility.yul\":1463:1468   */\n  dup2\n    /* \"#utility.yul\":1445:1469   */\n  tag_19\n  jump\t// in\ntag_41:\n    /* \"#utility.yul\":1440:1443   */\n  dup3\n    /* \"#utility.yul\":1433:1470   */\n  mstore\n    /* \"#utility.yul\":1358:1476   */\n  pop\n  pop\n  jump\t// out\n    /* \"#utility.yul\":1482:1704   */\ntag_9:\n    /* \"#utility.yul\":1575:1579   */\n  0x00\n    /* \"#utility.yul\":1613:1615   */\n  0x20\n    /* \"#utility.yul\":1602:1611   */\n  dup3\n    /* \"#utility.yul\":1598:1616   */\n  add\n    /* \"#utility.yul\":1590:1616   */\n  swap1\n  pop\n    /* \"#utility.yul\":1626:1697   */\n  tag_43\n    /* \"#utility.yul\":1694:1695   */\n  0x00\n    /* \"#utility.yul\":1683:1692   */\n  dup4\n    /* \"#utility.yul\":1679:1696   */\n  add\n    /* \"#utility.yul\":1670:1676   */\n  dup5\n    /* \"#utility.yul\":1626:1697   */\n  tag_22\n  jump\t// in\ntag_43:\n    /* \"#utility.yul\":1482:1704   */\n  swap3\n  swap2\n  pop\n  pop\n  jump\t// out\n    /* \"SimpleDEX_flattened.sol\":7147:11960  contract SimpleDEX is Ownable {... */\ntag_13:\n  dataSize(sub_0)\n  dup1\n  dataOffset(sub_0)\n  0x00\n  codecopy\n  0x00\n  return\nstop\n\nsub_0: assembly {\n        /* \"SimpleDEX_flattened.sol\":7147:11960  contract SimpleDEX is Ownable {... */\n      mstore(0x40, 0x80)\n      callvalue\n      dup1\n      iszero\n      tag_1\n      jumpi\n      0x00\n      dup1\n      revert\n    tag_1:\n      pop\n      jumpi(tag_2, lt(calldatasize, 0x04))\n      shr(0xe0, calldataload(0x00))\n      dup1\n      0x8da5cb5b\n      gt\n      tag_13\n      jumpi\n      dup1\n      0x8da5cb5b\n      eq\n      tag_8\n      jumpi\n      dup1\n      0x9cd441da\n      eq\n      tag_9\n      jumpi\n      dup1\n      0x9d7de6b3\n      eq\n      tag_10\n      jumpi\n      dup1\n      0xe4f1f70a\n      eq\n      tag_11\n      jumpi\n      dup1\n      0xf2fde38b\n      eq\n      tag_12\n      jumpi\n      jump(tag_2)\n    tag_13:\n      dup1\n      0x0fc63d10\n      eq\n      tag_3\n      jumpi\n      dup1\n      0x41976e09\n      eq\n      tag_4\n      jumpi\n      dup1\n      0x5f64b55b\n      eq\n      tag_5\n      jumpi\n      dup1\n      0x715018a6\n      eq\n      tag_6\n      jumpi\n      dup1\n      0x8014a7aa\n      eq\n      tag_7\n      jumpi\n    tag_2:\n      0x00\n      dup1\n      revert\n        /* \"SimpleDEX_flattened.sol\":7230:7250  IERC20 public tokenA */\n    tag_3:\n      tag_14\n      tag_15\n      jump\t// in\n    tag_14:\n      mload(0x40)\n      tag_16\n      swap2\n      swap1\n      tag_17\n      jump\t// in\n    tag_16:\n      mload(0x40)\n      dup1\n      swap2\n      sub\n      swap1\n      return\n        /* \"SimpleDEX_flattened.sol\":10996:11411  function getPrice(address _token) external view returns (uint256) {... */\n    tag_4:\n      tag_18\n      0x04\n      dup1\n      calldatasize\n      sub\n      dup2\n      add\n      swap1\n      tag_19\n      swap2\n      swap1\n      tag_20\n      jump\t// in\n    tag_19:\n      tag_21\n      jump\t// in\n    tag_18:\n      mload(0x40)\n      tag_22\n      swap2\n      swap1\n      tag_23\n      jump\t// in\n    tag_22:\n      mload(0x40)\n      dup1\n      swap2\n      sub\n      swap1\n      return\n        /* \"SimpleDEX_flattened.sol\":7304:7324  IERC20 public tokenB */\n    tag_5:\n      tag_24\n      tag_25\n      jump\t// in\n    tag_24:\n      mload(0x40)\n      tag_26\n      swap2\n      swap1\n      tag_17\n      jump\t// in\n    tag_26:\n      mload(0x40)\n      dup1\n      swap2\n      sub\n      swap1\n      return\n        /* \"SimpleDEX_flattened.sol\":6040:6141  function renounceOwnership() public virtual onlyOwner {... */\n    tag_6:\n      tag_27\n      tag_28\n      jump\t// in\n    tag_27:\n      stop\n        /* \"SimpleDEX_flattened.sol\":10316:10799  function swapBforA(uint256 amountBIn) external {... */\n    tag_7:\n      tag_29\n      0x04\n      dup1\n      calldatasize\n      sub\n      dup2\n      add\n      swap1\n      tag_30\n      swap2\n      swap1\n      tag_31\n      jump\t// in\n    tag_30:\n      tag_32\n      jump\t// in\n    tag_29:\n      stop\n        /* \"SimpleDEX_flattened.sol\":5385:5470  function owner() public view virtual returns (address) {... */\n    tag_8:\n      tag_33\n      tag_34\n      jump\t// in\n    tag_33:\n      mload(0x40)\n      tag_35\n      swap2\n      swap1\n      tag_36\n      jump\t// in\n    tag_35:\n      mload(0x40)\n      dup1\n      swap2\n      sub\n      swap1\n      return\n        /* \"SimpleDEX_flattened.sol\":8610:8938  function addLiquidity(uint256 amountA, uint256 amountB) external onlyOwner {... */\n    tag_9:\n      tag_37\n      0x04\n      dup1\n      calldatasize\n      sub\n      dup2\n      add\n      swap1\n      tag_38\n      swap2\n      swap1\n      tag_39\n      jump\t// in\n    tag_38:\n      tag_40\n      jump\t// in\n    tag_37:\n      stop\n        /* \"SimpleDEX_flattened.sol\":9158:9593  function removeLiquidity(uint256 amountA, uint256 amountB) external onlyOwner {... */\n    tag_10:\n      tag_41\n      0x04\n      dup1\n      calldatasize\n      sub\n      dup2\n      add\n      swap1\n      tag_42\n      swap2\n      swap1\n      tag_39\n      jump\t// in\n    tag_42:\n      tag_43\n      jump\t// in\n    tag_41:\n      stop\n        /* \"SimpleDEX_flattened.sol\":9713:10196  function swapAforB(uint256 amountAIn) external {... */\n    tag_11:\n      tag_44\n      0x04\n      dup1\n      calldatasize\n      sub\n      dup2\n      add\n      swap1\n      tag_45\n      swap2\n      swap1\n      tag_31\n      jump\t// in\n    tag_45:\n      tag_46\n      jump\t// in\n    tag_44:\n      stop\n        /* \"SimpleDEX_flattened.sol\":6290:6505  function transferOwnership(address newOwner) public virtual onlyOwner {... */\n    tag_12:\n      tag_47\n      0x04\n      dup1\n      calldatasize\n      sub\n      dup2\n      add\n      swap1\n      tag_48\n      swap2\n      swap1\n      tag_20\n      jump\t// in\n    tag_48:\n      tag_49\n      jump\t// in\n    tag_47:\n      stop\n        /* \"SimpleDEX_flattened.sol\":7230:7250  IERC20 public tokenA */\n    tag_15:\n      0x01\n      0x00\n      swap1\n      sload\n      swap1\n      0x0100\n      exp\n      swap1\n      div\n      0xffffffffffffffffffffffffffffffffffffffff\n      and\n      dup2\n      jump\t// out\n        /* \"SimpleDEX_flattened.sol\":10996:11411  function getPrice(address _token) external view returns (uint256) {... */\n    tag_21:\n        /* \"SimpleDEX_flattened.sol\":11053:11060  uint256 */\n      0x00\n        /* \"SimpleDEX_flattened.sol\":11098:11104  tokenA */\n      0x01\n      0x00\n      swap1\n      sload\n      swap1\n      0x0100\n      exp\n      swap1\n      div\n      0xffffffffffffffffffffffffffffffffffffffff\n      and\n        /* \"SimpleDEX_flattened.sol\":11080:11105  _token == address(tokenA) */\n      0xffffffffffffffffffffffffffffffffffffffff\n      and\n        /* \"SimpleDEX_flattened.sol\":11080:11086  _token */\n      dup3\n        /* \"SimpleDEX_flattened.sol\":11080:11105  _token == address(tokenA) */\n      0xffffffffffffffffffffffffffffffffffffffff\n      and\n      eq\n        /* \"SimpleDEX_flattened.sol\":11080:11134  _token == address(tokenA) || _token == address(tokenB) */\n      dup1\n      tag_51\n      jumpi\n      pop\n        /* \"SimpleDEX_flattened.sol\":11127:11133  tokenB */\n      0x02\n      0x00\n      swap1\n      sload\n      swap1\n      0x0100\n      exp\n      swap1\n      div\n      0xffffffffffffffffffffffffffffffffffffffff\n      and\n        /* \"SimpleDEX_flattened.sol\":11109:11134  _token == address(tokenB) */\n      0xffffffffffffffffffffffffffffffffffffffff\n      and\n        /* \"SimpleDEX_flattened.sol\":11109:11115  _token */\n      dup3\n        /* \"SimpleDEX_flattened.sol\":11109:11134  _token == address(tokenB) */\n      0xffffffffffffffffffffffffffffffffffffffff\n      and\n      eq\n        /* \"SimpleDEX_flattened.sol\":11080:11134  _token == address(tokenA) || _token == address(tokenB) */\n    tag_51:\n        /* \"SimpleDEX_flattened.sol\":11072:11152  require(_token == address(tokenA) || _token == address(tokenB), \"Invalid token\") */\n      tag_52\n      jumpi\n      mload(0x40)\n      0x08c379a000000000000000000000000000000000000000000000000000000000\n      dup2\n      mstore\n      0x04\n      add\n      tag_53\n      swap1\n      tag_54\n      jump\t// in\n    tag_53:\n      mload(0x40)\n      dup1\n      swap2\n      sub\n      swap1\n      revert\n    tag_52:\n        /* \"SimpleDEX_flattened.sol\":11163:11179  uint256 balanceA */\n      0x00\n        /* \"SimpleDEX_flattened.sol\":11182:11188  tokenA */\n      0x01\n      0x00\n      swap1\n      sload\n      swap1\n      0x0100\n      exp\n      swap1\n      div\n      0xffffffffffffffffffffffffffffffffffffffff\n      and\n        /* \"SimpleDEX_flattened.sol\":11182:11198  tokenA.balanceOf */\n      0xffffffffffffffffffffffffffffffffffffffff\n      and\n      0x70a08231\n        /* \"SimpleDEX_flattened.sol\":11207:11211  this */\n      address\n        /* \"SimpleDEX_flattened.sol\":11182:11213  tokenA.balanceOf(address(this)) */\n      mload(0x40)\n      dup3\n      0xffffffff\n      and\n      0xe0\n      shl\n      dup2\n      mstore\n      0x04\n      add\n      tag_55\n      swap2\n      swap1\n      tag_36\n      jump\t// in\n    tag_55:\n      0x20\n      mload(0x40)\n      dup1\n      dup4\n      sub\n      dup2\n      dup7\n      gas\n      staticcall\n      iszero\n      dup1\n      iszero\n      tag_57\n      jumpi\n      returndatasize\n      0x00\n      dup1\n      returndatacopy\n      revert(0x00, returndatasize)\n    tag_57:\n      pop\n      pop\n      pop\n      pop\n      mload(0x40)\n      returndatasize\n      not(0x1f)\n      0x1f\n      dup3\n      add\n      and\n      dup3\n      add\n      dup1\n      0x40\n      mstore\n      pop\n      dup2\n      add\n      swap1\n      tag_58\n      swap2\n      swap1\n      tag_59\n      jump\t// in\n    tag_58:\n        /* \"SimpleDEX_flattened.sol\":11163:11213  uint256 balanceA = tokenA.balanceOf(address(this)) */\n      swap1\n      pop\n        /* \"SimpleDEX_flattened.sol\":11223:11239  uint256 balanceB */\n      0x00\n        /* \"SimpleDEX_flattened.sol\":11242:11248  tokenB */\n      0x02\n      0x00\n      swap1\n      sload\n      swap1\n      0x0100\n      exp\n      swap1\n      div\n      0xffffffffffffffffffffffffffffffffffffffff\n      and\n        /* \"SimpleDEX_flattened.sol\":11242:11258  tokenB.balanceOf */\n      0xffffffffffffffffffffffffffffffffffffffff\n      and\n      0x70a08231\n        /* \"SimpleDEX_flattened.sol\":11267:11271  this */\n      address\n        /* \"SimpleDEX_flattened.sol\":11242:11273  tokenB.balanceOf(address(this)) */\n      mload(0x40)\n      dup3\n      0xffffffff\n      and\n      0xe0\n      shl\n      dup2\n      mstore\n      0x04\n      add\n      tag_60\n      swap2\n      swap1\n      tag_36\n      jump\t// in\n    tag_60:\n      0x20\n      mload(0x40)\n      dup1\n      dup4\n      sub\n      dup2\n      dup7\n      gas\n      staticcall\n      iszero\n      dup1\n      iszero\n      tag_62\n      jumpi\n      returndatasize\n      0x00\n      dup1\n      returndatacopy\n      revert(0x00, returndatasize)\n    tag_62:\n      pop\n      pop\n      pop\n      pop\n      mload(0x40)\n      returndatasize\n      not(0x1f)\n      0x1f\n      dup3\n      add\n      and\n      dup3\n      add\n      dup1\n      0x40\n      mstore\n      pop\n      dup2\n      add\n      swap1\n      tag_63\n      swap2\n      swap1\n      tag_59\n      jump\t// in\n    tag_63:\n        /* \"SimpleDEX_flattened.sol\":11223:11273  uint256 balanceB = tokenB.balanceOf(address(this)) */\n      swap1\n      pop\n        /* \"SimpleDEX_flattened.sol\":11310:11316  tokenA */\n      0x01\n      0x00\n      swap1\n      sload\n      swap1\n      0x0100\n      exp\n      swap1\n      div\n      0xffffffffffffffffffffffffffffffffffffffff\n      and\n        /* \"SimpleDEX_flattened.sol\":11292:11317  _token == address(tokenA) */\n      0xffffffffffffffffffffffffffffffffffffffff\n      and\n        /* \"SimpleDEX_flattened.sol\":11292:11298  _token */\n      dup5\n        /* \"SimpleDEX_flattened.sol\":11292:11317  _token == address(tokenA) */\n      0xffffffffffffffffffffffffffffffffffffffff\n      and\n      eq\n        /* \"SimpleDEX_flattened.sol\":11291:11404  (_token == address(tokenA))... */\n      tag_64\n      jumpi\n        /* \"SimpleDEX_flattened.sol\":11396:11404  balanceB */\n      dup1\n        /* \"SimpleDEX_flattened.sol\":11388:11392  1e18 */\n      0x0de0b6b3a7640000\n        /* \"SimpleDEX_flattened.sol\":11377:11385  balanceA */\n      dup4\n        /* \"SimpleDEX_flattened.sol\":11377:11392  balanceA * 1e18 */\n      tag_65\n      swap2\n      swap1\n      tag_66\n      jump\t// in\n    tag_65:\n        /* \"SimpleDEX_flattened.sol\":11376:11404  (balanceA * 1e18) / balanceB */\n      tag_67\n      swap2\n      swap1\n      tag_68\n      jump\t// in\n    tag_67:\n        /* \"SimpleDEX_flattened.sol\":11291:11404  (_token == address(tokenA))... */\n      jump(tag_69)\n    tag_64:\n        /* \"SimpleDEX_flattened.sol\":11353:11361  balanceA */\n      dup2\n        /* \"SimpleDEX_flattened.sol\":11345:11349  1e18 */\n      0x0de0b6b3a7640000\n        /* \"SimpleDEX_flattened.sol\":11334:11342  balanceB */\n      dup3\n        /* \"SimpleDEX_flattened.sol\":11334:11349  balanceB * 1e18 */\n      tag_70\n      swap2\n      swap1\n      tag_66\n      jump\t// in\n    tag_70:\n        /* \"SimpleDEX_flattened.sol\":11333:11361  (balanceB * 1e18) / balanceA */\n      tag_71\n      swap2\n      swap1\n      tag_68\n      jump\t// in\n    tag_71:\n        /* \"SimpleDEX_flattened.sol\":11291:11404  (_token == address(tokenA))... */\n    tag_69:\n        /* \"SimpleDEX_flattened.sol\":11284:11404  return (_token == address(tokenA))... */\n      swap3\n      pop\n      pop\n      pop\n        /* \"SimpleDEX_flattened.sol\":10996:11411  function getPrice(address _token) external view returns (uint256) {... */\n      swap2\n      swap1\n      pop\n      jump\t// out\n        /* \"SimpleDEX_flattened.sol\":7304:7324  IERC20 public tokenB */\n    tag_25:\n      0x02\n      0x00\n      swap1\n      sload\n      swap1\n      0x0100\n      exp\n      swap1\n      div\n      0xffffffffffffffffffffffffffffffffffffffff\n      and\n      dup2\n      jump\t// out\n        /* \"SimpleDEX_flattened.sol\":6040:6141  function renounceOwnership() public virtual onlyOwner {... */\n    tag_28:\n        /* \"SimpleDEX_flattened.sol\":5278:5291  _checkOwner() */\n      tag_73\n        /* \"SimpleDEX_flattened.sol\":5278:5289  _checkOwner */\n      tag_74\n        /* \"SimpleDEX_flattened.sol\":5278:5291  _checkOwner() */\n      jump\t// in\n    tag_73:\n        /* \"SimpleDEX_flattened.sol\":6104:6134  _transferOwnership(address(0)) */\n      tag_76\n        /* \"SimpleDEX_flattened.sol\":6131:6132  0 */\n      0x00\n        /* \"SimpleDEX_flattened.sol\":6104:6122  _transferOwnership */\n      tag_77\n        /* \"SimpleDEX_flattened.sol\":6104:6134  _transferOwnership(address(0)) */\n      jump\t// in\n    tag_76:\n        /* \"SimpleDEX_flattened.sol\":6040:6141  function renounceOwnership() public virtual onlyOwner {... */\n      jump\t// out\n        /* \"SimpleDEX_flattened.sol\":10316:10799  function swapBforA(uint256 amountBIn) external {... */\n    tag_32:\n        /* \"SimpleDEX_flattened.sol\":10393:10394  0 */\n      0x00\n        /* \"SimpleDEX_flattened.sol\":10381:10390  amountBIn */\n      dup2\n        /* \"SimpleDEX_flattened.sol\":10381:10394  amountBIn > 0 */\n      gt\n        /* \"SimpleDEX_flattened.sol\":10373:10417  require(amountBIn > 0, \"Amount must be > 0\") */\n      tag_79\n      jumpi\n      mload(0x40)\n      0x08c379a000000000000000000000000000000000000000000000000000000000\n      dup2\n      mstore\n      0x04\n      add\n      tag_80\n      swap1\n      tag_81\n      jump\t// in\n    tag_80:\n      mload(0x40)\n      dup1\n      swap2\n      sub\n      swap1\n      revert\n    tag_79:\n        /* \"SimpleDEX_flattened.sol\":10428:10444  uint256 balanceA */\n      0x00\n        /* \"SimpleDEX_flattened.sol\":10447:10453  tokenA */\n      0x01\n      0x00\n      swap1\n      sload\n      swap1\n      0x0100\n      exp\n      swap1\n      div\n      0xffffffffffffffffffffffffffffffffffffffff\n      and\n        /* \"SimpleDEX_flattened.sol\":10447:10463  tokenA.balanceOf */\n      0xffffffffffffffffffffffffffffffffffffffff\n      and\n      0x70a08231\n        /* \"SimpleDEX_flattened.sol\":10472:10476  this */\n      address\n        /* \"SimpleDEX_flattened.sol\":10447:10478  tokenA.balanceOf(address(this)) */\n      mload(0x40)\n      dup3\n      0xffffffff\n      and\n      0xe0\n      shl\n      dup2\n      mstore\n      0x04\n      add\n      tag_82\n      swap2\n      swap1\n      tag_36\n      jump\t// in\n    tag_82:\n      0x20\n      mload(0x40)\n      dup1\n      dup4\n      sub\n      dup2\n      dup7\n      gas\n      staticcall\n      iszero\n      dup1\n      iszero\n      tag_84\n      jumpi\n      returndatasize\n      0x00\n      dup1\n      returndatacopy\n      revert(0x00, returndatasize)\n    tag_84:\n      pop\n      pop\n      pop\n      pop\n      mload(0x40)\n      returndatasize\n      not(0x1f)\n      0x1f\n      dup3\n      add\n      and\n      dup3\n      add\n      dup1\n      0x40\n      mstore\n      pop\n      dup2\n      add\n      swap1\n      tag_85\n      swap2\n      swap1\n      tag_59\n      jump\t// in\n    tag_85:\n        /* \"SimpleDEX_flattened.sol\":10428:10478  uint256 balanceA = tokenA.balanceOf(address(this)) */\n      swap1\n      pop\n        /* \"SimpleDEX_flattened.sol\":10488:10504  uint256 balanceB */\n      0x00\n        /* \"SimpleDEX_flattened.sol\":10507:10513  tokenB */\n      0x02\n      0x00\n      swap1\n      sload\n      swap1\n      0x0100\n      exp\n      swap1\n      div\n      0xffffffffffffffffffffffffffffffffffffffff\n      and\n        /* \"SimpleDEX_flattened.sol\":10507:10523  tokenB.balanceOf */\n      0xffffffffffffffffffffffffffffffffffffffff\n      and\n      0x70a08231\n        /* \"SimpleDEX_flattened.sol\":10532:10536  this */\n      address\n        /* \"SimpleDEX_flattened.sol\":10507:10538  tokenB.balanceOf(address(this)) */\n      mload(0x40)\n      dup3\n      0xffffffff\n      and\n      0xe0\n      shl\n      dup2\n      mstore\n      0x04\n      add\n      tag_86\n      swap2\n      swap1\n      tag_36\n      jump\t// in\n    tag_86:\n      0x20\n      mload(0x40)\n      dup1\n      dup4\n      sub\n      dup2\n      dup7\n      gas\n      staticcall\n      iszero\n      dup1\n      iszero\n      tag_88\n      jumpi\n      returndatasize\n      0x00\n      dup1\n      returndatacopy\n      revert(0x00, returndatasize)\n    tag_88:\n      pop\n      pop\n      pop\n      pop\n      mload(0x40)\n      returndatasize\n      not(0x1f)\n      0x1f\n      dup3\n      add\n      and\n      dup3\n      add\n      dup1\n      0x40\n      mstore\n      pop\n      dup2\n      add\n      swap1\n      tag_89\n      swap2\n      swap1\n      tag_59\n      jump\t// in\n    tag_89:\n        /* \"SimpleDEX_flattened.sol\":10488:10538  uint256 balanceB = tokenB.balanceOf(address(this)) */\n      swap1\n      pop\n        /* \"SimpleDEX_flattened.sol\":10548:10566  uint256 amountAOut */\n      0x00\n        /* \"SimpleDEX_flattened.sol\":10569:10612  getAmountOut(amountBIn, balanceB, balanceA) */\n      tag_90\n        /* \"SimpleDEX_flattened.sol\":10582:10591  amountBIn */\n      dup5\n        /* \"SimpleDEX_flattened.sol\":10593:10601  balanceB */\n      dup4\n        /* \"SimpleDEX_flattened.sol\":10603:10611  balanceA */\n      dup6\n        /* \"SimpleDEX_flattened.sol\":10569:10581  getAmountOut */\n      tag_91\n        /* \"SimpleDEX_flattened.sol\":10569:10612  getAmountOut(amountBIn, balanceB, balanceA) */\n      jump\t// in\n    tag_90:\n        /* \"SimpleDEX_flattened.sol\":10548:10612  uint256 amountAOut = getAmountOut(amountBIn, balanceB, balanceA) */\n      swap1\n      pop\n        /* \"SimpleDEX_flattened.sol\":10623:10629  tokenB */\n      0x02\n      0x00\n      swap1\n      sload\n      swap1\n      0x0100\n      exp\n      swap1\n      div\n      0xffffffffffffffffffffffffffffffffffffffff\n      and\n        /* \"SimpleDEX_flattened.sol\":10623:10642  tokenB.transferFrom */\n      0xffffffffffffffffffffffffffffffffffffffff\n      and\n      0x23b872dd\n        /* \"SimpleDEX_flattened.sol\":10643:10653  msg.sender */\n      caller\n        /* \"SimpleDEX_flattened.sol\":10663:10667  this */\n      address\n        /* \"SimpleDEX_flattened.sol\":10670:10679  amountBIn */\n      dup8\n        /* \"SimpleDEX_flattened.sol\":10623:10680  tokenB.transferFrom(msg.sender, address(this), amountBIn) */\n      mload(0x40)\n      dup5\n      0xffffffff\n      and\n      0xe0\n      shl\n      dup2\n      mstore\n      0x04\n      add\n      tag_92\n      swap4\n      swap3\n      swap2\n      swap1\n      tag_93\n      jump\t// in\n    tag_92:\n      0x20\n      mload(0x40)\n      dup1\n      dup4\n      sub\n      dup2\n      0x00\n      dup8\n      gas\n      call\n      iszero\n      dup1\n      iszero\n      tag_95\n      jumpi\n      returndatasize\n      0x00\n      dup1\n      returndatacopy\n      revert(0x00, returndatasize)\n    tag_95:\n      pop\n      pop\n      pop\n      pop\n      mload(0x40)\n      returndatasize\n      not(0x1f)\n      0x1f\n      dup3\n      add\n      and\n      dup3\n      add\n      dup1\n      0x40\n      mstore\n      pop\n      dup2\n      add\n      swap1\n      tag_96\n      swap2\n      swap1\n      tag_97\n      jump\t// in\n    tag_96:\n      pop\n        /* \"SimpleDEX_flattened.sol\":10690:10696  tokenA */\n      0x01\n      0x00\n      swap1\n      sload\n      swap1\n      0x0100\n      exp\n      swap1\n      div\n      0xffffffffffffffffffffffffffffffffffffffff\n      and\n        /* \"SimpleDEX_flattened.sol\":10690:10705  tokenA.transfer */\n      0xffffffffffffffffffffffffffffffffffffffff\n      and\n      0xa9059cbb\n        /* \"SimpleDEX_flattened.sol\":10706:10716  msg.sender */\n      caller\n        /* \"SimpleDEX_flattened.sol\":10718:10728  amountAOut */\n      dup4\n        /* \"SimpleDEX_flattened.sol\":10690:10729  tokenA.transfer(msg.sender, amountAOut) */\n      mload(0x40)\n      dup4\n      0xffffffff\n      and\n      0xe0\n      shl\n      dup2\n      mstore\n      0x04\n      add\n      tag_98\n      swap3\n      swap2\n      swap1\n      tag_99\n      jump\t// in\n    tag_98:\n      0x20\n      mload(0x40)\n      dup1\n      dup4\n      sub\n      dup2\n      0x00\n      dup8\n      gas\n      call\n      iszero\n      dup1\n      iszero\n      tag_101\n      jumpi\n      returndatasize\n      0x00\n      dup1\n      returndatacopy\n      revert(0x00, returndatasize)\n    tag_101:\n      pop\n      pop\n      pop\n      pop\n      mload(0x40)\n      returndatasize\n      not(0x1f)\n      0x1f\n      dup3\n      add\n      and\n      dup3\n      add\n      dup1\n      0x40\n      mstore\n      pop\n      dup2\n      add\n      swap1\n      tag_102\n      swap2\n      swap1\n      tag_97\n      jump\t// in\n    tag_102:\n      pop\n        /* \"SimpleDEX_flattened.sol\":10758:10768  msg.sender */\n      caller\n        /* \"SimpleDEX_flattened.sol\":10745:10792  TokenSwapped(msg.sender, amountBIn, amountAOut) */\n      0xffffffffffffffffffffffffffffffffffffffff\n      and\n      0xd5a1cd88ddd329cc1ddf861a21708efa9ef3136b88e1420c21f91ef6f95ad024\n        /* \"SimpleDEX_flattened.sol\":10770:10779  amountBIn */\n      dup6\n        /* \"SimpleDEX_flattened.sol\":10781:10791  amountAOut */\n      dup4\n        /* \"SimpleDEX_flattened.sol\":10745:10792  TokenSwapped(msg.sender, amountBIn, amountAOut) */\n      mload(0x40)\n      tag_103\n      swap3\n      swap2\n      swap1\n      tag_104\n      jump\t// in\n    tag_103:\n      mload(0x40)\n      dup1\n      swap2\n      sub\n      swap1\n      log2\n        /* \"SimpleDEX_flattened.sol\":10363:10799  {... */\n      pop\n      pop\n      pop\n        /* \"SimpleDEX_flattened.sol\":10316:10799  function swapBforA(uint256 amountBIn) external {... */\n      pop\n      jump\t// out\n        /* \"SimpleDEX_flattened.sol\":5385:5470  function owner() public view virtual returns (address) {... */\n    tag_34:\n        /* \"SimpleDEX_flattened.sol\":5431:5438  address */\n      0x00\n        /* \"SimpleDEX_flattened.sol\":5457:5463  _owner */\n      dup1\n      0x00\n      swap1\n      sload\n      swap1\n      0x0100\n      exp\n      swap1\n      div\n      0xffffffffffffffffffffffffffffffffffffffff\n      and\n        /* \"SimpleDEX_flattened.sol\":5450:5463  return _owner */\n      swap1\n      pop\n        /* \"SimpleDEX_flattened.sol\":5385:5470  function owner() public view virtual returns (address) {... */\n      swap1\n      jump\t// out\n        /* \"SimpleDEX_flattened.sol\":8610:8938  function addLiquidity(uint256 amountA, uint256 amountB) external onlyOwner {... */\n    tag_40:\n        /* \"SimpleDEX_flattened.sol\":5278:5291  _checkOwner() */\n      tag_107\n        /* \"SimpleDEX_flattened.sol\":5278:5289  _checkOwner */\n      tag_74\n        /* \"SimpleDEX_flattened.sol\":5278:5291  _checkOwner() */\n      jump\t// in\n    tag_107:\n        /* \"SimpleDEX_flattened.sol\":8713:8714  0 */\n      0x00\n        /* \"SimpleDEX_flattened.sol\":8703:8710  amountA */\n      dup3\n        /* \"SimpleDEX_flattened.sol\":8703:8714  amountA > 0 */\n      gt\n        /* \"SimpleDEX_flattened.sol\":8703:8729  amountA > 0 && amountB > 0 */\n      dup1\n      iszero\n      tag_109\n      jumpi\n      pop\n        /* \"SimpleDEX_flattened.sol\":8728:8729  0 */\n      0x00\n        /* \"SimpleDEX_flattened.sol\":8718:8725  amountB */\n      dup2\n        /* \"SimpleDEX_flattened.sol\":8718:8729  amountB > 0 */\n      gt\n        /* \"SimpleDEX_flattened.sol\":8703:8729  amountA > 0 && amountB > 0 */\n    tag_109:\n        /* \"SimpleDEX_flattened.sol\":8695:8753  require(amountA > 0 && amountB > 0, \"Amounts must be > 0\") */\n      tag_110\n      jumpi\n      mload(0x40)\n      0x08c379a000000000000000000000000000000000000000000000000000000000\n      dup2\n      mstore\n      0x04\n      add\n      tag_111\n      swap1\n      tag_112\n      jump\t// in\n    tag_111:\n      mload(0x40)\n      dup1\n      swap2\n      sub\n      swap1\n      revert\n    tag_110:\n        /* \"SimpleDEX_flattened.sol\":8763:8769  tokenA */\n      0x01\n      0x00\n      swap1\n      sload\n      swap1\n      0x0100\n      exp\n      swap1\n      div\n      0xffffffffffffffffffffffffffffffffffffffff\n      and\n        /* \"SimpleDEX_flattened.sol\":8763:8782  tokenA.transferFrom */\n      0xffffffffffffffffffffffffffffffffffffffff\n      and\n      0x23b872dd\n        /* \"SimpleDEX_flattened.sol\":8783:8793  msg.sender */\n      caller\n        /* \"SimpleDEX_flattened.sol\":8803:8807  this */\n      address\n        /* \"SimpleDEX_flattened.sol\":8810:8817  amountA */\n      dup6\n        /* \"SimpleDEX_flattened.sol\":8763:8818  tokenA.transferFrom(msg.sender, address(this), amountA) */\n      mload(0x40)\n      dup5\n      0xffffffff\n      and\n      0xe0\n      shl\n      dup2\n      mstore\n      0x04\n      add\n      tag_113\n      swap4\n      swap3\n      swap2\n      swap1\n      tag_93\n      jump\t// in\n    tag_113:\n      0x20\n      mload(0x40)\n      dup1\n      dup4\n      sub\n      dup2\n      0x00\n      dup8\n      gas\n      call\n      iszero\n      dup1\n      iszero\n      tag_115\n      jumpi\n      returndatasize\n      0x00\n      dup1\n      returndatacopy\n      revert(0x00, returndatasize)\n    tag_115:\n      pop\n      pop\n      pop\n      pop\n      mload(0x40)\n      returndatasize\n      not(0x1f)\n      0x1f\n      dup3\n      add\n      and\n      dup3\n      add\n      dup1\n      0x40\n      mstore\n      pop\n      dup2\n      add\n      swap1\n      tag_116\n      swap2\n      swap1\n      tag_97\n      jump\t// in\n    tag_116:\n      pop\n        /* \"SimpleDEX_flattened.sol\":8828:8834  tokenB */\n      0x02\n      0x00\n      swap1\n      sload\n      swap1\n      0x0100\n      exp\n      swap1\n      div\n      0xffffffffffffffffffffffffffffffffffffffff\n      and\n        /* \"SimpleDEX_flattened.sol\":8828:8847  tokenB.transferFrom */\n      0xffffffffffffffffffffffffffffffffffffffff\n      and\n      0x23b872dd\n        /* \"SimpleDEX_flattened.sol\":8848:8858  msg.sender */\n      caller\n        /* \"SimpleDEX_flattened.sol\":8868:8872  this */\n      address\n        /* \"SimpleDEX_flattened.sol\":8875:8882  amountB */\n      dup5\n        /* \"SimpleDEX_flattened.sol\":8828:8883  tokenB.transferFrom(msg.sender, address(this), amountB) */\n      mload(0x40)\n      dup5\n      0xffffffff\n      and\n      0xe0\n      shl\n      dup2\n      mstore\n      0x04\n      add\n      tag_117\n      swap4\n      swap3\n      swap2\n      swap1\n      tag_93\n      jump\t// in\n    tag_117:\n      0x20\n      mload(0x40)\n      dup1\n      dup4\n      sub\n      dup2\n      0x00\n      dup8\n      gas\n      call\n      iszero\n      dup1\n      iszero\n      tag_119\n      jumpi\n      returndatasize\n      0x00\n      dup1\n      returndatacopy\n      revert(0x00, returndatasize)\n    tag_119:\n      pop\n      pop\n      pop\n      pop\n      mload(0x40)\n      returndatasize\n      not(0x1f)\n      0x1f\n      dup3\n      add\n      and\n      dup3\n      add\n      dup1\n      0x40\n      mstore\n      pop\n      dup2\n      add\n      swap1\n      tag_120\n      swap2\n      swap1\n      tag_97\n      jump\t// in\n    tag_120:\n      pop\n        /* \"SimpleDEX_flattened.sol\":8899:8931  LiquidityAdded(amountA, amountB) */\n      0x38f8a0c92f4c5b0b6877f878cb4c0c8d348a47b76d716c8e78f425043df9515b\n        /* \"SimpleDEX_flattened.sol\":8914:8921  amountA */\n      dup3\n        /* \"SimpleDEX_flattened.sol\":8923:8930  amountB */\n      dup3\n        /* \"SimpleDEX_flattened.sol\":8899:8931  LiquidityAdded(amountA, amountB) */\n      mload(0x40)\n      tag_121\n      swap3\n      swap2\n      swap1\n      tag_104\n      jump\t// in\n    tag_121:\n      mload(0x40)\n      dup1\n      swap2\n      sub\n      swap1\n      log1\n        /* \"SimpleDEX_flattened.sol\":8610:8938  function addLiquidity(uint256 amountA, uint256 amountB) external onlyOwner {... */\n      pop\n      pop\n      jump\t// out\n        /* \"SimpleDEX_flattened.sol\":9158:9593  function removeLiquidity(uint256 amountA, uint256 amountB) external onlyOwner {... */\n    tag_43:\n        /* \"SimpleDEX_flattened.sol\":5278:5291  _checkOwner() */\n      tag_123\n        /* \"SimpleDEX_flattened.sol\":5278:5289  _checkOwner */\n      tag_74\n        /* \"SimpleDEX_flattened.sol\":5278:5291  _checkOwner() */\n      jump\t// in\n    tag_123:\n        /* \"SimpleDEX_flattened.sol\":9246:9262  uint256 balanceA */\n      0x00\n        /* \"SimpleDEX_flattened.sol\":9265:9271  tokenA */\n      0x01\n      0x00\n      swap1\n      sload\n      swap1\n      0x0100\n      exp\n      swap1\n      div\n      0xffffffffffffffffffffffffffffffffffffffff\n      and\n        /* \"SimpleDEX_flattened.sol\":9265:9281  tokenA.balanceOf */\n      0xffffffffffffffffffffffffffffffffffffffff\n      and\n      0x70a08231\n        /* \"SimpleDEX_flattened.sol\":9290:9294  this */\n      address\n        /* \"SimpleDEX_flattened.sol\":9265:9296  tokenA.balanceOf(address(this)) */\n      mload(0x40)\n      dup3\n      0xffffffff\n      and\n      0xe0\n      shl\n      dup2\n      mstore\n      0x04\n      add\n      tag_125\n      swap2\n      swap1\n      tag_36\n      jump\t// in\n    tag_125:\n      0x20\n      mload(0x40)\n      dup1\n      dup4\n      sub\n      dup2\n      dup7\n      gas\n      staticcall\n      iszero\n      dup1\n      iszero\n      tag_127\n      jumpi\n      returndatasize\n      0x00\n      dup1\n      returndatacopy\n      revert(0x00, returndatasize)\n    tag_127:\n      pop\n      pop\n      pop\n      pop\n      mload(0x40)\n      returndatasize\n      not(0x1f)\n      0x1f\n      dup3\n      add\n      and\n      dup3\n      add\n      dup1\n      0x40\n      mstore\n      pop\n      dup2\n      add\n      swap1\n      tag_128\n      swap2\n      swap1\n      tag_59\n      jump\t// in\n    tag_128:\n        /* \"SimpleDEX_flattened.sol\":9246:9296  uint256 balanceA = tokenA.balanceOf(address(this)) */\n      swap1\n      pop\n        /* \"SimpleDEX_flattened.sol\":9306:9322  uint256 balanceB */\n      0x00\n        /* \"SimpleDEX_flattened.sol\":9325:9331  tokenB */\n      0x02\n      0x00\n      swap1\n      sload\n      swap1\n      0x0100\n      exp\n      swap1\n      div\n      0xffffffffffffffffffffffffffffffffffffffff\n      and\n        /* \"SimpleDEX_flattened.sol\":9325:9341  tokenB.balanceOf */\n      0xffffffffffffffffffffffffffffffffffffffff\n      and\n      0x70a08231\n        /* \"SimpleDEX_flattened.sol\":9350:9354  this */\n      address\n        /* \"SimpleDEX_flattened.sol\":9325:9356  tokenB.balanceOf(address(this)) */\n      mload(0x40)\n      dup3\n      0xffffffff\n      and\n      0xe0\n      shl\n      dup2\n      mstore\n      0x04\n      add\n      tag_129\n      swap2\n      swap1\n      tag_36\n      jump\t// in\n    tag_129:\n      0x20\n      mload(0x40)\n      dup1\n      dup4\n      sub\n      dup2\n      dup7\n      gas\n      staticcall\n      iszero\n      dup1\n      iszero\n      tag_131\n      jumpi\n      returndatasize\n      0x00\n      dup1\n      returndatacopy\n      revert(0x00, returndatasize)\n    tag_131:\n      pop\n      pop\n      pop\n      pop\n      mload(0x40)\n      returndatasize\n      not(0x1f)\n      0x1f\n      dup3\n      add\n      and\n      dup3\n      add\n      dup1\n      0x40\n      mstore\n      pop\n      dup2\n      add\n      swap1\n      tag_132\n      swap2\n      swap1\n      tag_59\n      jump\t// in\n    tag_132:\n        /* \"SimpleDEX_flattened.sol\":9306:9356  uint256 balanceB = tokenB.balanceOf(address(this)) */\n      swap1\n      pop\n        /* \"SimpleDEX_flattened.sol\":9394:9402  balanceA */\n      dup2\n        /* \"SimpleDEX_flattened.sol\":9383:9390  amountA */\n      dup5\n        /* \"SimpleDEX_flattened.sol\":9383:9402  amountA <= balanceA */\n      gt\n      iszero\n        /* \"SimpleDEX_flattened.sol\":9383:9425  amountA <= balanceA && amountB <= balanceB */\n      dup1\n      iszero\n      tag_133\n      jumpi\n      pop\n        /* \"SimpleDEX_flattened.sol\":9417:9425  balanceB */\n      dup1\n        /* \"SimpleDEX_flattened.sol\":9406:9413  amountB */\n      dup4\n        /* \"SimpleDEX_flattened.sol\":9406:9425  amountB <= balanceB */\n      gt\n      iszero\n        /* \"SimpleDEX_flattened.sol\":9383:9425  amountA <= balanceA && amountB <= balanceB */\n    tag_133:\n        /* \"SimpleDEX_flattened.sol\":9375:9443  require(amountA <= balanceA && amountB <= balanceB, \"Low liquidity\") */\n      tag_134\n      jumpi\n      mload(0x40)\n      0x08c379a000000000000000000000000000000000000000000000000000000000\n      dup2\n      mstore\n      0x04\n      add\n      tag_135\n      swap1\n      tag_136\n      jump\t// in\n    tag_135:\n      mload(0x40)\n      dup1\n      swap2\n      sub\n      swap1\n      revert\n    tag_134:\n        /* \"SimpleDEX_flattened.sol\":9454:9460  tokenA */\n      0x01\n      0x00\n      swap1\n      sload\n      swap1\n      0x0100\n      exp\n      swap1\n      div\n      0xffffffffffffffffffffffffffffffffffffffff\n      and\n        /* \"SimpleDEX_flattened.sol\":9454:9469  tokenA.transfer */\n      0xffffffffffffffffffffffffffffffffffffffff\n      and\n      0xa9059cbb\n        /* \"SimpleDEX_flattened.sol\":9470:9480  msg.sender */\n      caller\n        /* \"SimpleDEX_flattened.sol\":9482:9489  amountA */\n      dup7\n        /* \"SimpleDEX_flattened.sol\":9454:9490  tokenA.transfer(msg.sender, amountA) */\n      mload(0x40)\n      dup4\n      0xffffffff\n      and\n      0xe0\n      shl\n      dup2\n      mstore\n      0x04\n      add\n      tag_137\n      swap3\n      swap2\n      swap1\n      tag_99\n      jump\t// in\n    tag_137:\n      0x20\n      mload(0x40)\n      dup1\n      dup4\n      sub\n      dup2\n      0x00\n      dup8\n      gas\n      call\n      iszero\n      dup1\n      iszero\n      tag_139\n      jumpi\n      returndatasize\n      0x00\n      dup1\n      returndatacopy\n      revert(0x00, returndatasize)\n    tag_139:\n      pop\n      pop\n      pop\n      pop\n      mload(0x40)\n      returndatasize\n      not(0x1f)\n      0x1f\n      dup3\n      add\n      and\n      dup3\n      add\n      dup1\n      0x40\n      mstore\n      pop\n      dup2\n      add\n      swap1\n      tag_140\n      swap2\n      swap1\n      tag_97\n      jump\t// in\n    tag_140:\n      pop\n        /* \"SimpleDEX_flattened.sol\":9500:9506  tokenB */\n      0x02\n      0x00\n      swap1\n      sload\n      swap1\n      0x0100\n      exp\n      swap1\n      div\n      0xffffffffffffffffffffffffffffffffffffffff\n      and\n        /* \"SimpleDEX_flattened.sol\":9500:9515  tokenB.transfer */\n      0xffffffffffffffffffffffffffffffffffffffff\n      and\n      0xa9059cbb\n        /* \"SimpleDEX_flattened.sol\":9516:9526  msg.sender */\n      caller\n        /* \"SimpleDEX_flattened.sol\":9528:9535  amountB */\n      dup6\n        /* \"SimpleDEX_flattened.sol\":9500:9536  tokenB.transfer(msg.sender, amountB) */\n      mload(0x40)\n      dup4\n      0xffffffff\n      and\n      0xe0\n      shl\n      dup2\n      mstore\n      0x04\n      add\n      tag_141\n      swap3\n      swap2\n      swap1\n      tag_99\n      jump\t// in\n    tag_141:\n      0x20\n      mload(0x40)\n      dup1\n      dup4\n      sub\n      dup2\n      0x00\n      dup8\n      gas\n      call\n      iszero\n      dup1\n      iszero\n      tag_143\n      jumpi\n      returndatasize\n      0x00\n      dup1\n      returndatacopy\n      revert(0x00, returndatasize)\n    tag_143:\n      pop\n      pop\n      pop\n      pop\n      mload(0x40)\n      returndatasize\n      not(0x1f)\n      0x1f\n      dup3\n      add\n      and\n      dup3\n      add\n      dup1\n      0x40\n      mstore\n      pop\n      dup2\n      add\n      swap1\n      tag_144\n      swap2\n      swap1\n      tag_97\n      jump\t// in\n    tag_144:\n      pop\n        /* \"SimpleDEX_flattened.sol\":9552:9586  LiquidityRemoved(amountA, amountB) */\n      0x6f0f96292ae0038c04f9b6bab30f185d9ca02c471d0983f563f2a4f674aef137\n        /* \"SimpleDEX_flattened.sol\":9569:9576  amountA */\n      dup5\n        /* \"SimpleDEX_flattened.sol\":9578:9585  amountB */\n      dup5\n        /* \"SimpleDEX_flattened.sol\":9552:9586  LiquidityRemoved(amountA, amountB) */\n      mload(0x40)\n      tag_145\n      swap3\n      swap2\n      swap1\n      tag_104\n      jump\t// in\n    tag_145:\n      mload(0x40)\n      dup1\n      swap2\n      sub\n      swap1\n      log1\n        /* \"SimpleDEX_flattened.sol\":9236:9593  {... */\n      pop\n      pop\n        /* \"SimpleDEX_flattened.sol\":9158:9593  function removeLiquidity(uint256 amountA, uint256 amountB) external onlyOwner {... */\n      pop\n      pop\n      jump\t// out\n        /* \"SimpleDEX_flattened.sol\":9713:10196  function swapAforB(uint256 amountAIn) external {... */\n    tag_46:\n        /* \"SimpleDEX_flattened.sol\":9790:9791  0 */\n      0x00\n        /* \"SimpleDEX_flattened.sol\":9778:9787  amountAIn */\n      dup2\n        /* \"SimpleDEX_flattened.sol\":9778:9791  amountAIn > 0 */\n      gt\n        /* \"SimpleDEX_flattened.sol\":9770:9814  require(amountAIn > 0, \"Amount must be > 0\") */\n      tag_147\n      jumpi\n      mload(0x40)\n      0x08c379a000000000000000000000000000000000000000000000000000000000\n      dup2\n      mstore\n      0x04\n      add\n      tag_148\n      swap1\n      tag_81\n      jump\t// in\n    tag_148:\n      mload(0x40)\n      dup1\n      swap2\n      sub\n      swap1\n      revert\n    tag_147:\n        /* \"SimpleDEX_flattened.sol\":9825:9841  uint256 balanceA */\n      0x00\n        /* \"SimpleDEX_flattened.sol\":9844:9850  tokenA */\n      0x01\n      0x00\n      swap1\n      sload\n      swap1\n      0x0100\n      exp\n      swap1\n      div\n      0xffffffffffffffffffffffffffffffffffffffff\n      and\n        /* \"SimpleDEX_flattened.sol\":9844:9860  tokenA.balanceOf */\n      0xffffffffffffffffffffffffffffffffffffffff\n      and\n      0x70a08231\n        /* \"SimpleDEX_flattened.sol\":9869:9873  this */\n      address\n        /* \"SimpleDEX_flattened.sol\":9844:9875  tokenA.balanceOf(address(this)) */\n      mload(0x40)\n      dup3\n      0xffffffff\n      and\n      0xe0\n      shl\n      dup2\n      mstore\n      0x04\n      add\n      tag_149\n      swap2\n      swap1\n      tag_36\n      jump\t// in\n    tag_149:\n      0x20\n      mload(0x40)\n      dup1\n      dup4\n      sub\n      dup2\n      dup7\n      gas\n      staticcall\n      iszero\n      dup1\n      iszero\n      tag_151\n      jumpi\n      returndatasize\n      0x00\n      dup1\n      returndatacopy\n      revert(0x00, returndatasize)\n    tag_151:\n      pop\n      pop\n      pop\n      pop\n      mload(0x40)\n      returndatasize\n      not(0x1f)\n      0x1f\n      dup3\n      add\n      and\n      dup3\n      add\n      dup1\n      0x40\n      mstore\n      pop\n      dup2\n      add\n      swap1\n      tag_152\n      swap2\n      swap1\n      tag_59\n      jump\t// in\n    tag_152:\n        /* \"SimpleDEX_flattened.sol\":9825:9875  uint256 balanceA = tokenA.balanceOf(address(this)) */\n      swap1\n      pop\n        /* \"SimpleDEX_flattened.sol\":9885:9901  uint256 balanceB */\n      0x00\n        /* \"SimpleDEX_flattened.sol\":9904:9910  tokenB */\n      0x02\n      0x00\n      swap1\n      sload\n      swap1\n      0x0100\n      exp\n      swap1\n      div\n      0xffffffffffffffffffffffffffffffffffffffff\n      and\n        /* \"SimpleDEX_flattened.sol\":9904:9920  tokenB.balanceOf */\n      0xffffffffffffffffffffffffffffffffffffffff\n      and\n      0x70a08231\n        /* \"SimpleDEX_flattened.sol\":9929:9933  this */\n      address\n        /* \"SimpleDEX_flattened.sol\":9904:9935  tokenB.balanceOf(address(this)) */\n      mload(0x40)\n      dup3\n      0xffffffff\n      and\n      0xe0\n      shl\n      dup2\n      mstore\n      0x04\n      add\n      tag_153\n      swap2\n      swap1\n      tag_36\n      jump\t// in\n    tag_153:\n      0x20\n      mload(0x40)\n      dup1\n      dup4\n      sub\n      dup2\n      dup7\n      gas\n      staticcall\n      iszero\n      dup1\n      iszero\n      tag_155\n      jumpi\n      returndatasize\n      0x00\n      dup1\n      returndatacopy\n      revert(0x00, returndatasize)\n    tag_155:\n      pop\n      pop\n      pop\n      pop\n      mload(0x40)\n      returndatasize\n      not(0x1f)\n      0x1f\n      dup3\n      add\n      and\n      dup3\n      add\n      dup1\n      0x40\n      mstore\n      pop\n      dup2\n      add\n      swap1\n      tag_156\n      swap2\n      swap1\n      tag_59\n      jump\t// in\n    tag_156:\n        /* \"SimpleDEX_flattened.sol\":9885:9935  uint256 balanceB = tokenB.balanceOf(address(this)) */\n      swap1\n      pop\n        /* \"SimpleDEX_flattened.sol\":9945:9963  uint256 amountBOut */\n      0x00\n        /* \"SimpleDEX_flattened.sol\":9966:10009  getAmountOut(amountAIn, balanceA, balanceB) */\n      tag_157\n        /* \"SimpleDEX_flattened.sol\":9979:9988  amountAIn */\n      dup5\n        /* \"SimpleDEX_flattened.sol\":9990:9998  balanceA */\n      dup5\n        /* \"SimpleDEX_flattened.sol\":10000:10008  balanceB */\n      dup5\n        /* \"SimpleDEX_flattened.sol\":9966:9978  getAmountOut */\n      tag_91\n        /* \"SimpleDEX_flattened.sol\":9966:10009  getAmountOut(amountAIn, balanceA, balanceB) */\n      jump\t// in\n    tag_157:\n        /* \"SimpleDEX_flattened.sol\":9945:10009  uint256 amountBOut = getAmountOut(amountAIn, balanceA, balanceB) */\n      swap1\n      pop\n        /* \"SimpleDEX_flattened.sol\":10020:10026  tokenA */\n      0x01\n      0x00\n      swap1\n      sload\n      swap1\n      0x0100\n      exp\n      swap1\n      div\n      0xffffffffffffffffffffffffffffffffffffffff\n      and\n        /* \"SimpleDEX_flattened.sol\":10020:10039  tokenA.transferFrom */\n      0xffffffffffffffffffffffffffffffffffffffff\n      and\n      0x23b872dd\n        /* \"SimpleDEX_flattened.sol\":10040:10050  msg.sender */\n      caller\n        /* \"SimpleDEX_flattened.sol\":10060:10064  this */\n      address\n        /* \"SimpleDEX_flattened.sol\":10067:10076  amountAIn */\n      dup8\n        /* \"SimpleDEX_flattened.sol\":10020:10077  tokenA.transferFrom(msg.sender, address(this), amountAIn) */\n      mload(0x40)\n      dup5\n      0xffffffff\n      and\n      0xe0\n      shl\n      dup2\n      mstore\n      0x04\n      add\n      tag_158\n      swap4\n      swap3\n      swap2\n      swap1\n      tag_93\n      jump\t// in\n    tag_158:\n      0x20\n      mload(0x40)\n      dup1\n      dup4\n      sub\n      dup2\n      0x00\n      dup8\n      gas\n      call\n      iszero\n      dup1\n      iszero\n      tag_160\n      jumpi\n      returndatasize\n      0x00\n      dup1\n      returndatacopy\n      revert(0x00, returndatasize)\n    tag_160:\n      pop\n      pop\n      pop\n      pop\n      mload(0x40)\n      returndatasize\n      not(0x1f)\n      0x1f\n      dup3\n      add\n      and\n      dup3\n      add\n      dup1\n      0x40\n      mstore\n      pop\n      dup2\n      add\n      swap1\n      tag_161\n      swap2\n      swap1\n      tag_97\n      jump\t// in\n    tag_161:\n      pop\n        /* \"SimpleDEX_flattened.sol\":10087:10093  tokenB */\n      0x02\n      0x00\n      swap1\n      sload\n      swap1\n      0x0100\n      exp\n      swap1\n      div\n      0xffffffffffffffffffffffffffffffffffffffff\n      and\n        /* \"SimpleDEX_flattened.sol\":10087:10102  tokenB.transfer */\n      0xffffffffffffffffffffffffffffffffffffffff\n      and\n      0xa9059cbb\n        /* \"SimpleDEX_flattened.sol\":10103:10113  msg.sender */\n      caller\n        /* \"SimpleDEX_flattened.sol\":10115:10125  amountBOut */\n      dup4\n        /* \"SimpleDEX_flattened.sol\":10087:10126  tokenB.transfer(msg.sender, amountBOut) */\n      mload(0x40)\n      dup4\n      0xffffffff\n      and\n      0xe0\n      shl\n      dup2\n      mstore\n      0x04\n      add\n      tag_162\n      swap3\n      swap2\n      swap1\n      tag_99\n      jump\t// in\n    tag_162:\n      0x20\n      mload(0x40)\n      dup1\n      dup4\n      sub\n      dup2\n      0x00\n      dup8\n      gas\n      call\n      iszero\n      dup1\n      iszero\n      tag_164\n      jumpi\n      returndatasize\n      0x00\n      dup1\n      returndatacopy\n      revert(0x00, returndatasize)\n    tag_164:\n      pop\n      pop\n      pop\n      pop\n      mload(0x40)\n      returndatasize\n      not(0x1f)\n      0x1f\n      dup3\n      add\n      and\n      dup3\n      add\n      dup1\n      0x40\n      mstore\n      pop\n      dup2\n      add\n      swap1\n      tag_165\n      swap2\n      swap1\n      tag_97\n      jump\t// in\n    tag_165:\n      pop\n        /* \"SimpleDEX_flattened.sol\":10155:10165  msg.sender */\n      caller\n        /* \"SimpleDEX_flattened.sol\":10142:10189  TokenSwapped(msg.sender, amountAIn, amountBOut) */\n      0xffffffffffffffffffffffffffffffffffffffff\n      and\n      0xd5a1cd88ddd329cc1ddf861a21708efa9ef3136b88e1420c21f91ef6f95ad024\n        /* \"SimpleDEX_flattened.sol\":10167:10176  amountAIn */\n      dup6\n        /* \"SimpleDEX_flattened.sol\":10178:10188  amountBOut */\n      dup4\n        /* \"SimpleDEX_flattened.sol\":10142:10189  TokenSwapped(msg.sender, amountAIn, amountBOut) */\n      mload(0x40)\n      tag_166\n      swap3\n      swap2\n      swap1\n      tag_104\n      jump\t// in\n    tag_166:\n      mload(0x40)\n      dup1\n      swap2\n      sub\n      swap1\n      log2\n        /* \"SimpleDEX_flattened.sol\":9760:10196  {... */\n      pop\n      pop\n      pop\n        /* \"SimpleDEX_flattened.sol\":9713:10196  function swapAforB(uint256 amountAIn) external {... */\n      pop\n      jump\t// out\n        /* \"SimpleDEX_flattened.sol\":6290:6505  function transferOwnership(address newOwner) public virtual onlyOwner {... */\n    tag_49:\n        /* \"SimpleDEX_flattened.sol\":5278:5291  _checkOwner() */\n      tag_168\n        /* \"SimpleDEX_flattened.sol\":5278:5289  _checkOwner */\n      tag_74\n        /* \"SimpleDEX_flattened.sol\":5278:5291  _checkOwner() */\n      jump\t// in\n    tag_168:\n        /* \"SimpleDEX_flattened.sol\":6394:6395  0 */\n      0x00\n        /* \"SimpleDEX_flattened.sol\":6374:6396  newOwner == address(0) */\n      0xffffffffffffffffffffffffffffffffffffffff\n      and\n        /* \"SimpleDEX_flattened.sol\":6374:6382  newOwner */\n      dup2\n        /* \"SimpleDEX_flattened.sol\":6374:6396  newOwner == address(0) */\n      0xffffffffffffffffffffffffffffffffffffffff\n      and\n      sub\n        /* \"SimpleDEX_flattened.sol\":6370:6461  if (newOwner == address(0)) {... */\n      tag_170\n      jumpi\n        /* \"SimpleDEX_flattened.sol\":6447:6448  0 */\n      0x00\n        /* \"SimpleDEX_flattened.sol\":6419:6450  OwnableInvalidOwner(address(0)) */\n      mload(0x40)\n      0x1e4fbdf700000000000000000000000000000000000000000000000000000000\n      dup2\n      mstore\n      0x04\n      add\n      tag_171\n      swap2\n      swap1\n      tag_36\n      jump\t// in\n    tag_171:\n      mload(0x40)\n      dup1\n      swap2\n      sub\n      swap1\n      revert\n        /* \"SimpleDEX_flattened.sol\":6370:6461  if (newOwner == address(0)) {... */\n    tag_170:\n        /* \"SimpleDEX_flattened.sol\":6470:6498  _transferOwnership(newOwner) */\n      tag_172\n        /* \"SimpleDEX_flattened.sol\":6489:6497  newOwner */\n      dup2\n        /* \"SimpleDEX_flattened.sol\":6470:6488  _transferOwnership */\n      tag_77\n        /* \"SimpleDEX_flattened.sol\":6470:6498  _transferOwnership(newOwner) */\n      jump\t// in\n    tag_172:\n        /* \"SimpleDEX_flattened.sol\":6290:6505  function transferOwnership(address newOwner) public virtual onlyOwner {... */\n      pop\n      jump\t// out\n        /* \"SimpleDEX_flattened.sol\":5543:5705  function _checkOwner() internal view virtual {... */\n    tag_74:\n        /* \"SimpleDEX_flattened.sol\":5613:5625  _msgSender() */\n      tag_174\n        /* \"SimpleDEX_flattened.sol\":5613:5623  _msgSender */\n      tag_175\n        /* \"SimpleDEX_flattened.sol\":5613:5625  _msgSender() */\n      jump\t// in\n    tag_174:\n        /* \"SimpleDEX_flattened.sol\":5602:5625  owner() != _msgSender() */\n      0xffffffffffffffffffffffffffffffffffffffff\n      and\n        /* \"SimpleDEX_flattened.sol\":5602:5609  owner() */\n      tag_176\n        /* \"SimpleDEX_flattened.sol\":5602:5607  owner */\n      tag_34\n        /* \"SimpleDEX_flattened.sol\":5602:5609  owner() */\n      jump\t// in\n    tag_176:\n        /* \"SimpleDEX_flattened.sol\":5602:5625  owner() != _msgSender() */\n      0xffffffffffffffffffffffffffffffffffffffff\n      and\n      eq\n        /* \"SimpleDEX_flattened.sol\":5598:5699  if (owner() != _msgSender()) {... */\n      tag_177\n      jumpi\n        /* \"SimpleDEX_flattened.sol\":5675:5687  _msgSender() */\n      tag_178\n        /* \"SimpleDEX_flattened.sol\":5675:5685  _msgSender */\n      tag_175\n        /* \"SimpleDEX_flattened.sol\":5675:5687  _msgSender() */\n      jump\t// in\n    tag_178:\n        /* \"SimpleDEX_flattened.sol\":5648:5688  OwnableUnauthorizedAccount(_msgSender()) */\n      mload(0x40)\n      0x118cdaa700000000000000000000000000000000000000000000000000000000\n      dup2\n      mstore\n      0x04\n      add\n      tag_179\n      swap2\n      swap1\n      tag_36\n      jump\t// in\n    tag_179:\n      mload(0x40)\n      dup1\n      swap2\n      sub\n      swap1\n      revert\n        /* \"SimpleDEX_flattened.sol\":5598:5699  if (owner() != _msgSender()) {... */\n    tag_177:\n        /* \"SimpleDEX_flattened.sol\":5543:5705  function _checkOwner() internal view virtual {... */\n      jump\t// out\n        /* \"SimpleDEX_flattened.sol\":6659:6846  function _transferOwnership(address newOwner) internal virtual {... */\n    tag_77:\n        /* \"SimpleDEX_flattened.sol\":6732:6748  address oldOwner */\n      0x00\n        /* \"SimpleDEX_flattened.sol\":6751:6757  _owner */\n      dup1\n      0x00\n      swap1\n      sload\n      swap1\n      0x0100\n      exp\n      swap1\n      div\n      0xffffffffffffffffffffffffffffffffffffffff\n      and\n        /* \"SimpleDEX_flattened.sol\":6732:6757  address oldOwner = _owner */\n      swap1\n      pop\n        /* \"SimpleDEX_flattened.sol\":6776:6784  newOwner */\n      dup2\n        /* \"SimpleDEX_flattened.sol\":6767:6773  _owner */\n      0x00\n      dup1\n        /* \"SimpleDEX_flattened.sol\":6767:6784  _owner = newOwner */\n      0x0100\n      exp\n      dup2\n      sload\n      dup2\n      0xffffffffffffffffffffffffffffffffffffffff\n      mul\n      not\n      and\n      swap1\n      dup4\n      0xffffffffffffffffffffffffffffffffffffffff\n      and\n      mul\n      or\n      swap1\n      sstore\n      pop\n        /* \"SimpleDEX_flattened.sol\":6830:6838  newOwner */\n      dup2\n        /* \"SimpleDEX_flattened.sol\":6799:6839  OwnershipTransferred(oldOwner, newOwner) */\n      0xffffffffffffffffffffffffffffffffffffffff\n      and\n        /* \"SimpleDEX_flattened.sol\":6820:6828  oldOwner */\n      dup2\n        /* \"SimpleDEX_flattened.sol\":6799:6839  OwnershipTransferred(oldOwner, newOwner) */\n      0xffffffffffffffffffffffffffffffffffffffff\n      and\n      0x8be0079c531659141344cd1fd0a4f28419497f9722a3daafe3b4186f6b6457e0\n      mload(0x40)\n      mload(0x40)\n      dup1\n      swap2\n      sub\n      swap1\n      log3\n        /* \"SimpleDEX_flattened.sol\":6722:6846  {... */\n      pop\n        /* \"SimpleDEX_flattened.sol\":6659:6846  function _transferOwnership(address newOwner) internal virtual {... */\n      pop\n      jump\t// out\n        /* \"SimpleDEX_flattened.sol\":11776:11958  function getAmountOut(uint256 amountIn, uint256 reserveIn, uint256 reserveOut) private pure returns (uint256) {... */\n    tag_91:\n        /* \"SimpleDEX_flattened.sol\":11877:11884  uint256 */\n      0x00\n        /* \"SimpleDEX_flattened.sol\":11942:11950  amountIn */\n      dup4\n        /* \"SimpleDEX_flattened.sol\":11930:11939  reserveIn */\n      dup4\n        /* \"SimpleDEX_flattened.sol\":11930:11950  reserveIn + amountIn */\n      tag_182\n      swap2\n      swap1\n      tag_183\n      jump\t// in\n    tag_182:\n        /* \"SimpleDEX_flattened.sol\":11915:11925  reserveOut */\n      dup3\n        /* \"SimpleDEX_flattened.sol\":11904:11912  amountIn */\n      dup6\n        /* \"SimpleDEX_flattened.sol\":11904:11925  amountIn * reserveOut */\n      tag_184\n      swap2\n      swap1\n      tag_66\n      jump\t// in\n    tag_184:\n        /* \"SimpleDEX_flattened.sol\":11903:11951  (amountIn * reserveOut) / (reserveIn + amountIn) */\n      tag_185\n      swap2\n      swap1\n      tag_68\n      jump\t// in\n    tag_185:\n        /* \"SimpleDEX_flattened.sol\":11896:11951  return (amountIn * reserveOut) / (reserveIn + amountIn) */\n      swap1\n      pop\n        /* \"SimpleDEX_flattened.sol\":11776:11958  function getAmountOut(uint256 amountIn, uint256 reserveIn, uint256 reserveOut) private pure returns (uint256) {... */\n      swap4\n      swap3\n      pop\n      pop\n      pop\n      jump\t// out\n        /* \"SimpleDEX_flattened.sol\":3490:3586  function _msgSender() internal view virtual returns (address) {... */\n    tag_175:\n        /* \"SimpleDEX_flattened.sol\":3543:3550  address */\n      0x00\n        /* \"SimpleDEX_flattened.sol\":3569:3579  msg.sender */\n      caller\n        /* \"SimpleDEX_flattened.sol\":3562:3579  return msg.sender */\n      swap1\n      pop\n        /* \"SimpleDEX_flattened.sol\":3490:3586  function _msgSender() internal view virtual returns (address) {... */\n      swap1\n      jump\t// out\n        /* \"#utility.yul\":7:133   */\n    tag_187:\n        /* \"#utility.yul\":44:51   */\n      0x00\n        /* \"#utility.yul\":84:126   */\n      0xffffffffffffffffffffffffffffffffffffffff\n        /* \"#utility.yul\":77:82   */\n      dup3\n        /* \"#utility.yul\":73:127   */\n      and\n        /* \"#utility.yul\":62:127   */\n      swap1\n      pop\n        /* \"#utility.yul\":7:133   */\n      swap2\n      swap1\n      pop\n      jump\t// out\n        /* \"#utility.yul\":139:199   */\n    tag_188:\n        /* \"#utility.yul\":167:170   */\n      0x00\n        /* \"#utility.yul\":188:193   */\n      dup2\n        /* \"#utility.yul\":181:193   */\n      swap1\n      pop\n        /* \"#utility.yul\":139:199   */\n      swap2\n      swap1\n      pop\n      jump\t// out\n        /* \"#utility.yul\":205:347   */\n    tag_189:\n        /* \"#utility.yul\":255:264   */\n      0x00\n        /* \"#utility.yul\":288:341   */\n      tag_223\n        /* \"#utility.yul\":306:340   */\n      tag_224\n        /* \"#utility.yul\":315:339   */\n      tag_225\n        /* \"#utility.yul\":333:338   */\n      dup5\n        /* \"#utility.yul\":315:339   */\n      tag_187\n      jump\t// in\n    tag_225:\n        /* \"#utility.yul\":306:340   */\n      tag_188\n      jump\t// in\n    tag_224:\n        /* \"#utility.yul\":288:341   */\n      tag_187\n      jump\t// in\n    tag_223:\n        /* \"#utility.yul\":275:341   */\n      swap1\n      pop\n        /* \"#utility.yul\":205:347   */\n      swap2\n      swap1\n      pop\n      jump\t// out\n        /* \"#utility.yul\":353:479   */\n    tag_190:\n        /* \"#utility.yul\":403:412   */\n      0x00\n        /* \"#utility.yul\":436:473   */\n      tag_227\n        /* \"#utility.yul\":467:472   */\n      dup3\n        /* \"#utility.yul\":436:473   */\n      tag_189\n      jump\t// in\n    tag_227:\n        /* \"#utility.yul\":423:473   */\n      swap1\n      pop\n        /* \"#utility.yul\":353:479   */\n      swap2\n      swap1\n      pop\n      jump\t// out\n        /* \"#utility.yul\":485:624   */\n    tag_191:\n        /* \"#utility.yul\":548:557   */\n      0x00\n        /* \"#utility.yul\":581:618   */\n      tag_229\n        /* \"#utility.yul\":612:617   */\n      dup3\n        /* \"#utility.yul\":581:618   */\n      tag_190\n      jump\t// in\n    tag_229:\n        /* \"#utility.yul\":568:618   */\n      swap1\n      pop\n        /* \"#utility.yul\":485:624   */\n      swap2\n      swap1\n      pop\n      jump\t// out\n        /* \"#utility.yul\":630:787   */\n    tag_192:\n        /* \"#utility.yul\":730:780   */\n      tag_231\n        /* \"#utility.yul\":774:779   */\n      dup2\n        /* \"#utility.yul\":730:780   */\n      tag_191\n      jump\t// in\n    tag_231:\n        /* \"#utility.yul\":725:728   */\n      dup3\n        /* \"#utility.yul\":718:781   */\n      mstore\n        /* \"#utility.yul\":630:787   */\n      pop\n      pop\n      jump\t// out\n        /* \"#utility.yul\":793:1041   */\n    tag_17:\n        /* \"#utility.yul\":899:903   */\n      0x00\n        /* \"#utility.yul\":937:939   */\n      0x20\n        /* \"#utility.yul\":926:935   */\n      dup3\n        /* \"#utility.yul\":922:940   */\n      add\n        /* \"#utility.yul\":914:940   */\n      swap1\n      pop\n        /* \"#utility.yul\":950:1034   */\n      tag_233\n        /* \"#utility.yul\":1031:1032   */\n      0x00\n        /* \"#utility.yul\":1020:1029   */\n      dup4\n        /* \"#utility.yul\":1016:1033   */\n      add\n        /* \"#utility.yul\":1007:1013   */\n      dup5\n        /* \"#utility.yul\":950:1034   */\n      tag_192\n      jump\t// in\n    tag_233:\n        /* \"#utility.yul\":793:1041   */\n      swap3\n      swap2\n      pop\n      pop\n      jump\t// out\n        /* \"#utility.yul\":1128:1245   */\n    tag_194:\n        /* \"#utility.yul\":1237:1238   */\n      0x00\n        /* \"#utility.yul\":1234:1235   */\n      dup1\n        /* \"#utility.yul\":1227:1239   */\n      revert\n        /* \"#utility.yul\":1374:1470   */\n    tag_196:\n        /* \"#utility.yul\":1411:1418   */\n      0x00\n        /* \"#utility.yul\":1440:1464   */\n      tag_238\n        /* \"#utility.yul\":1458:1463   */\n      dup3\n        /* \"#utility.yul\":1440:1464   */\n      tag_187\n      jump\t// in\n    tag_238:\n        /* \"#utility.yul\":1429:1464   */\n      swap1\n      pop\n        /* \"#utility.yul\":1374:1470   */\n      swap2\n      swap1\n      pop\n      jump\t// out\n        /* \"#utility.yul\":1476:1598   */\n    tag_197:\n        /* \"#utility.yul\":1549:1573   */\n      tag_240\n        /* \"#utility.yul\":1567:1572   */\n      dup2\n        /* \"#utility.yul\":1549:1573   */\n      tag_196\n      jump\t// in\n    tag_240:\n        /* \"#utility.yul\":1542:1547   */\n      dup2\n        /* \"#utility.yul\":1539:1574   */\n      eq\n        /* \"#utility.yul\":1529:1592   */\n      tag_241\n      jumpi\n        /* \"#utility.yul\":1588:1589   */\n      0x00\n        /* \"#utility.yul\":1585:1586   */\n      dup1\n        /* \"#utility.yul\":1578:1590   */\n      revert\n        /* \"#utility.yul\":1529:1592   */\n    tag_241:\n        /* \"#utility.yul\":1476:1598   */\n      pop\n      jump\t// out\n        /* \"#utility.yul\":1604:1743   */\n    tag_198:\n        /* \"#utility.yul\":1650:1655   */\n      0x00\n        /* \"#utility.yul\":1688:1694   */\n      dup2\n        /* \"#utility.yul\":1675:1695   */\n      calldataload\n        /* \"#utility.yul\":1666:1695   */\n      swap1\n      pop\n        /* \"#utility.yul\":1704:1737   */\n      tag_243\n        /* \"#utility.yul\":1731:1736   */\n      dup2\n        /* \"#utility.yul\":1704:1737   */\n      tag_197\n      jump\t// in\n    tag_243:\n        /* \"#utility.yul\":1604:1743   */\n      swap3\n      swap2\n      pop\n      pop\n      jump\t// out\n        /* \"#utility.yul\":1749:2078   */\n    tag_20:\n        /* \"#utility.yul\":1808:1814   */\n      0x00\n        /* \"#utility.yul\":1857:1859   */\n      0x20\n        /* \"#utility.yul\":1845:1854   */\n      dup3\n        /* \"#utility.yul\":1836:1843   */\n      dup5\n        /* \"#utility.yul\":1832:1855   */\n      sub\n        /* \"#utility.yul\":1828:1860   */\n      slt\n        /* \"#utility.yul\":1825:1944   */\n      iszero\n      tag_245\n      jumpi\n        /* \"#utility.yul\":1863:1942   */\n      tag_246\n      tag_194\n      jump\t// in\n    tag_246:\n        /* \"#utility.yul\":1825:1944   */\n    tag_245:\n        /* \"#utility.yul\":1983:1984   */\n      0x00\n        /* \"#utility.yul\":2008:2061   */\n      tag_247\n        /* \"#utility.yul\":2053:2060   */\n      dup5\n        /* \"#utility.yul\":2044:2050   */\n      dup3\n        /* \"#utility.yul\":2033:2042   */\n      dup6\n        /* \"#utility.yul\":2029:2051   */\n      add\n        /* \"#utility.yul\":2008:2061   */\n      tag_198\n      jump\t// in\n    tag_247:\n        /* \"#utility.yul\":1998:2061   */\n      swap2\n      pop\n        /* \"#utility.yul\":1954:2071   */\n      pop\n        /* \"#utility.yul\":1749:2078   */\n      swap3\n      swap2\n      pop\n      pop\n      jump\t// out\n        /* \"#utility.yul\":2084:2161   */\n    tag_199:\n        /* \"#utility.yul\":2121:2128   */\n      0x00\n        /* \"#utility.yul\":2150:2155   */\n      dup2\n        /* \"#utility.yul\":2139:2155   */\n      swap1\n      pop\n        /* \"#utility.yul\":2084:2161   */\n      swap2\n      swap1\n      pop\n      jump\t// out\n        /* \"#utility.yul\":2167:2285   */\n    tag_200:\n        /* \"#utility.yul\":2254:2278   */\n      tag_250\n        /* \"#utility.yul\":2272:2277   */\n      dup2\n        /* \"#utility.yul\":2254:2278   */\n      tag_199\n      jump\t// in\n    tag_250:\n        /* \"#utility.yul\":2249:2252   */\n      dup3\n        /* \"#utility.yul\":2242:2279   */\n      mstore\n        /* \"#utility.yul\":2167:2285   */\n      pop\n      pop\n      jump\t// out\n        /* \"#utility.yul\":2291:2513   */\n    tag_23:\n        /* \"#utility.yul\":2384:2388   */\n      0x00\n        /* \"#utility.yul\":2422:2424   */\n      0x20\n        /* \"#utility.yul\":2411:2420   */\n      dup3\n        /* \"#utility.yul\":2407:2425   */\n      add\n        /* \"#utility.yul\":2399:2425   */\n      swap1\n      pop\n        /* \"#utility.yul\":2435:2506   */\n      tag_252\n        /* \"#utility.yul\":2503:2504   */\n      0x00\n        /* \"#utility.yul\":2492:2501   */\n      dup4\n        /* \"#utility.yul\":2488:2505   */\n      add\n        /* \"#utility.yul\":2479:2485   */\n      dup5\n        /* \"#utility.yul\":2435:2506   */\n      tag_200\n      jump\t// in\n    tag_252:\n        /* \"#utility.yul\":2291:2513   */\n      swap3\n      swap2\n      pop\n      pop\n      jump\t// out\n        /* \"#utility.yul\":2519:2641   */\n    tag_201:\n        /* \"#utility.yul\":2592:2616   */\n      tag_254\n        /* \"#utility.yul\":2610:2615   */\n      dup2\n        /* \"#utility.yul\":2592:2616   */\n      tag_199\n      jump\t// in\n    tag_254:\n        /* \"#utility.yul\":2585:2590   */\n      dup2\n        /* \"#utility.yul\":2582:2617   */\n      eq\n        /* \"#utility.yul\":2572:2635   */\n      tag_255\n      jumpi\n        /* \"#utility.yul\":2631:2632   */\n      0x00\n        /* \"#utility.yul\":2628:2629   */\n      dup1\n        /* \"#utility.yul\":2621:2633   */\n      revert\n        /* \"#utility.yul\":2572:2635   */\n    tag_255:\n        /* \"#utility.yul\":2519:2641   */\n      pop\n      jump\t// out\n        /* \"#utility.yul\":2647:2786   */\n    tag_202:\n        /* \"#utility.yul\":2693:2698   */\n      0x00\n        /* \"#utility.yul\":2731:2737   */\n      dup2\n        /* \"#utility.yul\":2718:2738   */\n      calldataload\n        /* \"#utility.yul\":2709:2738   */\n      swap1\n      pop\n        /* \"#utility.yul\":2747:2780   */\n      tag_257\n        /* \"#utility.yul\":2774:2779   */\n      dup2\n        /* \"#utility.yul\":2747:2780   */\n      tag_201\n      jump\t// in\n    tag_257:\n        /* \"#utility.yul\":2647:2786   */\n      swap3\n      swap2\n      pop\n      pop\n      jump\t// out\n        /* \"#utility.yul\":2792:3121   */\n    tag_31:\n        /* \"#utility.yul\":2851:2857   */\n      0x00\n        /* \"#utility.yul\":2900:2902   */\n      0x20\n        /* \"#utility.yul\":2888:2897   */\n      dup3\n        /* \"#utility.yul\":2879:2886   */\n      dup5\n        /* \"#utility.yul\":2875:2898   */\n      sub\n        /* \"#utility.yul\":2871:2903   */\n      slt\n        /* \"#utility.yul\":2868:2987   */\n      iszero\n      tag_259\n      jumpi\n        /* \"#utility.yul\":2906:2985   */\n      tag_260\n      tag_194\n      jump\t// in\n    tag_260:\n        /* \"#utility.yul\":2868:2987   */\n    tag_259:\n        /* \"#utility.yul\":3026:3027   */\n      0x00\n        /* \"#utility.yul\":3051:3104   */\n      tag_261\n        /* \"#utility.yul\":3096:3103   */\n      dup5\n        /* \"#utility.yul\":3087:3093   */\n      dup3\n        /* \"#utility.yul\":3076:3085   */\n      dup6\n        /* \"#utility.yul\":3072:3094   */\n      add\n        /* \"#utility.yul\":3051:3104   */\n      tag_202\n      jump\t// in\n    tag_261:\n        /* \"#utility.yul\":3041:3104   */\n      swap2\n      pop\n        /* \"#utility.yul\":2997:3114   */\n      pop\n        /* \"#utility.yul\":2792:3121   */\n      swap3\n      swap2\n      pop\n      pop\n      jump\t// out\n        /* \"#utility.yul\":3127:3245   */\n    tag_203:\n        /* \"#utility.yul\":3214:3238   */\n      tag_263\n        /* \"#utility.yul\":3232:3237   */\n      dup2\n        /* \"#utility.yul\":3214:3238   */\n      tag_196\n      jump\t// in\n    tag_263:\n        /* \"#utility.yul\":3209:3212   */\n      dup3\n        /* \"#utility.yul\":3202:3239   */\n      mstore\n        /* \"#utility.yul\":3127:3245   */\n      pop\n      pop\n      jump\t// out\n        /* \"#utility.yul\":3251:3473   */\n    tag_36:\n        /* \"#utility.yul\":3344:3348   */\n      0x00\n        /* \"#utility.yul\":3382:3384   */\n      0x20\n        /* \"#utility.yul\":3371:3380   */\n      dup3\n        /* \"#utility.yul\":3367:3385   */\n      add\n        /* \"#utility.yul\":3359:3385   */\n      swap1\n      pop\n        /* \"#utility.yul\":3395:3466   */\n      tag_265\n        /* \"#utility.yul\":3463:3464   */\n      0x00\n        /* \"#utility.yul\":3452:3461   */\n      dup4\n        /* \"#utility.yul\":3448:3465   */\n      add\n        /* \"#utility.yul\":3439:3445   */\n      dup5\n        /* \"#utility.yul\":3395:3466   */\n      tag_203\n      jump\t// in\n    tag_265:\n        /* \"#utility.yul\":3251:3473   */\n      swap3\n      swap2\n      pop\n      pop\n      jump\t// out\n        /* \"#utility.yul\":3479:3953   */\n    tag_39:\n        /* \"#utility.yul\":3547:3553   */\n      0x00\n        /* \"#utility.yul\":3555:3561   */\n      dup1\n        /* \"#utility.yul\":3604:3606   */\n      0x40\n        /* \"#utility.yul\":3592:3601   */\n      dup4\n        /* \"#utility.yul\":3583:3590   */\n      dup6\n        /* \"#utility.yul\":3579:3602   */\n      sub\n        /* \"#utility.yul\":3575:3607   */\n      slt\n        /* \"#utility.yul\":3572:3691   */\n      iszero\n      tag_267\n      jumpi\n        /* \"#utility.yul\":3610:3689   */\n      tag_268\n      tag_194\n      jump\t// in\n    tag_268:\n        /* \"#utility.yul\":3572:3691   */\n    tag_267:\n        /* \"#utility.yul\":3730:3731   */\n      0x00\n        /* \"#utility.yul\":3755:3808   */\n      tag_269\n        /* \"#utility.yul\":3800:3807   */\n      dup6\n        /* \"#utility.yul\":3791:3797   */\n      dup3\n        /* \"#utility.yul\":3780:3789   */\n      dup7\n        /* \"#utility.yul\":3776:3798   */\n      add\n        /* \"#utility.yul\":3755:3808   */\n      tag_202\n      jump\t// in\n    tag_269:\n        /* \"#utility.yul\":3745:3808   */\n      swap3\n      pop\n        /* \"#utility.yul\":3701:3818   */\n      pop\n        /* \"#utility.yul\":3857:3859   */\n      0x20\n        /* \"#utility.yul\":3883:3936   */\n      tag_270\n        /* \"#utility.yul\":3928:3935   */\n      dup6\n        /* \"#utility.yul\":3919:3925   */\n      dup3\n        /* \"#utility.yul\":3908:3917   */\n      dup7\n        /* \"#utility.yul\":3904:3926   */\n      add\n        /* \"#utility.yul\":3883:3936   */\n      tag_202\n      jump\t// in\n    tag_270:\n        /* \"#utility.yul\":3873:3936   */\n      swap2\n      pop\n        /* \"#utility.yul\":3828:3946   */\n      pop\n        /* \"#utility.yul\":3479:3953   */\n      swap3\n      pop\n      swap3\n      swap1\n      pop\n      jump\t// out\n        /* \"#utility.yul\":3959:4128   */\n    tag_204:\n        /* \"#utility.yul\":4043:4054   */\n      0x00\n        /* \"#utility.yul\":4077:4083   */\n      dup3\n        /* \"#utility.yul\":4072:4075   */\n      dup3\n        /* \"#utility.yul\":4065:4084   */\n      mstore\n        /* \"#utility.yul\":4117:4121   */\n      0x20\n        /* \"#utility.yul\":4112:4115   */\n      dup3\n        /* \"#utility.yul\":4108:4122   */\n      add\n        /* \"#utility.yul\":4093:4122   */\n      swap1\n      pop\n        /* \"#utility.yul\":3959:4128   */\n      swap3\n      swap2\n      pop\n      pop\n      jump\t// out\n        /* \"#utility.yul\":4134:4297   */\n    tag_205:\n        /* \"#utility.yul\":4274:4289   */\n      0x496e76616c696420746f6b656e00000000000000000000000000000000000000\n        /* \"#utility.yul\":4270:4271   */\n      0x00\n        /* \"#utility.yul\":4262:4268   */\n      dup3\n        /* \"#utility.yul\":4258:4272   */\n      add\n        /* \"#utility.yul\":4251:4290   */\n      mstore\n        /* \"#utility.yul\":4134:4297   */\n      pop\n      jump\t// out\n        /* \"#utility.yul\":4303:4669   */\n    tag_206:\n        /* \"#utility.yul\":4445:4448   */\n      0x00\n        /* \"#utility.yul\":4466:4533   */\n      tag_274\n        /* \"#utility.yul\":4530:4532   */\n      0x0d\n        /* \"#utility.yul\":4525:4528   */\n      dup4\n        /* \"#utility.yul\":4466:4533   */\n      tag_204\n      jump\t// in\n    tag_274:\n        /* \"#utility.yul\":4459:4533   */\n      swap2\n      pop\n        /* \"#utility.yul\":4542:4635   */\n      tag_275\n        /* \"#utility.yul\":4631:4634   */\n      dup3\n        /* \"#utility.yul\":4542:4635   */\n      tag_205\n      jump\t// in\n    tag_275:\n        /* \"#utility.yul\":4660:4662   */\n      0x20\n        /* \"#utility.yul\":4655:4658   */\n      dup3\n        /* \"#utility.yul\":4651:4663   */\n      add\n        /* \"#utility.yul\":4644:4663   */\n      swap1\n      pop\n        /* \"#utility.yul\":4303:4669   */\n      swap2\n      swap1\n      pop\n      jump\t// out\n        /* \"#utility.yul\":4675:5094   */\n    tag_54:\n        /* \"#utility.yul\":4841:4845   */\n      0x00\n        /* \"#utility.yul\":4879:4881   */\n      0x20\n        /* \"#utility.yul\":4868:4877   */\n      dup3\n        /* \"#utility.yul\":4864:4882   */\n      add\n        /* \"#utility.yul\":4856:4882   */\n      swap1\n      pop\n        /* \"#utility.yul\":4928:4937   */\n      dup2\n        /* \"#utility.yul\":4922:4926   */\n      dup2\n        /* \"#utility.yul\":4918:4938   */\n      sub\n        /* \"#utility.yul\":4914:4915   */\n      0x00\n        /* \"#utility.yul\":4903:4912   */\n      dup4\n        /* \"#utility.yul\":4899:4916   */\n      add\n        /* \"#utility.yul\":4892:4939   */\n      mstore\n        /* \"#utility.yul\":4956:5087   */\n      tag_277\n        /* \"#utility.yul\":5082:5086   */\n      dup2\n        /* \"#utility.yul\":4956:5087   */\n      tag_206\n      jump\t// in\n    tag_277:\n        /* \"#utility.yul\":4948:5087   */\n      swap1\n      pop\n        /* \"#utility.yul\":4675:5094   */\n      swap2\n      swap1\n      pop\n      jump\t// out\n        /* \"#utility.yul\":5100:5243   */\n    tag_207:\n        /* \"#utility.yul\":5157:5162   */\n      0x00\n        /* \"#utility.yul\":5188:5194   */\n      dup2\n        /* \"#utility.yul\":5182:5195   */\n      mload\n        /* \"#utility.yul\":5173:5195   */\n      swap1\n      pop\n        /* \"#utility.yul\":5204:5237   */\n      tag_279\n        /* \"#utility.yul\":5231:5236   */\n      dup2\n        /* \"#utility.yul\":5204:5237   */\n      tag_201\n      jump\t// in\n    tag_279:\n        /* \"#utility.yul\":5100:5243   */\n      swap3\n      swap2\n      pop\n      pop\n      jump\t// out\n        /* \"#utility.yul\":5249:5600   */\n    tag_59:\n        /* \"#utility.yul\":5319:5325   */\n      0x00\n        /* \"#utility.yul\":5368:5370   */\n      0x20\n        /* \"#utility.yul\":5356:5365   */\n      dup3\n        /* \"#utility.yul\":5347:5354   */\n      dup5\n        /* \"#utility.yul\":5343:5366   */\n      sub\n        /* \"#utility.yul\":5339:5371   */\n      slt\n        /* \"#utility.yul\":5336:5455   */\n      iszero\n      tag_281\n      jumpi\n        /* \"#utility.yul\":5374:5453   */\n      tag_282\n      tag_194\n      jump\t// in\n    tag_282:\n        /* \"#utility.yul\":5336:5455   */\n    tag_281:\n        /* \"#utility.yul\":5494:5495   */\n      0x00\n        /* \"#utility.yul\":5519:5583   */\n      tag_283\n        /* \"#utility.yul\":5575:5582   */\n      dup5\n        /* \"#utility.yul\":5566:5572   */\n      dup3\n        /* \"#utility.yul\":5555:5564   */\n      dup6\n        /* \"#utility.yul\":5551:5573   */\n      add\n        /* \"#utility.yul\":5519:5583   */\n      tag_207\n      jump\t// in\n    tag_283:\n        /* \"#utility.yul\":5509:5583   */\n      swap2\n      pop\n        /* \"#utility.yul\":5465:5593   */\n      pop\n        /* \"#utility.yul\":5249:5600   */\n      swap3\n      swap2\n      pop\n      pop\n      jump\t// out\n        /* \"#utility.yul\":5606:5786   */\n    tag_208:\n        /* \"#utility.yul\":5654:5731   */\n      0x4e487b7100000000000000000000000000000000000000000000000000000000\n        /* \"#utility.yul\":5651:5652   */\n      0x00\n        /* \"#utility.yul\":5644:5732   */\n      mstore\n        /* \"#utility.yul\":5751:5755   */\n      0x11\n        /* \"#utility.yul\":5748:5749   */\n      0x04\n        /* \"#utility.yul\":5741:5756   */\n      mstore\n        /* \"#utility.yul\":5775:5779   */\n      0x24\n        /* \"#utility.yul\":5772:5773   */\n      0x00\n        /* \"#utility.yul\":5765:5780   */\n      revert\n        /* \"#utility.yul\":5792:6202   */\n    tag_66:\n        /* \"#utility.yul\":5832:5839   */\n      0x00\n        /* \"#utility.yul\":5855:5875   */\n      tag_286\n        /* \"#utility.yul\":5873:5874   */\n      dup3\n        /* \"#utility.yul\":5855:5875   */\n      tag_199\n      jump\t// in\n    tag_286:\n        /* \"#utility.yul\":5850:5875   */\n      swap2\n      pop\n        /* \"#utility.yul\":5889:5909   */\n      tag_287\n        /* \"#utility.yul\":5907:5908   */\n      dup4\n        /* \"#utility.yul\":5889:5909   */\n      tag_199\n      jump\t// in\n    tag_287:\n        /* \"#utility.yul\":5884:5909   */\n      swap3\n      pop\n        /* \"#utility.yul\":5944:5945   */\n      dup3\n        /* \"#utility.yul\":5941:5942   */\n      dup3\n        /* \"#utility.yul\":5937:5946   */\n      mul\n        /* \"#utility.yul\":5966:5996   */\n      tag_288\n        /* \"#utility.yul\":5984:5995   */\n      dup2\n        /* \"#utility.yul\":5966:5996   */\n      tag_199\n      jump\t// in\n    tag_288:\n        /* \"#utility.yul\":5955:5996   */\n      swap2\n      pop\n        /* \"#utility.yul\":6145:6146   */\n      dup3\n        /* \"#utility.yul\":6136:6143   */\n      dup3\n        /* \"#utility.yul\":6132:6147   */\n      div\n        /* \"#utility.yul\":6129:6130   */\n      dup5\n        /* \"#utility.yul\":6126:6148   */\n      eq\n        /* \"#utility.yul\":6106:6107   */\n      dup4\n        /* \"#utility.yul\":6099:6108   */\n      iszero\n        /* \"#utility.yul\":6079:6162   */\n      or\n        /* \"#utility.yul\":6056:6195   */\n      tag_289\n      jumpi\n        /* \"#utility.yul\":6175:6193   */\n      tag_290\n      tag_208\n      jump\t// in\n    tag_290:\n        /* \"#utility.yul\":6056:6195   */\n    tag_289:\n        /* \"#utility.yul\":5840:6202   */\n      pop\n        /* \"#utility.yul\":5792:6202   */\n      swap3\n      swap2\n      pop\n      pop\n      jump\t// out\n        /* \"#utility.yul\":6208:6388   */\n    tag_209:\n        /* \"#utility.yul\":6256:6333   */\n      0x4e487b7100000000000000000000000000000000000000000000000000000000\n        /* \"#utility.yul\":6253:6254   */\n      0x00\n        /* \"#utility.yul\":6246:6334   */\n      mstore\n        /* \"#utility.yul\":6353:6357   */\n      0x12\n        /* \"#utility.yul\":6350:6351   */\n      0x04\n        /* \"#utility.yul\":6343:6358   */\n      mstore\n        /* \"#utility.yul\":6377:6381   */\n      0x24\n        /* \"#utility.yul\":6374:6375   */\n      0x00\n        /* \"#utility.yul\":6367:6382   */\n      revert\n        /* \"#utility.yul\":6394:6579   */\n    tag_68:\n        /* \"#utility.yul\":6434:6435   */\n      0x00\n        /* \"#utility.yul\":6451:6471   */\n      tag_293\n        /* \"#utility.yul\":6469:6470   */\n      dup3\n        /* \"#utility.yul\":6451:6471   */\n      tag_199\n      jump\t// in\n    tag_293:\n        /* \"#utility.yul\":6446:6471   */\n      swap2\n      pop\n        /* \"#utility.yul\":6485:6505   */\n      tag_294\n        /* \"#utility.yul\":6503:6504   */\n      dup4\n        /* \"#utility.yul\":6485:6505   */\n      tag_199\n      jump\t// in\n    tag_294:\n        /* \"#utility.yul\":6480:6505   */\n      swap3\n      pop\n        /* \"#utility.yul\":6524:6525   */\n      dup3\n        /* \"#utility.yul\":6514:6549   */\n      tag_295\n      jumpi\n        /* \"#utility.yul\":6529:6547   */\n      tag_296\n      tag_209\n      jump\t// in\n    tag_296:\n        /* \"#utility.yul\":6514:6549   */\n    tag_295:\n        /* \"#utility.yul\":6571:6572   */\n      dup3\n        /* \"#utility.yul\":6568:6569   */\n      dup3\n        /* \"#utility.yul\":6564:6573   */\n      div\n        /* \"#utility.yul\":6559:6573   */\n      swap1\n      pop\n        /* \"#utility.yul\":6394:6579   */\n      swap3\n      swap2\n      pop\n      pop\n      jump\t// out\n        /* \"#utility.yul\":6585:6753   */\n    tag_210:\n        /* \"#utility.yul\":6725:6745   */\n      0x416d6f756e74206d757374206265203e20300000000000000000000000000000\n        /* \"#utility.yul\":6721:6722   */\n      0x00\n        /* \"#utility.yul\":6713:6719   */\n      dup3\n        /* \"#utility.yul\":6709:6723   */\n      add\n        /* \"#utility.yul\":6702:6746   */\n      mstore\n        /* \"#utility.yul\":6585:6753   */\n      pop\n      jump\t// out\n        /* \"#utility.yul\":6759:7125   */\n    tag_211:\n        /* \"#utility.yul\":6901:6904   */\n      0x00\n        /* \"#utility.yul\":6922:6989   */\n      tag_299\n        /* \"#utility.yul\":6986:6988   */\n      0x12\n        /* \"#utility.yul\":6981:6984   */\n      dup4\n        /* \"#utility.yul\":6922:6989   */\n      tag_204\n      jump\t// in\n    tag_299:\n        /* \"#utility.yul\":6915:6989   */\n      swap2\n      pop\n        /* \"#utility.yul\":6998:7091   */\n      tag_300\n        /* \"#utility.yul\":7087:7090   */\n      dup3\n        /* \"#utility.yul\":6998:7091   */\n      tag_210\n      jump\t// in\n    tag_300:\n        /* \"#utility.yul\":7116:7118   */\n      0x20\n        /* \"#utility.yul\":7111:7114   */\n      dup3\n        /* \"#utility.yul\":7107:7119   */\n      add\n        /* \"#utility.yul\":7100:7119   */\n      swap1\n      pop\n        /* \"#utility.yul\":6759:7125   */\n      swap2\n      swap1\n      pop\n      jump\t// out\n        /* \"#utility.yul\":7131:7550   */\n    tag_81:\n        /* \"#utility.yul\":7297:7301   */\n      0x00\n        /* \"#utility.yul\":7335:7337   */\n      0x20\n        /* \"#utility.yul\":7324:7333   */\n      dup3\n        /* \"#utility.yul\":7320:7338   */\n      add\n        /* \"#utility.yul\":7312:7338   */\n      swap1\n      pop\n        /* \"#utility.yul\":7384:7393   */\n      dup2\n        /* \"#utility.yul\":7378:7382   */\n      dup2\n        /* \"#utility.yul\":7374:7394   */\n      sub\n        /* \"#utility.yul\":7370:7371   */\n      0x00\n        /* \"#utility.yul\":7359:7368   */\n      dup4\n        /* \"#utility.yul\":7355:7372   */\n      add\n        /* \"#utility.yul\":7348:7395   */\n      mstore\n        /* \"#utility.yul\":7412:7543   */\n      tag_302\n        /* \"#utility.yul\":7538:7542   */\n      dup2\n        /* \"#utility.yul\":7412:7543   */\n      tag_211\n      jump\t// in\n    tag_302:\n        /* \"#utility.yul\":7404:7543   */\n      swap1\n      pop\n        /* \"#utility.yul\":7131:7550   */\n      swap2\n      swap1\n      pop\n      jump\t// out\n        /* \"#utility.yul\":7556:7998   */\n    tag_93:\n        /* \"#utility.yul\":7705:7709   */\n      0x00\n        /* \"#utility.yul\":7743:7745   */\n      0x60\n        /* \"#utility.yul\":7732:7741   */\n      dup3\n        /* \"#utility.yul\":7728:7746   */\n      add\n        /* \"#utility.yul\":7720:7746   */\n      swap1\n      pop\n        /* \"#utility.yul\":7756:7827   */\n      tag_304\n        /* \"#utility.yul\":7824:7825   */\n      0x00\n        /* \"#utility.yul\":7813:7822   */\n      dup4\n        /* \"#utility.yul\":7809:7826   */\n      add\n        /* \"#utility.yul\":7800:7806   */\n      dup7\n        /* \"#utility.yul\":7756:7827   */\n      tag_203\n      jump\t// in\n    tag_304:\n        /* \"#utility.yul\":7837:7909   */\n      tag_305\n        /* \"#utility.yul\":7905:7907   */\n      0x20\n        /* \"#utility.yul\":7894:7903   */\n      dup4\n        /* \"#utility.yul\":7890:7908   */\n      add\n        /* \"#utility.yul\":7881:7887   */\n      dup6\n        /* \"#utility.yul\":7837:7909   */\n      tag_203\n      jump\t// in\n    tag_305:\n        /* \"#utility.yul\":7919:7991   */\n      tag_306\n        /* \"#utility.yul\":7987:7989   */\n      0x40\n        /* \"#utility.yul\":7976:7985   */\n      dup4\n        /* \"#utility.yul\":7972:7990   */\n      add\n        /* \"#utility.yul\":7963:7969   */\n      dup5\n        /* \"#utility.yul\":7919:7991   */\n      tag_200\n      jump\t// in\n    tag_306:\n        /* \"#utility.yul\":7556:7998   */\n      swap5\n      swap4\n      pop\n      pop\n      pop\n      pop\n      jump\t// out\n        /* \"#utility.yul\":8004:8094   */\n    tag_212:\n        /* \"#utility.yul\":8038:8045   */\n      0x00\n        /* \"#utility.yul\":8081:8086   */\n      dup2\n        /* \"#utility.yul\":8074:8087   */\n      iszero\n        /* \"#utility.yul\":8067:8088   */\n      iszero\n        /* \"#utility.yul\":8056:8088   */\n      swap1\n      pop\n        /* \"#utility.yul\":8004:8094   */\n      swap2\n      swap1\n      pop\n      jump\t// out\n        /* \"#utility.yul\":8100:8216   */\n    tag_213:\n        /* \"#utility.yul\":8170:8191   */\n      tag_309\n        /* \"#utility.yul\":8185:8190   */\n      dup2\n        /* \"#utility.yul\":8170:8191   */\n      tag_212\n      jump\t// in\n    tag_309:\n        /* \"#utility.yul\":8163:8168   */\n      dup2\n        /* \"#utility.yul\":8160:8192   */\n      eq\n        /* \"#utility.yul\":8150:8210   */\n      tag_310\n      jumpi\n        /* \"#utility.yul\":8206:8207   */\n      0x00\n        /* \"#utility.yul\":8203:8204   */\n      dup1\n        /* \"#utility.yul\":8196:8208   */\n      revert\n        /* \"#utility.yul\":8150:8210   */\n    tag_310:\n        /* \"#utility.yul\":8100:8216   */\n      pop\n      jump\t// out\n        /* \"#utility.yul\":8222:8359   */\n    tag_214:\n        /* \"#utility.yul\":8276:8281   */\n      0x00\n        /* \"#utility.yul\":8307:8313   */\n      dup2\n        /* \"#utility.yul\":8301:8314   */\n      mload\n        /* \"#utility.yul\":8292:8314   */\n      swap1\n      pop\n        /* \"#utility.yul\":8323:8353   */\n      tag_312\n        /* \"#utility.yul\":8347:8352   */\n      dup2\n        /* \"#utility.yul\":8323:8353   */\n      tag_213\n      jump\t// in\n    tag_312:\n        /* \"#utility.yul\":8222:8359   */\n      swap3\n      swap2\n      pop\n      pop\n      jump\t// out\n        /* \"#utility.yul\":8365:8710   */\n    tag_97:\n        /* \"#utility.yul\":8432:8438   */\n      0x00\n        /* \"#utility.yul\":8481:8483   */\n      0x20\n        /* \"#utility.yul\":8469:8478   */\n      dup3\n        /* \"#utility.yul\":8460:8467   */\n      dup5\n        /* \"#utility.yul\":8456:8479   */\n      sub\n        /* \"#utility.yul\":8452:8484   */\n      slt\n        /* \"#utility.yul\":8449:8568   */\n      iszero\n      tag_314\n      jumpi\n        /* \"#utility.yul\":8487:8566   */\n      tag_315\n      tag_194\n      jump\t// in\n    tag_315:\n        /* \"#utility.yul\":8449:8568   */\n    tag_314:\n        /* \"#utility.yul\":8607:8608   */\n      0x00\n        /* \"#utility.yul\":8632:8693   */\n      tag_316\n        /* \"#utility.yul\":8685:8692   */\n      dup5\n        /* \"#utility.yul\":8676:8682   */\n      dup3\n        /* \"#utility.yul\":8665:8674   */\n      dup6\n        /* \"#utility.yul\":8661:8683   */\n      add\n        /* \"#utility.yul\":8632:8693   */\n      tag_214\n      jump\t// in\n    tag_316:\n        /* \"#utility.yul\":8622:8693   */\n      swap2\n      pop\n        /* \"#utility.yul\":8578:8703   */\n      pop\n        /* \"#utility.yul\":8365:8710   */\n      swap3\n      swap2\n      pop\n      pop\n      jump\t// out\n        /* \"#utility.yul\":8716:9048   */\n    tag_99:\n        /* \"#utility.yul\":8837:8841   */\n      0x00\n        /* \"#utility.yul\":8875:8877   */\n      0x40\n        /* \"#utility.yul\":8864:8873   */\n      dup3\n        /* \"#utility.yul\":8860:8878   */\n      add\n        /* \"#utility.yul\":8852:8878   */\n      swap1\n      pop\n        /* \"#utility.yul\":8888:8959   */\n      tag_318\n        /* \"#utility.yul\":8956:8957   */\n      0x00\n        /* \"#utility.yul\":8945:8954   */\n      dup4\n        /* \"#utility.yul\":8941:8958   */\n      add\n        /* \"#utility.yul\":8932:8938   */\n      dup6\n        /* \"#utility.yul\":8888:8959   */\n      tag_203\n      jump\t// in\n    tag_318:\n        /* \"#utility.yul\":8969:9041   */\n      tag_319\n        /* \"#utility.yul\":9037:9039   */\n      0x20\n        /* \"#utility.yul\":9026:9035   */\n      dup4\n        /* \"#utility.yul\":9022:9040   */\n      add\n        /* \"#utility.yul\":9013:9019   */\n      dup5\n        /* \"#utility.yul\":8969:9041   */\n      tag_200\n      jump\t// in\n    tag_319:\n        /* \"#utility.yul\":8716:9048   */\n      swap4\n      swap3\n      pop\n      pop\n      pop\n      jump\t// out\n        /* \"#utility.yul\":9054:9386   */\n    tag_104:\n        /* \"#utility.yul\":9175:9179   */\n      0x00\n        /* \"#utility.yul\":9213:9215   */\n      0x40\n        /* \"#utility.yul\":9202:9211   */\n      dup3\n        /* \"#utility.yul\":9198:9216   */\n      add\n        /* \"#utility.yul\":9190:9216   */\n      swap1\n      pop\n        /* \"#utility.yul\":9226:9297   */\n      tag_321\n        /* \"#utility.yul\":9294:9295   */\n      0x00\n        /* \"#utility.yul\":9283:9292   */\n      dup4\n        /* \"#utility.yul\":9279:9296   */\n      add\n        /* \"#utility.yul\":9270:9276   */\n      dup6\n        /* \"#utility.yul\":9226:9297   */\n      tag_200\n      jump\t// in\n    tag_321:\n        /* \"#utility.yul\":9307:9379   */\n      tag_322\n        /* \"#utility.yul\":9375:9377   */\n      0x20\n        /* \"#utility.yul\":9364:9373   */\n      dup4\n        /* \"#utility.yul\":9360:9378   */\n      add\n        /* \"#utility.yul\":9351:9357   */\n      dup5\n        /* \"#utility.yul\":9307:9379   */\n      tag_200\n      jump\t// in\n    tag_322:\n        /* \"#utility.yul\":9054:9386   */\n      swap4\n      swap3\n      pop\n      pop\n      pop\n      jump\t// out\n        /* \"#utility.yul\":9392:9561   */\n    tag_215:\n        /* \"#utility.yul\":9532:9553   */\n      0x416d6f756e7473206d757374206265203e203000000000000000000000000000\n        /* \"#utility.yul\":9528:9529   */\n      0x00\n        /* \"#utility.yul\":9520:9526   */\n      dup3\n        /* \"#utility.yul\":9516:9530   */\n      add\n        /* \"#utility.yul\":9509:9554   */\n      mstore\n        /* \"#utility.yul\":9392:9561   */\n      pop\n      jump\t// out\n        /* \"#utility.yul\":9567:9933   */\n    tag_216:\n        /* \"#utility.yul\":9709:9712   */\n      0x00\n        /* \"#utility.yul\":9730:9797   */\n      tag_325\n        /* \"#utility.yul\":9794:9796   */\n      0x13\n        /* \"#utility.yul\":9789:9792   */\n      dup4\n        /* \"#utility.yul\":9730:9797   */\n      tag_204\n      jump\t// in\n    tag_325:\n        /* \"#utility.yul\":9723:9797   */\n      swap2\n      pop\n        /* \"#utility.yul\":9806:9899   */\n      tag_326\n        /* \"#utility.yul\":9895:9898   */\n      dup3\n        /* \"#utility.yul\":9806:9899   */\n      tag_215\n      jump\t// in\n    tag_326:\n        /* \"#utility.yul\":9924:9926   */\n      0x20\n        /* \"#utility.yul\":9919:9922   */\n      dup3\n        /* \"#utility.yul\":9915:9927   */\n      add\n        /* \"#utility.yul\":9908:9927   */\n      swap1\n      pop\n        /* \"#utility.yul\":9567:9933   */\n      swap2\n      swap1\n      pop\n      jump\t// out\n        /* \"#utility.yul\":9939:10358   */\n    tag_112:\n        /* \"#utility.yul\":10105:10109   */\n      0x00\n        /* \"#utility.yul\":10143:10145   */\n      0x20\n        /* \"#utility.yul\":10132:10141   */\n      dup3\n        /* \"#utility.yul\":10128:10146   */\n      add\n        /* \"#utility.yul\":10120:10146   */\n      swap1\n      pop\n        /* \"#utility.yul\":10192:10201   */\n      dup2\n        /* \"#utility.yul\":10186:10190   */\n      dup2\n        /* \"#utility.yul\":10182:10202   */\n      sub\n        /* \"#utility.yul\":10178:10179   */\n      0x00\n        /* \"#utility.yul\":10167:10176   */\n      dup4\n        /* \"#utility.yul\":10163:10180   */\n      add\n        /* \"#utility.yul\":10156:10203   */\n      mstore\n        /* \"#utility.yul\":10220:10351   */\n      tag_328\n        /* \"#utility.yul\":10346:10350   */\n      dup2\n        /* \"#utility.yul\":10220:10351   */\n      tag_216\n      jump\t// in\n    tag_328:\n        /* \"#utility.yul\":10212:10351   */\n      swap1\n      pop\n        /* \"#utility.yul\":9939:10358   */\n      swap2\n      swap1\n      pop\n      jump\t// out\n        /* \"#utility.yul\":10364:10527   */\n    tag_217:\n        /* \"#utility.yul\":10504:10519   */\n      0x4c6f77206c697175696469747900000000000000000000000000000000000000\n        /* \"#utility.yul\":10500:10501   */\n      0x00\n        /* \"#utility.yul\":10492:10498   */\n      dup3\n        /* \"#utility.yul\":10488:10502   */\n      add\n        /* \"#utility.yul\":10481:10520   */\n      mstore\n        /* \"#utility.yul\":10364:10527   */\n      pop\n      jump\t// out\n        /* \"#utility.yul\":10533:10899   */\n    tag_218:\n        /* \"#utility.yul\":10675:10678   */\n      0x00\n        /* \"#utility.yul\":10696:10763   */\n      tag_331\n        /* \"#utility.yul\":10760:10762   */\n      0x0d\n        /* \"#utility.yul\":10755:10758   */\n      dup4\n        /* \"#utility.yul\":10696:10763   */\n      tag_204\n      jump\t// in\n    tag_331:\n        /* \"#utility.yul\":10689:10763   */\n      swap2\n      pop\n        /* \"#utility.yul\":10772:10865   */\n      tag_332\n        /* \"#utility.yul\":10861:10864   */\n      dup3\n        /* \"#utility.yul\":10772:10865   */\n      tag_217\n      jump\t// in\n    tag_332:\n        /* \"#utility.yul\":10890:10892   */\n      0x20\n        /* \"#utility.yul\":10885:10888   */\n      dup3\n        /* \"#utility.yul\":10881:10893   */\n      add\n        /* \"#utility.yul\":10874:10893   */\n      swap1\n      pop\n        /* \"#utility.yul\":10533:10899   */\n      swap2\n      swap1\n      pop\n      jump\t// out\n        /* \"#utility.yul\":10905:11324   */\n    tag_136:\n        /* \"#utility.yul\":11071:11075   */\n      0x00\n        /* \"#utility.yul\":11109:11111   */\n      0x20\n        /* \"#utility.yul\":11098:11107   */\n      dup3\n        /* \"#utility.yul\":11094:11112   */\n      add\n        /* \"#utility.yul\":11086:11112   */\n      swap1\n      pop\n        /* \"#utility.yul\":11158:11167   */\n      dup2\n        /* \"#utility.yul\":11152:11156   */\n      dup2\n        /* \"#utility.yul\":11148:11168   */\n      sub\n        /* \"#utility.yul\":11144:11145   */\n      0x00\n        /* \"#utility.yul\":11133:11142   */\n      dup4\n        /* \"#utility.yul\":11129:11146   */\n      add\n        /* \"#utility.yul\":11122:11169   */\n      mstore\n        /* \"#utility.yul\":11186:11317   */\n      tag_334\n        /* \"#utility.yul\":11312:11316   */\n      dup2\n        /* \"#utility.yul\":11186:11317   */\n      tag_218\n      jump\t// in\n    tag_334:\n        /* \"#utility.yul\":11178:11317   */\n      swap1\n      pop\n        /* \"#utility.yul\":10905:11324   */\n      swap2\n      swap1\n      pop\n      jump\t// out\n        /* \"#utility.yul\":11330:11521   */\n    tag_183:\n        /* \"#utility.yul\":11370:11373   */\n      0x00\n        /* \"#utility.yul\":11389:11409   */\n      tag_336\n        /* \"#utility.yul\":11407:11408   */\n      dup3\n        /* \"#utility.yul\":11389:11409   */\n      tag_199\n      jump\t// in\n    tag_336:\n        /* \"#utility.yul\":11384:11409   */\n      swap2\n      pop\n        /* \"#utility.yul\":11423:11443   */\n      tag_337\n        /* \"#utility.yul\":11441:11442   */\n      dup4\n        /* \"#utility.yul\":11423:11443   */\n      tag_199\n      jump\t// in\n    tag_337:\n        /* \"#utility.yul\":11418:11443   */\n      swap3\n      pop\n        /* \"#utility.yul\":11466:11467   */\n      dup3\n        /* \"#utility.yul\":11463:11464   */\n      dup3\n        /* \"#utility.yul\":11459:11468   */\n      add\n        /* \"#utility.yul\":11452:11468   */\n      swap1\n      pop\n        /* \"#utility.yul\":11487:11490   */\n      dup1\n        /* \"#utility.yul\":11484:11485   */\n      dup3\n        /* \"#utility.yul\":11481:11491   */\n      gt\n        /* \"#utility.yul\":11478:11514   */\n      iszero\n      tag_338\n      jumpi\n        /* \"#utility.yul\":11494:11512   */\n      tag_339\n      tag_208\n      jump\t// in\n    tag_339:\n        /* \"#utility.yul\":11478:11514   */\n    tag_338:\n        /* \"#utility.yul\":11330:11521   */\n      swap3\n      swap2\n      pop\n      pop\n      jump\t// out\n\n    auxdata: 0xa264697066735822122001cdb6a9d860e7ee448230754c012b035a4e3f0be1beec9231db83542570888b64736f6c634300081a0033\n}\n",
				"bytecode": {
					"linkReferences": {},
					"object": "608060405234801561000f575f80fd5b50604051611ac9380380611ac983398181016040528101906100319190610258565b335f73ffffffffffffffffffffffffffffffffffffffff168173ffffffffffffffffffffffffffffffffffffffff16036100a2575f6040517f1e4fbdf700000000000000000000000000000000000000000000000000000000815260040161009991906102a5565b60405180910390fd5b6100b18161013960201b60201c565b508160015f6101000a81548173ffffffffffffffffffffffffffffffffffffffff021916908373ffffffffffffffffffffffffffffffffffffffff1602179055508060025f6101000a81548173ffffffffffffffffffffffffffffffffffffffff021916908373ffffffffffffffffffffffffffffffffffffffff16021790555050506102be565b5f805f9054906101000a900473ffffffffffffffffffffffffffffffffffffffff169050815f806101000a81548173ffffffffffffffffffffffffffffffffffffffff021916908373ffffffffffffffffffffffffffffffffffffffff1602179055508173ffffffffffffffffffffffffffffffffffffffff168173ffffffffffffffffffffffffffffffffffffffff167f8be0079c531659141344cd1fd0a4f28419497f9722a3daafe3b4186f6b6457e060405160405180910390a35050565b5f80fd5b5f73ffffffffffffffffffffffffffffffffffffffff82169050919050565b5f610227826101fe565b9050919050565b6102378161021d565b8114610241575f80fd5b50565b5f815190506102528161022e565b92915050565b5f806040838503121561026e5761026d6101fa565b5b5f61027b85828601610244565b925050602061028c85828601610244565b9150509250929050565b61029f8161021d565b82525050565b5f6020820190506102b85f830184610296565b92915050565b6117fe806102cb5f395ff3fe608060405234801561000f575f80fd5b506004361061009c575f3560e01c80638da5cb5b116100645780638da5cb5b146101325780639cd441da146101505780639d7de6b31461016c578063e4f1f70a14610188578063f2fde38b146101a45761009c565b80630fc63d10146100a057806341976e09146100be5780635f64b55b146100ee578063715018a61461010c5780638014a7aa14610116575b5f80fd5b6100a86101c0565b6040516100b59190611289565b60405180910390f35b6100d860048036038101906100d391906112e1565b6101e5565b6040516100e59190611324565b60405180910390f35b6100f66104a5565b6040516101039190611289565b60405180910390f35b6101146104ca565b005b610130600480360381019061012b9190611367565b6104dd565b005b61013a6107f7565b60405161014791906113a1565b60405180910390f35b61016a600480360381019061016591906113ba565b61081e565b005b610186600480360381019061018191906113ba565b6109ee565b005b6101a2600480360381019061019d9190611367565b610cf6565b005b6101be60048036038101906101b991906112e1565b611010565b005b60015f9054906101000a900473ffffffffffffffffffffffffffffffffffffffff1681565b5f60015f9054906101000a900473ffffffffffffffffffffffffffffffffffffffff1673ffffffffffffffffffffffffffffffffffffffff168273ffffffffffffffffffffffffffffffffffffffff16148061028d575060025f9054906101000a900473ffffffffffffffffffffffffffffffffffffffff1673ffffffffffffffffffffffffffffffffffffffff168273ffffffffffffffffffffffffffffffffffffffff16145b6102cc576040517f08c379a00000000000000000000000000000000000000000000000000000000081526004016102c390611452565b60405180910390fd5b5f60015f9054906101000a900473ffffffffffffffffffffffffffffffffffffffff1673ffffffffffffffffffffffffffffffffffffffff166370a08231306040518263ffffffff1660e01b815260040161032791906113a1565b602060405180830381865afa158015610342573d5f803e3d5ffd5b505050506040513d601f19601f820116820180604052508101906103669190611484565b90505f60025f9054906101000a900473ffffffffffffffffffffffffffffffffffffffff1673ffffffffffffffffffffffffffffffffffffffff166370a08231306040518263ffffffff1660e01b81526004016103c391906113a1565b602060405180830381865afa1580156103de573d5f803e3d5ffd5b505050506040513d601f19601f820116820180604052508101906104029190611484565b905060015f9054906101000a900473ffffffffffffffffffffffffffffffffffffffff1673ffffffffffffffffffffffffffffffffffffffff168473ffffffffffffffffffffffffffffffffffffffff161461047c5780670de0b6b3a76400008361046d91906114dc565b610477919061154a565b61049c565b81670de0b6b3a76400008261049191906114dc565b61049b919061154a565b5b92505050919050565b60025f9054906101000a900473ffffffffffffffffffffffffffffffffffffffff1681565b6104d2611094565b6104db5f61111b565b565b5f811161051f576040517f08c379a0000000000000000000000000000000000000000000000000000000008152600401610516906115c4565b60405180910390fd5b5f60015f9054906101000a900473ffffffffffffffffffffffffffffffffffffffff1673ffffffffffffffffffffffffffffffffffffffff166370a08231306040518263ffffffff1660e01b815260040161057a91906113a1565b602060405180830381865afa158015610595573d5f803e3d5ffd5b505050506040513d601f19601f820116820180604052508101906105b99190611484565b90505f60025f9054906101000a900473ffffffffffffffffffffffffffffffffffffffff1673ffffffffffffffffffffffffffffffffffffffff166370a08231306040518263ffffffff1660e01b815260040161061691906113a1565b602060405180830381865afa158015610631573d5f803e3d5ffd5b505050506040513d601f19601f820116820180604052508101906106559190611484565b90505f6106638483856111dc565b905060025f9054906101000a900473ffffffffffffffffffffffffffffffffffffffff1673ffffffffffffffffffffffffffffffffffffffff166323b872dd3330876040518463ffffffff1660e01b81526004016106c3939291906115e2565b6020604051808303815f875af11580156106df573d5f803e3d5ffd5b505050506040513d601f19601f82011682018060405250810190610703919061164c565b5060015f9054906101000a900473ffffffffffffffffffffffffffffffffffffffff1673ffffffffffffffffffffffffffffffffffffffff1663a9059cbb33836040518363ffffffff1660e01b8152600401610760929190611677565b6020604051808303815f875af115801561077c573d5f803e3d5ffd5b505050506040513d601f19601f820116820180604052508101906107a0919061164c565b503373ffffffffffffffffffffffffffffffffffffffff167fd5a1cd88ddd329cc1ddf861a21708efa9ef3136b88e1420c21f91ef6f95ad02485836040516107e992919061169e565b60405180910390a250505050565b5f805f9054906101000a900473ffffffffffffffffffffffffffffffffffffffff16905090565b610826611094565b5f8211801561083457505f81115b610873576040517f08c379a000000000000000000000000000000000000000000000000000000000815260040161086a9061170f565b60405180910390fd5b60015f9054906101000a900473ffffffffffffffffffffffffffffffffffffffff1673ffffffffffffffffffffffffffffffffffffffff166323b872dd3330856040518463ffffffff1660e01b81526004016108d1939291906115e2565b6020604051808303815f875af11580156108ed573d5f803e3d5ffd5b505050506040513d601f19601f82011682018060405250810190610911919061164c565b5060025f9054906101000a900473ffffffffffffffffffffffffffffffffffffffff1673ffffffffffffffffffffffffffffffffffffffff166323b872dd3330846040518463ffffffff1660e01b8152600401610970939291906115e2565b6020604051808303815f875af115801561098c573d5f803e3d5ffd5b505050506040513d601f19601f820116820180604052508101906109b0919061164c565b507f38f8a0c92f4c5b0b6877f878cb4c0c8d348a47b76d716c8e78f425043df9515b82826040516109e292919061169e565b60405180910390a15050565b6109f6611094565b5f60015f9054906101000a900473ffffffffffffffffffffffffffffffffffffffff1673ffffffffffffffffffffffffffffffffffffffff166370a08231306040518263ffffffff1660e01b8152600401610a5191906113a1565b602060405180830381865afa158015610a6c573d5f803e3d5ffd5b505050506040513d601f19601f82011682018060405250810190610a909190611484565b90505f60025f9054906101000a900473ffffffffffffffffffffffffffffffffffffffff1673ffffffffffffffffffffffffffffffffffffffff166370a08231306040518263ffffffff1660e01b8152600401610aed91906113a1565b602060405180830381865afa158015610b08573d5f803e3d5ffd5b505050506040513d601f19601f82011682018060405250810190610b2c9190611484565b9050818411158015610b3e5750808311155b610b7d576040517f08c379a0000000000000000000000000000000000000000000000000000000008152600401610b7490611777565b60405180910390fd5b60015f9054906101000a900473ffffffffffffffffffffffffffffffffffffffff1673ffffffffffffffffffffffffffffffffffffffff1663a9059cbb33866040518363ffffffff1660e01b8152600401610bd9929190611677565b6020604051808303815f875af1158015610bf5573d5f803e3d5ffd5b505050506040513d601f19601f82011682018060405250810190610c19919061164c565b5060025f9054906101000a900473ffffffffffffffffffffffffffffffffffffffff1673ffffffffffffffffffffffffffffffffffffffff1663a9059cbb33856040518363ffffffff1660e01b8152600401610c76929190611677565b6020604051808303815f875af1158015610c92573d5f803e3d5ffd5b505050506040513d601f19601f82011682018060405250810190610cb6919061164c565b507f6f0f96292ae0038c04f9b6bab30f185d9ca02c471d0983f563f2a4f674aef1378484604051610ce892919061169e565b60405180910390a150505050565b5f8111610d38576040517f08c379a0000000000000000000000000000000000000000000000000000000008152600401610d2f906115c4565b60405180910390fd5b5f60015f9054906101000a900473ffffffffffffffffffffffffffffffffffffffff1673ffffffffffffffffffffffffffffffffffffffff166370a08231306040518263ffffffff1660e01b8152600401610d9391906113a1565b602060405180830381865afa158015610dae573d5f803e3d5ffd5b505050506040513d601f19601f82011682018060405250810190610dd29190611484565b90505f60025f9054906101000a900473ffffffffffffffffffffffffffffffffffffffff1673ffffffffffffffffffffffffffffffffffffffff166370a08231306040518263ffffffff1660e01b8152600401610e2f91906113a1565b602060405180830381865afa158015610e4a573d5f803e3d5ffd5b505050506040513d601f19601f82011682018060405250810190610e6e9190611484565b90505f610e7c8484846111dc565b905060015f9054906101000a900473ffffffffffffffffffffffffffffffffffffffff1673ffffffffffffffffffffffffffffffffffffffff166323b872dd3330876040518463ffffffff1660e01b8152600401610edc939291906115e2565b6020604051808303815f875af1158015610ef8573d5f803e3d5ffd5b505050506040513d601f19601f82011682018060405250810190610f1c919061164c565b5060025f9054906101000a900473ffffffffffffffffffffffffffffffffffffffff1673ffffffffffffffffffffffffffffffffffffffff1663a9059cbb33836040518363ffffffff1660e01b8152600401610f79929190611677565b6020604051808303815f875af1158015610f95573d5f803e3d5ffd5b505050506040513d601f19601f82011682018060405250810190610fb9919061164c565b503373ffffffffffffffffffffffffffffffffffffffff167fd5a1cd88ddd329cc1ddf861a21708efa9ef3136b88e1420c21f91ef6f95ad024858360405161100292919061169e565b60405180910390a250505050565b611018611094565b5f73ffffffffffffffffffffffffffffffffffffffff168173ffffffffffffffffffffffffffffffffffffffff1603611088575f6040517f1e4fbdf700000000000000000000000000000000000000000000000000000000815260040161107f91906113a1565b60405180910390fd5b6110918161111b565b50565b61109c611208565b73ffffffffffffffffffffffffffffffffffffffff166110ba6107f7565b73ffffffffffffffffffffffffffffffffffffffff1614611119576110dd611208565b6040517f118cdaa700000000000000000000000000000000000000000000000000000000815260040161111091906113a1565b60405180910390fd5b565b5f805f9054906101000a900473ffffffffffffffffffffffffffffffffffffffff169050815f806101000a81548173ffffffffffffffffffffffffffffffffffffffff021916908373ffffffffffffffffffffffffffffffffffffffff1602179055508173ffffffffffffffffffffffffffffffffffffffff168173ffffffffffffffffffffffffffffffffffffffff167f8be0079c531659141344cd1fd0a4f28419497f9722a3daafe3b4186f6b6457e060405160405180910390a35050565b5f83836111e99190611795565b82856111f591906114dc565b6111ff919061154a565b90509392505050565b5f33905090565b5f73ffffffffffffffffffffffffffffffffffffffff82169050919050565b5f819050919050565b5f61125161124c6112478461120f565b61122e565b61120f565b9050919050565b5f61126282611237565b9050919050565b5f61127382611258565b9050919050565b61128381611269565b82525050565b5f60208201905061129c5f83018461127a565b92915050565b5f80fd5b5f6112b08261120f565b9050919050565b6112c0816112a6565b81146112ca575f80fd5b50565b5f813590506112db816112b7565b92915050565b5f602082840312156112f6576112f56112a2565b5b5f611303848285016112cd565b91505092915050565b5f819050919050565b61131e8161130c565b82525050565b5f6020820190506113375f830184611315565b92915050565b6113468161130c565b8114611350575f80fd5b50565b5f813590506113618161133d565b92915050565b5f6020828403121561137c5761137b6112a2565b5b5f61138984828501611353565b91505092915050565b61139b816112a6565b82525050565b5f6020820190506113b45f830184611392565b92915050565b5f80604083850312156113d0576113cf6112a2565b5b5f6113dd85828601611353565b92505060206113ee85828601611353565b9150509250929050565b5f82825260208201905092915050565b7f496e76616c696420746f6b656e000000000000000000000000000000000000005f82015250565b5f61143c600d836113f8565b915061144782611408565b602082019050919050565b5f6020820190508181035f83015261146981611430565b9050919050565b5f8151905061147e8161133d565b92915050565b5f60208284031215611499576114986112a2565b5b5f6114a684828501611470565b91505092915050565b7f4e487b71000000000000000000000000000000000000000000000000000000005f52601160045260245ffd5b5f6114e68261130c565b91506114f18361130c565b92508282026114ff8161130c565b91508282048414831517611516576115156114af565b5b5092915050565b7f4e487b71000000000000000000000000000000000000000000000000000000005f52601260045260245ffd5b5f6115548261130c565b915061155f8361130c565b92508261156f5761156e61151d565b5b828204905092915050565b7f416d6f756e74206d757374206265203e203000000000000000000000000000005f82015250565b5f6115ae6012836113f8565b91506115b98261157a565b602082019050919050565b5f6020820190508181035f8301526115db816115a2565b9050919050565b5f6060820190506115f55f830186611392565b6116026020830185611392565b61160f6040830184611315565b949350505050565b5f8115159050919050565b61162b81611617565b8114611635575f80fd5b50565b5f8151905061164681611622565b92915050565b5f60208284031215611661576116606112a2565b5b5f61166e84828501611638565b91505092915050565b5f60408201905061168a5f830185611392565b6116976020830184611315565b9392505050565b5f6040820190506116b15f830185611315565b6116be6020830184611315565b9392505050565b7f416d6f756e7473206d757374206265203e2030000000000000000000000000005f82015250565b5f6116f96013836113f8565b9150611704826116c5565b602082019050919050565b5f6020820190508181035f830152611726816116ed565b9050919050565b7f4c6f77206c6971756964697479000000000000000000000000000000000000005f82015250565b5f611761600d836113f8565b915061176c8261172d565b602082019050919050565b5f6020820190508181035f83015261178e81611755565b9050919050565b5f61179f8261130c565b91506117aa8361130c565b92508282019050808211156117c2576117c16114af565b5b9291505056fea264697066735822122001cdb6a9d860e7ee448230754c012b035a4e3f0be1beec9231db83542570888b64736f6c634300081a0033",
					"opcodes": "PUSH1 0x80 PUSH1 0x40 MSTORE CALLVALUE DUP1 ISZERO PUSH2 0xF JUMPI PUSH0 DUP1 REVERT JUMPDEST POP PUSH1 0x40 MLOAD PUSH2 0x1AC9 CODESIZE SUB DUP1 PUSH2 0x1AC9 DUP4 CODECOPY DUP2 DUP2 ADD PUSH1 0x40 MSTORE DUP2 ADD SWAP1 PUSH2 0x31 SWAP2 SWAP1 PUSH2 0x258 JUMP JUMPDEST CALLER PUSH0 PUSH20 0xFFFFFFFFFFFFFFFFFFFFFFFFFFFFFFFFFFFFFFFF AND DUP2 PUSH20 0xFFFFFFFFFFFFFFFFFFFFFFFFFFFFFFFFFFFFFFFF AND SUB PUSH2 0xA2 JUMPI PUSH0 PUSH1 0x40 MLOAD PUSH32 0x1E4FBDF700000000000000000000000000000000000000000000000000000000 DUP2 MSTORE PUSH1 0x4 ADD PUSH2 0x99 SWAP2 SWAP1 PUSH2 0x2A5 JUMP JUMPDEST PUSH1 0x40 MLOAD DUP1 SWAP2 SUB SWAP1 REVERT JUMPDEST PUSH2 0xB1 DUP2 PUSH2 0x139 PUSH1 0x20 SHL PUSH1 0x20 SHR JUMP JUMPDEST POP DUP2 PUSH1 0x1 PUSH0 PUSH2 0x100 EXP DUP2 SLOAD DUP2 PUSH20 0xFFFFFFFFFFFFFFFFFFFFFFFFFFFFFFFFFFFFFFFF MUL NOT AND SWAP1 DUP4 PUSH20 0xFFFFFFFFFFFFFFFFFFFFFFFFFFFFFFFFFFFFFFFF AND MUL OR SWAP1 SSTORE POP DUP1 PUSH1 0x2 PUSH0 PUSH2 0x100 EXP DUP2 SLOAD DUP2 PUSH20 0xFFFFFFFFFFFFFFFFFFFFFFFFFFFFFFFFFFFFFFFF MUL NOT AND SWAP1 DUP4 PUSH20 0xFFFFFFFFFFFFFFFFFFFFFFFFFFFFFFFFFFFFFFFF AND MUL OR SWAP1 SSTORE POP POP POP PUSH2 0x2BE JUMP JUMPDEST PUSH0 DUP1 PUSH0 SWAP1 SLOAD SWAP1 PUSH2 0x100 EXP SWAP1 DIV PUSH20 0xFFFFFFFFFFFFFFFFFFFFFFFFFFFFFFFFFFFFFFFF AND SWAP1 POP DUP2 PUSH0 DUP1 PUSH2 0x100 EXP DUP2 SLOAD DUP2 PUSH20 0xFFFFFFFFFFFFFFFFFFFFFFFFFFFFFFFFFFFFFFFF MUL NOT AND SWAP1 DUP4 PUSH20 0xFFFFFFFFFFFFFFFFFFFFFFFFFFFFFFFFFFFFFFFF AND MUL OR SWAP1 SSTORE POP DUP2 PUSH20 0xFFFFFFFFFFFFFFFFFFFFFFFFFFFFFFFFFFFFFFFF AND DUP2 PUSH20 0xFFFFFFFFFFFFFFFFFFFFFFFFFFFFFFFFFFFFFFFF AND PUSH32 0x8BE0079C531659141344CD1FD0A4F28419497F9722A3DAAFE3B4186F6B6457E0 PUSH1 0x40 MLOAD PUSH1 0x40 MLOAD DUP1 SWAP2 SUB SWAP1 LOG3 POP POP JUMP JUMPDEST PUSH0 DUP1 REVERT JUMPDEST PUSH0 PUSH20 0xFFFFFFFFFFFFFFFFFFFFFFFFFFFFFFFFFFFFFFFF DUP3 AND SWAP1 POP SWAP2 SWAP1 POP JUMP JUMPDEST PUSH0 PUSH2 0x227 DUP3 PUSH2 0x1FE JUMP JUMPDEST SWAP1 POP SWAP2 SWAP1 POP JUMP JUMPDEST PUSH2 0x237 DUP2 PUSH2 0x21D JUMP JUMPDEST DUP2 EQ PUSH2 0x241 JUMPI PUSH0 DUP1 REVERT JUMPDEST POP JUMP JUMPDEST PUSH0 DUP2 MLOAD SWAP1 POP PUSH2 0x252 DUP2 PUSH2 0x22E JUMP JUMPDEST SWAP3 SWAP2 POP POP JUMP JUMPDEST PUSH0 DUP1 PUSH1 0x40 DUP4 DUP6 SUB SLT ISZERO PUSH2 0x26E JUMPI PUSH2 0x26D PUSH2 0x1FA JUMP JUMPDEST JUMPDEST PUSH0 PUSH2 0x27B DUP6 DUP3 DUP7 ADD PUSH2 0x244 JUMP JUMPDEST SWAP3 POP POP PUSH1 0x20 PUSH2 0x28C DUP6 DUP3 DUP7 ADD PUSH2 0x244 JUMP JUMPDEST SWAP2 POP POP SWAP3 POP SWAP3 SWAP1 POP JUMP JUMPDEST PUSH2 0x29F DUP2 PUSH2 0x21D JUMP JUMPDEST DUP3 MSTORE POP POP JUMP JUMPDEST PUSH0 PUSH1 0x20 DUP3 ADD SWAP1 POP PUSH2 0x2B8 PUSH0 DUP4 ADD DUP5 PUSH2 0x296 JUMP JUMPDEST SWAP3 SWAP2 POP POP JUMP JUMPDEST PUSH2 0x17FE DUP1 PUSH2 0x2CB PUSH0 CODECOPY PUSH0 RETURN INVALID PUSH1 0x80 PUSH1 0x40 MSTORE CALLVALUE DUP1 ISZERO PUSH2 0xF JUMPI PUSH0 DUP1 REVERT JUMPDEST POP PUSH1 0x4 CALLDATASIZE LT PUSH2 0x9C JUMPI PUSH0 CALLDATALOAD PUSH1 0xE0 SHR DUP1 PUSH4 0x8DA5CB5B GT PUSH2 0x64 JUMPI DUP1 PUSH4 0x8DA5CB5B EQ PUSH2 0x132 JUMPI DUP1 PUSH4 0x9CD441DA EQ PUSH2 0x150 JUMPI DUP1 PUSH4 0x9D7DE6B3 EQ PUSH2 0x16C JUMPI DUP1 PUSH4 0xE4F1F70A EQ PUSH2 0x188 JUMPI DUP1 PUSH4 0xF2FDE38B EQ PUSH2 0x1A4 JUMPI PUSH2 0x9C JUMP JUMPDEST DUP1 PUSH4 0xFC63D10 EQ PUSH2 0xA0 JUMPI DUP1 PUSH4 0x41976E09 EQ PUSH2 0xBE JUMPI DUP1 PUSH4 0x5F64B55B EQ PUSH2 0xEE JUMPI DUP1 PUSH4 0x715018A6 EQ PUSH2 0x10C JUMPI DUP1 PUSH4 0x8014A7AA EQ PUSH2 0x116 JUMPI JUMPDEST PUSH0 DUP1 REVERT JUMPDEST PUSH2 0xA8 PUSH2 0x1C0 JUMP JUMPDEST PUSH1 0x40 MLOAD PUSH2 0xB5 SWAP2 SWAP1 PUSH2 0x1289 JUMP JUMPDEST PUSH1 0x40 MLOAD DUP1 SWAP2 SUB SWAP1 RETURN JUMPDEST PUSH2 0xD8 PUSH1 0x4 DUP1 CALLDATASIZE SUB DUP2 ADD SWAP1 PUSH2 0xD3 SWAP2 SWAP1 PUSH2 0x12E1 JUMP JUMPDEST PUSH2 0x1E5 JUMP JUMPDEST PUSH1 0x40 MLOAD PUSH2 0xE5 SWAP2 SWAP1 PUSH2 0x1324 JUMP JUMPDEST PUSH1 0x40 MLOAD DUP1 SWAP2 SUB SWAP1 RETURN JUMPDEST PUSH2 0xF6 PUSH2 0x4A5 JUMP JUMPDEST PUSH1 0x40 MLOAD PUSH2 0x103 SWAP2 SWAP1 PUSH2 0x1289 JUMP JUMPDEST PUSH1 0x40 MLOAD DUP1 SWAP2 SUB SWAP1 RETURN JUMPDEST PUSH2 0x114 PUSH2 0x4CA JUMP JUMPDEST STOP JUMPDEST PUSH2 0x130 PUSH1 0x4 DUP1 CALLDATASIZE SUB DUP2 ADD SWAP1 PUSH2 0x12B SWAP2 SWAP1 PUSH2 0x1367 JUMP JUMPDEST PUSH2 0x4DD JUMP JUMPDEST STOP JUMPDEST PUSH2 0x13A PUSH2 0x7F7 JUMP JUMPDEST PUSH1 0x40 MLOAD PUSH2 0x147 SWAP2 SWAP1 PUSH2 0x13A1 JUMP JUMPDEST PUSH1 0x40 MLOAD DUP1 SWAP2 SUB SWAP1 RETURN JUMPDEST PUSH2 0x16A PUSH1 0x4 DUP1 CALLDATASIZE SUB DUP2 ADD SWAP1 PUSH2 0x165 SWAP2 SWAP1 PUSH2 0x13BA JUMP JUMPDEST PUSH2 0x81E JUMP JUMPDEST STOP JUMPDEST PUSH2 0x186 PUSH1 0x4 DUP1 CALLDATASIZE SUB DUP2 ADD SWAP1 PUSH2 0x181 SWAP2 SWAP1 PUSH2 0x13BA JUMP JUMPDEST PUSH2 0x9EE JUMP JUMPDEST STOP JUMPDEST PUSH2 0x1A2 PUSH1 0x4 DUP1 CALLDATASIZE SUB DUP2 ADD SWAP1 PUSH2 0x19D SWAP2 SWAP1 PUSH2 0x1367 JUMP JUMPDEST PUSH2 0xCF6 JUMP JUMPDEST STOP JUMPDEST PUSH2 0x1BE PUSH1 0x4 DUP1 CALLDATASIZE SUB DUP2 ADD SWAP1 PUSH2 0x1B9 SWAP2 SWAP1 PUSH2 0x12E1 JUMP JUMPDEST PUSH2 0x1010 JUMP JUMPDEST STOP JUMPDEST PUSH1 0x1 PUSH0 SWAP1 SLOAD SWAP1 PUSH2 0x100 EXP SWAP1 DIV PUSH20 0xFFFFFFFFFFFFFFFFFFFFFFFFFFFFFFFFFFFFFFFF AND DUP2 JUMP JUMPDEST PUSH0 PUSH1 0x1 PUSH0 SWAP1 SLOAD SWAP1 PUSH2 0x100 EXP SWAP1 DIV PUSH20 0xFFFFFFFFFFFFFFFFFFFFFFFFFFFFFFFFFFFFFFFF AND PUSH20 0xFFFFFFFFFFFFFFFFFFFFFFFFFFFFFFFFFFFFFFFF AND DUP3 PUSH20 0xFFFFFFFFFFFFFFFFFFFFFFFFFFFFFFFFFFFFFFFF AND EQ DUP1 PUSH2 0x28D JUMPI POP PUSH1 0x2 PUSH0 SWAP1 SLOAD SWAP1 PUSH2 0x100 EXP SWAP1 DIV PUSH20 0xFFFFFFFFFFFFFFFFFFFFFFFFFFFFFFFFFFFFFFFF AND PUSH20 0xFFFFFFFFFFFFFFFFFFFFFFFFFFFFFFFFFFFFFFFF AND DUP3 PUSH20 0xFFFFFFFFFFFFFFFFFFFFFFFFFFFFFFFFFFFFFFFF AND EQ JUMPDEST PUSH2 0x2CC JUMPI PUSH1 0x40 MLOAD PUSH32 0x8C379A000000000000000000000000000000000000000000000000000000000 DUP2 MSTORE PUSH1 0x4 ADD PUSH2 0x2C3 SWAP1 PUSH2 0x1452 JUMP JUMPDEST PUSH1 0x40 MLOAD DUP1 SWAP2 SUB SWAP1 REVERT JUMPDEST PUSH0 PUSH1 0x1 PUSH0 SWAP1 SLOAD SWAP1 PUSH2 0x100 EXP SWAP1 DIV PUSH20 0xFFFFFFFFFFFFFFFFFFFFFFFFFFFFFFFFFFFFFFFF AND PUSH20 0xFFFFFFFFFFFFFFFFFFFFFFFFFFFFFFFFFFFFFFFF AND PUSH4 0x70A08231 ADDRESS PUSH1 0x40 MLOAD DUP3 PUSH4 0xFFFFFFFF AND PUSH1 0xE0 SHL DUP2 MSTORE PUSH1 0x4 ADD PUSH2 0x327 SWAP2 SWAP1 PUSH2 0x13A1 JUMP JUMPDEST PUSH1 0x20 PUSH1 0x40 MLOAD DUP1 DUP4 SUB DUP2 DUP7 GAS STATICCALL ISZERO DUP1 ISZERO PUSH2 0x342 JUMPI RETURNDATASIZE PUSH0 DUP1 RETURNDATACOPY RETURNDATASIZE PUSH0 REVERT JUMPDEST POP POP POP POP PUSH1 0x40 MLOAD RETURNDATASIZE PUSH1 0x1F NOT PUSH1 0x1F DUP3 ADD AND DUP3 ADD DUP1 PUSH1 0x40 MSTORE POP DUP2 ADD SWAP1 PUSH2 0x366 SWAP2 SWAP1 PUSH2 0x1484 JUMP JUMPDEST SWAP1 POP PUSH0 PUSH1 0x2 PUSH0 SWAP1 SLOAD SWAP1 PUSH2 0x100 EXP SWAP1 DIV PUSH20 0xFFFFFFFFFFFFFFFFFFFFFFFFFFFFFFFFFFFFFFFF AND PUSH20 0xFFFFFFFFFFFFFFFFFFFFFFFFFFFFFFFFFFFFFFFF AND PUSH4 0x70A08231 ADDRESS PUSH1 0x40 MLOAD DUP3 PUSH4 0xFFFFFFFF AND PUSH1 0xE0 SHL DUP2 MSTORE PUSH1 0x4 ADD PUSH2 0x3C3 SWAP2 SWAP1 PUSH2 0x13A1 JUMP JUMPDEST PUSH1 0x20 PUSH1 0x40 MLOAD DUP1 DUP4 SUB DUP2 DUP7 GAS STATICCALL ISZERO DUP1 ISZERO PUSH2 0x3DE JUMPI RETURNDATASIZE PUSH0 DUP1 RETURNDATACOPY RETURNDATASIZE PUSH0 REVERT JUMPDEST POP POP POP POP PUSH1 0x40 MLOAD RETURNDATASIZE PUSH1 0x1F NOT PUSH1 0x1F DUP3 ADD AND DUP3 ADD DUP1 PUSH1 0x40 MSTORE POP DUP2 ADD SWAP1 PUSH2 0x402 SWAP2 SWAP1 PUSH2 0x1484 JUMP JUMPDEST SWAP1 POP PUSH1 0x1 PUSH0 SWAP1 SLOAD SWAP1 PUSH2 0x100 EXP SWAP1 DIV PUSH20 0xFFFFFFFFFFFFFFFFFFFFFFFFFFFFFFFFFFFFFFFF AND PUSH20 0xFFFFFFFFFFFFFFFFFFFFFFFFFFFFFFFFFFFFFFFF AND DUP5 PUSH20 0xFFFFFFFFFFFFFFFFFFFFFFFFFFFFFFFFFFFFFFFF AND EQ PUSH2 0x47C JUMPI DUP1 PUSH8 0xDE0B6B3A7640000 DUP4 PUSH2 0x46D SWAP2 SWAP1 PUSH2 0x14DC JUMP JUMPDEST PUSH2 0x477 SWAP2 SWAP1 PUSH2 0x154A JUMP JUMPDEST PUSH2 0x49C JUMP JUMPDEST DUP2 PUSH8 0xDE0B6B3A7640000 DUP3 PUSH2 0x491 SWAP2 SWAP1 PUSH2 0x14DC JUMP JUMPDEST PUSH2 0x49B SWAP2 SWAP1 PUSH2 0x154A JUMP JUMPDEST JUMPDEST SWAP3 POP POP POP SWAP2 SWAP1 POP JUMP JUMPDEST PUSH1 0x2 PUSH0 SWAP1 SLOAD SWAP1 PUSH2 0x100 EXP SWAP1 DIV PUSH20 0xFFFFFFFFFFFFFFFFFFFFFFFFFFFFFFFFFFFFFFFF AND DUP2 JUMP JUMPDEST PUSH2 0x4D2 PUSH2 0x1094 JUMP JUMPDEST PUSH2 0x4DB PUSH0 PUSH2 0x111B JUMP JUMPDEST JUMP JUMPDEST PUSH0 DUP2 GT PUSH2 0x51F JUMPI PUSH1 0x40 MLOAD PUSH32 0x8C379A000000000000000000000000000000000000000000000000000000000 DUP2 MSTORE PUSH1 0x4 ADD PUSH2 0x516 SWAP1 PUSH2 0x15C4 JUMP JUMPDEST PUSH1 0x40 MLOAD DUP1 SWAP2 SUB SWAP1 REVERT JUMPDEST PUSH0 PUSH1 0x1 PUSH0 SWAP1 SLOAD SWAP1 PUSH2 0x100 EXP SWAP1 DIV PUSH20 0xFFFFFFFFFFFFFFFFFFFFFFFFFFFFFFFFFFFFFFFF AND PUSH20 0xFFFFFFFFFFFFFFFFFFFFFFFFFFFFFFFFFFFFFFFF AND PUSH4 0x70A08231 ADDRESS PUSH1 0x40 MLOAD DUP3 PUSH4 0xFFFFFFFF AND PUSH1 0xE0 SHL DUP2 MSTORE PUSH1 0x4 ADD PUSH2 0x57A SWAP2 SWAP1 PUSH2 0x13A1 JUMP JUMPDEST PUSH1 0x20 PUSH1 0x40 MLOAD DUP1 DUP4 SUB DUP2 DUP7 GAS STATICCALL ISZERO DUP1 ISZERO PUSH2 0x595 JUMPI RETURNDATASIZE PUSH0 DUP1 RETURNDATACOPY RETURNDATASIZE PUSH0 REVERT JUMPDEST POP POP POP POP PUSH1 0x40 MLOAD RETURNDATASIZE PUSH1 0x1F NOT PUSH1 0x1F DUP3 ADD AND DUP3 ADD DUP1 PUSH1 0x40 MSTORE POP DUP2 ADD SWAP1 PUSH2 0x5B9 SWAP2 SWAP1 PUSH2 0x1484 JUMP JUMPDEST SWAP1 POP PUSH0 PUSH1 0x2 PUSH0 SWAP1 SLOAD SWAP1 PUSH2 0x100 EXP SWAP1 DIV PUSH20 0xFFFFFFFFFFFFFFFFFFFFFFFFFFFFFFFFFFFFFFFF AND PUSH20 0xFFFFFFFFFFFFFFFFFFFFFFFFFFFFFFFFFFFFFFFF AND PUSH4 0x70A08231 ADDRESS PUSH1 0x40 MLOAD DUP3 PUSH4 0xFFFFFFFF AND PUSH1 0xE0 SHL DUP2 MSTORE PUSH1 0x4 ADD PUSH2 0x616 SWAP2 SWAP1 PUSH2 0x13A1 JUMP JUMPDEST PUSH1 0x20 PUSH1 0x40 MLOAD DUP1 DUP4 SUB DUP2 DUP7 GAS STATICCALL ISZERO DUP1 ISZERO PUSH2 0x631 JUMPI RETURNDATASIZE PUSH0 DUP1 RETURNDATACOPY RETURNDATASIZE PUSH0 REVERT JUMPDEST POP POP POP POP PUSH1 0x40 MLOAD RETURNDATASIZE PUSH1 0x1F NOT PUSH1 0x1F DUP3 ADD AND DUP3 ADD DUP1 PUSH1 0x40 MSTORE POP DUP2 ADD SWAP1 PUSH2 0x655 SWAP2 SWAP1 PUSH2 0x1484 JUMP JUMPDEST SWAP1 POP PUSH0 PUSH2 0x663 DUP5 DUP4 DUP6 PUSH2 0x11DC JUMP JUMPDEST SWAP1 POP PUSH1 0x2 PUSH0 SWAP1 SLOAD SWAP1 PUSH2 0x100 EXP SWAP1 DIV PUSH20 0xFFFFFFFFFFFFFFFFFFFFFFFFFFFFFFFFFFFFFFFF AND PUSH20 0xFFFFFFFFFFFFFFFFFFFFFFFFFFFFFFFFFFFFFFFF AND PUSH4 0x23B872DD CALLER ADDRESS DUP8 PUSH1 0x40 MLOAD DUP5 PUSH4 0xFFFFFFFF AND PUSH1 0xE0 SHL DUP2 MSTORE PUSH1 0x4 ADD PUSH2 0x6C3 SWAP4 SWAP3 SWAP2 SWAP1 PUSH2 0x15E2 JUMP JUMPDEST PUSH1 0x20 PUSH1 0x40 MLOAD DUP1 DUP4 SUB DUP2 PUSH0 DUP8 GAS CALL ISZERO DUP1 ISZERO PUSH2 0x6DF JUMPI RETURNDATASIZE PUSH0 DUP1 RETURNDATACOPY RETURNDATASIZE PUSH0 REVERT JUMPDEST POP POP POP POP PUSH1 0x40 MLOAD RETURNDATASIZE PUSH1 0x1F NOT PUSH1 0x1F DUP3 ADD AND DUP3 ADD DUP1 PUSH1 0x40 MSTORE POP DUP2 ADD SWAP1 PUSH2 0x703 SWAP2 SWAP1 PUSH2 0x164C JUMP JUMPDEST POP PUSH1 0x1 PUSH0 SWAP1 SLOAD SWAP1 PUSH2 0x100 EXP SWAP1 DIV PUSH20 0xFFFFFFFFFFFFFFFFFFFFFFFFFFFFFFFFFFFFFFFF AND PUSH20 0xFFFFFFFFFFFFFFFFFFFFFFFFFFFFFFFFFFFFFFFF AND PUSH4 0xA9059CBB CALLER DUP4 PUSH1 0x40 MLOAD DUP4 PUSH4 0xFFFFFFFF AND PUSH1 0xE0 SHL DUP2 MSTORE PUSH1 0x4 ADD PUSH2 0x760 SWAP3 SWAP2 SWAP1 PUSH2 0x1677 JUMP JUMPDEST PUSH1 0x20 PUSH1 0x40 MLOAD DUP1 DUP4 SUB DUP2 PUSH0 DUP8 GAS CALL ISZERO DUP1 ISZERO PUSH2 0x77C JUMPI RETURNDATASIZE PUSH0 DUP1 RETURNDATACOPY RETURNDATASIZE PUSH0 REVERT JUMPDEST POP POP POP POP PUSH1 0x40 MLOAD RETURNDATASIZE PUSH1 0x1F NOT PUSH1 0x1F DUP3 ADD AND DUP3 ADD DUP1 PUSH1 0x40 MSTORE POP DUP2 ADD SWAP1 PUSH2 0x7A0 SWAP2 SWAP1 PUSH2 0x164C JUMP JUMPDEST POP CALLER PUSH20 0xFFFFFFFFFFFFFFFFFFFFFFFFFFFFFFFFFFFFFFFF AND PUSH32 0xD5A1CD88DDD329CC1DDF861A21708EFA9EF3136B88E1420C21F91EF6F95AD024 DUP6 DUP4 PUSH1 0x40 MLOAD PUSH2 0x7E9 SWAP3 SWAP2 SWAP1 PUSH2 0x169E JUMP JUMPDEST PUSH1 0x40 MLOAD DUP1 SWAP2 SUB SWAP1 LOG2 POP POP POP POP JUMP JUMPDEST PUSH0 DUP1 PUSH0 SWAP1 SLOAD SWAP1 PUSH2 0x100 EXP SWAP1 DIV PUSH20 0xFFFFFFFFFFFFFFFFFFFFFFFFFFFFFFFFFFFFFFFF AND SWAP1 POP SWAP1 JUMP JUMPDEST PUSH2 0x826 PUSH2 0x1094 JUMP JUMPDEST PUSH0 DUP3 GT DUP1 ISZERO PUSH2 0x834 JUMPI POP PUSH0 DUP2 GT JUMPDEST PUSH2 0x873 JUMPI PUSH1 0x40 MLOAD PUSH32 0x8C379A000000000000000000000000000000000000000000000000000000000 DUP2 MSTORE PUSH1 0x4 ADD PUSH2 0x86A SWAP1 PUSH2 0x170F JUMP JUMPDEST PUSH1 0x40 MLOAD DUP1 SWAP2 SUB SWAP1 REVERT JUMPDEST PUSH1 0x1 PUSH0 SWAP1 SLOAD SWAP1 PUSH2 0x100 EXP SWAP1 DIV PUSH20 0xFFFFFFFFFFFFFFFFFFFFFFFFFFFFFFFFFFFFFFFF AND PUSH20 0xFFFFFFFFFFFFFFFFFFFFFFFFFFFFFFFFFFFFFFFF AND PUSH4 0x23B872DD CALLER ADDRESS DUP6 PUSH1 0x40 MLOAD DUP5 PUSH4 0xFFFFFFFF AND PUSH1 0xE0 SHL DUP2 MSTORE PUSH1 0x4 ADD PUSH2 0x8D1 SWAP4 SWAP3 SWAP2 SWAP1 PUSH2 0x15E2 JUMP JUMPDEST PUSH1 0x20 PUSH1 0x40 MLOAD DUP1 DUP4 SUB DUP2 PUSH0 DUP8 GAS CALL ISZERO DUP1 ISZERO PUSH2 0x8ED JUMPI RETURNDATASIZE PUSH0 DUP1 RETURNDATACOPY RETURNDATASIZE PUSH0 REVERT JUMPDEST POP POP POP POP PUSH1 0x40 MLOAD RETURNDATASIZE PUSH1 0x1F NOT PUSH1 0x1F DUP3 ADD AND DUP3 ADD DUP1 PUSH1 0x40 MSTORE POP DUP2 ADD SWAP1 PUSH2 0x911 SWAP2 SWAP1 PUSH2 0x164C JUMP JUMPDEST POP PUSH1 0x2 PUSH0 SWAP1 SLOAD SWAP1 PUSH2 0x100 EXP SWAP1 DIV PUSH20 0xFFFFFFFFFFFFFFFFFFFFFFFFFFFFFFFFFFFFFFFF AND PUSH20 0xFFFFFFFFFFFFFFFFFFFFFFFFFFFFFFFFFFFFFFFF AND PUSH4 0x23B872DD CALLER ADDRESS DUP5 PUSH1 0x40 MLOAD DUP5 PUSH4 0xFFFFFFFF AND PUSH1 0xE0 SHL DUP2 MSTORE PUSH1 0x4 ADD PUSH2 0x970 SWAP4 SWAP3 SWAP2 SWAP1 PUSH2 0x15E2 JUMP JUMPDEST PUSH1 0x20 PUSH1 0x40 MLOAD DUP1 DUP4 SUB DUP2 PUSH0 DUP8 GAS CALL ISZERO DUP1 ISZERO PUSH2 0x98C JUMPI RETURNDATASIZE PUSH0 DUP1 RETURNDATACOPY RETURNDATASIZE PUSH0 REVERT JUMPDEST POP POP POP POP PUSH1 0x40 MLOAD RETURNDATASIZE PUSH1 0x1F NOT PUSH1 0x1F DUP3 ADD AND DUP3 ADD DUP1 PUSH1 0x40 MSTORE POP DUP2 ADD SWAP1 PUSH2 0x9B0 SWAP2 SWAP1 PUSH2 0x164C JUMP JUMPDEST POP PUSH32 0x38F8A0C92F4C5B0B6877F878CB4C0C8D348A47B76D716C8E78F425043DF9515B DUP3 DUP3 PUSH1 0x40 MLOAD PUSH2 0x9E2 SWAP3 SWAP2 SWAP1 PUSH2 0x169E JUMP JUMPDEST PUSH1 0x40 MLOAD DUP1 SWAP2 SUB SWAP1 LOG1 POP POP JUMP JUMPDEST PUSH2 0x9F6 PUSH2 0x1094 JUMP JUMPDEST PUSH0 PUSH1 0x1 PUSH0 SWAP1 SLOAD SWAP1 PUSH2 0x100 EXP SWAP1 DIV PUSH20 0xFFFFFFFFFFFFFFFFFFFFFFFFFFFFFFFFFFFFFFFF AND PUSH20 0xFFFFFFFFFFFFFFFFFFFFFFFFFFFFFFFFFFFFFFFF AND PUSH4 0x70A08231 ADDRESS PUSH1 0x40 MLOAD DUP3 PUSH4 0xFFFFFFFF AND PUSH1 0xE0 SHL DUP2 MSTORE PUSH1 0x4 ADD PUSH2 0xA51 SWAP2 SWAP1 PUSH2 0x13A1 JUMP JUMPDEST PUSH1 0x20 PUSH1 0x40 MLOAD DUP1 DUP4 SUB DUP2 DUP7 GAS STATICCALL ISZERO DUP1 ISZERO PUSH2 0xA6C JUMPI RETURNDATASIZE PUSH0 DUP1 RETURNDATACOPY RETURNDATASIZE PUSH0 REVERT JUMPDEST POP POP POP POP PUSH1 0x40 MLOAD RETURNDATASIZE PUSH1 0x1F NOT PUSH1 0x1F DUP3 ADD AND DUP3 ADD DUP1 PUSH1 0x40 MSTORE POP DUP2 ADD SWAP1 PUSH2 0xA90 SWAP2 SWAP1 PUSH2 0x1484 JUMP JUMPDEST SWAP1 POP PUSH0 PUSH1 0x2 PUSH0 SWAP1 SLOAD SWAP1 PUSH2 0x100 EXP SWAP1 DIV PUSH20 0xFFFFFFFFFFFFFFFFFFFFFFFFFFFFFFFFFFFFFFFF AND PUSH20 0xFFFFFFFFFFFFFFFFFFFFFFFFFFFFFFFFFFFFFFFF AND PUSH4 0x70A08231 ADDRESS PUSH1 0x40 MLOAD DUP3 PUSH4 0xFFFFFFFF AND PUSH1 0xE0 SHL DUP2 MSTORE PUSH1 0x4 ADD PUSH2 0xAED SWAP2 SWAP1 PUSH2 0x13A1 JUMP JUMPDEST PUSH1 0x20 PUSH1 0x40 MLOAD DUP1 DUP4 SUB DUP2 DUP7 GAS STATICCALL ISZERO DUP1 ISZERO PUSH2 0xB08 JUMPI RETURNDATASIZE PUSH0 DUP1 RETURNDATACOPY RETURNDATASIZE PUSH0 REVERT JUMPDEST POP POP POP POP PUSH1 0x40 MLOAD RETURNDATASIZE PUSH1 0x1F NOT PUSH1 0x1F DUP3 ADD AND DUP3 ADD DUP1 PUSH1 0x40 MSTORE POP DUP2 ADD SWAP1 PUSH2 0xB2C SWAP2 SWAP1 PUSH2 0x1484 JUMP JUMPDEST SWAP1 POP DUP2 DUP5 GT ISZERO DUP1 ISZERO PUSH2 0xB3E JUMPI POP DUP1 DUP4 GT ISZERO JUMPDEST PUSH2 0xB7D JUMPI PUSH1 0x40 MLOAD PUSH32 0x8C379A000000000000000000000000000000000000000000000000000000000 DUP2 MSTORE PUSH1 0x4 ADD PUSH2 0xB74 SWAP1 PUSH2 0x1777 JUMP JUMPDEST PUSH1 0x40 MLOAD DUP1 SWAP2 SUB SWAP1 REVERT JUMPDEST PUSH1 0x1 PUSH0 SWAP1 SLOAD SWAP1 PUSH2 0x100 EXP SWAP1 DIV PUSH20 0xFFFFFFFFFFFFFFFFFFFFFFFFFFFFFFFFFFFFFFFF AND PUSH20 0xFFFFFFFFFFFFFFFFFFFFFFFFFFFFFFFFFFFFFFFF AND PUSH4 0xA9059CBB CALLER DUP7 PUSH1 0x40 MLOAD DUP4 PUSH4 0xFFFFFFFF AND PUSH1 0xE0 SHL DUP2 MSTORE PUSH1 0x4 ADD PUSH2 0xBD9 SWAP3 SWAP2 SWAP1 PUSH2 0x1677 JUMP JUMPDEST PUSH1 0x20 PUSH1 0x40 MLOAD DUP1 DUP4 SUB DUP2 PUSH0 DUP8 GAS CALL ISZERO DUP1 ISZERO PUSH2 0xBF5 JUMPI RETURNDATASIZE PUSH0 DUP1 RETURNDATACOPY RETURNDATASIZE PUSH0 REVERT JUMPDEST POP POP POP POP PUSH1 0x40 MLOAD RETURNDATASIZE PUSH1 0x1F NOT PUSH1 0x1F DUP3 ADD AND DUP3 ADD DUP1 PUSH1 0x40 MSTORE POP DUP2 ADD SWAP1 PUSH2 0xC19 SWAP2 SWAP1 PUSH2 0x164C JUMP JUMPDEST POP PUSH1 0x2 PUSH0 SWAP1 SLOAD SWAP1 PUSH2 0x100 EXP SWAP1 DIV PUSH20 0xFFFFFFFFFFFFFFFFFFFFFFFFFFFFFFFFFFFFFFFF AND PUSH20 0xFFFFFFFFFFFFFFFFFFFFFFFFFFFFFFFFFFFFFFFF AND PUSH4 0xA9059CBB CALLER DUP6 PUSH1 0x40 MLOAD DUP4 PUSH4 0xFFFFFFFF AND PUSH1 0xE0 SHL DUP2 MSTORE PUSH1 0x4 ADD PUSH2 0xC76 SWAP3 SWAP2 SWAP1 PUSH2 0x1677 JUMP JUMPDEST PUSH1 0x20 PUSH1 0x40 MLOAD DUP1 DUP4 SUB DUP2 PUSH0 DUP8 GAS CALL ISZERO DUP1 ISZERO PUSH2 0xC92 JUMPI RETURNDATASIZE PUSH0 DUP1 RETURNDATACOPY RETURNDATASIZE PUSH0 REVERT JUMPDEST POP POP POP POP PUSH1 0x40 MLOAD RETURNDATASIZE PUSH1 0x1F NOT PUSH1 0x1F DUP3 ADD AND DUP3 ADD DUP1 PUSH1 0x40 MSTORE POP DUP2 ADD SWAP1 PUSH2 0xCB6 SWAP2 SWAP1 PUSH2 0x164C JUMP JUMPDEST POP PUSH32 0x6F0F96292AE0038C04F9B6BAB30F185D9CA02C471D0983F563F2A4F674AEF137 DUP5 DUP5 PUSH1 0x40 MLOAD PUSH2 0xCE8 SWAP3 SWAP2 SWAP1 PUSH2 0x169E JUMP JUMPDEST PUSH1 0x40 MLOAD DUP1 SWAP2 SUB SWAP1 LOG1 POP POP POP POP JUMP JUMPDEST PUSH0 DUP2 GT PUSH2 0xD38 JUMPI PUSH1 0x40 MLOAD PUSH32 0x8C379A000000000000000000000000000000000000000000000000000000000 DUP2 MSTORE PUSH1 0x4 ADD PUSH2 0xD2F SWAP1 PUSH2 0x15C4 JUMP JUMPDEST PUSH1 0x40 MLOAD DUP1 SWAP2 SUB SWAP1 REVERT JUMPDEST PUSH0 PUSH1 0x1 PUSH0 SWAP1 SLOAD SWAP1 PUSH2 0x100 EXP SWAP1 DIV PUSH20 0xFFFFFFFFFFFFFFFFFFFFFFFFFFFFFFFFFFFFFFFF AND PUSH20 0xFFFFFFFFFFFFFFFFFFFFFFFFFFFFFFFFFFFFFFFF AND PUSH4 0x70A08231 ADDRESS PUSH1 0x40 MLOAD DUP3 PUSH4 0xFFFFFFFF AND PUSH1 0xE0 SHL DUP2 MSTORE PUSH1 0x4 ADD PUSH2 0xD93 SWAP2 SWAP1 PUSH2 0x13A1 JUMP JUMPDEST PUSH1 0x20 PUSH1 0x40 MLOAD DUP1 DUP4 SUB DUP2 DUP7 GAS STATICCALL ISZERO DUP1 ISZERO PUSH2 0xDAE JUMPI RETURNDATASIZE PUSH0 DUP1 RETURNDATACOPY RETURNDATASIZE PUSH0 REVERT JUMPDEST POP POP POP POP PUSH1 0x40 MLOAD RETURNDATASIZE PUSH1 0x1F NOT PUSH1 0x1F DUP3 ADD AND DUP3 ADD DUP1 PUSH1 0x40 MSTORE POP DUP2 ADD SWAP1 PUSH2 0xDD2 SWAP2 SWAP1 PUSH2 0x1484 JUMP JUMPDEST SWAP1 POP PUSH0 PUSH1 0x2 PUSH0 SWAP1 SLOAD SWAP1 PUSH2 0x100 EXP SWAP1 DIV PUSH20 0xFFFFFFFFFFFFFFFFFFFFFFFFFFFFFFFFFFFFFFFF AND PUSH20 0xFFFFFFFFFFFFFFFFFFFFFFFFFFFFFFFFFFFFFFFF AND PUSH4 0x70A08231 ADDRESS PUSH1 0x40 MLOAD DUP3 PUSH4 0xFFFFFFFF AND PUSH1 0xE0 SHL DUP2 MSTORE PUSH1 0x4 ADD PUSH2 0xE2F SWAP2 SWAP1 PUSH2 0x13A1 JUMP JUMPDEST PUSH1 0x20 PUSH1 0x40 MLOAD DUP1 DUP4 SUB DUP2 DUP7 GAS STATICCALL ISZERO DUP1 ISZERO PUSH2 0xE4A JUMPI RETURNDATASIZE PUSH0 DUP1 RETURNDATACOPY RETURNDATASIZE PUSH0 REVERT JUMPDEST POP POP POP POP PUSH1 0x40 MLOAD RETURNDATASIZE PUSH1 0x1F NOT PUSH1 0x1F DUP3 ADD AND DUP3 ADD DUP1 PUSH1 0x40 MSTORE POP DUP2 ADD SWAP1 PUSH2 0xE6E SWAP2 SWAP1 PUSH2 0x1484 JUMP JUMPDEST SWAP1 POP PUSH0 PUSH2 0xE7C DUP5 DUP5 DUP5 PUSH2 0x11DC JUMP JUMPDEST SWAP1 POP PUSH1 0x1 PUSH0 SWAP1 SLOAD SWAP1 PUSH2 0x100 EXP SWAP1 DIV PUSH20 0xFFFFFFFFFFFFFFFFFFFFFFFFFFFFFFFFFFFFFFFF AND PUSH20 0xFFFFFFFFFFFFFFFFFFFFFFFFFFFFFFFFFFFFFFFF AND PUSH4 0x23B872DD CALLER ADDRESS DUP8 PUSH1 0x40 MLOAD DUP5 PUSH4 0xFFFFFFFF AND PUSH1 0xE0 SHL DUP2 MSTORE PUSH1 0x4 ADD PUSH2 0xEDC SWAP4 SWAP3 SWAP2 SWAP1 PUSH2 0x15E2 JUMP JUMPDEST PUSH1 0x20 PUSH1 0x40 MLOAD DUP1 DUP4 SUB DUP2 PUSH0 DUP8 GAS CALL ISZERO DUP1 ISZERO PUSH2 0xEF8 JUMPI RETURNDATASIZE PUSH0 DUP1 RETURNDATACOPY RETURNDATASIZE PUSH0 REVERT JUMPDEST POP POP POP POP PUSH1 0x40 MLOAD RETURNDATASIZE PUSH1 0x1F NOT PUSH1 0x1F DUP3 ADD AND DUP3 ADD DUP1 PUSH1 0x40 MSTORE POP DUP2 ADD SWAP1 PUSH2 0xF1C SWAP2 SWAP1 PUSH2 0x164C JUMP JUMPDEST POP PUSH1 0x2 PUSH0 SWAP1 SLOAD SWAP1 PUSH2 0x100 EXP SWAP1 DIV PUSH20 0xFFFFFFFFFFFFFFFFFFFFFFFFFFFFFFFFFFFFFFFF AND PUSH20 0xFFFFFFFFFFFFFFFFFFFFFFFFFFFFFFFFFFFFFFFF AND PUSH4 0xA9059CBB CALLER DUP4 PUSH1 0x40 MLOAD DUP4 PUSH4 0xFFFFFFFF AND PUSH1 0xE0 SHL DUP2 MSTORE PUSH1 0x4 ADD PUSH2 0xF79 SWAP3 SWAP2 SWAP1 PUSH2 0x1677 JUMP JUMPDEST PUSH1 0x20 PUSH1 0x40 MLOAD DUP1 DUP4 SUB DUP2 PUSH0 DUP8 GAS CALL ISZERO DUP1 ISZERO PUSH2 0xF95 JUMPI RETURNDATASIZE PUSH0 DUP1 RETURNDATACOPY RETURNDATASIZE PUSH0 REVERT JUMPDEST POP POP POP POP PUSH1 0x40 MLOAD RETURNDATASIZE PUSH1 0x1F NOT PUSH1 0x1F DUP3 ADD AND DUP3 ADD DUP1 PUSH1 0x40 MSTORE POP DUP2 ADD SWAP1 PUSH2 0xFB9 SWAP2 SWAP1 PUSH2 0x164C JUMP JUMPDEST POP CALLER PUSH20 0xFFFFFFFFFFFFFFFFFFFFFFFFFFFFFFFFFFFFFFFF AND PUSH32 0xD5A1CD88DDD329CC1DDF861A21708EFA9EF3136B88E1420C21F91EF6F95AD024 DUP6 DUP4 PUSH1 0x40 MLOAD PUSH2 0x1002 SWAP3 SWAP2 SWAP1 PUSH2 0x169E JUMP JUMPDEST PUSH1 0x40 MLOAD DUP1 SWAP2 SUB SWAP1 LOG2 POP POP POP POP JUMP JUMPDEST PUSH2 0x1018 PUSH2 0x1094 JUMP JUMPDEST PUSH0 PUSH20 0xFFFFFFFFFFFFFFFFFFFFFFFFFFFFFFFFFFFFFFFF AND DUP2 PUSH20 0xFFFFFFFFFFFFFFFFFFFFFFFFFFFFFFFFFFFFFFFF AND SUB PUSH2 0x1088 JUMPI PUSH0 PUSH1 0x40 MLOAD PUSH32 0x1E4FBDF700000000000000000000000000000000000000000000000000000000 DUP2 MSTORE PUSH1 0x4 ADD PUSH2 0x107F SWAP2 SWAP1 PUSH2 0x13A1 JUMP JUMPDEST PUSH1 0x40 MLOAD DUP1 SWAP2 SUB SWAP1 REVERT JUMPDEST PUSH2 0x1091 DUP2 PUSH2 0x111B JUMP JUMPDEST POP JUMP JUMPDEST PUSH2 0x109C PUSH2 0x1208 JUMP JUMPDEST PUSH20 0xFFFFFFFFFFFFFFFFFFFFFFFFFFFFFFFFFFFFFFFF AND PUSH2 0x10BA PUSH2 0x7F7 JUMP JUMPDEST PUSH20 0xFFFFFFFFFFFFFFFFFFFFFFFFFFFFFFFFFFFFFFFF AND EQ PUSH2 0x1119 JUMPI PUSH2 0x10DD PUSH2 0x1208 JUMP JUMPDEST PUSH1 0x40 MLOAD PUSH32 0x118CDAA700000000000000000000000000000000000000000000000000000000 DUP2 MSTORE PUSH1 0x4 ADD PUSH2 0x1110 SWAP2 SWAP1 PUSH2 0x13A1 JUMP JUMPDEST PUSH1 0x40 MLOAD DUP1 SWAP2 SUB SWAP1 REVERT JUMPDEST JUMP JUMPDEST PUSH0 DUP1 PUSH0 SWAP1 SLOAD SWAP1 PUSH2 0x100 EXP SWAP1 DIV PUSH20 0xFFFFFFFFFFFFFFFFFFFFFFFFFFFFFFFFFFFFFFFF AND SWAP1 POP DUP2 PUSH0 DUP1 PUSH2 0x100 EXP DUP2 SLOAD DUP2 PUSH20 0xFFFFFFFFFFFFFFFFFFFFFFFFFFFFFFFFFFFFFFFF MUL NOT AND SWAP1 DUP4 PUSH20 0xFFFFFFFFFFFFFFFFFFFFFFFFFFFFFFFFFFFFFFFF AND MUL OR SWAP1 SSTORE POP DUP2 PUSH20 0xFFFFFFFFFFFFFFFFFFFFFFFFFFFFFFFFFFFFFFFF AND DUP2 PUSH20 0xFFFFFFFFFFFFFFFFFFFFFFFFFFFFFFFFFFFFFFFF AND PUSH32 0x8BE0079C531659141344CD1FD0A4F28419497F9722A3DAAFE3B4186F6B6457E0 PUSH1 0x40 MLOAD PUSH1 0x40 MLOAD DUP1 SWAP2 SUB SWAP1 LOG3 POP POP JUMP JUMPDEST PUSH0 DUP4 DUP4 PUSH2 0x11E9 SWAP2 SWAP1 PUSH2 0x1795 JUMP JUMPDEST DUP3 DUP6 PUSH2 0x11F5 SWAP2 SWAP1 PUSH2 0x14DC JUMP JUMPDEST PUSH2 0x11FF SWAP2 SWAP1 PUSH2 0x154A JUMP JUMPDEST SWAP1 POP SWAP4 SWAP3 POP POP POP JUMP JUMPDEST PUSH0 CALLER SWAP1 POP SWAP1 JUMP JUMPDEST PUSH0 PUSH20 0xFFFFFFFFFFFFFFFFFFFFFFFFFFFFFFFFFFFFFFFF DUP3 AND SWAP1 POP SWAP2 SWAP1 POP JUMP JUMPDEST PUSH0 DUP2 SWAP1 POP SWAP2 SWAP1 POP JUMP JUMPDEST PUSH0 PUSH2 0x1251 PUSH2 0x124C PUSH2 0x1247 DUP5 PUSH2 0x120F JUMP JUMPDEST PUSH2 0x122E JUMP JUMPDEST PUSH2 0x120F JUMP JUMPDEST SWAP1 POP SWAP2 SWAP1 POP JUMP JUMPDEST PUSH0 PUSH2 0x1262 DUP3 PUSH2 0x1237 JUMP JUMPDEST SWAP1 POP SWAP2 SWAP1 POP JUMP JUMPDEST PUSH0 PUSH2 0x1273 DUP3 PUSH2 0x1258 JUMP JUMPDEST SWAP1 POP SWAP2 SWAP1 POP JUMP JUMPDEST PUSH2 0x1283 DUP2 PUSH2 0x1269 JUMP JUMPDEST DUP3 MSTORE POP POP JUMP JUMPDEST PUSH0 PUSH1 0x20 DUP3 ADD SWAP1 POP PUSH2 0x129C PUSH0 DUP4 ADD DUP5 PUSH2 0x127A JUMP JUMPDEST SWAP3 SWAP2 POP POP JUMP JUMPDEST PUSH0 DUP1 REVERT JUMPDEST PUSH0 PUSH2 0x12B0 DUP3 PUSH2 0x120F JUMP JUMPDEST SWAP1 POP SWAP2 SWAP1 POP JUMP JUMPDEST PUSH2 0x12C0 DUP2 PUSH2 0x12A6 JUMP JUMPDEST DUP2 EQ PUSH2 0x12CA JUMPI PUSH0 DUP1 REVERT JUMPDEST POP JUMP JUMPDEST PUSH0 DUP2 CALLDATALOAD SWAP1 POP PUSH2 0x12DB DUP2 PUSH2 0x12B7 JUMP JUMPDEST SWAP3 SWAP2 POP POP JUMP JUMPDEST PUSH0 PUSH1 0x20 DUP3 DUP5 SUB SLT ISZERO PUSH2 0x12F6 JUMPI PUSH2 0x12F5 PUSH2 0x12A2 JUMP JUMPDEST JUMPDEST PUSH0 PUSH2 0x1303 DUP5 DUP3 DUP6 ADD PUSH2 0x12CD JUMP JUMPDEST SWAP2 POP POP SWAP3 SWAP2 POP POP JUMP JUMPDEST PUSH0 DUP2 SWAP1 POP SWAP2 SWAP1 POP JUMP JUMPDEST PUSH2 0x131E DUP2 PUSH2 0x130C JUMP JUMPDEST DUP3 MSTORE POP POP JUMP JUMPDEST PUSH0 PUSH1 0x20 DUP3 ADD SWAP1 POP PUSH2 0x1337 PUSH0 DUP4 ADD DUP5 PUSH2 0x1315 JUMP JUMPDEST SWAP3 SWAP2 POP POP JUMP JUMPDEST PUSH2 0x1346 DUP2 PUSH2 0x130C JUMP JUMPDEST DUP2 EQ PUSH2 0x1350 JUMPI PUSH0 DUP1 REVERT JUMPDEST POP JUMP JUMPDEST PUSH0 DUP2 CALLDATALOAD SWAP1 POP PUSH2 0x1361 DUP2 PUSH2 0x133D JUMP JUMPDEST SWAP3 SWAP2 POP POP JUMP JUMPDEST PUSH0 PUSH1 0x20 DUP3 DUP5 SUB SLT ISZERO PUSH2 0x137C JUMPI PUSH2 0x137B PUSH2 0x12A2 JUMP JUMPDEST JUMPDEST PUSH0 PUSH2 0x1389 DUP5 DUP3 DUP6 ADD PUSH2 0x1353 JUMP JUMPDEST SWAP2 POP POP SWAP3 SWAP2 POP POP JUMP JUMPDEST PUSH2 0x139B DUP2 PUSH2 0x12A6 JUMP JUMPDEST DUP3 MSTORE POP POP JUMP JUMPDEST PUSH0 PUSH1 0x20 DUP3 ADD SWAP1 POP PUSH2 0x13B4 PUSH0 DUP4 ADD DUP5 PUSH2 0x1392 JUMP JUMPDEST SWAP3 SWAP2 POP POP JUMP JUMPDEST PUSH0 DUP1 PUSH1 0x40 DUP4 DUP6 SUB SLT ISZERO PUSH2 0x13D0 JUMPI PUSH2 0x13CF PUSH2 0x12A2 JUMP JUMPDEST JUMPDEST PUSH0 PUSH2 0x13DD DUP6 DUP3 DUP7 ADD PUSH2 0x1353 JUMP JUMPDEST SWAP3 POP POP PUSH1 0x20 PUSH2 0x13EE DUP6 DUP3 DUP7 ADD PUSH2 0x1353 JUMP JUMPDEST SWAP2 POP POP SWAP3 POP SWAP3 SWAP1 POP JUMP JUMPDEST PUSH0 DUP3 DUP3 MSTORE PUSH1 0x20 DUP3 ADD SWAP1 POP SWAP3 SWAP2 POP POP JUMP JUMPDEST PUSH32 0x496E76616C696420746F6B656E00000000000000000000000000000000000000 PUSH0 DUP3 ADD MSTORE POP JUMP JUMPDEST PUSH0 PUSH2 0x143C PUSH1 0xD DUP4 PUSH2 0x13F8 JUMP JUMPDEST SWAP2 POP PUSH2 0x1447 DUP3 PUSH2 0x1408 JUMP JUMPDEST PUSH1 0x20 DUP3 ADD SWAP1 POP SWAP2 SWAP1 POP JUMP JUMPDEST PUSH0 PUSH1 0x20 DUP3 ADD SWAP1 POP DUP2 DUP2 SUB PUSH0 DUP4 ADD MSTORE PUSH2 0x1469 DUP2 PUSH2 0x1430 JUMP JUMPDEST SWAP1 POP SWAP2 SWAP1 POP JUMP JUMPDEST PUSH0 DUP2 MLOAD SWAP1 POP PUSH2 0x147E DUP2 PUSH2 0x133D JUMP JUMPDEST SWAP3 SWAP2 POP POP JUMP JUMPDEST PUSH0 PUSH1 0x20 DUP3 DUP5 SUB SLT ISZERO PUSH2 0x1499 JUMPI PUSH2 0x1498 PUSH2 0x12A2 JUMP JUMPDEST JUMPDEST PUSH0 PUSH2 0x14A6 DUP5 DUP3 DUP6 ADD PUSH2 0x1470 JUMP JUMPDEST SWAP2 POP POP SWAP3 SWAP2 POP POP JUMP JUMPDEST PUSH32 0x4E487B7100000000000000000000000000000000000000000000000000000000 PUSH0 MSTORE PUSH1 0x11 PUSH1 0x4 MSTORE PUSH1 0x24 PUSH0 REVERT JUMPDEST PUSH0 PUSH2 0x14E6 DUP3 PUSH2 0x130C JUMP JUMPDEST SWAP2 POP PUSH2 0x14F1 DUP4 PUSH2 0x130C JUMP JUMPDEST SWAP3 POP DUP3 DUP3 MUL PUSH2 0x14FF DUP2 PUSH2 0x130C JUMP JUMPDEST SWAP2 POP DUP3 DUP3 DIV DUP5 EQ DUP4 ISZERO OR PUSH2 0x1516 JUMPI PUSH2 0x1515 PUSH2 0x14AF JUMP JUMPDEST JUMPDEST POP SWAP3 SWAP2 POP POP JUMP JUMPDEST PUSH32 0x4E487B7100000000000000000000000000000000000000000000000000000000 PUSH0 MSTORE PUSH1 0x12 PUSH1 0x4 MSTORE PUSH1 0x24 PUSH0 REVERT JUMPDEST PUSH0 PUSH2 0x1554 DUP3 PUSH2 0x130C JUMP JUMPDEST SWAP2 POP PUSH2 0x155F DUP4 PUSH2 0x130C JUMP JUMPDEST SWAP3 POP DUP3 PUSH2 0x156F JUMPI PUSH2 0x156E PUSH2 0x151D JUMP JUMPDEST JUMPDEST DUP3 DUP3 DIV SWAP1 POP SWAP3 SWAP2 POP POP JUMP JUMPDEST PUSH32 0x416D6F756E74206D757374206265203E20300000000000000000000000000000 PUSH0 DUP3 ADD MSTORE POP JUMP JUMPDEST PUSH0 PUSH2 0x15AE PUSH1 0x12 DUP4 PUSH2 0x13F8 JUMP JUMPDEST SWAP2 POP PUSH2 0x15B9 DUP3 PUSH2 0x157A JUMP JUMPDEST PUSH1 0x20 DUP3 ADD SWAP1 POP SWAP2 SWAP1 POP JUMP JUMPDEST PUSH0 PUSH1 0x20 DUP3 ADD SWAP1 POP DUP2 DUP2 SUB PUSH0 DUP4 ADD MSTORE PUSH2 0x15DB DUP2 PUSH2 0x15A2 JUMP JUMPDEST SWAP1 POP SWAP2 SWAP1 POP JUMP JUMPDEST PUSH0 PUSH1 0x60 DUP3 ADD SWAP1 POP PUSH2 0x15F5 PUSH0 DUP4 ADD DUP7 PUSH2 0x1392 JUMP JUMPDEST PUSH2 0x1602 PUSH1 0x20 DUP4 ADD DUP6 PUSH2 0x1392 JUMP JUMPDEST PUSH2 0x160F PUSH1 0x40 DUP4 ADD DUP5 PUSH2 0x1315 JUMP JUMPDEST SWAP5 SWAP4 POP POP POP POP JUMP JUMPDEST PUSH0 DUP2 ISZERO ISZERO SWAP1 POP SWAP2 SWAP1 POP JUMP JUMPDEST PUSH2 0x162B DUP2 PUSH2 0x1617 JUMP JUMPDEST DUP2 EQ PUSH2 0x1635 JUMPI PUSH0 DUP1 REVERT JUMPDEST POP JUMP JUMPDEST PUSH0 DUP2 MLOAD SWAP1 POP PUSH2 0x1646 DUP2 PUSH2 0x1622 JUMP JUMPDEST SWAP3 SWAP2 POP POP JUMP JUMPDEST PUSH0 PUSH1 0x20 DUP3 DUP5 SUB SLT ISZERO PUSH2 0x1661 JUMPI PUSH2 0x1660 PUSH2 0x12A2 JUMP JUMPDEST JUMPDEST PUSH0 PUSH2 0x166E DUP5 DUP3 DUP6 ADD PUSH2 0x1638 JUMP JUMPDEST SWAP2 POP POP SWAP3 SWAP2 POP POP JUMP JUMPDEST PUSH0 PUSH1 0x40 DUP3 ADD SWAP1 POP PUSH2 0x168A PUSH0 DUP4 ADD DUP6 PUSH2 0x1392 JUMP JUMPDEST PUSH2 0x1697 PUSH1 0x20 DUP4 ADD DUP5 PUSH2 0x1315 JUMP JUMPDEST SWAP4 SWAP3 POP POP POP JUMP JUMPDEST PUSH0 PUSH1 0x40 DUP3 ADD SWAP1 POP PUSH2 0x16B1 PUSH0 DUP4 ADD DUP6 PUSH2 0x1315 JUMP JUMPDEST PUSH2 0x16BE PUSH1 0x20 DUP4 ADD DUP5 PUSH2 0x1315 JUMP JUMPDEST SWAP4 SWAP3 POP POP POP JUMP JUMPDEST PUSH32 0x416D6F756E7473206D757374206265203E203000000000000000000000000000 PUSH0 DUP3 ADD MSTORE POP JUMP JUMPDEST PUSH0 PUSH2 0x16F9 PUSH1 0x13 DUP4 PUSH2 0x13F8 JUMP JUMPDEST SWAP2 POP PUSH2 0x1704 DUP3 PUSH2 0x16C5 JUMP JUMPDEST PUSH1 0x20 DUP3 ADD SWAP1 POP SWAP2 SWAP1 POP JUMP JUMPDEST PUSH0 PUSH1 0x20 DUP3 ADD SWAP1 POP DUP2 DUP2 SUB PUSH0 DUP4 ADD MSTORE PUSH2 0x1726 DUP2 PUSH2 0x16ED JUMP JUMPDEST SWAP1 POP SWAP2 SWAP1 POP JUMP JUMPDEST PUSH32 0x4C6F77206C697175696469747900000000000000000000000000000000000000 PUSH0 DUP3 ADD MSTORE POP JUMP JUMPDEST PUSH0 PUSH2 0x1761 PUSH1 0xD DUP4 PUSH2 0x13F8 JUMP JUMPDEST SWAP2 POP PUSH2 0x176C DUP3 PUSH2 0x172D JUMP JUMPDEST PUSH1 0x20 DUP3 ADD SWAP1 POP SWAP2 SWAP1 POP JUMP JUMPDEST PUSH0 PUSH1 0x20 DUP3 ADD SWAP1 POP DUP2 DUP2 SUB PUSH0 DUP4 ADD MSTORE PUSH2 0x178E DUP2 PUSH2 0x1755 JUMP JUMPDEST SWAP1 POP SWAP2 SWAP1 POP JUMP JUMPDEST PUSH0 PUSH2 0x179F DUP3 PUSH2 0x130C JUMP JUMPDEST SWAP2 POP PUSH2 0x17AA DUP4 PUSH2 0x130C JUMP JUMPDEST SWAP3 POP DUP3 DUP3 ADD SWAP1 POP DUP1 DUP3 GT ISZERO PUSH2 0x17C2 JUMPI PUSH2 0x17C1 PUSH2 0x14AF JUMP JUMPDEST JUMPDEST SWAP3 SWAP2 POP POP JUMP INVALID LOG2 PUSH5 0x6970667358 0x22 SLT KECCAK256 ADD 0xCD 0xB6 0xA9 0xD8 PUSH1 0xE7 0xEE PREVRANDAO DUP3 ADDRESS PUSH22 0x4C012B035A4E3F0BE1BEEC9231DB83542570888B6473 PUSH16 0x6C634300081A00330000000000000000 "
				},
				"gasEstimates": {
					"creation": {
						"codeDepositCost": "1228400",
						"executionCost": "infinite",
						"totalCost": "infinite"
					},
					"external": {
						"addLiquidity(uint256,uint256)": "infinite",
						"getPrice(address)": "infinite",
						"owner()": "2515",
						"removeLiquidity(uint256,uint256)": "infinite",
						"renounceOwnership()": "infinite",
						"swapAforB(uint256)": "infinite",
						"swapBforA(uint256)": "infinite",
						"tokenA()": "infinite",
						"tokenB()": "infinite",
						"transferOwnership(address)": "infinite"
					},
					"internal": {
						"getAmountOut(uint256,uint256,uint256)": "infinite"
					}
				},
				"methodIdentifiers": {
					"addLiquidity(uint256,uint256)": "9cd441da",
					"getPrice(address)": "41976e09",
					"owner()": "8da5cb5b",
					"removeLiquidity(uint256,uint256)": "9d7de6b3",
					"renounceOwnership()": "715018a6",
					"swapAforB(uint256)": "e4f1f70a",
					"swapBforA(uint256)": "8014a7aa",
					"tokenA()": "0fc63d10",
					"tokenB()": "5f64b55b",
					"transferOwnership(address)": "f2fde38b"
				}
			},
			"storageLayout": {
				"storage": [
					{
						"astId": 110,
						"contract": "SimpleDEX_flattened.sol:SimpleDEX",
						"label": "_owner",
						"offset": 0,
						"slot": "0",
						"type": "t_address"
					},
					{
						"astId": 257,
						"contract": "SimpleDEX_flattened.sol:SimpleDEX",
						"label": "tokenA",
						"offset": 0,
						"slot": "1",
						"type": "t_contract(IERC20)77"
					},
					{
						"astId": 261,
						"contract": "SimpleDEX_flattened.sol:SimpleDEX",
						"label": "tokenB",
						"offset": 0,
						"slot": "2",
						"type": "t_contract(IERC20)77"
					}
				],
				"types": {
					"t_address": {
						"encoding": "inplace",
						"label": "address",
						"numberOfBytes": "20"
					},
					"t_contract(IERC20)77": {
						"encoding": "inplace",
						"label": "contract IERC20",
						"numberOfBytes": "20"
					}
				}
			},
			"userdoc": {
				"events": {
					"LiquidityAdded(uint256,uint256)": {
						"notice": "Emitido cuando se agrega liquidez"
					},
					"LiquidityRemoved(uint256,uint256)": {
						"notice": "Emitido cuando se retira liquidez"
					},
					"TokenSwapped(address,uint256,uint256)": {
						"notice": "Emitido cuando ocurre un intercambio de tokens"
					}
				},
				"kind": "user",
				"methods": {
					"addLiquidity(uint256,uint256)": {
						"notice": "Agrega liquidez al pool"
					},
					"constructor": {
						"notice": "Inicializa el DEX con dos tokens"
					},
					"getPrice(address)": {
						"notice": "Obtiene el precio de un token en relación con el otro"
					},
					"removeLiquidity(uint256,uint256)": {
						"notice": "Retira liquidez del pool"
					},
					"swapAforB(uint256)": {
						"notice": "Intercambia token A por token B"
					},
					"swapBforA(uint256)": {
						"notice": "Intercambia token B por token A"
					},
					"tokenA()": {
						"notice": "Token A en el pool de liquidez"
					},
					"tokenB()": {
						"notice": "Token B en el pool de liquidez"
					}
				},
				"notice": "Este contrato facilita los intercambios de tokens y la gestión de liquidez",
				"version": 1
			}
		}
	}
}