{
	"SimpleDEX.sol": {
		"SimpleDEX": {
			"abi": [
				{
					"inputs": [
						{
							"internalType": "address",
							"name": "_tokenA",
							"type": "address"
						},
						{
							"internalType": "address",
							"name": "_tokenB",
							"type": "address"
						}
					],
					"stateMutability": "nonpayable",
					"type": "constructor"
				},
				{
					"anonymous": false,
					"inputs": [
						{
							"indexed": true,
							"internalType": "address",
							"name": "provider",
							"type": "address"
						},
						{
							"indexed": false,
							"internalType": "uint256",
							"name": "amountA",
							"type": "uint256"
						},
						{
							"indexed": false,
							"internalType": "uint256",
							"name": "amountB",
							"type": "uint256"
						}
					],
					"name": "LiquidityAdded",
					"type": "event"
				},
				{
					"anonymous": false,
					"inputs": [
						{
							"indexed": true,
							"internalType": "address",
							"name": "provider",
							"type": "address"
						},
						{
							"indexed": false,
							"internalType": "uint256",
							"name": "amountA",
							"type": "uint256"
						},
						{
							"indexed": false,
							"internalType": "uint256",
							"name": "amountB",
							"type": "uint256"
						}
					],
					"name": "LiquidityRemoved",
					"type": "event"
				},
				{
					"anonymous": false,
					"inputs": [
						{
							"indexed": true,
							"internalType": "address",
							"name": "trader",
							"type": "address"
						},
						{
							"indexed": false,
							"internalType": "address",
							"name": "tokenIn",
							"type": "address"
						},
						{
							"indexed": false,
							"internalType": "address",
							"name": "tokenOut",
							"type": "address"
						},
						{
							"indexed": false,
							"internalType": "uint256",
							"name": "amountIn",
							"type": "uint256"
						},
						{
							"indexed": false,
							"internalType": "uint256",
							"name": "amountOut",
							"type": "uint256"
						},
						{
							"indexed": false,
							"internalType": "bool",
							"name": "direction",
							"type": "bool"
						}
					],
					"name": "TokensSwapped",
					"type": "event"
				},
				{
					"inputs": [
						{
							"internalType": "uint256",
							"name": "amountA",
							"type": "uint256"
						},
						{
							"internalType": "uint256",
							"name": "amountB",
							"type": "uint256"
						}
					],
					"name": "addLiquidity",
					"outputs": [],
					"stateMutability": "nonpayable",
					"type": "function"
				},
				{
					"inputs": [
						{
							"internalType": "address",
							"name": "_token",
							"type": "address"
						}
					],
					"name": "getPrice",
					"outputs": [
						{
							"internalType": "uint256",
							"name": "",
							"type": "uint256"
						}
					],
					"stateMutability": "view",
					"type": "function"
				},
				{
					"inputs": [
						{
							"internalType": "address",
							"name": "",
							"type": "address"
						}
					],
					"name": "liquidityA",
					"outputs": [
						{
							"internalType": "uint256",
							"name": "",
							"type": "uint256"
						}
					],
					"stateMutability": "view",
					"type": "function"
				},
				{
					"inputs": [
						{
							"internalType": "address",
							"name": "",
							"type": "address"
						}
					],
					"name": "liquidityB",
					"outputs": [
						{
							"internalType": "uint256",
							"name": "",
							"type": "uint256"
						}
					],
					"stateMutability": "view",
					"type": "function"
				},
				{
					"inputs": [
						{
							"internalType": "uint256",
							"name": "amountA",
							"type": "uint256"
						},
						{
							"internalType": "uint256",
							"name": "amountB",
							"type": "uint256"
						}
					],
					"name": "removeLiquidity",
					"outputs": [],
					"stateMutability": "nonpayable",
					"type": "function"
				},
				{
					"inputs": [],
					"name": "reserveA",
					"outputs": [
						{
							"internalType": "uint256",
							"name": "",
							"type": "uint256"
						}
					],
					"stateMutability": "view",
					"type": "function"
				},
				{
					"inputs": [],
					"name": "reserveB",
					"outputs": [
						{
							"internalType": "uint256",
							"name": "",
							"type": "uint256"
						}
					],
					"stateMutability": "view",
					"type": "function"
				},
				{
					"inputs": [
						{
							"internalType": "uint256",
							"name": "amountAIn",
							"type": "uint256"
						}
					],
					"name": "swapAforB",
					"outputs": [],
					"stateMutability": "nonpayable",
					"type": "function"
				},
				{
					"inputs": [
						{
							"internalType": "uint256",
							"name": "amountBIn",
							"type": "uint256"
						}
					],
					"name": "swapBforA",
					"outputs": [],
					"stateMutability": "nonpayable",
					"type": "function"
				},
				{
					"inputs": [],
					"name": "tokenA",
					"outputs": [
						{
							"internalType": "address",
							"name": "",
							"type": "address"
						}
					],
					"stateMutability": "view",
					"type": "function"
				},
				{
					"inputs": [],
					"name": "tokenB",
					"outputs": [
						{
							"internalType": "address",
							"name": "",
							"type": "address"
						}
					],
					"stateMutability": "view",
					"type": "function"
				}
			],
			"devdoc": {
				"kind": "dev",
				"methods": {},
				"version": 1
			},
			"evm": {
				"assembly": "    /* \"SimpleDEX.sol\":120:4148  contract SimpleDEX {... */\n  mstore(0x40, 0x80)\n    /* \"SimpleDEX.sol\":931:1039  constructor(address _tokenA, address _tokenB) {... */\n  callvalue\n  dup1\n  iszero\n  tag_1\n  jumpi\n  0x00\n  dup1\n  revert\ntag_1:\n  pop\n  mload(0x40)\n  sub(codesize, bytecodeSize)\n  dup1\n  bytecodeSize\n  dup4\n  codecopy\n  dup2\n  dup2\n  add\n  0x40\n  mstore\n  dup2\n  add\n  swap1\n  tag_2\n  swap2\n  swap1\n  tag_3\n  jump\t// in\ntag_2:\n    /* \"SimpleDEX.sol\":997:1004  _tokenA */\n  dup2\n    /* \"SimpleDEX.sol\":988:994  tokenA */\n  0x00\n  dup1\n    /* \"SimpleDEX.sol\":988:1004  tokenA = _tokenA */\n  0x0100\n  exp\n  dup2\n  sload\n  dup2\n  0xffffffffffffffffffffffffffffffffffffffff\n  mul\n  not\n  and\n  swap1\n  dup4\n  0xffffffffffffffffffffffffffffffffffffffff\n  and\n  mul\n  or\n  swap1\n  sstore\n  pop\n    /* \"SimpleDEX.sol\":1024:1031  _tokenB */\n  dup1\n    /* \"SimpleDEX.sol\":1015:1021  tokenB */\n  0x01\n  0x00\n    /* \"SimpleDEX.sol\":1015:1031  tokenB = _tokenB */\n  0x0100\n  exp\n  dup2\n  sload\n  dup2\n  0xffffffffffffffffffffffffffffffffffffffff\n  mul\n  not\n  and\n  swap1\n  dup4\n  0xffffffffffffffffffffffffffffffffffffffff\n  and\n  mul\n  or\n  swap1\n  sstore\n  pop\n    /* \"SimpleDEX.sol\":931:1039  constructor(address _tokenA, address _tokenB) {... */\n  pop\n  pop\n    /* \"SimpleDEX.sol\":120:4148  contract SimpleDEX {... */\n  jump(tag_6)\n    /* \"#utility.yul\":88:205   */\ntag_8:\n    /* \"#utility.yul\":197:198   */\n  0x00\n    /* \"#utility.yul\":194:195   */\n  dup1\n    /* \"#utility.yul\":187:199   */\n  revert\n    /* \"#utility.yul\":334:460   */\ntag_10:\n    /* \"#utility.yul\":371:378   */\n  0x00\n    /* \"#utility.yul\":411:453   */\n  0xffffffffffffffffffffffffffffffffffffffff\n    /* \"#utility.yul\":404:409   */\n  dup3\n    /* \"#utility.yul\":400:454   */\n  and\n    /* \"#utility.yul\":389:454   */\n  swap1\n  pop\n    /* \"#utility.yul\":334:460   */\n  swap2\n  swap1\n  pop\n  jump\t// out\n    /* \"#utility.yul\":466:562   */\ntag_11:\n    /* \"#utility.yul\":503:510   */\n  0x00\n    /* \"#utility.yul\":532:556   */\n  tag_20\n    /* \"#utility.yul\":550:555   */\n  dup3\n    /* \"#utility.yul\":532:556   */\n  tag_10\n  jump\t// in\ntag_20:\n    /* \"#utility.yul\":521:556   */\n  swap1\n  pop\n    /* \"#utility.yul\":466:562   */\n  swap2\n  swap1\n  pop\n  jump\t// out\n    /* \"#utility.yul\":568:690   */\ntag_12:\n    /* \"#utility.yul\":641:665   */\n  tag_22\n    /* \"#utility.yul\":659:664   */\n  dup2\n    /* \"#utility.yul\":641:665   */\n  tag_11\n  jump\t// in\ntag_22:\n    /* \"#utility.yul\":634:639   */\n  dup2\n    /* \"#utility.yul\":631:666   */\n  eq\n    /* \"#utility.yul\":621:684   */\n  tag_23\n  jumpi\n    /* \"#utility.yul\":680:681   */\n  0x00\n    /* \"#utility.yul\":677:678   */\n  dup1\n    /* \"#utility.yul\":670:682   */\n  revert\n    /* \"#utility.yul\":621:684   */\ntag_23:\n    /* \"#utility.yul\":568:690   */\n  pop\n  jump\t// out\n    /* \"#utility.yul\":696:839   */\ntag_13:\n    /* \"#utility.yul\":753:758   */\n  0x00\n    /* \"#utility.yul\":784:790   */\n  dup2\n    /* \"#utility.yul\":778:791   */\n  mload\n    /* \"#utility.yul\":769:791   */\n  swap1\n  pop\n    /* \"#utility.yul\":800:833   */\n  tag_25\n    /* \"#utility.yul\":827:832   */\n  dup2\n    /* \"#utility.yul\":800:833   */\n  tag_12\n  jump\t// in\ntag_25:\n    /* \"#utility.yul\":696:839   */\n  swap3\n  swap2\n  pop\n  pop\n  jump\t// out\n    /* \"#utility.yul\":845:1352   */\ntag_3:\n    /* \"#utility.yul\":924:930   */\n  0x00\n    /* \"#utility.yul\":932:938   */\n  dup1\n    /* \"#utility.yul\":981:983   */\n  0x40\n    /* \"#utility.yul\":969:978   */\n  dup4\n    /* \"#utility.yul\":960:967   */\n  dup6\n    /* \"#utility.yul\":956:979   */\n  sub\n    /* \"#utility.yul\":952:984   */\n  slt\n    /* \"#utility.yul\":949:1068   */\n  iszero\n  tag_27\n  jumpi\n    /* \"#utility.yul\":987:1066   */\n  tag_28\n  tag_8\n  jump\t// in\ntag_28:\n    /* \"#utility.yul\":949:1068   */\ntag_27:\n    /* \"#utility.yul\":1107:1108   */\n  0x00\n    /* \"#utility.yul\":1132:1196   */\n  tag_29\n    /* \"#utility.yul\":1188:1195   */\n  dup6\n    /* \"#utility.yul\":1179:1185   */\n  dup3\n    /* \"#utility.yul\":1168:1177   */\n  dup7\n    /* \"#utility.yul\":1164:1186   */\n  add\n    /* \"#utility.yul\":1132:1196   */\n  tag_13\n  jump\t// in\ntag_29:\n    /* \"#utility.yul\":1122:1196   */\n  swap3\n  pop\n    /* \"#utility.yul\":1078:1206   */\n  pop\n    /* \"#utility.yul\":1245:1247   */\n  0x20\n    /* \"#utility.yul\":1271:1335   */\n  tag_30\n    /* \"#utility.yul\":1327:1334   */\n  dup6\n    /* \"#utility.yul\":1318:1324   */\n  dup3\n    /* \"#utility.yul\":1307:1316   */\n  dup7\n    /* \"#utility.yul\":1303:1325   */\n  add\n    /* \"#utility.yul\":1271:1335   */\n  tag_13\n  jump\t// in\ntag_30:\n    /* \"#utility.yul\":1261:1335   */\n  swap2\n  pop\n    /* \"#utility.yul\":1216:1345   */\n  pop\n    /* \"#utility.yul\":845:1352   */\n  swap3\n  pop\n  swap3\n  swap1\n  pop\n  jump\t// out\n    /* \"SimpleDEX.sol\":120:4148  contract SimpleDEX {... */\ntag_6:\n  dataSize(sub_0)\n  dup1\n  dataOffset(sub_0)\n  0x00\n  codecopy\n  0x00\n  return\nstop\n\nsub_0: assembly {\n        /* \"SimpleDEX.sol\":120:4148  contract SimpleDEX {... */\n      mstore(0x40, 0x80)\n      callvalue\n      dup1\n      iszero\n      tag_1\n      jumpi\n      0x00\n      dup1\n      revert\n    tag_1:\n      pop\n      jumpi(tag_2, lt(calldatasize, 0x04))\n      shr(0xe0, calldataload(0x00))\n      dup1\n      0x86731a8f\n      gt\n      tag_14\n      jumpi\n      dup1\n      0x86731a8f\n      eq\n      tag_8\n      jumpi\n      dup1\n      0x9cd441da\n      eq\n      tag_9\n      jumpi\n      dup1\n      0x9d7de6b3\n      eq\n      tag_10\n      jumpi\n      dup1\n      0xdc5fa6c5\n      eq\n      tag_11\n      jumpi\n      dup1\n      0xe29556ee\n      eq\n      tag_12\n      jumpi\n      dup1\n      0xe4f1f70a\n      eq\n      tag_13\n      jumpi\n      jump(tag_2)\n    tag_14:\n      dup1\n      0x0fc63d10\n      eq\n      tag_3\n      jumpi\n      dup1\n      0x19e36f3b\n      eq\n      tag_4\n      jumpi\n      dup1\n      0x41976e09\n      eq\n      tag_5\n      jumpi\n      dup1\n      0x5f64b55b\n      eq\n      tag_6\n      jumpi\n      dup1\n      0x8014a7aa\n      eq\n      tag_7\n      jumpi\n    tag_2:\n      0x00\n      dup1\n      revert\n        /* \"SimpleDEX.sol\":146:167  address public tokenA */\n    tag_3:\n      tag_15\n      tag_16\n      jump\t// in\n    tag_15:\n      mload(0x40)\n      tag_17\n      swap2\n      swap1\n      tag_18\n      jump\t// in\n    tag_17:\n      mload(0x40)\n      dup1\n      swap2\n      sub\n      swap1\n      return\n        /* \"SimpleDEX.sol\":351:374  uint256 public reserveB */\n    tag_4:\n      tag_19\n      tag_20\n      jump\t// in\n    tag_19:\n      mload(0x40)\n      tag_21\n      swap2\n      swap1\n      tag_22\n      jump\t// in\n    tag_21:\n      mload(0x40)\n      dup1\n      swap2\n      sub\n      swap1\n      return\n        /* \"SimpleDEX.sol\":3747:4145  function getPrice(address _token) external view returns (uint256) {... */\n    tag_5:\n      tag_23\n      0x04\n      dup1\n      calldatasize\n      sub\n      dup2\n      add\n      swap1\n      tag_24\n      swap2\n      swap1\n      tag_25\n      jump\t// in\n    tag_24:\n      tag_26\n      jump\t// in\n    tag_23:\n      mload(0x40)\n      tag_27\n      swap2\n      swap1\n      tag_22\n      jump\t// in\n    tag_27:\n      mload(0x40)\n      dup1\n      swap2\n      sub\n      swap1\n      return\n        /* \"SimpleDEX.sol\":215:236  address public tokenB */\n    tag_6:\n      tag_28\n      tag_29\n      jump\t// in\n    tag_28:\n      mload(0x40)\n      tag_30\n      swap2\n      swap1\n      tag_18\n      jump\t// in\n    tag_30:\n      mload(0x40)\n      dup1\n      swap2\n      sub\n      swap1\n      return\n        /* \"SimpleDEX.sol\":3053:3739  function swapBforA(uint256 amountBIn) external {... */\n    tag_7:\n      tag_31\n      0x04\n      dup1\n      calldatasize\n      sub\n      dup2\n      add\n      swap1\n      tag_32\n      swap2\n      swap1\n      tag_33\n      jump\t// in\n    tag_32:\n      tag_34\n      jump\t// in\n    tag_31:\n      stop\n        /* \"SimpleDEX.sol\":469:514  mapping(address => uint256) public liquidityB */\n    tag_8:\n      tag_35\n      0x04\n      dup1\n      calldatasize\n      sub\n      dup2\n      add\n      swap1\n      tag_36\n      swap2\n      swap1\n      tag_25\n      jump\t// in\n    tag_36:\n      tag_37\n      jump\t// in\n    tag_35:\n      mload(0x40)\n      tag_38\n      swap2\n      swap1\n      tag_22\n      jump\t// in\n    tag_38:\n      mload(0x40)\n      dup1\n      swap2\n      sub\n      swap1\n      return\n        /* \"SimpleDEX.sol\":1047:1548  function addLiquidity(uint256 amountA, uint256 amountB) external {... */\n    tag_9:\n      tag_39\n      0x04\n      dup1\n      calldatasize\n      sub\n      dup2\n      add\n      swap1\n      tag_40\n      swap2\n      swap1\n      tag_41\n      jump\t// in\n    tag_40:\n      tag_42\n      jump\t// in\n    tag_39:\n      stop\n        /* \"SimpleDEX.sol\":1556:2352  function removeLiquidity(uint256 amountA, uint256 amountB) external {... */\n    tag_10:\n      tag_43\n      0x04\n      dup1\n      calldatasize\n      sub\n      dup2\n      add\n      swap1\n      tag_44\n      swap2\n      swap1\n      tag_41\n      jump\t// in\n    tag_44:\n      tag_45\n      jump\t// in\n    tag_43:\n      stop\n        /* \"SimpleDEX.sol\":287:310  uint256 public reserveA */\n    tag_11:\n      tag_46\n      tag_47\n      jump\t// in\n    tag_46:\n      mload(0x40)\n      tag_48\n      swap2\n      swap1\n      tag_22\n      jump\t// in\n    tag_48:\n      mload(0x40)\n      dup1\n      swap2\n      sub\n      swap1\n      return\n        /* \"SimpleDEX.sol\":417:462  mapping(address => uint256) public liquidityA */\n    tag_12:\n      tag_49\n      0x04\n      dup1\n      calldatasize\n      sub\n      dup2\n      add\n      swap1\n      tag_50\n      swap2\n      swap1\n      tag_25\n      jump\t// in\n    tag_50:\n      tag_51\n      jump\t// in\n    tag_49:\n      mload(0x40)\n      tag_52\n      swap2\n      swap1\n      tag_22\n      jump\t// in\n    tag_52:\n      mload(0x40)\n      dup1\n      swap2\n      sub\n      swap1\n      return\n        /* \"SimpleDEX.sol\":2360:3045  function swapAforB(uint256 amountAIn) external {... */\n    tag_13:\n      tag_53\n      0x04\n      dup1\n      calldatasize\n      sub\n      dup2\n      add\n      swap1\n      tag_54\n      swap2\n      swap1\n      tag_33\n      jump\t// in\n    tag_54:\n      tag_55\n      jump\t// in\n    tag_53:\n      stop\n        /* \"SimpleDEX.sol\":146:167  address public tokenA */\n    tag_16:\n      0x00\n      dup1\n      sload\n      swap1\n      0x0100\n      exp\n      swap1\n      div\n      0xffffffffffffffffffffffffffffffffffffffff\n      and\n      dup2\n      jump\t// out\n        /* \"SimpleDEX.sol\":351:374  uint256 public reserveB */\n    tag_20:\n      sload(0x03)\n      dup2\n      jump\t// out\n        /* \"SimpleDEX.sol\":3747:4145  function getPrice(address _token) external view returns (uint256) {... */\n    tag_26:\n        /* \"SimpleDEX.sol\":3804:3811  uint256 */\n      0x00\n        /* \"SimpleDEX.sol\":3824:3841  uint256 _reserveA */\n      dup1\n        /* \"SimpleDEX.sol\":3844:3852  reserveA */\n      sload(0x02)\n        /* \"SimpleDEX.sol\":3824:3852  uint256 _reserveA = reserveA */\n      swap1\n      pop\n        /* \"SimpleDEX.sol\":3863:3880  uint256 _reserveB */\n      0x00\n        /* \"SimpleDEX.sol\":3883:3891  reserveB */\n      sload(0x03)\n        /* \"SimpleDEX.sol\":3863:3891  uint256 _reserveB = reserveB */\n      swap1\n      pop\n        /* \"SimpleDEX.sol\":3918:3924  tokenA */\n      0x00\n      dup1\n      sload\n      swap1\n      0x0100\n      exp\n      swap1\n      div\n      0xffffffffffffffffffffffffffffffffffffffff\n      and\n        /* \"SimpleDEX.sol\":3908:3924  _token == tokenA */\n      0xffffffffffffffffffffffffffffffffffffffff\n      and\n        /* \"SimpleDEX.sol\":3908:3914  _token */\n      dup5\n        /* \"SimpleDEX.sol\":3908:3924  _token == tokenA */\n      0xffffffffffffffffffffffffffffffffffffffff\n      and\n      sub\n        /* \"SimpleDEX.sol\":3904:4138  if (_token == tokenA) {... */\n      tag_57\n      jumpi\n        /* \"SimpleDEX.sol\":3969:3978  _reserveA */\n      dup2\n        /* \"SimpleDEX.sol\":3961:3965  1e18 */\n      0x0de0b6b3a7640000\n        /* \"SimpleDEX.sol\":3949:3958  _reserveB */\n      dup3\n        /* \"SimpleDEX.sol\":3949:3965  _reserveB * 1e18 */\n      tag_58\n      swap2\n      swap1\n      tag_59\n      jump\t// in\n    tag_58:\n        /* \"SimpleDEX.sol\":3948:3978  (_reserveB * 1e18) / _reserveA */\n      tag_60\n      swap2\n      swap1\n      tag_61\n      jump\t// in\n    tag_60:\n        /* \"SimpleDEX.sol\":3941:3978  return (_reserveB * 1e18) / _reserveA */\n      swap3\n      pop\n      pop\n      pop\n      jump(tag_56)\n        /* \"SimpleDEX.sol\":3904:4138  if (_token == tokenA) {... */\n    tag_57:\n        /* \"SimpleDEX.sol\":4010:4016  tokenB */\n      0x01\n      0x00\n      swap1\n      sload\n      swap1\n      0x0100\n      exp\n      swap1\n      div\n      0xffffffffffffffffffffffffffffffffffffffff\n      and\n        /* \"SimpleDEX.sol\":4000:4016  _token == tokenB */\n      0xffffffffffffffffffffffffffffffffffffffff\n      and\n        /* \"SimpleDEX.sol\":4000:4006  _token */\n      dup5\n        /* \"SimpleDEX.sol\":4000:4016  _token == tokenB */\n      0xffffffffffffffffffffffffffffffffffffffff\n      and\n      sub\n        /* \"SimpleDEX.sol\":3996:4138  if (_token == tokenB) {... */\n      tag_63\n      jumpi\n        /* \"SimpleDEX.sol\":4061:4070  _reserveB */\n      dup1\n        /* \"SimpleDEX.sol\":4053:4057  1e18 */\n      0x0de0b6b3a7640000\n        /* \"SimpleDEX.sol\":4041:4050  _reserveA */\n      dup4\n        /* \"SimpleDEX.sol\":4041:4057  _reserveA * 1e18 */\n      tag_64\n      swap2\n      swap1\n      tag_59\n      jump\t// in\n    tag_64:\n        /* \"SimpleDEX.sol\":4040:4070  (_reserveA * 1e18) / _reserveB */\n      tag_65\n      swap2\n      swap1\n      tag_61\n      jump\t// in\n    tag_65:\n        /* \"SimpleDEX.sol\":4033:4070  return (_reserveA * 1e18) / _reserveB */\n      swap3\n      pop\n      pop\n      pop\n      jump(tag_56)\n        /* \"SimpleDEX.sol\":3996:4138  if (_token == tokenB) {... */\n    tag_63:\n        /* \"SimpleDEX.sol\":4103:4126  revert(\"Invalid token\") */\n      mload(0x40)\n      0x08c379a000000000000000000000000000000000000000000000000000000000\n      dup2\n      mstore\n      0x04\n      add\n      tag_67\n      swap1\n      tag_68\n      jump\t// in\n    tag_67:\n      mload(0x40)\n      dup1\n      swap2\n      sub\n      swap1\n      revert\n        /* \"SimpleDEX.sol\":3747:4145  function getPrice(address _token) external view returns (uint256) {... */\n    tag_56:\n      swap2\n      swap1\n      pop\n      jump\t// out\n        /* \"SimpleDEX.sol\":215:236  address public tokenB */\n    tag_29:\n      0x01\n      0x00\n      swap1\n      sload\n      swap1\n      0x0100\n      exp\n      swap1\n      div\n      0xffffffffffffffffffffffffffffffffffffffff\n      and\n      dup2\n      jump\t// out\n        /* \"SimpleDEX.sol\":3053:3739  function swapBforA(uint256 amountBIn) external {... */\n    tag_34:\n        /* \"SimpleDEX.sol\":3131:3132  0 */\n      0x00\n        /* \"SimpleDEX.sol\":3119:3128  amountBIn */\n      dup2\n        /* \"SimpleDEX.sol\":3119:3132  amountBIn > 0 */\n      gt\n        /* \"SimpleDEX.sol\":3111:3147  require(amountBIn > 0, \"Zero input\") */\n      tag_70\n      jumpi\n      mload(0x40)\n      0x08c379a000000000000000000000000000000000000000000000000000000000\n      dup2\n      mstore\n      0x04\n      add\n      tag_71\n      swap1\n      tag_72\n      jump\t// in\n    tag_71:\n      mload(0x40)\n      dup1\n      swap2\n      sub\n      swap1\n      revert\n    tag_70:\n        /* \"SimpleDEX.sol\":3160:3177  uint256 _reserveA */\n      0x00\n        /* \"SimpleDEX.sol\":3180:3188  reserveA */\n      sload(0x02)\n        /* \"SimpleDEX.sol\":3160:3188  uint256 _reserveA = reserveA */\n      swap1\n      pop\n        /* \"SimpleDEX.sol\":3199:3216  uint256 _reserveB */\n      0x00\n        /* \"SimpleDEX.sol\":3219:3227  reserveB */\n      sload(0x03)\n        /* \"SimpleDEX.sol\":3199:3227  uint256 _reserveB = reserveB */\n      swap1\n      pop\n        /* \"SimpleDEX.sol\":3260:3261  0 */\n      0x00\n        /* \"SimpleDEX.sol\":3248:3257  _reserveA */\n      dup3\n        /* \"SimpleDEX.sol\":3248:3261  _reserveA > 0 */\n      gt\n        /* \"SimpleDEX.sol\":3248:3278  _reserveA > 0 && _reserveB > 0 */\n      dup1\n      iszero\n      tag_73\n      jumpi\n      pop\n        /* \"SimpleDEX.sol\":3277:3278  0 */\n      0x00\n        /* \"SimpleDEX.sol\":3265:3274  _reserveB */\n      dup2\n        /* \"SimpleDEX.sol\":3265:3278  _reserveB > 0 */\n      gt\n        /* \"SimpleDEX.sol\":3248:3278  _reserveA > 0 && _reserveB > 0 */\n    tag_73:\n        /* \"SimpleDEX.sol\":3240:3296  require(_reserveA > 0 && _reserveB > 0, \"Low liquidity\") */\n      tag_74\n      jumpi\n      mload(0x40)\n      0x08c379a000000000000000000000000000000000000000000000000000000000\n      dup2\n      mstore\n      0x04\n      add\n      tag_75\n      swap1\n      tag_76\n      jump\t// in\n    tag_75:\n      mload(0x40)\n      dup1\n      swap2\n      sub\n      swap1\n      revert\n    tag_74:\n        /* \"SimpleDEX.sol\":3309:3327  uint256 amountAOut */\n      0x00\n        /* \"SimpleDEX.sol\":3381:3390  amountBIn */\n      dup4\n        /* \"SimpleDEX.sol\":3369:3378  _reserveB */\n      dup3\n        /* \"SimpleDEX.sol\":3369:3390  _reserveB + amountBIn */\n      tag_77\n      swap2\n      swap1\n      tag_78\n      jump\t// in\n    tag_77:\n        /* \"SimpleDEX.sol\":3355:3364  _reserveB */\n      dup3\n        /* \"SimpleDEX.sol\":3343:3352  _reserveA */\n      dup5\n        /* \"SimpleDEX.sol\":3343:3364  _reserveA * _reserveB */\n      tag_79\n      swap2\n      swap1\n      tag_59\n      jump\t// in\n    tag_79:\n        /* \"SimpleDEX.sol\":3342:3391  (_reserveA * _reserveB) / (_reserveB + amountBIn) */\n      tag_80\n      swap2\n      swap1\n      tag_61\n      jump\t// in\n    tag_80:\n        /* \"SimpleDEX.sol\":3330:3339  _reserveA */\n      dup4\n        /* \"SimpleDEX.sol\":3330:3391  _reserveA - (_reserveA * _reserveB) / (_reserveB + amountBIn) */\n      tag_81\n      swap2\n      swap1\n      tag_82\n      jump\t// in\n    tag_81:\n        /* \"SimpleDEX.sol\":3309:3391  uint256 amountAOut = _reserveA - (_reserveA * _reserveB) / (_reserveB + amountBIn) */\n      swap1\n      pop\n        /* \"SimpleDEX.sol\":3423:3424  0 */\n      0x00\n        /* \"SimpleDEX.sol\":3410:3420  amountAOut */\n      dup2\n        /* \"SimpleDEX.sol\":3410:3424  amountAOut > 0 */\n      gt\n        /* \"SimpleDEX.sol\":3402:3439  require(amountAOut > 0, \"Low output\") */\n      tag_83\n      jumpi\n      mload(0x40)\n      0x08c379a000000000000000000000000000000000000000000000000000000000\n      dup2\n      mstore\n      0x04\n      add\n      tag_84\n      swap1\n      tag_85\n      jump\t// in\n    tag_84:\n      mload(0x40)\n      dup1\n      swap2\n      sub\n      swap1\n      revert\n    tag_83:\n        /* \"SimpleDEX.sol\":3459:3465  tokenB */\n      0x01\n      0x00\n      swap1\n      sload\n      swap1\n      0x0100\n      exp\n      swap1\n      div\n      0xffffffffffffffffffffffffffffffffffffffff\n      and\n        /* \"SimpleDEX.sol\":3452:3479  IERC20(tokenB).transferFrom */\n      0xffffffffffffffffffffffffffffffffffffffff\n      and\n      0x23b872dd\n        /* \"SimpleDEX.sol\":3480:3490  msg.sender */\n      caller\n        /* \"SimpleDEX.sol\":3500:3504  this */\n      address\n        /* \"SimpleDEX.sol\":3507:3516  amountBIn */\n      dup8\n        /* \"SimpleDEX.sol\":3452:3517  IERC20(tokenB).transferFrom(msg.sender, address(this), amountBIn) */\n      mload(0x40)\n      dup5\n      0xffffffff\n      and\n      0xe0\n      shl\n      dup2\n      mstore\n      0x04\n      add\n      tag_86\n      swap4\n      swap3\n      swap2\n      swap1\n      tag_87\n      jump\t// in\n    tag_86:\n      0x20\n      mload(0x40)\n      dup1\n      dup4\n      sub\n      dup2\n      0x00\n      dup8\n      gas\n      call\n      iszero\n      dup1\n      iszero\n      tag_89\n      jumpi\n      returndatasize\n      0x00\n      dup1\n      returndatacopy\n      revert(0x00, returndatasize)\n    tag_89:\n      pop\n      pop\n      pop\n      pop\n      mload(0x40)\n      returndatasize\n      not(0x1f)\n      0x1f\n      dup3\n      add\n      and\n      dup3\n      add\n      dup1\n      0x40\n      mstore\n      pop\n      dup2\n      add\n      swap1\n      tag_90\n      swap2\n      swap1\n      tag_91\n      jump\t// in\n    tag_90:\n      pop\n        /* \"SimpleDEX.sol\":3535:3541  tokenA */\n      0x00\n      dup1\n      sload\n      swap1\n      0x0100\n      exp\n      swap1\n      div\n      0xffffffffffffffffffffffffffffffffffffffff\n      and\n        /* \"SimpleDEX.sol\":3528:3551  IERC20(tokenA).transfer */\n      0xffffffffffffffffffffffffffffffffffffffff\n      and\n      0xa9059cbb\n        /* \"SimpleDEX.sol\":3552:3562  msg.sender */\n      caller\n        /* \"SimpleDEX.sol\":3564:3574  amountAOut */\n      dup4\n        /* \"SimpleDEX.sol\":3528:3575  IERC20(tokenA).transfer(msg.sender, amountAOut) */\n      mload(0x40)\n      dup4\n      0xffffffff\n      and\n      0xe0\n      shl\n      dup2\n      mstore\n      0x04\n      add\n      tag_92\n      swap3\n      swap2\n      swap1\n      tag_93\n      jump\t// in\n    tag_92:\n      0x20\n      mload(0x40)\n      dup1\n      dup4\n      sub\n      dup2\n      0x00\n      dup8\n      gas\n      call\n      iszero\n      dup1\n      iszero\n      tag_95\n      jumpi\n      returndatasize\n      0x00\n      dup1\n      returndatacopy\n      revert(0x00, returndatasize)\n    tag_95:\n      pop\n      pop\n      pop\n      pop\n      mload(0x40)\n      returndatasize\n      not(0x1f)\n      0x1f\n      dup3\n      add\n      and\n      dup3\n      add\n      dup1\n      0x40\n      mstore\n      pop\n      dup2\n      add\n      swap1\n      tag_96\n      swap2\n      swap1\n      tag_91\n      jump\t// in\n    tag_96:\n      pop\n        /* \"SimpleDEX.sol\":3600:3609  amountBIn */\n      dup4\n        /* \"SimpleDEX.sol\":3588:3596  reserveB */\n      0x03\n      0x00\n        /* \"SimpleDEX.sol\":3588:3609  reserveB += amountBIn */\n      dup3\n      dup3\n      sload\n      tag_97\n      swap2\n      swap1\n      tag_78\n      jump\t// in\n    tag_97:\n      swap3\n      pop\n      pop\n      dup2\n      swap1\n      sstore\n      pop\n        /* \"SimpleDEX.sol\":3632:3642  amountAOut */\n      dup1\n        /* \"SimpleDEX.sol\":3620:3628  reserveA */\n      0x02\n      0x00\n        /* \"SimpleDEX.sol\":3620:3642  reserveA -= amountAOut */\n      dup3\n      dup3\n      sload\n      tag_98\n      swap2\n      swap1\n      tag_82\n      jump\t// in\n    tag_98:\n      swap3\n      pop\n      pop\n      dup2\n      swap1\n      sstore\n      pop\n        /* \"SimpleDEX.sol\":3674:3684  msg.sender */\n      caller\n        /* \"SimpleDEX.sol\":3660:3731  TokensSwapped(msg.sender, tokenB, tokenA, amountBIn, amountAOut, false) */\n      0xffffffffffffffffffffffffffffffffffffffff\n      and\n      0xc6dfcbe388852b9b58ec79ba1d25cff46e16d6f01ea19c67a47aae86c1ac2dc7\n        /* \"SimpleDEX.sol\":3686:3692  tokenB */\n      0x01\n      0x00\n      swap1\n      sload\n      swap1\n      0x0100\n      exp\n      swap1\n      div\n      0xffffffffffffffffffffffffffffffffffffffff\n      and\n        /* \"SimpleDEX.sol\":3694:3700  tokenA */\n      0x00\n      dup1\n      sload\n      swap1\n      0x0100\n      exp\n      swap1\n      div\n      0xffffffffffffffffffffffffffffffffffffffff\n      and\n        /* \"SimpleDEX.sol\":3702:3711  amountBIn */\n      dup8\n        /* \"SimpleDEX.sol\":3713:3723  amountAOut */\n      dup6\n        /* \"SimpleDEX.sol\":3725:3730  false */\n      0x00\n        /* \"SimpleDEX.sol\":3660:3731  TokensSwapped(msg.sender, tokenB, tokenA, amountBIn, amountAOut, false) */\n      mload(0x40)\n      tag_99\n      swap6\n      swap5\n      swap4\n      swap3\n      swap2\n      swap1\n      tag_100\n      jump\t// in\n    tag_99:\n      mload(0x40)\n      dup1\n      swap2\n      sub\n      swap1\n      log2\n        /* \"SimpleDEX.sol\":3100:3739  {... */\n      pop\n      pop\n      pop\n        /* \"SimpleDEX.sol\":3053:3739  function swapBforA(uint256 amountBIn) external {... */\n      pop\n      jump\t// out\n        /* \"SimpleDEX.sol\":469:514  mapping(address => uint256) public liquidityB */\n    tag_37:\n      mstore(0x20, 0x05)\n      dup1\n      0x00\n      mstore\n      keccak256(0x00, 0x40)\n      0x00\n      swap2\n      pop\n      swap1\n      pop\n      sload\n      dup2\n      jump\t// out\n        /* \"SimpleDEX.sol\":1047:1548  function addLiquidity(uint256 amountA, uint256 amountB) external {... */\n    tag_42:\n        /* \"SimpleDEX.sol\":1141:1142  0 */\n      0x00\n        /* \"SimpleDEX.sol\":1131:1138  amountA */\n      dup3\n        /* \"SimpleDEX.sol\":1131:1142  amountA > 0 */\n      gt\n        /* \"SimpleDEX.sol\":1131:1157  amountA > 0 && amountB > 0 */\n      dup1\n      iszero\n      tag_102\n      jumpi\n      pop\n        /* \"SimpleDEX.sol\":1156:1157  0 */\n      0x00\n        /* \"SimpleDEX.sol\":1146:1153  amountB */\n      dup2\n        /* \"SimpleDEX.sol\":1146:1157  amountB > 0 */\n      gt\n        /* \"SimpleDEX.sol\":1131:1157  amountA > 0 && amountB > 0 */\n    tag_102:\n        /* \"SimpleDEX.sol\":1123:1176  require(amountA > 0 && amountB > 0, \"Zero liquidity\") */\n      tag_103\n      jumpi\n      mload(0x40)\n      0x08c379a000000000000000000000000000000000000000000000000000000000\n      dup2\n      mstore\n      0x04\n      add\n      tag_104\n      swap1\n      tag_105\n      jump\t// in\n    tag_104:\n      mload(0x40)\n      dup1\n      swap2\n      sub\n      swap1\n      revert\n    tag_103:\n        /* \"SimpleDEX.sol\":1196:1202  tokenA */\n      0x00\n      dup1\n      sload\n      swap1\n      0x0100\n      exp\n      swap1\n      div\n      0xffffffffffffffffffffffffffffffffffffffff\n      and\n        /* \"SimpleDEX.sol\":1189:1216  IERC20(tokenA).transferFrom */\n      0xffffffffffffffffffffffffffffffffffffffff\n      and\n      0x23b872dd\n        /* \"SimpleDEX.sol\":1217:1227  msg.sender */\n      caller\n        /* \"SimpleDEX.sol\":1237:1241  this */\n      address\n        /* \"SimpleDEX.sol\":1244:1251  amountA */\n      dup6\n        /* \"SimpleDEX.sol\":1189:1252  IERC20(tokenA).transferFrom(msg.sender, address(this), amountA) */\n      mload(0x40)\n      dup5\n      0xffffffff\n      and\n      0xe0\n      shl\n      dup2\n      mstore\n      0x04\n      add\n      tag_106\n      swap4\n      swap3\n      swap2\n      swap1\n      tag_87\n      jump\t// in\n    tag_106:\n      0x20\n      mload(0x40)\n      dup1\n      dup4\n      sub\n      dup2\n      0x00\n      dup8\n      gas\n      call\n      iszero\n      dup1\n      iszero\n      tag_108\n      jumpi\n      returndatasize\n      0x00\n      dup1\n      returndatacopy\n      revert(0x00, returndatasize)\n    tag_108:\n      pop\n      pop\n      pop\n      pop\n      mload(0x40)\n      returndatasize\n      not(0x1f)\n      0x1f\n      dup3\n      add\n      and\n      dup3\n      add\n      dup1\n      0x40\n      mstore\n      pop\n      dup2\n      add\n      swap1\n      tag_109\n      swap2\n      swap1\n      tag_91\n      jump\t// in\n    tag_109:\n      pop\n        /* \"SimpleDEX.sol\":1270:1276  tokenB */\n      0x01\n      0x00\n      swap1\n      sload\n      swap1\n      0x0100\n      exp\n      swap1\n      div\n      0xffffffffffffffffffffffffffffffffffffffff\n      and\n        /* \"SimpleDEX.sol\":1263:1290  IERC20(tokenB).transferFrom */\n      0xffffffffffffffffffffffffffffffffffffffff\n      and\n      0x23b872dd\n        /* \"SimpleDEX.sol\":1291:1301  msg.sender */\n      caller\n        /* \"SimpleDEX.sol\":1311:1315  this */\n      address\n        /* \"SimpleDEX.sol\":1318:1325  amountB */\n      dup5\n        /* \"SimpleDEX.sol\":1263:1326  IERC20(tokenB).transferFrom(msg.sender, address(this), amountB) */\n      mload(0x40)\n      dup5\n      0xffffffff\n      and\n      0xe0\n      shl\n      dup2\n      mstore\n      0x04\n      add\n      tag_110\n      swap4\n      swap3\n      swap2\n      swap1\n      tag_87\n      jump\t// in\n    tag_110:\n      0x20\n      mload(0x40)\n      dup1\n      dup4\n      sub\n      dup2\n      0x00\n      dup8\n      gas\n      call\n      iszero\n      dup1\n      iszero\n      tag_112\n      jumpi\n      returndatasize\n      0x00\n      dup1\n      returndatacopy\n      revert(0x00, returndatasize)\n    tag_112:\n      pop\n      pop\n      pop\n      pop\n      mload(0x40)\n      returndatasize\n      not(0x1f)\n      0x1f\n      dup3\n      add\n      and\n      dup3\n      add\n      dup1\n      0x40\n      mstore\n      pop\n      dup2\n      add\n      swap1\n      tag_113\n      swap2\n      swap1\n      tag_91\n      jump\t// in\n    tag_113:\n      pop\n        /* \"SimpleDEX.sol\":1351:1358  amountA */\n      dup2\n        /* \"SimpleDEX.sol\":1339:1347  reserveA */\n      0x02\n      0x00\n        /* \"SimpleDEX.sol\":1339:1358  reserveA += amountA */\n      dup3\n      dup3\n      sload\n      tag_114\n      swap2\n      swap1\n      tag_78\n      jump\t// in\n    tag_114:\n      swap3\n      pop\n      pop\n      dup2\n      swap1\n      sstore\n      pop\n        /* \"SimpleDEX.sol\":1381:1388  amountB */\n      dup1\n        /* \"SimpleDEX.sol\":1369:1377  reserveB */\n      0x03\n      0x00\n        /* \"SimpleDEX.sol\":1369:1388  reserveB += amountB */\n      dup3\n      dup3\n      sload\n      tag_115\n      swap2\n      swap1\n      tag_78\n      jump\t// in\n    tag_115:\n      swap3\n      pop\n      pop\n      dup2\n      swap1\n      sstore\n      pop\n        /* \"SimpleDEX.sol\":1427:1434  amountA */\n      dup2\n        /* \"SimpleDEX.sol\":1401:1411  liquidityA */\n      0x04\n        /* \"SimpleDEX.sol\":1401:1423  liquidityA[msg.sender] */\n      0x00\n        /* \"SimpleDEX.sol\":1412:1422  msg.sender */\n      caller\n        /* \"SimpleDEX.sol\":1401:1423  liquidityA[msg.sender] */\n      0xffffffffffffffffffffffffffffffffffffffff\n      and\n      0xffffffffffffffffffffffffffffffffffffffff\n      and\n      dup2\n      mstore\n      0x20\n      add\n      swap1\n      dup2\n      mstore\n      0x20\n      add\n      0x00\n      keccak256\n      0x00\n        /* \"SimpleDEX.sol\":1401:1434  liquidityA[msg.sender] += amountA */\n      dup3\n      dup3\n      sload\n      tag_116\n      swap2\n      swap1\n      tag_78\n      jump\t// in\n    tag_116:\n      swap3\n      pop\n      pop\n      dup2\n      swap1\n      sstore\n      pop\n        /* \"SimpleDEX.sol\":1471:1478  amountB */\n      dup1\n        /* \"SimpleDEX.sol\":1445:1455  liquidityB */\n      0x05\n        /* \"SimpleDEX.sol\":1445:1467  liquidityB[msg.sender] */\n      0x00\n        /* \"SimpleDEX.sol\":1456:1466  msg.sender */\n      caller\n        /* \"SimpleDEX.sol\":1445:1467  liquidityB[msg.sender] */\n      0xffffffffffffffffffffffffffffffffffffffff\n      and\n      0xffffffffffffffffffffffffffffffffffffffff\n      and\n      dup2\n      mstore\n      0x20\n      add\n      swap1\n      dup2\n      mstore\n      0x20\n      add\n      0x00\n      keccak256\n      0x00\n        /* \"SimpleDEX.sol\":1445:1478  liquidityB[msg.sender] += amountB */\n      dup3\n      dup3\n      sload\n      tag_117\n      swap2\n      swap1\n      tag_78\n      jump\t// in\n    tag_117:\n      swap3\n      pop\n      pop\n      dup2\n      swap1\n      sstore\n      pop\n        /* \"SimpleDEX.sol\":1511:1521  msg.sender */\n      caller\n        /* \"SimpleDEX.sol\":1496:1540  LiquidityAdded(msg.sender, amountA, amountB) */\n      0xffffffffffffffffffffffffffffffffffffffff\n      and\n      0xac1d76749e5447b7b16f5ab61447e1bd502f3bb4807af3b28e620d1700a6ee45\n        /* \"SimpleDEX.sol\":1523:1530  amountA */\n      dup4\n        /* \"SimpleDEX.sol\":1532:1539  amountB */\n      dup4\n        /* \"SimpleDEX.sol\":1496:1540  LiquidityAdded(msg.sender, amountA, amountB) */\n      mload(0x40)\n      tag_118\n      swap3\n      swap2\n      swap1\n      tag_119\n      jump\t// in\n    tag_118:\n      mload(0x40)\n      dup1\n      swap2\n      sub\n      swap1\n      log2\n        /* \"SimpleDEX.sol\":1047:1548  function addLiquidity(uint256 amountA, uint256 amountB) external {... */\n      pop\n      pop\n      jump\t// out\n        /* \"SimpleDEX.sol\":1556:2352  function removeLiquidity(uint256 amountA, uint256 amountB) external {... */\n    tag_45:\n        /* \"SimpleDEX.sol\":1653:1654  0 */\n      0x00\n        /* \"SimpleDEX.sol\":1643:1650  amountA */\n      dup3\n        /* \"SimpleDEX.sol\":1643:1654  amountA > 0 */\n      gt\n        /* \"SimpleDEX.sol\":1643:1669  amountA > 0 && amountB > 0 */\n      dup1\n      iszero\n      tag_121\n      jumpi\n      pop\n        /* \"SimpleDEX.sol\":1668:1669  0 */\n      0x00\n        /* \"SimpleDEX.sol\":1658:1665  amountB */\n      dup2\n        /* \"SimpleDEX.sol\":1658:1669  amountB > 0 */\n      gt\n        /* \"SimpleDEX.sol\":1643:1669  amountA > 0 && amountB > 0 */\n    tag_121:\n        /* \"SimpleDEX.sol\":1635:1689  require(amountA > 0 && amountB > 0, \"Invalid amounts\") */\n      tag_122\n      jumpi\n      mload(0x40)\n      0x08c379a000000000000000000000000000000000000000000000000000000000\n      dup2\n      mstore\n      0x04\n      add\n      tag_123\n      swap1\n      tag_124\n      jump\t// in\n    tag_123:\n      mload(0x40)\n      dup1\n      swap2\n      sub\n      swap1\n      revert\n    tag_122:\n        /* \"SimpleDEX.sol\":1720:1727  amountA */\n      dup2\n        /* \"SimpleDEX.sol\":1708:1716  reserveA */\n      sload(0x02)\n        /* \"SimpleDEX.sol\":1708:1727  reserveA >= amountA */\n      lt\n      iszero\n        /* \"SimpleDEX.sol\":1708:1750  reserveA >= amountA && reserveB >= amountB */\n      dup1\n      iszero\n      tag_125\n      jumpi\n      pop\n        /* \"SimpleDEX.sol\":1743:1750  amountB */\n      dup1\n        /* \"SimpleDEX.sol\":1731:1739  reserveB */\n      sload(0x03)\n        /* \"SimpleDEX.sol\":1731:1750  reserveB >= amountB */\n      lt\n      iszero\n        /* \"SimpleDEX.sol\":1708:1750  reserveA >= amountA && reserveB >= amountB */\n    tag_125:\n        /* \"SimpleDEX.sol\":1700:1768  require(reserveA >= amountA && reserveB >= amountB, \"Low liquidity\") */\n      tag_126\n      jumpi\n      mload(0x40)\n      0x08c379a000000000000000000000000000000000000000000000000000000000\n      dup2\n      mstore\n      0x04\n      add\n      tag_127\n      swap1\n      tag_76\n      jump\t// in\n    tag_127:\n      mload(0x40)\n      dup1\n      swap2\n      sub\n      swap1\n      revert\n    tag_126:\n        /* \"SimpleDEX.sol\":1781:1803  uint256 userLiquidityA */\n      0x00\n        /* \"SimpleDEX.sol\":1806:1816  liquidityA */\n      0x04\n        /* \"SimpleDEX.sol\":1806:1828  liquidityA[msg.sender] */\n      0x00\n        /* \"SimpleDEX.sol\":1817:1827  msg.sender */\n      caller\n        /* \"SimpleDEX.sol\":1806:1828  liquidityA[msg.sender] */\n      0xffffffffffffffffffffffffffffffffffffffff\n      and\n      0xffffffffffffffffffffffffffffffffffffffff\n      and\n      dup2\n      mstore\n      0x20\n      add\n      swap1\n      dup2\n      mstore\n      0x20\n      add\n      0x00\n      keccak256\n      sload\n        /* \"SimpleDEX.sol\":1781:1828  uint256 userLiquidityA = liquidityA[msg.sender] */\n      swap1\n      pop\n        /* \"SimpleDEX.sol\":1839:1861  uint256 userLiquidityB */\n      0x00\n        /* \"SimpleDEX.sol\":1864:1874  liquidityB */\n      0x05\n        /* \"SimpleDEX.sol\":1864:1886  liquidityB[msg.sender] */\n      0x00\n        /* \"SimpleDEX.sol\":1875:1885  msg.sender */\n      caller\n        /* \"SimpleDEX.sol\":1864:1886  liquidityB[msg.sender] */\n      0xffffffffffffffffffffffffffffffffffffffff\n      and\n      0xffffffffffffffffffffffffffffffffffffffff\n      and\n      dup2\n      mstore\n      0x20\n      add\n      swap1\n      dup2\n      mstore\n      0x20\n      add\n      0x00\n      keccak256\n      sload\n        /* \"SimpleDEX.sol\":1839:1886  uint256 userLiquidityB = liquidityB[msg.sender] */\n      swap1\n      pop\n        /* \"SimpleDEX.sol\":1925:1932  amountA */\n      dup4\n        /* \"SimpleDEX.sol\":1907:1921  userLiquidityA */\n      dup3\n        /* \"SimpleDEX.sol\":1907:1932  userLiquidityA >= amountA */\n      lt\n      iszero\n        /* \"SimpleDEX.sol\":1899:1952  require(userLiquidityA >= amountA, \"Exceeds Token A\") */\n      tag_128\n      jumpi\n      mload(0x40)\n      0x08c379a000000000000000000000000000000000000000000000000000000000\n      dup2\n      mstore\n      0x04\n      add\n      tag_129\n      swap1\n      tag_130\n      jump\t// in\n    tag_129:\n      mload(0x40)\n      dup1\n      swap2\n      sub\n      swap1\n      revert\n    tag_128:\n        /* \"SimpleDEX.sol\":1989:1996  amountB */\n      dup3\n        /* \"SimpleDEX.sol\":1971:1985  userLiquidityB */\n      dup2\n        /* \"SimpleDEX.sol\":1971:1996  userLiquidityB >= amountB */\n      lt\n      iszero\n        /* \"SimpleDEX.sol\":1963:2016  require(userLiquidityB >= amountB, \"Exceeds Token B\") */\n      tag_131\n      jumpi\n      mload(0x40)\n      0x08c379a000000000000000000000000000000000000000000000000000000000\n      dup2\n      mstore\n      0x04\n      add\n      tag_132\n      swap1\n      tag_133\n      jump\t// in\n    tag_132:\n      mload(0x40)\n      dup1\n      swap2\n      sub\n      swap1\n      revert\n    tag_131:\n        /* \"SimpleDEX.sol\":2036:2042  tokenA */\n      0x00\n      dup1\n      sload\n      swap1\n      0x0100\n      exp\n      swap1\n      div\n      0xffffffffffffffffffffffffffffffffffffffff\n      and\n        /* \"SimpleDEX.sol\":2029:2052  IERC20(tokenA).transfer */\n      0xffffffffffffffffffffffffffffffffffffffff\n      and\n      0xa9059cbb\n        /* \"SimpleDEX.sol\":2053:2063  msg.sender */\n      caller\n        /* \"SimpleDEX.sol\":2065:2072  amountA */\n      dup7\n        /* \"SimpleDEX.sol\":2029:2073  IERC20(tokenA).transfer(msg.sender, amountA) */\n      mload(0x40)\n      dup4\n      0xffffffff\n      and\n      0xe0\n      shl\n      dup2\n      mstore\n      0x04\n      add\n      tag_134\n      swap3\n      swap2\n      swap1\n      tag_93\n      jump\t// in\n    tag_134:\n      0x20\n      mload(0x40)\n      dup1\n      dup4\n      sub\n      dup2\n      0x00\n      dup8\n      gas\n      call\n      iszero\n      dup1\n      iszero\n      tag_136\n      jumpi\n      returndatasize\n      0x00\n      dup1\n      returndatacopy\n      revert(0x00, returndatasize)\n    tag_136:\n      pop\n      pop\n      pop\n      pop\n      mload(0x40)\n      returndatasize\n      not(0x1f)\n      0x1f\n      dup3\n      add\n      and\n      dup3\n      add\n      dup1\n      0x40\n      mstore\n      pop\n      dup2\n      add\n      swap1\n      tag_137\n      swap2\n      swap1\n      tag_91\n      jump\t// in\n    tag_137:\n      pop\n        /* \"SimpleDEX.sol\":2091:2097  tokenB */\n      0x01\n      0x00\n      swap1\n      sload\n      swap1\n      0x0100\n      exp\n      swap1\n      div\n      0xffffffffffffffffffffffffffffffffffffffff\n      and\n        /* \"SimpleDEX.sol\":2084:2107  IERC20(tokenB).transfer */\n      0xffffffffffffffffffffffffffffffffffffffff\n      and\n      0xa9059cbb\n        /* \"SimpleDEX.sol\":2108:2118  msg.sender */\n      caller\n        /* \"SimpleDEX.sol\":2120:2127  amountB */\n      dup6\n        /* \"SimpleDEX.sol\":2084:2128  IERC20(tokenB).transfer(msg.sender, amountB) */\n      mload(0x40)\n      dup4\n      0xffffffff\n      and\n      0xe0\n      shl\n      dup2\n      mstore\n      0x04\n      add\n      tag_138\n      swap3\n      swap2\n      swap1\n      tag_93\n      jump\t// in\n    tag_138:\n      0x20\n      mload(0x40)\n      dup1\n      dup4\n      sub\n      dup2\n      0x00\n      dup8\n      gas\n      call\n      iszero\n      dup1\n      iszero\n      tag_140\n      jumpi\n      returndatasize\n      0x00\n      dup1\n      returndatacopy\n      revert(0x00, returndatasize)\n    tag_140:\n      pop\n      pop\n      pop\n      pop\n      mload(0x40)\n      returndatasize\n      not(0x1f)\n      0x1f\n      dup3\n      add\n      and\n      dup3\n      add\n      dup1\n      0x40\n      mstore\n      pop\n      dup2\n      add\n      swap1\n      tag_141\n      swap2\n      swap1\n      tag_91\n      jump\t// in\n    tag_141:\n      pop\n        /* \"SimpleDEX.sol\":2153:2160  amountA */\n      dup4\n        /* \"SimpleDEX.sol\":2141:2149  reserveA */\n      0x02\n      0x00\n        /* \"SimpleDEX.sol\":2141:2160  reserveA -= amountA */\n      dup3\n      dup3\n      sload\n      tag_142\n      swap2\n      swap1\n      tag_82\n      jump\t// in\n    tag_142:\n      swap3\n      pop\n      pop\n      dup2\n      swap1\n      sstore\n      pop\n        /* \"SimpleDEX.sol\":2183:2190  amountB */\n      dup3\n        /* \"SimpleDEX.sol\":2171:2179  reserveB */\n      0x03\n      0x00\n        /* \"SimpleDEX.sol\":2171:2190  reserveB -= amountB */\n      dup3\n      dup3\n      sload\n      tag_143\n      swap2\n      swap1\n      tag_82\n      jump\t// in\n    tag_143:\n      swap3\n      pop\n      pop\n      dup2\n      swap1\n      sstore\n      pop\n        /* \"SimpleDEX.sol\":2229:2236  amountA */\n      dup4\n        /* \"SimpleDEX.sol\":2203:2213  liquidityA */\n      0x04\n        /* \"SimpleDEX.sol\":2203:2225  liquidityA[msg.sender] */\n      0x00\n        /* \"SimpleDEX.sol\":2214:2224  msg.sender */\n      caller\n        /* \"SimpleDEX.sol\":2203:2225  liquidityA[msg.sender] */\n      0xffffffffffffffffffffffffffffffffffffffff\n      and\n      0xffffffffffffffffffffffffffffffffffffffff\n      and\n      dup2\n      mstore\n      0x20\n      add\n      swap1\n      dup2\n      mstore\n      0x20\n      add\n      0x00\n      keccak256\n      0x00\n        /* \"SimpleDEX.sol\":2203:2236  liquidityA[msg.sender] -= amountA */\n      dup3\n      dup3\n      sload\n      tag_144\n      swap2\n      swap1\n      tag_82\n      jump\t// in\n    tag_144:\n      swap3\n      pop\n      pop\n      dup2\n      swap1\n      sstore\n      pop\n        /* \"SimpleDEX.sol\":2273:2280  amountB */\n      dup3\n        /* \"SimpleDEX.sol\":2247:2257  liquidityB */\n      0x05\n        /* \"SimpleDEX.sol\":2247:2269  liquidityB[msg.sender] */\n      0x00\n        /* \"SimpleDEX.sol\":2258:2268  msg.sender */\n      caller\n        /* \"SimpleDEX.sol\":2247:2269  liquidityB[msg.sender] */\n      0xffffffffffffffffffffffffffffffffffffffff\n      and\n      0xffffffffffffffffffffffffffffffffffffffff\n      and\n      dup2\n      mstore\n      0x20\n      add\n      swap1\n      dup2\n      mstore\n      0x20\n      add\n      0x00\n      keccak256\n      0x00\n        /* \"SimpleDEX.sol\":2247:2280  liquidityB[msg.sender] -= amountB */\n      dup3\n      dup3\n      sload\n      tag_145\n      swap2\n      swap1\n      tag_82\n      jump\t// in\n    tag_145:\n      swap3\n      pop\n      pop\n      dup2\n      swap1\n      sstore\n      pop\n        /* \"SimpleDEX.sol\":2315:2325  msg.sender */\n      caller\n        /* \"SimpleDEX.sol\":2298:2344  LiquidityRemoved(msg.sender, amountA, amountB) */\n      0xffffffffffffffffffffffffffffffffffffffff\n      and\n      0x96cd817c6329656790ef8fba7675405193677d39619571282f5e21f3a98cd059\n        /* \"SimpleDEX.sol\":2327:2334  amountA */\n      dup6\n        /* \"SimpleDEX.sol\":2336:2343  amountB */\n      dup6\n        /* \"SimpleDEX.sol\":2298:2344  LiquidityRemoved(msg.sender, amountA, amountB) */\n      mload(0x40)\n      tag_146\n      swap3\n      swap2\n      swap1\n      tag_119\n      jump\t// in\n    tag_146:\n      mload(0x40)\n      dup1\n      swap2\n      sub\n      swap1\n      log2\n        /* \"SimpleDEX.sol\":1624:2352  {... */\n      pop\n      pop\n        /* \"SimpleDEX.sol\":1556:2352  function removeLiquidity(uint256 amountA, uint256 amountB) external {... */\n      pop\n      pop\n      jump\t// out\n        /* \"SimpleDEX.sol\":287:310  uint256 public reserveA */\n    tag_47:\n      sload(0x02)\n      dup2\n      jump\t// out\n        /* \"SimpleDEX.sol\":417:462  mapping(address => uint256) public liquidityA */\n    tag_51:\n      mstore(0x20, 0x04)\n      dup1\n      0x00\n      mstore\n      keccak256(0x00, 0x40)\n      0x00\n      swap2\n      pop\n      swap1\n      pop\n      sload\n      dup2\n      jump\t// out\n        /* \"SimpleDEX.sol\":2360:3045  function swapAforB(uint256 amountAIn) external {... */\n    tag_55:\n        /* \"SimpleDEX.sol\":2438:2439  0 */\n      0x00\n        /* \"SimpleDEX.sol\":2426:2435  amountAIn */\n      dup2\n        /* \"SimpleDEX.sol\":2426:2439  amountAIn > 0 */\n      gt\n        /* \"SimpleDEX.sol\":2418:2454  require(amountAIn > 0, \"Zero input\") */\n      tag_148\n      jumpi\n      mload(0x40)\n      0x08c379a000000000000000000000000000000000000000000000000000000000\n      dup2\n      mstore\n      0x04\n      add\n      tag_149\n      swap1\n      tag_72\n      jump\t// in\n    tag_149:\n      mload(0x40)\n      dup1\n      swap2\n      sub\n      swap1\n      revert\n    tag_148:\n        /* \"SimpleDEX.sol\":2467:2484  uint256 _reserveA */\n      0x00\n        /* \"SimpleDEX.sol\":2487:2495  reserveA */\n      sload(0x02)\n        /* \"SimpleDEX.sol\":2467:2495  uint256 _reserveA = reserveA */\n      swap1\n      pop\n        /* \"SimpleDEX.sol\":2506:2523  uint256 _reserveB */\n      0x00\n        /* \"SimpleDEX.sol\":2526:2534  reserveB */\n      sload(0x03)\n        /* \"SimpleDEX.sol\":2506:2534  uint256 _reserveB = reserveB */\n      swap1\n      pop\n        /* \"SimpleDEX.sol\":2567:2568  0 */\n      0x00\n        /* \"SimpleDEX.sol\":2555:2564  _reserveA */\n      dup3\n        /* \"SimpleDEX.sol\":2555:2568  _reserveA > 0 */\n      gt\n        /* \"SimpleDEX.sol\":2555:2585  _reserveA > 0 && _reserveB > 0 */\n      dup1\n      iszero\n      tag_150\n      jumpi\n      pop\n        /* \"SimpleDEX.sol\":2584:2585  0 */\n      0x00\n        /* \"SimpleDEX.sol\":2572:2581  _reserveB */\n      dup2\n        /* \"SimpleDEX.sol\":2572:2585  _reserveB > 0 */\n      gt\n        /* \"SimpleDEX.sol\":2555:2585  _reserveA > 0 && _reserveB > 0 */\n    tag_150:\n        /* \"SimpleDEX.sol\":2547:2603  require(_reserveA > 0 && _reserveB > 0, \"Low liquidity\") */\n      tag_151\n      jumpi\n      mload(0x40)\n      0x08c379a000000000000000000000000000000000000000000000000000000000\n      dup2\n      mstore\n      0x04\n      add\n      tag_152\n      swap1\n      tag_76\n      jump\t// in\n    tag_152:\n      mload(0x40)\n      dup1\n      swap2\n      sub\n      swap1\n      revert\n    tag_151:\n        /* \"SimpleDEX.sol\":2616:2634  uint256 amountBOut */\n      0x00\n        /* \"SimpleDEX.sol\":2688:2697  amountAIn */\n      dup4\n        /* \"SimpleDEX.sol\":2676:2685  _reserveA */\n      dup4\n        /* \"SimpleDEX.sol\":2676:2697  _reserveA + amountAIn */\n      tag_153\n      swap2\n      swap1\n      tag_78\n      jump\t// in\n    tag_153:\n        /* \"SimpleDEX.sol\":2662:2671  _reserveB */\n      dup3\n        /* \"SimpleDEX.sol\":2650:2659  _reserveA */\n      dup5\n        /* \"SimpleDEX.sol\":2650:2671  _reserveA * _reserveB */\n      tag_154\n      swap2\n      swap1\n      tag_59\n      jump\t// in\n    tag_154:\n        /* \"SimpleDEX.sol\":2649:2698  (_reserveA * _reserveB) / (_reserveA + amountAIn) */\n      tag_155\n      swap2\n      swap1\n      tag_61\n      jump\t// in\n    tag_155:\n        /* \"SimpleDEX.sol\":2637:2646  _reserveB */\n      dup3\n        /* \"SimpleDEX.sol\":2637:2698  _reserveB - (_reserveA * _reserveB) / (_reserveA + amountAIn) */\n      tag_156\n      swap2\n      swap1\n      tag_82\n      jump\t// in\n    tag_156:\n        /* \"SimpleDEX.sol\":2616:2698  uint256 amountBOut = _reserveB - (_reserveA * _reserveB) / (_reserveA + amountAIn) */\n      swap1\n      pop\n        /* \"SimpleDEX.sol\":2730:2731  0 */\n      0x00\n        /* \"SimpleDEX.sol\":2717:2727  amountBOut */\n      dup2\n        /* \"SimpleDEX.sol\":2717:2731  amountBOut > 0 */\n      gt\n        /* \"SimpleDEX.sol\":2709:2746  require(amountBOut > 0, \"Low output\") */\n      tag_157\n      jumpi\n      mload(0x40)\n      0x08c379a000000000000000000000000000000000000000000000000000000000\n      dup2\n      mstore\n      0x04\n      add\n      tag_158\n      swap1\n      tag_85\n      jump\t// in\n    tag_158:\n      mload(0x40)\n      dup1\n      swap2\n      sub\n      swap1\n      revert\n    tag_157:\n        /* \"SimpleDEX.sol\":2766:2772  tokenA */\n      0x00\n      dup1\n      sload\n      swap1\n      0x0100\n      exp\n      swap1\n      div\n      0xffffffffffffffffffffffffffffffffffffffff\n      and\n        /* \"SimpleDEX.sol\":2759:2786  IERC20(tokenA).transferFrom */\n      0xffffffffffffffffffffffffffffffffffffffff\n      and\n      0x23b872dd\n        /* \"SimpleDEX.sol\":2787:2797  msg.sender */\n      caller\n        /* \"SimpleDEX.sol\":2807:2811  this */\n      address\n        /* \"SimpleDEX.sol\":2814:2823  amountAIn */\n      dup8\n        /* \"SimpleDEX.sol\":2759:2824  IERC20(tokenA).transferFrom(msg.sender, address(this), amountAIn) */\n      mload(0x40)\n      dup5\n      0xffffffff\n      and\n      0xe0\n      shl\n      dup2\n      mstore\n      0x04\n      add\n      tag_159\n      swap4\n      swap3\n      swap2\n      swap1\n      tag_87\n      jump\t// in\n    tag_159:\n      0x20\n      mload(0x40)\n      dup1\n      dup4\n      sub\n      dup2\n      0x00\n      dup8\n      gas\n      call\n      iszero\n      dup1\n      iszero\n      tag_161\n      jumpi\n      returndatasize\n      0x00\n      dup1\n      returndatacopy\n      revert(0x00, returndatasize)\n    tag_161:\n      pop\n      pop\n      pop\n      pop\n      mload(0x40)\n      returndatasize\n      not(0x1f)\n      0x1f\n      dup3\n      add\n      and\n      dup3\n      add\n      dup1\n      0x40\n      mstore\n      pop\n      dup2\n      add\n      swap1\n      tag_162\n      swap2\n      swap1\n      tag_91\n      jump\t// in\n    tag_162:\n      pop\n        /* \"SimpleDEX.sol\":2842:2848  tokenB */\n      0x01\n      0x00\n      swap1\n      sload\n      swap1\n      0x0100\n      exp\n      swap1\n      div\n      0xffffffffffffffffffffffffffffffffffffffff\n      and\n        /* \"SimpleDEX.sol\":2835:2858  IERC20(tokenB).transfer */\n      0xffffffffffffffffffffffffffffffffffffffff\n      and\n      0xa9059cbb\n        /* \"SimpleDEX.sol\":2859:2869  msg.sender */\n      caller\n        /* \"SimpleDEX.sol\":2871:2881  amountBOut */\n      dup4\n        /* \"SimpleDEX.sol\":2835:2882  IERC20(tokenB).transfer(msg.sender, amountBOut) */\n      mload(0x40)\n      dup4\n      0xffffffff\n      and\n      0xe0\n      shl\n      dup2\n      mstore\n      0x04\n      add\n      tag_163\n      swap3\n      swap2\n      swap1\n      tag_93\n      jump\t// in\n    tag_163:\n      0x20\n      mload(0x40)\n      dup1\n      dup4\n      sub\n      dup2\n      0x00\n      dup8\n      gas\n      call\n      iszero\n      dup1\n      iszero\n      tag_165\n      jumpi\n      returndatasize\n      0x00\n      dup1\n      returndatacopy\n      revert(0x00, returndatasize)\n    tag_165:\n      pop\n      pop\n      pop\n      pop\n      mload(0x40)\n      returndatasize\n      not(0x1f)\n      0x1f\n      dup3\n      add\n      and\n      dup3\n      add\n      dup1\n      0x40\n      mstore\n      pop\n      dup2\n      add\n      swap1\n      tag_166\n      swap2\n      swap1\n      tag_91\n      jump\t// in\n    tag_166:\n      pop\n        /* \"SimpleDEX.sol\":2907:2916  amountAIn */\n      dup4\n        /* \"SimpleDEX.sol\":2895:2903  reserveA */\n      0x02\n      0x00\n        /* \"SimpleDEX.sol\":2895:2916  reserveA += amountAIn */\n      dup3\n      dup3\n      sload\n      tag_167\n      swap2\n      swap1\n      tag_78\n      jump\t// in\n    tag_167:\n      swap3\n      pop\n      pop\n      dup2\n      swap1\n      sstore\n      pop\n        /* \"SimpleDEX.sol\":2939:2949  amountBOut */\n      dup1\n        /* \"SimpleDEX.sol\":2927:2935  reserveB */\n      0x03\n      0x00\n        /* \"SimpleDEX.sol\":2927:2949  reserveB -= amountBOut */\n      dup3\n      dup3\n      sload\n      tag_168\n      swap2\n      swap1\n      tag_82\n      jump\t// in\n    tag_168:\n      swap3\n      pop\n      pop\n      dup2\n      swap1\n      sstore\n      pop\n        /* \"SimpleDEX.sol\":2981:2991  msg.sender */\n      caller\n        /* \"SimpleDEX.sol\":2967:3037  TokensSwapped(msg.sender, tokenA, tokenB, amountAIn, amountBOut, true) */\n      0xffffffffffffffffffffffffffffffffffffffff\n      and\n      0xc6dfcbe388852b9b58ec79ba1d25cff46e16d6f01ea19c67a47aae86c1ac2dc7\n        /* \"SimpleDEX.sol\":2993:2999  tokenA */\n      0x00\n      dup1\n      sload\n      swap1\n      0x0100\n      exp\n      swap1\n      div\n      0xffffffffffffffffffffffffffffffffffffffff\n      and\n        /* \"SimpleDEX.sol\":3001:3007  tokenB */\n      0x01\n      0x00\n      swap1\n      sload\n      swap1\n      0x0100\n      exp\n      swap1\n      div\n      0xffffffffffffffffffffffffffffffffffffffff\n      and\n        /* \"SimpleDEX.sol\":3009:3018  amountAIn */\n      dup8\n        /* \"SimpleDEX.sol\":3020:3030  amountBOut */\n      dup6\n        /* \"SimpleDEX.sol\":3032:3036  true */\n      0x01\n        /* \"SimpleDEX.sol\":2967:3037  TokensSwapped(msg.sender, tokenA, tokenB, amountAIn, amountBOut, true) */\n      mload(0x40)\n      tag_169\n      swap6\n      swap5\n      swap4\n      swap3\n      swap2\n      swap1\n      tag_100\n      jump\t// in\n    tag_169:\n      mload(0x40)\n      dup1\n      swap2\n      sub\n      swap1\n      log2\n        /* \"SimpleDEX.sol\":2407:3045  {... */\n      pop\n      pop\n      pop\n        /* \"SimpleDEX.sol\":2360:3045  function swapAforB(uint256 amountAIn) external {... */\n      pop\n      jump\t// out\n        /* \"#utility.yul\":7:133   */\n    tag_170:\n        /* \"#utility.yul\":44:51   */\n      0x00\n        /* \"#utility.yul\":84:126   */\n      0xffffffffffffffffffffffffffffffffffffffff\n        /* \"#utility.yul\":77:82   */\n      dup3\n        /* \"#utility.yul\":73:127   */\n      and\n        /* \"#utility.yul\":62:127   */\n      swap1\n      pop\n        /* \"#utility.yul\":7:133   */\n      swap2\n      swap1\n      pop\n      jump\t// out\n        /* \"#utility.yul\":139:235   */\n    tag_171:\n        /* \"#utility.yul\":176:183   */\n      0x00\n        /* \"#utility.yul\":205:229   */\n      tag_208\n        /* \"#utility.yul\":223:228   */\n      dup3\n        /* \"#utility.yul\":205:229   */\n      tag_170\n      jump\t// in\n    tag_208:\n        /* \"#utility.yul\":194:229   */\n      swap1\n      pop\n        /* \"#utility.yul\":139:235   */\n      swap2\n      swap1\n      pop\n      jump\t// out\n        /* \"#utility.yul\":241:359   */\n    tag_172:\n        /* \"#utility.yul\":328:352   */\n      tag_210\n        /* \"#utility.yul\":346:351   */\n      dup2\n        /* \"#utility.yul\":328:352   */\n      tag_171\n      jump\t// in\n    tag_210:\n        /* \"#utility.yul\":323:326   */\n      dup3\n        /* \"#utility.yul\":316:353   */\n      mstore\n        /* \"#utility.yul\":241:359   */\n      pop\n      pop\n      jump\t// out\n        /* \"#utility.yul\":365:587   */\n    tag_18:\n        /* \"#utility.yul\":458:462   */\n      0x00\n        /* \"#utility.yul\":496:498   */\n      0x20\n        /* \"#utility.yul\":485:494   */\n      dup3\n        /* \"#utility.yul\":481:499   */\n      add\n        /* \"#utility.yul\":473:499   */\n      swap1\n      pop\n        /* \"#utility.yul\":509:580   */\n      tag_212\n        /* \"#utility.yul\":577:578   */\n      0x00\n        /* \"#utility.yul\":566:575   */\n      dup4\n        /* \"#utility.yul\":562:579   */\n      add\n        /* \"#utility.yul\":553:559   */\n      dup5\n        /* \"#utility.yul\":509:580   */\n      tag_172\n      jump\t// in\n    tag_212:\n        /* \"#utility.yul\":365:587   */\n      swap3\n      swap2\n      pop\n      pop\n      jump\t// out\n        /* \"#utility.yul\":593:670   */\n    tag_173:\n        /* \"#utility.yul\":630:637   */\n      0x00\n        /* \"#utility.yul\":659:664   */\n      dup2\n        /* \"#utility.yul\":648:664   */\n      swap1\n      pop\n        /* \"#utility.yul\":593:670   */\n      swap2\n      swap1\n      pop\n      jump\t// out\n        /* \"#utility.yul\":676:794   */\n    tag_174:\n        /* \"#utility.yul\":763:787   */\n      tag_215\n        /* \"#utility.yul\":781:786   */\n      dup2\n        /* \"#utility.yul\":763:787   */\n      tag_173\n      jump\t// in\n    tag_215:\n        /* \"#utility.yul\":758:761   */\n      dup3\n        /* \"#utility.yul\":751:788   */\n      mstore\n        /* \"#utility.yul\":676:794   */\n      pop\n      pop\n      jump\t// out\n        /* \"#utility.yul\":800:1022   */\n    tag_22:\n        /* \"#utility.yul\":893:897   */\n      0x00\n        /* \"#utility.yul\":931:933   */\n      0x20\n        /* \"#utility.yul\":920:929   */\n      dup3\n        /* \"#utility.yul\":916:934   */\n      add\n        /* \"#utility.yul\":908:934   */\n      swap1\n      pop\n        /* \"#utility.yul\":944:1015   */\n      tag_217\n        /* \"#utility.yul\":1012:1013   */\n      0x00\n        /* \"#utility.yul\":1001:1010   */\n      dup4\n        /* \"#utility.yul\":997:1014   */\n      add\n        /* \"#utility.yul\":988:994   */\n      dup5\n        /* \"#utility.yul\":944:1015   */\n      tag_174\n      jump\t// in\n    tag_217:\n        /* \"#utility.yul\":800:1022   */\n      swap3\n      swap2\n      pop\n      pop\n      jump\t// out\n        /* \"#utility.yul\":1109:1226   */\n    tag_176:\n        /* \"#utility.yul\":1218:1219   */\n      0x00\n        /* \"#utility.yul\":1215:1216   */\n      dup1\n        /* \"#utility.yul\":1208:1220   */\n      revert\n        /* \"#utility.yul\":1355:1477   */\n    tag_178:\n        /* \"#utility.yul\":1428:1452   */\n      tag_222\n        /* \"#utility.yul\":1446:1451   */\n      dup2\n        /* \"#utility.yul\":1428:1452   */\n      tag_171\n      jump\t// in\n    tag_222:\n        /* \"#utility.yul\":1421:1426   */\n      dup2\n        /* \"#utility.yul\":1418:1453   */\n      eq\n        /* \"#utility.yul\":1408:1471   */\n      tag_223\n      jumpi\n        /* \"#utility.yul\":1467:1468   */\n      0x00\n        /* \"#utility.yul\":1464:1465   */\n      dup1\n        /* \"#utility.yul\":1457:1469   */\n      revert\n        /* \"#utility.yul\":1408:1471   */\n    tag_223:\n        /* \"#utility.yul\":1355:1477   */\n      pop\n      jump\t// out\n        /* \"#utility.yul\":1483:1622   */\n    tag_179:\n        /* \"#utility.yul\":1529:1534   */\n      0x00\n        /* \"#utility.yul\":1567:1573   */\n      dup2\n        /* \"#utility.yul\":1554:1574   */\n      calldataload\n        /* \"#utility.yul\":1545:1574   */\n      swap1\n      pop\n        /* \"#utility.yul\":1583:1616   */\n      tag_225\n        /* \"#utility.yul\":1610:1615   */\n      dup2\n        /* \"#utility.yul\":1583:1616   */\n      tag_178\n      jump\t// in\n    tag_225:\n        /* \"#utility.yul\":1483:1622   */\n      swap3\n      swap2\n      pop\n      pop\n      jump\t// out\n        /* \"#utility.yul\":1628:1957   */\n    tag_25:\n        /* \"#utility.yul\":1687:1693   */\n      0x00\n        /* \"#utility.yul\":1736:1738   */\n      0x20\n        /* \"#utility.yul\":1724:1733   */\n      dup3\n        /* \"#utility.yul\":1715:1722   */\n      dup5\n        /* \"#utility.yul\":1711:1734   */\n      sub\n        /* \"#utility.yul\":1707:1739   */\n      slt\n        /* \"#utility.yul\":1704:1823   */\n      iszero\n      tag_227\n      jumpi\n        /* \"#utility.yul\":1742:1821   */\n      tag_228\n      tag_176\n      jump\t// in\n    tag_228:\n        /* \"#utility.yul\":1704:1823   */\n    tag_227:\n        /* \"#utility.yul\":1862:1863   */\n      0x00\n        /* \"#utility.yul\":1887:1940   */\n      tag_229\n        /* \"#utility.yul\":1932:1939   */\n      dup5\n        /* \"#utility.yul\":1923:1929   */\n      dup3\n        /* \"#utility.yul\":1912:1921   */\n      dup6\n        /* \"#utility.yul\":1908:1930   */\n      add\n        /* \"#utility.yul\":1887:1940   */\n      tag_179\n      jump\t// in\n    tag_229:\n        /* \"#utility.yul\":1877:1940   */\n      swap2\n      pop\n        /* \"#utility.yul\":1833:1950   */\n      pop\n        /* \"#utility.yul\":1628:1957   */\n      swap3\n      swap2\n      pop\n      pop\n      jump\t// out\n        /* \"#utility.yul\":1963:2085   */\n    tag_180:\n        /* \"#utility.yul\":2036:2060   */\n      tag_231\n        /* \"#utility.yul\":2054:2059   */\n      dup2\n        /* \"#utility.yul\":2036:2060   */\n      tag_173\n      jump\t// in\n    tag_231:\n        /* \"#utility.yul\":2029:2034   */\n      dup2\n        /* \"#utility.yul\":2026:2061   */\n      eq\n        /* \"#utility.yul\":2016:2079   */\n      tag_232\n      jumpi\n        /* \"#utility.yul\":2075:2076   */\n      0x00\n        /* \"#utility.yul\":2072:2073   */\n      dup1\n        /* \"#utility.yul\":2065:2077   */\n      revert\n        /* \"#utility.yul\":2016:2079   */\n    tag_232:\n        /* \"#utility.yul\":1963:2085   */\n      pop\n      jump\t// out\n        /* \"#utility.yul\":2091:2230   */\n    tag_181:\n        /* \"#utility.yul\":2137:2142   */\n      0x00\n        /* \"#utility.yul\":2175:2181   */\n      dup2\n        /* \"#utility.yul\":2162:2182   */\n      calldataload\n        /* \"#utility.yul\":2153:2182   */\n      swap1\n      pop\n        /* \"#utility.yul\":2191:2224   */\n      tag_234\n        /* \"#utility.yul\":2218:2223   */\n      dup2\n        /* \"#utility.yul\":2191:2224   */\n      tag_180\n      jump\t// in\n    tag_234:\n        /* \"#utility.yul\":2091:2230   */\n      swap3\n      swap2\n      pop\n      pop\n      jump\t// out\n        /* \"#utility.yul\":2236:2565   */\n    tag_33:\n        /* \"#utility.yul\":2295:2301   */\n      0x00\n        /* \"#utility.yul\":2344:2346   */\n      0x20\n        /* \"#utility.yul\":2332:2341   */\n      dup3\n        /* \"#utility.yul\":2323:2330   */\n      dup5\n        /* \"#utility.yul\":2319:2342   */\n      sub\n        /* \"#utility.yul\":2315:2347   */\n      slt\n        /* \"#utility.yul\":2312:2431   */\n      iszero\n      tag_236\n      jumpi\n        /* \"#utility.yul\":2350:2429   */\n      tag_237\n      tag_176\n      jump\t// in\n    tag_237:\n        /* \"#utility.yul\":2312:2431   */\n    tag_236:\n        /* \"#utility.yul\":2470:2471   */\n      0x00\n        /* \"#utility.yul\":2495:2548   */\n      tag_238\n        /* \"#utility.yul\":2540:2547   */\n      dup5\n        /* \"#utility.yul\":2531:2537   */\n      dup3\n        /* \"#utility.yul\":2520:2529   */\n      dup6\n        /* \"#utility.yul\":2516:2538   */\n      add\n        /* \"#utility.yul\":2495:2548   */\n      tag_181\n      jump\t// in\n    tag_238:\n        /* \"#utility.yul\":2485:2548   */\n      swap2\n      pop\n        /* \"#utility.yul\":2441:2558   */\n      pop\n        /* \"#utility.yul\":2236:2565   */\n      swap3\n      swap2\n      pop\n      pop\n      jump\t// out\n        /* \"#utility.yul\":2571:3045   */\n    tag_41:\n        /* \"#utility.yul\":2639:2645   */\n      0x00\n        /* \"#utility.yul\":2647:2653   */\n      dup1\n        /* \"#utility.yul\":2696:2698   */\n      0x40\n        /* \"#utility.yul\":2684:2693   */\n      dup4\n        /* \"#utility.yul\":2675:2682   */\n      dup6\n        /* \"#utility.yul\":2671:2694   */\n      sub\n        /* \"#utility.yul\":2667:2699   */\n      slt\n        /* \"#utility.yul\":2664:2783   */\n      iszero\n      tag_240\n      jumpi\n        /* \"#utility.yul\":2702:2781   */\n      tag_241\n      tag_176\n      jump\t// in\n    tag_241:\n        /* \"#utility.yul\":2664:2783   */\n    tag_240:\n        /* \"#utility.yul\":2822:2823   */\n      0x00\n        /* \"#utility.yul\":2847:2900   */\n      tag_242\n        /* \"#utility.yul\":2892:2899   */\n      dup6\n        /* \"#utility.yul\":2883:2889   */\n      dup3\n        /* \"#utility.yul\":2872:2881   */\n      dup7\n        /* \"#utility.yul\":2868:2890   */\n      add\n        /* \"#utility.yul\":2847:2900   */\n      tag_181\n      jump\t// in\n    tag_242:\n        /* \"#utility.yul\":2837:2900   */\n      swap3\n      pop\n        /* \"#utility.yul\":2793:2910   */\n      pop\n        /* \"#utility.yul\":2949:2951   */\n      0x20\n        /* \"#utility.yul\":2975:3028   */\n      tag_243\n        /* \"#utility.yul\":3020:3027   */\n      dup6\n        /* \"#utility.yul\":3011:3017   */\n      dup3\n        /* \"#utility.yul\":3000:3009   */\n      dup7\n        /* \"#utility.yul\":2996:3018   */\n      add\n        /* \"#utility.yul\":2975:3028   */\n      tag_181\n      jump\t// in\n    tag_243:\n        /* \"#utility.yul\":2965:3028   */\n      swap2\n      pop\n        /* \"#utility.yul\":2920:3038   */\n      pop\n        /* \"#utility.yul\":2571:3045   */\n      swap3\n      pop\n      swap3\n      swap1\n      pop\n      jump\t// out\n        /* \"#utility.yul\":3051:3231   */\n    tag_182:\n        /* \"#utility.yul\":3099:3176   */\n      0x4e487b7100000000000000000000000000000000000000000000000000000000\n        /* \"#utility.yul\":3096:3097   */\n      0x00\n        /* \"#utility.yul\":3089:3177   */\n      mstore\n        /* \"#utility.yul\":3196:3200   */\n      0x11\n        /* \"#utility.yul\":3193:3194   */\n      0x04\n        /* \"#utility.yul\":3186:3201   */\n      mstore\n        /* \"#utility.yul\":3220:3224   */\n      0x24\n        /* \"#utility.yul\":3217:3218   */\n      0x00\n        /* \"#utility.yul\":3210:3225   */\n      revert\n        /* \"#utility.yul\":3237:3647   */\n    tag_59:\n        /* \"#utility.yul\":3277:3284   */\n      0x00\n        /* \"#utility.yul\":3300:3320   */\n      tag_246\n        /* \"#utility.yul\":3318:3319   */\n      dup3\n        /* \"#utility.yul\":3300:3320   */\n      tag_173\n      jump\t// in\n    tag_246:\n        /* \"#utility.yul\":3295:3320   */\n      swap2\n      pop\n        /* \"#utility.yul\":3334:3354   */\n      tag_247\n        /* \"#utility.yul\":3352:3353   */\n      dup4\n        /* \"#utility.yul\":3334:3354   */\n      tag_173\n      jump\t// in\n    tag_247:\n        /* \"#utility.yul\":3329:3354   */\n      swap3\n      pop\n        /* \"#utility.yul\":3389:3390   */\n      dup3\n        /* \"#utility.yul\":3386:3387   */\n      dup3\n        /* \"#utility.yul\":3382:3391   */\n      mul\n        /* \"#utility.yul\":3411:3441   */\n      tag_248\n        /* \"#utility.yul\":3429:3440   */\n      dup2\n        /* \"#utility.yul\":3411:3441   */\n      tag_173\n      jump\t// in\n    tag_248:\n        /* \"#utility.yul\":3400:3441   */\n      swap2\n      pop\n        /* \"#utility.yul\":3590:3591   */\n      dup3\n        /* \"#utility.yul\":3581:3588   */\n      dup3\n        /* \"#utility.yul\":3577:3592   */\n      div\n        /* \"#utility.yul\":3574:3575   */\n      dup5\n        /* \"#utility.yul\":3571:3593   */\n      eq\n        /* \"#utility.yul\":3551:3552   */\n      dup4\n        /* \"#utility.yul\":3544:3553   */\n      iszero\n        /* \"#utility.yul\":3524:3607   */\n      or\n        /* \"#utility.yul\":3501:3640   */\n      tag_249\n      jumpi\n        /* \"#utility.yul\":3620:3638   */\n      tag_250\n      tag_182\n      jump\t// in\n    tag_250:\n        /* \"#utility.yul\":3501:3640   */\n    tag_249:\n        /* \"#utility.yul\":3285:3647   */\n      pop\n        /* \"#utility.yul\":3237:3647   */\n      swap3\n      swap2\n      pop\n      pop\n      jump\t// out\n        /* \"#utility.yul\":3653:3833   */\n    tag_183:\n        /* \"#utility.yul\":3701:3778   */\n      0x4e487b7100000000000000000000000000000000000000000000000000000000\n        /* \"#utility.yul\":3698:3699   */\n      0x00\n        /* \"#utility.yul\":3691:3779   */\n      mstore\n        /* \"#utility.yul\":3798:3802   */\n      0x12\n        /* \"#utility.yul\":3795:3796   */\n      0x04\n        /* \"#utility.yul\":3788:3803   */\n      mstore\n        /* \"#utility.yul\":3822:3826   */\n      0x24\n        /* \"#utility.yul\":3819:3820   */\n      0x00\n        /* \"#utility.yul\":3812:3827   */\n      revert\n        /* \"#utility.yul\":3839:4024   */\n    tag_61:\n        /* \"#utility.yul\":3879:3880   */\n      0x00\n        /* \"#utility.yul\":3896:3916   */\n      tag_253\n        /* \"#utility.yul\":3914:3915   */\n      dup3\n        /* \"#utility.yul\":3896:3916   */\n      tag_173\n      jump\t// in\n    tag_253:\n        /* \"#utility.yul\":3891:3916   */\n      swap2\n      pop\n        /* \"#utility.yul\":3930:3950   */\n      tag_254\n        /* \"#utility.yul\":3948:3949   */\n      dup4\n        /* \"#utility.yul\":3930:3950   */\n      tag_173\n      jump\t// in\n    tag_254:\n        /* \"#utility.yul\":3925:3950   */\n      swap3\n      pop\n        /* \"#utility.yul\":3969:3970   */\n      dup3\n        /* \"#utility.yul\":3959:3994   */\n      tag_255\n      jumpi\n        /* \"#utility.yul\":3974:3992   */\n      tag_256\n      tag_183\n      jump\t// in\n    tag_256:\n        /* \"#utility.yul\":3959:3994   */\n    tag_255:\n        /* \"#utility.yul\":4016:4017   */\n      dup3\n        /* \"#utility.yul\":4013:4014   */\n      dup3\n        /* \"#utility.yul\":4009:4018   */\n      div\n        /* \"#utility.yul\":4004:4018   */\n      swap1\n      pop\n        /* \"#utility.yul\":3839:4024   */\n      swap3\n      swap2\n      pop\n      pop\n      jump\t// out\n        /* \"#utility.yul\":4030:4199   */\n    tag_184:\n        /* \"#utility.yul\":4114:4125   */\n      0x00\n        /* \"#utility.yul\":4148:4154   */\n      dup3\n        /* \"#utility.yul\":4143:4146   */\n      dup3\n        /* \"#utility.yul\":4136:4155   */\n      mstore\n        /* \"#utility.yul\":4188:4192   */\n      0x20\n        /* \"#utility.yul\":4183:4186   */\n      dup3\n        /* \"#utility.yul\":4179:4193   */\n      add\n        /* \"#utility.yul\":4164:4193   */\n      swap1\n      pop\n        /* \"#utility.yul\":4030:4199   */\n      swap3\n      swap2\n      pop\n      pop\n      jump\t// out\n        /* \"#utility.yul\":4205:4368   */\n    tag_185:\n        /* \"#utility.yul\":4345:4360   */\n      0x496e76616c696420746f6b656e00000000000000000000000000000000000000\n        /* \"#utility.yul\":4341:4342   */\n      0x00\n        /* \"#utility.yul\":4333:4339   */\n      dup3\n        /* \"#utility.yul\":4329:4343   */\n      add\n        /* \"#utility.yul\":4322:4361   */\n      mstore\n        /* \"#utility.yul\":4205:4368   */\n      pop\n      jump\t// out\n        /* \"#utility.yul\":4374:4740   */\n    tag_186:\n        /* \"#utility.yul\":4516:4519   */\n      0x00\n        /* \"#utility.yul\":4537:4604   */\n      tag_260\n        /* \"#utility.yul\":4601:4603   */\n      0x0d\n        /* \"#utility.yul\":4596:4599   */\n      dup4\n        /* \"#utility.yul\":4537:4604   */\n      tag_184\n      jump\t// in\n    tag_260:\n        /* \"#utility.yul\":4530:4604   */\n      swap2\n      pop\n        /* \"#utility.yul\":4613:4706   */\n      tag_261\n        /* \"#utility.yul\":4702:4705   */\n      dup3\n        /* \"#utility.yul\":4613:4706   */\n      tag_185\n      jump\t// in\n    tag_261:\n        /* \"#utility.yul\":4731:4733   */\n      0x20\n        /* \"#utility.yul\":4726:4729   */\n      dup3\n        /* \"#utility.yul\":4722:4734   */\n      add\n        /* \"#utility.yul\":4715:4734   */\n      swap1\n      pop\n        /* \"#utility.yul\":4374:4740   */\n      swap2\n      swap1\n      pop\n      jump\t// out\n        /* \"#utility.yul\":4746:5165   */\n    tag_68:\n        /* \"#utility.yul\":4912:4916   */\n      0x00\n        /* \"#utility.yul\":4950:4952   */\n      0x20\n        /* \"#utility.yul\":4939:4948   */\n      dup3\n        /* \"#utility.yul\":4935:4953   */\n      add\n        /* \"#utility.yul\":4927:4953   */\n      swap1\n      pop\n        /* \"#utility.yul\":4999:5008   */\n      dup2\n        /* \"#utility.yul\":4993:4997   */\n      dup2\n        /* \"#utility.yul\":4989:5009   */\n      sub\n        /* \"#utility.yul\":4985:4986   */\n      0x00\n        /* \"#utility.yul\":4974:4983   */\n      dup4\n        /* \"#utility.yul\":4970:4987   */\n      add\n        /* \"#utility.yul\":4963:5010   */\n      mstore\n        /* \"#utility.yul\":5027:5158   */\n      tag_263\n        /* \"#utility.yul\":5153:5157   */\n      dup2\n        /* \"#utility.yul\":5027:5158   */\n      tag_186\n      jump\t// in\n    tag_263:\n        /* \"#utility.yul\":5019:5158   */\n      swap1\n      pop\n        /* \"#utility.yul\":4746:5165   */\n      swap2\n      swap1\n      pop\n      jump\t// out\n        /* \"#utility.yul\":5171:5331   */\n    tag_187:\n        /* \"#utility.yul\":5311:5323   */\n      0x5a65726f20696e70757400000000000000000000000000000000000000000000\n        /* \"#utility.yul\":5307:5308   */\n      0x00\n        /* \"#utility.yul\":5299:5305   */\n      dup3\n        /* \"#utility.yul\":5295:5309   */\n      add\n        /* \"#utility.yul\":5288:5324   */\n      mstore\n        /* \"#utility.yul\":5171:5331   */\n      pop\n      jump\t// out\n        /* \"#utility.yul\":5337:5703   */\n    tag_188:\n        /* \"#utility.yul\":5479:5482   */\n      0x00\n        /* \"#utility.yul\":5500:5567   */\n      tag_266\n        /* \"#utility.yul\":5564:5566   */\n      0x0a\n        /* \"#utility.yul\":5559:5562   */\n      dup4\n        /* \"#utility.yul\":5500:5567   */\n      tag_184\n      jump\t// in\n    tag_266:\n        /* \"#utility.yul\":5493:5567   */\n      swap2\n      pop\n        /* \"#utility.yul\":5576:5669   */\n      tag_267\n        /* \"#utility.yul\":5665:5668   */\n      dup3\n        /* \"#utility.yul\":5576:5669   */\n      tag_187\n      jump\t// in\n    tag_267:\n        /* \"#utility.yul\":5694:5696   */\n      0x20\n        /* \"#utility.yul\":5689:5692   */\n      dup3\n        /* \"#utility.yul\":5685:5697   */\n      add\n        /* \"#utility.yul\":5678:5697   */\n      swap1\n      pop\n        /* \"#utility.yul\":5337:5703   */\n      swap2\n      swap1\n      pop\n      jump\t// out\n        /* \"#utility.yul\":5709:6128   */\n    tag_72:\n        /* \"#utility.yul\":5875:5879   */\n      0x00\n        /* \"#utility.yul\":5913:5915   */\n      0x20\n        /* \"#utility.yul\":5902:5911   */\n      dup3\n        /* \"#utility.yul\":5898:5916   */\n      add\n        /* \"#utility.yul\":5890:5916   */\n      swap1\n      pop\n        /* \"#utility.yul\":5962:5971   */\n      dup2\n        /* \"#utility.yul\":5956:5960   */\n      dup2\n        /* \"#utility.yul\":5952:5972   */\n      sub\n        /* \"#utility.yul\":5948:5949   */\n      0x00\n        /* \"#utility.yul\":5937:5946   */\n      dup4\n        /* \"#utility.yul\":5933:5950   */\n      add\n        /* \"#utility.yul\":5926:5973   */\n      mstore\n        /* \"#utility.yul\":5990:6121   */\n      tag_269\n        /* \"#utility.yul\":6116:6120   */\n      dup2\n        /* \"#utility.yul\":5990:6121   */\n      tag_188\n      jump\t// in\n    tag_269:\n        /* \"#utility.yul\":5982:6121   */\n      swap1\n      pop\n        /* \"#utility.yul\":5709:6128   */\n      swap2\n      swap1\n      pop\n      jump\t// out\n        /* \"#utility.yul\":6134:6297   */\n    tag_189:\n        /* \"#utility.yul\":6274:6289   */\n      0x4c6f77206c697175696469747900000000000000000000000000000000000000\n        /* \"#utility.yul\":6270:6271   */\n      0x00\n        /* \"#utility.yul\":6262:6268   */\n      dup3\n        /* \"#utility.yul\":6258:6272   */\n      add\n        /* \"#utility.yul\":6251:6290   */\n      mstore\n        /* \"#utility.yul\":6134:6297   */\n      pop\n      jump\t// out\n        /* \"#utility.yul\":6303:6669   */\n    tag_190:\n        /* \"#utility.yul\":6445:6448   */\n      0x00\n        /* \"#utility.yul\":6466:6533   */\n      tag_272\n        /* \"#utility.yul\":6530:6532   */\n      0x0d\n        /* \"#utility.yul\":6525:6528   */\n      dup4\n        /* \"#utility.yul\":6466:6533   */\n      tag_184\n      jump\t// in\n    tag_272:\n        /* \"#utility.yul\":6459:6533   */\n      swap2\n      pop\n        /* \"#utility.yul\":6542:6635   */\n      tag_273\n        /* \"#utility.yul\":6631:6634   */\n      dup3\n        /* \"#utility.yul\":6542:6635   */\n      tag_189\n      jump\t// in\n    tag_273:\n        /* \"#utility.yul\":6660:6662   */\n      0x20\n        /* \"#utility.yul\":6655:6658   */\n      dup3\n        /* \"#utility.yul\":6651:6663   */\n      add\n        /* \"#utility.yul\":6644:6663   */\n      swap1\n      pop\n        /* \"#utility.yul\":6303:6669   */\n      swap2\n      swap1\n      pop\n      jump\t// out\n        /* \"#utility.yul\":6675:7094   */\n    tag_76:\n        /* \"#utility.yul\":6841:6845   */\n      0x00\n        /* \"#utility.yul\":6879:6881   */\n      0x20\n        /* \"#utility.yul\":6868:6877   */\n      dup3\n        /* \"#utility.yul\":6864:6882   */\n      add\n        /* \"#utility.yul\":6856:6882   */\n      swap1\n      pop\n        /* \"#utility.yul\":6928:6937   */\n      dup2\n        /* \"#utility.yul\":6922:6926   */\n      dup2\n        /* \"#utility.yul\":6918:6938   */\n      sub\n        /* \"#utility.yul\":6914:6915   */\n      0x00\n        /* \"#utility.yul\":6903:6912   */\n      dup4\n        /* \"#utility.yul\":6899:6916   */\n      add\n        /* \"#utility.yul\":6892:6939   */\n      mstore\n        /* \"#utility.yul\":6956:7087   */\n      tag_275\n        /* \"#utility.yul\":7082:7086   */\n      dup2\n        /* \"#utility.yul\":6956:7087   */\n      tag_190\n      jump\t// in\n    tag_275:\n        /* \"#utility.yul\":6948:7087   */\n      swap1\n      pop\n        /* \"#utility.yul\":6675:7094   */\n      swap2\n      swap1\n      pop\n      jump\t// out\n        /* \"#utility.yul\":7100:7291   */\n    tag_78:\n        /* \"#utility.yul\":7140:7143   */\n      0x00\n        /* \"#utility.yul\":7159:7179   */\n      tag_277\n        /* \"#utility.yul\":7177:7178   */\n      dup3\n        /* \"#utility.yul\":7159:7179   */\n      tag_173\n      jump\t// in\n    tag_277:\n        /* \"#utility.yul\":7154:7179   */\n      swap2\n      pop\n        /* \"#utility.yul\":7193:7213   */\n      tag_278\n        /* \"#utility.yul\":7211:7212   */\n      dup4\n        /* \"#utility.yul\":7193:7213   */\n      tag_173\n      jump\t// in\n    tag_278:\n        /* \"#utility.yul\":7188:7213   */\n      swap3\n      pop\n        /* \"#utility.yul\":7236:7237   */\n      dup3\n        /* \"#utility.yul\":7233:7234   */\n      dup3\n        /* \"#utility.yul\":7229:7238   */\n      add\n        /* \"#utility.yul\":7222:7238   */\n      swap1\n      pop\n        /* \"#utility.yul\":7257:7260   */\n      dup1\n        /* \"#utility.yul\":7254:7255   */\n      dup3\n        /* \"#utility.yul\":7251:7261   */\n      gt\n        /* \"#utility.yul\":7248:7284   */\n      iszero\n      tag_279\n      jumpi\n        /* \"#utility.yul\":7264:7282   */\n      tag_280\n      tag_182\n      jump\t// in\n    tag_280:\n        /* \"#utility.yul\":7248:7284   */\n    tag_279:\n        /* \"#utility.yul\":7100:7291   */\n      swap3\n      swap2\n      pop\n      pop\n      jump\t// out\n        /* \"#utility.yul\":7297:7491   */\n    tag_82:\n        /* \"#utility.yul\":7337:7341   */\n      0x00\n        /* \"#utility.yul\":7357:7377   */\n      tag_282\n        /* \"#utility.yul\":7375:7376   */\n      dup3\n        /* \"#utility.yul\":7357:7377   */\n      tag_173\n      jump\t// in\n    tag_282:\n        /* \"#utility.yul\":7352:7377   */\n      swap2\n      pop\n        /* \"#utility.yul\":7391:7411   */\n      tag_283\n        /* \"#utility.yul\":7409:7410   */\n      dup4\n        /* \"#utility.yul\":7391:7411   */\n      tag_173\n      jump\t// in\n    tag_283:\n        /* \"#utility.yul\":7386:7411   */\n      swap3\n      pop\n        /* \"#utility.yul\":7435:7436   */\n      dup3\n        /* \"#utility.yul\":7432:7433   */\n      dup3\n        /* \"#utility.yul\":7428:7437   */\n      sub\n        /* \"#utility.yul\":7420:7437   */\n      swap1\n      pop\n        /* \"#utility.yul\":7459:7460   */\n      dup2\n        /* \"#utility.yul\":7453:7457   */\n      dup2\n        /* \"#utility.yul\":7450:7461   */\n      gt\n        /* \"#utility.yul\":7447:7484   */\n      iszero\n      tag_284\n      jumpi\n        /* \"#utility.yul\":7464:7482   */\n      tag_285\n      tag_182\n      jump\t// in\n    tag_285:\n        /* \"#utility.yul\":7447:7484   */\n    tag_284:\n        /* \"#utility.yul\":7297:7491   */\n      swap3\n      swap2\n      pop\n      pop\n      jump\t// out\n        /* \"#utility.yul\":7497:7657   */\n    tag_191:\n        /* \"#utility.yul\":7637:7649   */\n      0x4c6f77206f757470757400000000000000000000000000000000000000000000\n        /* \"#utility.yul\":7633:7634   */\n      0x00\n        /* \"#utility.yul\":7625:7631   */\n      dup3\n        /* \"#utility.yul\":7621:7635   */\n      add\n        /* \"#utility.yul\":7614:7650   */\n      mstore\n        /* \"#utility.yul\":7497:7657   */\n      pop\n      jump\t// out\n        /* \"#utility.yul\":7663:8029   */\n    tag_192:\n        /* \"#utility.yul\":7805:7808   */\n      0x00\n        /* \"#utility.yul\":7826:7893   */\n      tag_288\n        /* \"#utility.yul\":7890:7892   */\n      0x0a\n        /* \"#utility.yul\":7885:7888   */\n      dup4\n        /* \"#utility.yul\":7826:7893   */\n      tag_184\n      jump\t// in\n    tag_288:\n        /* \"#utility.yul\":7819:7893   */\n      swap2\n      pop\n        /* \"#utility.yul\":7902:7995   */\n      tag_289\n        /* \"#utility.yul\":7991:7994   */\n      dup3\n        /* \"#utility.yul\":7902:7995   */\n      tag_191\n      jump\t// in\n    tag_289:\n        /* \"#utility.yul\":8020:8022   */\n      0x20\n        /* \"#utility.yul\":8015:8018   */\n      dup3\n        /* \"#utility.yul\":8011:8023   */\n      add\n        /* \"#utility.yul\":8004:8023   */\n      swap1\n      pop\n        /* \"#utility.yul\":7663:8029   */\n      swap2\n      swap1\n      pop\n      jump\t// out\n        /* \"#utility.yul\":8035:8454   */\n    tag_85:\n        /* \"#utility.yul\":8201:8205   */\n      0x00\n        /* \"#utility.yul\":8239:8241   */\n      0x20\n        /* \"#utility.yul\":8228:8237   */\n      dup3\n        /* \"#utility.yul\":8224:8242   */\n      add\n        /* \"#utility.yul\":8216:8242   */\n      swap1\n      pop\n        /* \"#utility.yul\":8288:8297   */\n      dup2\n        /* \"#utility.yul\":8282:8286   */\n      dup2\n        /* \"#utility.yul\":8278:8298   */\n      sub\n        /* \"#utility.yul\":8274:8275   */\n      0x00\n        /* \"#utility.yul\":8263:8272   */\n      dup4\n        /* \"#utility.yul\":8259:8276   */\n      add\n        /* \"#utility.yul\":8252:8299   */\n      mstore\n        /* \"#utility.yul\":8316:8447   */\n      tag_291\n        /* \"#utility.yul\":8442:8446   */\n      dup2\n        /* \"#utility.yul\":8316:8447   */\n      tag_192\n      jump\t// in\n    tag_291:\n        /* \"#utility.yul\":8308:8447   */\n      swap1\n      pop\n        /* \"#utility.yul\":8035:8454   */\n      swap2\n      swap1\n      pop\n      jump\t// out\n        /* \"#utility.yul\":8460:8902   */\n    tag_87:\n        /* \"#utility.yul\":8609:8613   */\n      0x00\n        /* \"#utility.yul\":8647:8649   */\n      0x60\n        /* \"#utility.yul\":8636:8645   */\n      dup3\n        /* \"#utility.yul\":8632:8650   */\n      add\n        /* \"#utility.yul\":8624:8650   */\n      swap1\n      pop\n        /* \"#utility.yul\":8660:8731   */\n      tag_293\n        /* \"#utility.yul\":8728:8729   */\n      0x00\n        /* \"#utility.yul\":8717:8726   */\n      dup4\n        /* \"#utility.yul\":8713:8730   */\n      add\n        /* \"#utility.yul\":8704:8710   */\n      dup7\n        /* \"#utility.yul\":8660:8731   */\n      tag_172\n      jump\t// in\n    tag_293:\n        /* \"#utility.yul\":8741:8813   */\n      tag_294\n        /* \"#utility.yul\":8809:8811   */\n      0x20\n        /* \"#utility.yul\":8798:8807   */\n      dup4\n        /* \"#utility.yul\":8794:8812   */\n      add\n        /* \"#utility.yul\":8785:8791   */\n      dup6\n        /* \"#utility.yul\":8741:8813   */\n      tag_172\n      jump\t// in\n    tag_294:\n        /* \"#utility.yul\":8823:8895   */\n      tag_295\n        /* \"#utility.yul\":8891:8893   */\n      0x40\n        /* \"#utility.yul\":8880:8889   */\n      dup4\n        /* \"#utility.yul\":8876:8894   */\n      add\n        /* \"#utility.yul\":8867:8873   */\n      dup5\n        /* \"#utility.yul\":8823:8895   */\n      tag_174\n      jump\t// in\n    tag_295:\n        /* \"#utility.yul\":8460:8902   */\n      swap5\n      swap4\n      pop\n      pop\n      pop\n      pop\n      jump\t// out\n        /* \"#utility.yul\":8908:8998   */\n    tag_193:\n        /* \"#utility.yul\":8942:8949   */\n      0x00\n        /* \"#utility.yul\":8985:8990   */\n      dup2\n        /* \"#utility.yul\":8978:8991   */\n      iszero\n        /* \"#utility.yul\":8971:8992   */\n      iszero\n        /* \"#utility.yul\":8960:8992   */\n      swap1\n      pop\n        /* \"#utility.yul\":8908:8998   */\n      swap2\n      swap1\n      pop\n      jump\t// out\n        /* \"#utility.yul\":9004:9120   */\n    tag_194:\n        /* \"#utility.yul\":9074:9095   */\n      tag_298\n        /* \"#utility.yul\":9089:9094   */\n      dup2\n        /* \"#utility.yul\":9074:9095   */\n      tag_193\n      jump\t// in\n    tag_298:\n        /* \"#utility.yul\":9067:9072   */\n      dup2\n        /* \"#utility.yul\":9064:9096   */\n      eq\n        /* \"#utility.yul\":9054:9114   */\n      tag_299\n      jumpi\n        /* \"#utility.yul\":9110:9111   */\n      0x00\n        /* \"#utility.yul\":9107:9108   */\n      dup1\n        /* \"#utility.yul\":9100:9112   */\n      revert\n        /* \"#utility.yul\":9054:9114   */\n    tag_299:\n        /* \"#utility.yul\":9004:9120   */\n      pop\n      jump\t// out\n        /* \"#utility.yul\":9126:9263   */\n    tag_195:\n        /* \"#utility.yul\":9180:9185   */\n      0x00\n        /* \"#utility.yul\":9211:9217   */\n      dup2\n        /* \"#utility.yul\":9205:9218   */\n      mload\n        /* \"#utility.yul\":9196:9218   */\n      swap1\n      pop\n        /* \"#utility.yul\":9227:9257   */\n      tag_301\n        /* \"#utility.yul\":9251:9256   */\n      dup2\n        /* \"#utility.yul\":9227:9257   */\n      tag_194\n      jump\t// in\n    tag_301:\n        /* \"#utility.yul\":9126:9263   */\n      swap3\n      swap2\n      pop\n      pop\n      jump\t// out\n        /* \"#utility.yul\":9269:9614   */\n    tag_91:\n        /* \"#utility.yul\":9336:9342   */\n      0x00\n        /* \"#utility.yul\":9385:9387   */\n      0x20\n        /* \"#utility.yul\":9373:9382   */\n      dup3\n        /* \"#utility.yul\":9364:9371   */\n      dup5\n        /* \"#utility.yul\":9360:9383   */\n      sub\n        /* \"#utility.yul\":9356:9388   */\n      slt\n        /* \"#utility.yul\":9353:9472   */\n      iszero\n      tag_303\n      jumpi\n        /* \"#utility.yul\":9391:9470   */\n      tag_304\n      tag_176\n      jump\t// in\n    tag_304:\n        /* \"#utility.yul\":9353:9472   */\n    tag_303:\n        /* \"#utility.yul\":9511:9512   */\n      0x00\n        /* \"#utility.yul\":9536:9597   */\n      tag_305\n        /* \"#utility.yul\":9589:9596   */\n      dup5\n        /* \"#utility.yul\":9580:9586   */\n      dup3\n        /* \"#utility.yul\":9569:9578   */\n      dup6\n        /* \"#utility.yul\":9565:9587   */\n      add\n        /* \"#utility.yul\":9536:9597   */\n      tag_195\n      jump\t// in\n    tag_305:\n        /* \"#utility.yul\":9526:9597   */\n      swap2\n      pop\n        /* \"#utility.yul\":9482:9607   */\n      pop\n        /* \"#utility.yul\":9269:9614   */\n      swap3\n      swap2\n      pop\n      pop\n      jump\t// out\n        /* \"#utility.yul\":9620:9952   */\n    tag_93:\n        /* \"#utility.yul\":9741:9745   */\n      0x00\n        /* \"#utility.yul\":9779:9781   */\n      0x40\n        /* \"#utility.yul\":9768:9777   */\n      dup3\n        /* \"#utility.yul\":9764:9782   */\n      add\n        /* \"#utility.yul\":9756:9782   */\n      swap1\n      pop\n        /* \"#utility.yul\":9792:9863   */\n      tag_307\n        /* \"#utility.yul\":9860:9861   */\n      0x00\n        /* \"#utility.yul\":9849:9858   */\n      dup4\n        /* \"#utility.yul\":9845:9862   */\n      add\n        /* \"#utility.yul\":9836:9842   */\n      dup6\n        /* \"#utility.yul\":9792:9863   */\n      tag_172\n      jump\t// in\n    tag_307:\n        /* \"#utility.yul\":9873:9945   */\n      tag_308\n        /* \"#utility.yul\":9941:9943   */\n      0x20\n        /* \"#utility.yul\":9930:9939   */\n      dup4\n        /* \"#utility.yul\":9926:9944   */\n      add\n        /* \"#utility.yul\":9917:9923   */\n      dup5\n        /* \"#utility.yul\":9873:9945   */\n      tag_174\n      jump\t// in\n    tag_308:\n        /* \"#utility.yul\":9620:9952   */\n      swap4\n      swap3\n      pop\n      pop\n      pop\n      jump\t// out\n        /* \"#utility.yul\":9958:10067   */\n    tag_196:\n        /* \"#utility.yul\":10039:10060   */\n      tag_310\n        /* \"#utility.yul\":10054:10059   */\n      dup2\n        /* \"#utility.yul\":10039:10060   */\n      tag_193\n      jump\t// in\n    tag_310:\n        /* \"#utility.yul\":10034:10037   */\n      dup3\n        /* \"#utility.yul\":10027:10061   */\n      mstore\n        /* \"#utility.yul\":9958:10067   */\n      pop\n      pop\n      jump\t// out\n        /* \"#utility.yul\":10073:10725   */\n    tag_100:\n        /* \"#utility.yul\":10272:10276   */\n      0x00\n        /* \"#utility.yul\":10310:10313   */\n      0xa0\n        /* \"#utility.yul\":10299:10308   */\n      dup3\n        /* \"#utility.yul\":10295:10314   */\n      add\n        /* \"#utility.yul\":10287:10314   */\n      swap1\n      pop\n        /* \"#utility.yul\":10324:10395   */\n      tag_312\n        /* \"#utility.yul\":10392:10393   */\n      0x00\n        /* \"#utility.yul\":10381:10390   */\n      dup4\n        /* \"#utility.yul\":10377:10394   */\n      add\n        /* \"#utility.yul\":10368:10374   */\n      dup9\n        /* \"#utility.yul\":10324:10395   */\n      tag_172\n      jump\t// in\n    tag_312:\n        /* \"#utility.yul\":10405:10477   */\n      tag_313\n        /* \"#utility.yul\":10473:10475   */\n      0x20\n        /* \"#utility.yul\":10462:10471   */\n      dup4\n        /* \"#utility.yul\":10458:10476   */\n      add\n        /* \"#utility.yul\":10449:10455   */\n      dup8\n        /* \"#utility.yul\":10405:10477   */\n      tag_172\n      jump\t// in\n    tag_313:\n        /* \"#utility.yul\":10487:10559   */\n      tag_314\n        /* \"#utility.yul\":10555:10557   */\n      0x40\n        /* \"#utility.yul\":10544:10553   */\n      dup4\n        /* \"#utility.yul\":10540:10558   */\n      add\n        /* \"#utility.yul\":10531:10537   */\n      dup7\n        /* \"#utility.yul\":10487:10559   */\n      tag_174\n      jump\t// in\n    tag_314:\n        /* \"#utility.yul\":10569:10641   */\n      tag_315\n        /* \"#utility.yul\":10637:10639   */\n      0x60\n        /* \"#utility.yul\":10626:10635   */\n      dup4\n        /* \"#utility.yul\":10622:10640   */\n      add\n        /* \"#utility.yul\":10613:10619   */\n      dup6\n        /* \"#utility.yul\":10569:10641   */\n      tag_174\n      jump\t// in\n    tag_315:\n        /* \"#utility.yul\":10651:10718   */\n      tag_316\n        /* \"#utility.yul\":10713:10716   */\n      0x80\n        /* \"#utility.yul\":10702:10711   */\n      dup4\n        /* \"#utility.yul\":10698:10717   */\n      add\n        /* \"#utility.yul\":10689:10695   */\n      dup5\n        /* \"#utility.yul\":10651:10718   */\n      tag_196\n      jump\t// in\n    tag_316:\n        /* \"#utility.yul\":10073:10725   */\n      swap7\n      swap6\n      pop\n      pop\n      pop\n      pop\n      pop\n      pop\n      jump\t// out\n        /* \"#utility.yul\":10731:10895   */\n    tag_197:\n        /* \"#utility.yul\":10871:10887   */\n      0x5a65726f206c6971756964697479000000000000000000000000000000000000\n        /* \"#utility.yul\":10867:10868   */\n      0x00\n        /* \"#utility.yul\":10859:10865   */\n      dup3\n        /* \"#utility.yul\":10855:10869   */\n      add\n        /* \"#utility.yul\":10848:10888   */\n      mstore\n        /* \"#utility.yul\":10731:10895   */\n      pop\n      jump\t// out\n        /* \"#utility.yul\":10901:11267   */\n    tag_198:\n        /* \"#utility.yul\":11043:11046   */\n      0x00\n        /* \"#utility.yul\":11064:11131   */\n      tag_319\n        /* \"#utility.yul\":11128:11130   */\n      0x0e\n        /* \"#utility.yul\":11123:11126   */\n      dup4\n        /* \"#utility.yul\":11064:11131   */\n      tag_184\n      jump\t// in\n    tag_319:\n        /* \"#utility.yul\":11057:11131   */\n      swap2\n      pop\n        /* \"#utility.yul\":11140:11233   */\n      tag_320\n        /* \"#utility.yul\":11229:11232   */\n      dup3\n        /* \"#utility.yul\":11140:11233   */\n      tag_197\n      jump\t// in\n    tag_320:\n        /* \"#utility.yul\":11258:11260   */\n      0x20\n        /* \"#utility.yul\":11253:11256   */\n      dup3\n        /* \"#utility.yul\":11249:11261   */\n      add\n        /* \"#utility.yul\":11242:11261   */\n      swap1\n      pop\n        /* \"#utility.yul\":10901:11267   */\n      swap2\n      swap1\n      pop\n      jump\t// out\n        /* \"#utility.yul\":11273:11692   */\n    tag_105:\n        /* \"#utility.yul\":11439:11443   */\n      0x00\n        /* \"#utility.yul\":11477:11479   */\n      0x20\n        /* \"#utility.yul\":11466:11475   */\n      dup3\n        /* \"#utility.yul\":11462:11480   */\n      add\n        /* \"#utility.yul\":11454:11480   */\n      swap1\n      pop\n        /* \"#utility.yul\":11526:11535   */\n      dup2\n        /* \"#utility.yul\":11520:11524   */\n      dup2\n        /* \"#utility.yul\":11516:11536   */\n      sub\n        /* \"#utility.yul\":11512:11513   */\n      0x00\n        /* \"#utility.yul\":11501:11510   */\n      dup4\n        /* \"#utility.yul\":11497:11514   */\n      add\n        /* \"#utility.yul\":11490:11537   */\n      mstore\n        /* \"#utility.yul\":11554:11685   */\n      tag_322\n        /* \"#utility.yul\":11680:11684   */\n      dup2\n        /* \"#utility.yul\":11554:11685   */\n      tag_198\n      jump\t// in\n    tag_322:\n        /* \"#utility.yul\":11546:11685   */\n      swap1\n      pop\n        /* \"#utility.yul\":11273:11692   */\n      swap2\n      swap1\n      pop\n      jump\t// out\n        /* \"#utility.yul\":11698:12030   */\n    tag_119:\n        /* \"#utility.yul\":11819:11823   */\n      0x00\n        /* \"#utility.yul\":11857:11859   */\n      0x40\n        /* \"#utility.yul\":11846:11855   */\n      dup3\n        /* \"#utility.yul\":11842:11860   */\n      add\n        /* \"#utility.yul\":11834:11860   */\n      swap1\n      pop\n        /* \"#utility.yul\":11870:11941   */\n      tag_324\n        /* \"#utility.yul\":11938:11939   */\n      0x00\n        /* \"#utility.yul\":11927:11936   */\n      dup4\n        /* \"#utility.yul\":11923:11940   */\n      add\n        /* \"#utility.yul\":11914:11920   */\n      dup6\n        /* \"#utility.yul\":11870:11941   */\n      tag_174\n      jump\t// in\n    tag_324:\n        /* \"#utility.yul\":11951:12023   */\n      tag_325\n        /* \"#utility.yul\":12019:12021   */\n      0x20\n        /* \"#utility.yul\":12008:12017   */\n      dup4\n        /* \"#utility.yul\":12004:12022   */\n      add\n        /* \"#utility.yul\":11995:12001   */\n      dup5\n        /* \"#utility.yul\":11951:12023   */\n      tag_174\n      jump\t// in\n    tag_325:\n        /* \"#utility.yul\":11698:12030   */\n      swap4\n      swap3\n      pop\n      pop\n      pop\n      jump\t// out\n        /* \"#utility.yul\":12036:12201   */\n    tag_199:\n        /* \"#utility.yul\":12176:12193   */\n      0x496e76616c696420616d6f756e74730000000000000000000000000000000000\n        /* \"#utility.yul\":12172:12173   */\n      0x00\n        /* \"#utility.yul\":12164:12170   */\n      dup3\n        /* \"#utility.yul\":12160:12174   */\n      add\n        /* \"#utility.yul\":12153:12194   */\n      mstore\n        /* \"#utility.yul\":12036:12201   */\n      pop\n      jump\t// out\n        /* \"#utility.yul\":12207:12573   */\n    tag_200:\n        /* \"#utility.yul\":12349:12352   */\n      0x00\n        /* \"#utility.yul\":12370:12437   */\n      tag_328\n        /* \"#utility.yul\":12434:12436   */\n      0x0f\n        /* \"#utility.yul\":12429:12432   */\n      dup4\n        /* \"#utility.yul\":12370:12437   */\n      tag_184\n      jump\t// in\n    tag_328:\n        /* \"#utility.yul\":12363:12437   */\n      swap2\n      pop\n        /* \"#utility.yul\":12446:12539   */\n      tag_329\n        /* \"#utility.yul\":12535:12538   */\n      dup3\n        /* \"#utility.yul\":12446:12539   */\n      tag_199\n      jump\t// in\n    tag_329:\n        /* \"#utility.yul\":12564:12566   */\n      0x20\n        /* \"#utility.yul\":12559:12562   */\n      dup3\n        /* \"#utility.yul\":12555:12567   */\n      add\n        /* \"#utility.yul\":12548:12567   */\n      swap1\n      pop\n        /* \"#utility.yul\":12207:12573   */\n      swap2\n      swap1\n      pop\n      jump\t// out\n        /* \"#utility.yul\":12579:12998   */\n    tag_124:\n        /* \"#utility.yul\":12745:12749   */\n      0x00\n        /* \"#utility.yul\":12783:12785   */\n      0x20\n        /* \"#utility.yul\":12772:12781   */\n      dup3\n        /* \"#utility.yul\":12768:12786   */\n      add\n        /* \"#utility.yul\":12760:12786   */\n      swap1\n      pop\n        /* \"#utility.yul\":12832:12841   */\n      dup2\n        /* \"#utility.yul\":12826:12830   */\n      dup2\n        /* \"#utility.yul\":12822:12842   */\n      sub\n        /* \"#utility.yul\":12818:12819   */\n      0x00\n        /* \"#utility.yul\":12807:12816   */\n      dup4\n        /* \"#utility.yul\":12803:12820   */\n      add\n        /* \"#utility.yul\":12796:12843   */\n      mstore\n        /* \"#utility.yul\":12860:12991   */\n      tag_331\n        /* \"#utility.yul\":12986:12990   */\n      dup2\n        /* \"#utility.yul\":12860:12991   */\n      tag_200\n      jump\t// in\n    tag_331:\n        /* \"#utility.yul\":12852:12991   */\n      swap1\n      pop\n        /* \"#utility.yul\":12579:12998   */\n      swap2\n      swap1\n      pop\n      jump\t// out\n        /* \"#utility.yul\":13004:13169   */\n    tag_201:\n        /* \"#utility.yul\":13144:13161   */\n      0x4578636565647320546f6b656e20410000000000000000000000000000000000\n        /* \"#utility.yul\":13140:13141   */\n      0x00\n        /* \"#utility.yul\":13132:13138   */\n      dup3\n        /* \"#utility.yul\":13128:13142   */\n      add\n        /* \"#utility.yul\":13121:13162   */\n      mstore\n        /* \"#utility.yul\":13004:13169   */\n      pop\n      jump\t// out\n        /* \"#utility.yul\":13175:13541   */\n    tag_202:\n        /* \"#utility.yul\":13317:13320   */\n      0x00\n        /* \"#utility.yul\":13338:13405   */\n      tag_334\n        /* \"#utility.yul\":13402:13404   */\n      0x0f\n        /* \"#utility.yul\":13397:13400   */\n      dup4\n        /* \"#utility.yul\":13338:13405   */\n      tag_184\n      jump\t// in\n    tag_334:\n        /* \"#utility.yul\":13331:13405   */\n      swap2\n      pop\n        /* \"#utility.yul\":13414:13507   */\n      tag_335\n        /* \"#utility.yul\":13503:13506   */\n      dup3\n        /* \"#utility.yul\":13414:13507   */\n      tag_201\n      jump\t// in\n    tag_335:\n        /* \"#utility.yul\":13532:13534   */\n      0x20\n        /* \"#utility.yul\":13527:13530   */\n      dup3\n        /* \"#utility.yul\":13523:13535   */\n      add\n        /* \"#utility.yul\":13516:13535   */\n      swap1\n      pop\n        /* \"#utility.yul\":13175:13541   */\n      swap2\n      swap1\n      pop\n      jump\t// out\n        /* \"#utility.yul\":13547:13966   */\n    tag_130:\n        /* \"#utility.yul\":13713:13717   */\n      0x00\n        /* \"#utility.yul\":13751:13753   */\n      0x20\n        /* \"#utility.yul\":13740:13749   */\n      dup3\n        /* \"#utility.yul\":13736:13754   */\n      add\n        /* \"#utility.yul\":13728:13754   */\n      swap1\n      pop\n        /* \"#utility.yul\":13800:13809   */\n      dup2\n        /* \"#utility.yul\":13794:13798   */\n      dup2\n        /* \"#utility.yul\":13790:13810   */\n      sub\n        /* \"#utility.yul\":13786:13787   */\n      0x00\n        /* \"#utility.yul\":13775:13784   */\n      dup4\n        /* \"#utility.yul\":13771:13788   */\n      add\n        /* \"#utility.yul\":13764:13811   */\n      mstore\n        /* \"#utility.yul\":13828:13959   */\n      tag_337\n        /* \"#utility.yul\":13954:13958   */\n      dup2\n        /* \"#utility.yul\":13828:13959   */\n      tag_202\n      jump\t// in\n    tag_337:\n        /* \"#utility.yul\":13820:13959   */\n      swap1\n      pop\n        /* \"#utility.yul\":13547:13966   */\n      swap2\n      swap1\n      pop\n      jump\t// out\n        /* \"#utility.yul\":13972:14137   */\n    tag_203:\n        /* \"#utility.yul\":14112:14129   */\n      0x4578636565647320546f6b656e20420000000000000000000000000000000000\n        /* \"#utility.yul\":14108:14109   */\n      0x00\n        /* \"#utility.yul\":14100:14106   */\n      dup3\n        /* \"#utility.yul\":14096:14110   */\n      add\n        /* \"#utility.yul\":14089:14130   */\n      mstore\n        /* \"#utility.yul\":13972:14137   */\n      pop\n      jump\t// out\n        /* \"#utility.yul\":14143:14509   */\n    tag_204:\n        /* \"#utility.yul\":14285:14288   */\n      0x00\n        /* \"#utility.yul\":14306:14373   */\n      tag_340\n        /* \"#utility.yul\":14370:14372   */\n      0x0f\n        /* \"#utility.yul\":14365:14368   */\n      dup4\n        /* \"#utility.yul\":14306:14373   */\n      tag_184\n      jump\t// in\n    tag_340:\n        /* \"#utility.yul\":14299:14373   */\n      swap2\n      pop\n        /* \"#utility.yul\":14382:14475   */\n      tag_341\n        /* \"#utility.yul\":14471:14474   */\n      dup3\n        /* \"#utility.yul\":14382:14475   */\n      tag_203\n      jump\t// in\n    tag_341:\n        /* \"#utility.yul\":14500:14502   */\n      0x20\n        /* \"#utility.yul\":14495:14498   */\n      dup3\n        /* \"#utility.yul\":14491:14503   */\n      add\n        /* \"#utility.yul\":14484:14503   */\n      swap1\n      pop\n        /* \"#utility.yul\":14143:14509   */\n      swap2\n      swap1\n      pop\n      jump\t// out\n        /* \"#utility.yul\":14515:14934   */\n    tag_133:\n        /* \"#utility.yul\":14681:14685   */\n      0x00\n        /* \"#utility.yul\":14719:14721   */\n      0x20\n        /* \"#utility.yul\":14708:14717   */\n      dup3\n        /* \"#utility.yul\":14704:14722   */\n      add\n        /* \"#utility.yul\":14696:14722   */\n      swap1\n      pop\n        /* \"#utility.yul\":14768:14777   */\n      dup2\n        /* \"#utility.yul\":14762:14766   */\n      dup2\n        /* \"#utility.yul\":14758:14778   */\n      sub\n        /* \"#utility.yul\":14754:14755   */\n      0x00\n        /* \"#utility.yul\":14743:14752   */\n      dup4\n        /* \"#utility.yul\":14739:14756   */\n      add\n        /* \"#utility.yul\":14732:14779   */\n      mstore\n        /* \"#utility.yul\":14796:14927   */\n      tag_343\n        /* \"#utility.yul\":14922:14926   */\n      dup2\n        /* \"#utility.yul\":14796:14927   */\n      tag_204\n      jump\t// in\n    tag_343:\n        /* \"#utility.yul\":14788:14927   */\n      swap1\n      pop\n        /* \"#utility.yul\":14515:14934   */\n      swap2\n      swap1\n      pop\n      jump\t// out\n\n    auxdata: 0xa2646970667358221220250feb3a3f17f041e0960af29ef8bdf5b2ed4d71f9e63630d9c96b391bc0f90564736f6c634300081a0033\n}\n",
				"bytecode": {
					"linkReferences": {},
					"object": "608060405234801561000f575f80fd5b5060405161199938038061199983398181016040528101906100319190610115565b815f806101000a81548173ffffffffffffffffffffffffffffffffffffffff021916908373ffffffffffffffffffffffffffffffffffffffff1602179055508060015f6101000a81548173ffffffffffffffffffffffffffffffffffffffff021916908373ffffffffffffffffffffffffffffffffffffffff1602179055505050610153565b5f80fd5b5f73ffffffffffffffffffffffffffffffffffffffff82169050919050565b5f6100e4826100bb565b9050919050565b6100f4816100da565b81146100fe575f80fd5b50565b5f8151905061010f816100eb565b92915050565b5f806040838503121561012b5761012a6100b7565b5b5f61013885828601610101565b925050602061014985828601610101565b9150509250929050565b611839806101605f395ff3fe608060405234801561000f575f80fd5b50600436106100a7575f3560e01c806386731a8f1161006f57806386731a8f146101515780639cd441da146101815780639d7de6b31461019d578063dc5fa6c5146101b9578063e29556ee146101d7578063e4f1f70a14610207576100a7565b80630fc63d10146100ab57806319e36f3b146100c957806341976e09146100e75780635f64b55b146101175780638014a7aa14610135575b5f80fd5b6100b3610223565b6040516100c09190611109565b60405180910390f35b6100d1610246565b6040516100de919061113a565b60405180910390f35b61010160048036038101906100fc9190611181565b61024c565b60405161010e919061113a565b60405180910390f35b61011f61038f565b60405161012c9190611109565b60405180910390f35b61014f600480360381019061014a91906111d6565b6103b4565b005b61016b60048036038101906101669190611181565b6106c7565b604051610178919061113a565b60405180910390f35b61019b60048036038101906101969190611201565b6106dc565b005b6101b760048036038101906101b29190611201565b61098f565b005b6101c1610d9b565b6040516101ce919061113a565b60405180910390f35b6101f160048036038101906101ec9190611181565b610da1565b6040516101fe919061113a565b60405180910390f35b610221600480360381019061021c91906111d6565b610db6565b005b5f8054906101000a900473ffffffffffffffffffffffffffffffffffffffff1681565b60035481565b5f8060025490505f60035490505f8054906101000a900473ffffffffffffffffffffffffffffffffffffffff1673ffffffffffffffffffffffffffffffffffffffff168473ffffffffffffffffffffffffffffffffffffffff16036102d35781670de0b6b3a7640000826102c0919061126c565b6102ca91906112da565b9250505061038a565b60015f9054906101000a900473ffffffffffffffffffffffffffffffffffffffff1673ffffffffffffffffffffffffffffffffffffffff168473ffffffffffffffffffffffffffffffffffffffff160361034f5780670de0b6b3a76400008361033c919061126c565b61034691906112da565b9250505061038a565b6040517f08c379a000000000000000000000000000000000000000000000000000000000815260040161038190611364565b60405180910390fd5b919050565b60015f9054906101000a900473ffffffffffffffffffffffffffffffffffffffff1681565b5f81116103f6576040517f08c379a00000000000000000000000000000000000000000000000000000000081526004016103ed906113cc565b60405180910390fd5b5f60025490505f60035490505f8211801561041057505f81115b61044f576040517f08c379a000000000000000000000000000000000000000000000000000000000815260040161044690611434565b60405180910390fd5b5f838261045c9190611452565b8284610468919061126c565b61047291906112da565b8361047d9190611485565b90505f81116104c1576040517f08c379a00000000000000000000000000000000000000000000000000000000081526004016104b890611502565b60405180910390fd5b60015f9054906101000a900473ffffffffffffffffffffffffffffffffffffffff1673ffffffffffffffffffffffffffffffffffffffff166323b872dd3330876040518463ffffffff1660e01b815260040161051f93929190611520565b6020604051808303815f875af115801561053b573d5f803e3d5ffd5b505050506040513d601f19601f8201168201806040525081019061055f919061158a565b505f8054906101000a900473ffffffffffffffffffffffffffffffffffffffff1673ffffffffffffffffffffffffffffffffffffffff1663a9059cbb33836040518363ffffffff1660e01b81526004016105ba9291906115b5565b6020604051808303815f875af11580156105d6573d5f803e3d5ffd5b505050506040513d601f19601f820116820180604052508101906105fa919061158a565b508360035f82825461060c9190611452565b925050819055508060025f8282546106249190611485565b925050819055503373ffffffffffffffffffffffffffffffffffffffff167fc6dfcbe388852b9b58ec79ba1d25cff46e16d6f01ea19c67a47aae86c1ac2dc760015f9054906101000a900473ffffffffffffffffffffffffffffffffffffffff165f8054906101000a900473ffffffffffffffffffffffffffffffffffffffff1687855f6040516106b99594939291906115eb565b60405180910390a250505050565b6005602052805f5260405f205f915090505481565b5f821180156106ea57505f81115b610729576040517f08c379a000000000000000000000000000000000000000000000000000000000815260040161072090611686565b60405180910390fd5b5f8054906101000a900473ffffffffffffffffffffffffffffffffffffffff1673ffffffffffffffffffffffffffffffffffffffff166323b872dd3330856040518463ffffffff1660e01b815260040161078593929190611520565b6020604051808303815f875af11580156107a1573d5f803e3d5ffd5b505050506040513d601f19601f820116820180604052508101906107c5919061158a565b5060015f9054906101000a900473ffffffffffffffffffffffffffffffffffffffff1673ffffffffffffffffffffffffffffffffffffffff166323b872dd3330846040518463ffffffff1660e01b815260040161082493929190611520565b6020604051808303815f875af1158015610840573d5f803e3d5ffd5b505050506040513d601f19601f82011682018060405250810190610864919061158a565b508160025f8282546108769190611452565b925050819055508060035f82825461088e9190611452565b925050819055508160045f3373ffffffffffffffffffffffffffffffffffffffff1673ffffffffffffffffffffffffffffffffffffffff1681526020019081526020015f205f8282546108e19190611452565b925050819055508060055f3373ffffffffffffffffffffffffffffffffffffffff1673ffffffffffffffffffffffffffffffffffffffff1681526020019081526020015f205f8282546109349190611452565b925050819055503373ffffffffffffffffffffffffffffffffffffffff167fac1d76749e5447b7b16f5ab61447e1bd502f3bb4807af3b28e620d1700a6ee4583836040516109839291906116a4565b60405180910390a25050565b5f8211801561099d57505f81115b6109dc576040517f08c379a00000000000000000000000000000000000000000000000000000000081526004016109d390611715565b60405180910390fd5b81600254101580156109f057508060035410155b610a2f576040517f08c379a0000000000000000000000000000000000000000000000000000000008152600401610a2690611434565b60405180910390fd5b5f60045f3373ffffffffffffffffffffffffffffffffffffffff1673ffffffffffffffffffffffffffffffffffffffff1681526020019081526020015f205490505f60055f3373ffffffffffffffffffffffffffffffffffffffff1673ffffffffffffffffffffffffffffffffffffffff1681526020019081526020015f2054905083821015610af4576040517f08c379a0000000000000000000000000000000000000000000000000000000008152600401610aeb9061177d565b60405180910390fd5b82811015610b37576040517f08c379a0000000000000000000000000000000000000000000000000000000008152600401610b2e906117e5565b60405180910390fd5b5f8054906101000a900473ffffffffffffffffffffffffffffffffffffffff1673ffffffffffffffffffffffffffffffffffffffff1663a9059cbb33866040518363ffffffff1660e01b8152600401610b919291906115b5565b6020604051808303815f875af1158015610bad573d5f803e3d5ffd5b505050506040513d601f19601f82011682018060405250810190610bd1919061158a565b5060015f9054906101000a900473ffffffffffffffffffffffffffffffffffffffff1673ffffffffffffffffffffffffffffffffffffffff1663a9059cbb33856040518363ffffffff1660e01b8152600401610c2e9291906115b5565b6020604051808303815f875af1158015610c4a573d5f803e3d5ffd5b505050506040513d601f19601f82011682018060405250810190610c6e919061158a565b508360025f828254610c809190611485565b925050819055508260035f828254610c989190611485565b925050819055508360045f3373ffffffffffffffffffffffffffffffffffffffff1673ffffffffffffffffffffffffffffffffffffffff1681526020019081526020015f205f828254610ceb9190611485565b925050819055508260055f3373ffffffffffffffffffffffffffffffffffffffff1673ffffffffffffffffffffffffffffffffffffffff1681526020019081526020015f205f828254610d3e9190611485565b925050819055503373ffffffffffffffffffffffffffffffffffffffff167f96cd817c6329656790ef8fba7675405193677d39619571282f5e21f3a98cd0598585604051610d8d9291906116a4565b60405180910390a250505050565b60025481565b6004602052805f5260405f205f915090505481565b5f8111610df8576040517f08c379a0000000000000000000000000000000000000000000000000000000008152600401610def906113cc565b60405180910390fd5b5f60025490505f60035490505f82118015610e1257505f81115b610e51576040517f08c379a0000000000000000000000000000000000000000000000000000000008152600401610e4890611434565b60405180910390fd5b5f8383610e5e9190611452565b8284610e6a919061126c565b610e7491906112da565b82610e7f9190611485565b90505f8111610ec3576040517f08c379a0000000000000000000000000000000000000000000000000000000008152600401610eba90611502565b60405180910390fd5b5f8054906101000a900473ffffffffffffffffffffffffffffffffffffffff1673ffffffffffffffffffffffffffffffffffffffff166323b872dd3330876040518463ffffffff1660e01b8152600401610f1f93929190611520565b6020604051808303815f875af1158015610f3b573d5f803e3d5ffd5b505050506040513d601f19601f82011682018060405250810190610f5f919061158a565b5060015f9054906101000a900473ffffffffffffffffffffffffffffffffffffffff1673ffffffffffffffffffffffffffffffffffffffff1663a9059cbb33836040518363ffffffff1660e01b8152600401610fbc9291906115b5565b6020604051808303815f875af1158015610fd8573d5f803e3d5ffd5b505050506040513d601f19601f82011682018060405250810190610ffc919061158a565b508360025f82825461100e9190611452565b925050819055508060035f8282546110269190611485565b925050819055503373ffffffffffffffffffffffffffffffffffffffff167fc6dfcbe388852b9b58ec79ba1d25cff46e16d6f01ea19c67a47aae86c1ac2dc75f8054906101000a900473ffffffffffffffffffffffffffffffffffffffff1660015f9054906101000a900473ffffffffffffffffffffffffffffffffffffffff16878560016040516110bc9594939291906115eb565b60405180910390a250505050565b5f73ffffffffffffffffffffffffffffffffffffffff82169050919050565b5f6110f3826110ca565b9050919050565b611103816110e9565b82525050565b5f60208201905061111c5f8301846110fa565b92915050565b5f819050919050565b61113481611122565b82525050565b5f60208201905061114d5f83018461112b565b92915050565b5f80fd5b611160816110e9565b811461116a575f80fd5b50565b5f8135905061117b81611157565b92915050565b5f6020828403121561119657611195611153565b5b5f6111a38482850161116d565b91505092915050565b6111b581611122565b81146111bf575f80fd5b50565b5f813590506111d0816111ac565b92915050565b5f602082840312156111eb576111ea611153565b5b5f6111f8848285016111c2565b91505092915050565b5f806040838503121561121757611216611153565b5b5f611224858286016111c2565b9250506020611235858286016111c2565b9150509250929050565b7f4e487b71000000000000000000000000000000000000000000000000000000005f52601160045260245ffd5b5f61127682611122565b915061128183611122565b925082820261128f81611122565b915082820484148315176112a6576112a561123f565b5b5092915050565b7f4e487b71000000000000000000000000000000000000000000000000000000005f52601260045260245ffd5b5f6112e482611122565b91506112ef83611122565b9250826112ff576112fe6112ad565b5b828204905092915050565b5f82825260208201905092915050565b7f496e76616c696420746f6b656e000000000000000000000000000000000000005f82015250565b5f61134e600d8361130a565b91506113598261131a565b602082019050919050565b5f6020820190508181035f83015261137b81611342565b9050919050565b7f5a65726f20696e707574000000000000000000000000000000000000000000005f82015250565b5f6113b6600a8361130a565b91506113c182611382565b602082019050919050565b5f6020820190508181035f8301526113e3816113aa565b9050919050565b7f4c6f77206c6971756964697479000000000000000000000000000000000000005f82015250565b5f61141e600d8361130a565b9150611429826113ea565b602082019050919050565b5f6020820190508181035f83015261144b81611412565b9050919050565b5f61145c82611122565b915061146783611122565b925082820190508082111561147f5761147e61123f565b5b92915050565b5f61148f82611122565b915061149a83611122565b92508282039050818111156114b2576114b161123f565b5b92915050565b7f4c6f77206f7574707574000000000000000000000000000000000000000000005f82015250565b5f6114ec600a8361130a565b91506114f7826114b8565b602082019050919050565b5f6020820190508181035f830152611519816114e0565b9050919050565b5f6060820190506115335f8301866110fa565b61154060208301856110fa565b61154d604083018461112b565b949350505050565b5f8115159050919050565b61156981611555565b8114611573575f80fd5b50565b5f8151905061158481611560565b92915050565b5f6020828403121561159f5761159e611153565b5b5f6115ac84828501611576565b91505092915050565b5f6040820190506115c85f8301856110fa565b6115d5602083018461112b565b9392505050565b6115e581611555565b82525050565b5f60a0820190506115fe5f8301886110fa565b61160b60208301876110fa565b611618604083018661112b565b611625606083018561112b565b61163260808301846115dc565b9695505050505050565b7f5a65726f206c69717569646974790000000000000000000000000000000000005f82015250565b5f611670600e8361130a565b915061167b8261163c565b602082019050919050565b5f6020820190508181035f83015261169d81611664565b9050919050565b5f6040820190506116b75f83018561112b565b6116c4602083018461112b565b9392505050565b7f496e76616c696420616d6f756e747300000000000000000000000000000000005f82015250565b5f6116ff600f8361130a565b915061170a826116cb565b602082019050919050565b5f6020820190508181035f83015261172c816116f3565b9050919050565b7f4578636565647320546f6b656e204100000000000000000000000000000000005f82015250565b5f611767600f8361130a565b915061177282611733565b602082019050919050565b5f6020820190508181035f8301526117948161175b565b9050919050565b7f4578636565647320546f6b656e204200000000000000000000000000000000005f82015250565b5f6117cf600f8361130a565b91506117da8261179b565b602082019050919050565b5f6020820190508181035f8301526117fc816117c3565b905091905056fea2646970667358221220250feb3a3f17f041e0960af29ef8bdf5b2ed4d71f9e63630d9c96b391bc0f90564736f6c634300081a0033",
					"opcodes": "PUSH1 0x80 PUSH1 0x40 MSTORE CALLVALUE DUP1 ISZERO PUSH2 0xF JUMPI PUSH0 DUP1 REVERT JUMPDEST POP PUSH1 0x40 MLOAD PUSH2 0x1999 CODESIZE SUB DUP1 PUSH2 0x1999 DUP4 CODECOPY DUP2 DUP2 ADD PUSH1 0x40 MSTORE DUP2 ADD SWAP1 PUSH2 0x31 SWAP2 SWAP1 PUSH2 0x115 JUMP JUMPDEST DUP2 PUSH0 DUP1 PUSH2 0x100 EXP DUP2 SLOAD DUP2 PUSH20 0xFFFFFFFFFFFFFFFFFFFFFFFFFFFFFFFFFFFFFFFF MUL NOT AND SWAP1 DUP4 PUSH20 0xFFFFFFFFFFFFFFFFFFFFFFFFFFFFFFFFFFFFFFFF AND MUL OR SWAP1 SSTORE POP DUP1 PUSH1 0x1 PUSH0 PUSH2 0x100 EXP DUP2 SLOAD DUP2 PUSH20 0xFFFFFFFFFFFFFFFFFFFFFFFFFFFFFFFFFFFFFFFF MUL NOT AND SWAP1 DUP4 PUSH20 0xFFFFFFFFFFFFFFFFFFFFFFFFFFFFFFFFFFFFFFFF AND MUL OR SWAP1 SSTORE POP POP POP PUSH2 0x153 JUMP JUMPDEST PUSH0 DUP1 REVERT JUMPDEST PUSH0 PUSH20 0xFFFFFFFFFFFFFFFFFFFFFFFFFFFFFFFFFFFFFFFF DUP3 AND SWAP1 POP SWAP2 SWAP1 POP JUMP JUMPDEST PUSH0 PUSH2 0xE4 DUP3 PUSH2 0xBB JUMP JUMPDEST SWAP1 POP SWAP2 SWAP1 POP JUMP JUMPDEST PUSH2 0xF4 DUP2 PUSH2 0xDA JUMP JUMPDEST DUP2 EQ PUSH2 0xFE JUMPI PUSH0 DUP1 REVERT JUMPDEST POP JUMP JUMPDEST PUSH0 DUP2 MLOAD SWAP1 POP PUSH2 0x10F DUP2 PUSH2 0xEB JUMP JUMPDEST SWAP3 SWAP2 POP POP JUMP JUMPDEST PUSH0 DUP1 PUSH1 0x40 DUP4 DUP6 SUB SLT ISZERO PUSH2 0x12B JUMPI PUSH2 0x12A PUSH2 0xB7 JUMP JUMPDEST JUMPDEST PUSH0 PUSH2 0x138 DUP6 DUP3 DUP7 ADD PUSH2 0x101 JUMP JUMPDEST SWAP3 POP POP PUSH1 0x20 PUSH2 0x149 DUP6 DUP3 DUP7 ADD PUSH2 0x101 JUMP JUMPDEST SWAP2 POP POP SWAP3 POP SWAP3 SWAP1 POP JUMP JUMPDEST PUSH2 0x1839 DUP1 PUSH2 0x160 PUSH0 CODECOPY PUSH0 RETURN INVALID PUSH1 0x80 PUSH1 0x40 MSTORE CALLVALUE DUP1 ISZERO PUSH2 0xF JUMPI PUSH0 DUP1 REVERT JUMPDEST POP PUSH1 0x4 CALLDATASIZE LT PUSH2 0xA7 JUMPI PUSH0 CALLDATALOAD PUSH1 0xE0 SHR DUP1 PUSH4 0x86731A8F GT PUSH2 0x6F JUMPI DUP1 PUSH4 0x86731A8F EQ PUSH2 0x151 JUMPI DUP1 PUSH4 0x9CD441DA EQ PUSH2 0x181 JUMPI DUP1 PUSH4 0x9D7DE6B3 EQ PUSH2 0x19D JUMPI DUP1 PUSH4 0xDC5FA6C5 EQ PUSH2 0x1B9 JUMPI DUP1 PUSH4 0xE29556EE EQ PUSH2 0x1D7 JUMPI DUP1 PUSH4 0xE4F1F70A EQ PUSH2 0x207 JUMPI PUSH2 0xA7 JUMP JUMPDEST DUP1 PUSH4 0xFC63D10 EQ PUSH2 0xAB JUMPI DUP1 PUSH4 0x19E36F3B EQ PUSH2 0xC9 JUMPI DUP1 PUSH4 0x41976E09 EQ PUSH2 0xE7 JUMPI DUP1 PUSH4 0x5F64B55B EQ PUSH2 0x117 JUMPI DUP1 PUSH4 0x8014A7AA EQ PUSH2 0x135 JUMPI JUMPDEST PUSH0 DUP1 REVERT JUMPDEST PUSH2 0xB3 PUSH2 0x223 JUMP JUMPDEST PUSH1 0x40 MLOAD PUSH2 0xC0 SWAP2 SWAP1 PUSH2 0x1109 JUMP JUMPDEST PUSH1 0x40 MLOAD DUP1 SWAP2 SUB SWAP1 RETURN JUMPDEST PUSH2 0xD1 PUSH2 0x246 JUMP JUMPDEST PUSH1 0x40 MLOAD PUSH2 0xDE SWAP2 SWAP1 PUSH2 0x113A JUMP JUMPDEST PUSH1 0x40 MLOAD DUP1 SWAP2 SUB SWAP1 RETURN JUMPDEST PUSH2 0x101 PUSH1 0x4 DUP1 CALLDATASIZE SUB DUP2 ADD SWAP1 PUSH2 0xFC SWAP2 SWAP1 PUSH2 0x1181 JUMP JUMPDEST PUSH2 0x24C JUMP JUMPDEST PUSH1 0x40 MLOAD PUSH2 0x10E SWAP2 SWAP1 PUSH2 0x113A JUMP JUMPDEST PUSH1 0x40 MLOAD DUP1 SWAP2 SUB SWAP1 RETURN JUMPDEST PUSH2 0x11F PUSH2 0x38F JUMP JUMPDEST PUSH1 0x40 MLOAD PUSH2 0x12C SWAP2 SWAP1 PUSH2 0x1109 JUMP JUMPDEST PUSH1 0x40 MLOAD DUP1 SWAP2 SUB SWAP1 RETURN JUMPDEST PUSH2 0x14F PUSH1 0x4 DUP1 CALLDATASIZE SUB DUP2 ADD SWAP1 PUSH2 0x14A SWAP2 SWAP1 PUSH2 0x11D6 JUMP JUMPDEST PUSH2 0x3B4 JUMP JUMPDEST STOP JUMPDEST PUSH2 0x16B PUSH1 0x4 DUP1 CALLDATASIZE SUB DUP2 ADD SWAP1 PUSH2 0x166 SWAP2 SWAP1 PUSH2 0x1181 JUMP JUMPDEST PUSH2 0x6C7 JUMP JUMPDEST PUSH1 0x40 MLOAD PUSH2 0x178 SWAP2 SWAP1 PUSH2 0x113A JUMP JUMPDEST PUSH1 0x40 MLOAD DUP1 SWAP2 SUB SWAP1 RETURN JUMPDEST PUSH2 0x19B PUSH1 0x4 DUP1 CALLDATASIZE SUB DUP2 ADD SWAP1 PUSH2 0x196 SWAP2 SWAP1 PUSH2 0x1201 JUMP JUMPDEST PUSH2 0x6DC JUMP JUMPDEST STOP JUMPDEST PUSH2 0x1B7 PUSH1 0x4 DUP1 CALLDATASIZE SUB DUP2 ADD SWAP1 PUSH2 0x1B2 SWAP2 SWAP1 PUSH2 0x1201 JUMP JUMPDEST PUSH2 0x98F JUMP JUMPDEST STOP JUMPDEST PUSH2 0x1C1 PUSH2 0xD9B JUMP JUMPDEST PUSH1 0x40 MLOAD PUSH2 0x1CE SWAP2 SWAP1 PUSH2 0x113A JUMP JUMPDEST PUSH1 0x40 MLOAD DUP1 SWAP2 SUB SWAP1 RETURN JUMPDEST PUSH2 0x1F1 PUSH1 0x4 DUP1 CALLDATASIZE SUB DUP2 ADD SWAP1 PUSH2 0x1EC SWAP2 SWAP1 PUSH2 0x1181 JUMP JUMPDEST PUSH2 0xDA1 JUMP JUMPDEST PUSH1 0x40 MLOAD PUSH2 0x1FE SWAP2 SWAP1 PUSH2 0x113A JUMP JUMPDEST PUSH1 0x40 MLOAD DUP1 SWAP2 SUB SWAP1 RETURN JUMPDEST PUSH2 0x221 PUSH1 0x4 DUP1 CALLDATASIZE SUB DUP2 ADD SWAP1 PUSH2 0x21C SWAP2 SWAP1 PUSH2 0x11D6 JUMP JUMPDEST PUSH2 0xDB6 JUMP JUMPDEST STOP JUMPDEST PUSH0 DUP1 SLOAD SWAP1 PUSH2 0x100 EXP SWAP1 DIV PUSH20 0xFFFFFFFFFFFFFFFFFFFFFFFFFFFFFFFFFFFFFFFF AND DUP2 JUMP JUMPDEST PUSH1 0x3 SLOAD DUP2 JUMP JUMPDEST PUSH0 DUP1 PUSH1 0x2 SLOAD SWAP1 POP PUSH0 PUSH1 0x3 SLOAD SWAP1 POP PUSH0 DUP1 SLOAD SWAP1 PUSH2 0x100 EXP SWAP1 DIV PUSH20 0xFFFFFFFFFFFFFFFFFFFFFFFFFFFFFFFFFFFFFFFF AND PUSH20 0xFFFFFFFFFFFFFFFFFFFFFFFFFFFFFFFFFFFFFFFF AND DUP5 PUSH20 0xFFFFFFFFFFFFFFFFFFFFFFFFFFFFFFFFFFFFFFFF AND SUB PUSH2 0x2D3 JUMPI DUP2 PUSH8 0xDE0B6B3A7640000 DUP3 PUSH2 0x2C0 SWAP2 SWAP1 PUSH2 0x126C JUMP JUMPDEST PUSH2 0x2CA SWAP2 SWAP1 PUSH2 0x12DA JUMP JUMPDEST SWAP3 POP POP POP PUSH2 0x38A JUMP JUMPDEST PUSH1 0x1 PUSH0 SWAP1 SLOAD SWAP1 PUSH2 0x100 EXP SWAP1 DIV PUSH20 0xFFFFFFFFFFFFFFFFFFFFFFFFFFFFFFFFFFFFFFFF AND PUSH20 0xFFFFFFFFFFFFFFFFFFFFFFFFFFFFFFFFFFFFFFFF AND DUP5 PUSH20 0xFFFFFFFFFFFFFFFFFFFFFFFFFFFFFFFFFFFFFFFF AND SUB PUSH2 0x34F JUMPI DUP1 PUSH8 0xDE0B6B3A7640000 DUP4 PUSH2 0x33C SWAP2 SWAP1 PUSH2 0x126C JUMP JUMPDEST PUSH2 0x346 SWAP2 SWAP1 PUSH2 0x12DA JUMP JUMPDEST SWAP3 POP POP POP PUSH2 0x38A JUMP JUMPDEST PUSH1 0x40 MLOAD PUSH32 0x8C379A000000000000000000000000000000000000000000000000000000000 DUP2 MSTORE PUSH1 0x4 ADD PUSH2 0x381 SWAP1 PUSH2 0x1364 JUMP JUMPDEST PUSH1 0x40 MLOAD DUP1 SWAP2 SUB SWAP1 REVERT JUMPDEST SWAP2 SWAP1 POP JUMP JUMPDEST PUSH1 0x1 PUSH0 SWAP1 SLOAD SWAP1 PUSH2 0x100 EXP SWAP1 DIV PUSH20 0xFFFFFFFFFFFFFFFFFFFFFFFFFFFFFFFFFFFFFFFF AND DUP2 JUMP JUMPDEST PUSH0 DUP2 GT PUSH2 0x3F6 JUMPI PUSH1 0x40 MLOAD PUSH32 0x8C379A000000000000000000000000000000000000000000000000000000000 DUP2 MSTORE PUSH1 0x4 ADD PUSH2 0x3ED SWAP1 PUSH2 0x13CC JUMP JUMPDEST PUSH1 0x40 MLOAD DUP1 SWAP2 SUB SWAP1 REVERT JUMPDEST PUSH0 PUSH1 0x2 SLOAD SWAP1 POP PUSH0 PUSH1 0x3 SLOAD SWAP1 POP PUSH0 DUP3 GT DUP1 ISZERO PUSH2 0x410 JUMPI POP PUSH0 DUP2 GT JUMPDEST PUSH2 0x44F JUMPI PUSH1 0x40 MLOAD PUSH32 0x8C379A000000000000000000000000000000000000000000000000000000000 DUP2 MSTORE PUSH1 0x4 ADD PUSH2 0x446 SWAP1 PUSH2 0x1434 JUMP JUMPDEST PUSH1 0x40 MLOAD DUP1 SWAP2 SUB SWAP1 REVERT JUMPDEST PUSH0 DUP4 DUP3 PUSH2 0x45C SWAP2 SWAP1 PUSH2 0x1452 JUMP JUMPDEST DUP3 DUP5 PUSH2 0x468 SWAP2 SWAP1 PUSH2 0x126C JUMP JUMPDEST PUSH2 0x472 SWAP2 SWAP1 PUSH2 0x12DA JUMP JUMPDEST DUP4 PUSH2 0x47D SWAP2 SWAP1 PUSH2 0x1485 JUMP JUMPDEST SWAP1 POP PUSH0 DUP2 GT PUSH2 0x4C1 JUMPI PUSH1 0x40 MLOAD PUSH32 0x8C379A000000000000000000000000000000000000000000000000000000000 DUP2 MSTORE PUSH1 0x4 ADD PUSH2 0x4B8 SWAP1 PUSH2 0x1502 JUMP JUMPDEST PUSH1 0x40 MLOAD DUP1 SWAP2 SUB SWAP1 REVERT JUMPDEST PUSH1 0x1 PUSH0 SWAP1 SLOAD SWAP1 PUSH2 0x100 EXP SWAP1 DIV PUSH20 0xFFFFFFFFFFFFFFFFFFFFFFFFFFFFFFFFFFFFFFFF AND PUSH20 0xFFFFFFFFFFFFFFFFFFFFFFFFFFFFFFFFFFFFFFFF AND PUSH4 0x23B872DD CALLER ADDRESS DUP8 PUSH1 0x40 MLOAD DUP5 PUSH4 0xFFFFFFFF AND PUSH1 0xE0 SHL DUP2 MSTORE PUSH1 0x4 ADD PUSH2 0x51F SWAP4 SWAP3 SWAP2 SWAP1 PUSH2 0x1520 JUMP JUMPDEST PUSH1 0x20 PUSH1 0x40 MLOAD DUP1 DUP4 SUB DUP2 PUSH0 DUP8 GAS CALL ISZERO DUP1 ISZERO PUSH2 0x53B JUMPI RETURNDATASIZE PUSH0 DUP1 RETURNDATACOPY RETURNDATASIZE PUSH0 REVERT JUMPDEST POP POP POP POP PUSH1 0x40 MLOAD RETURNDATASIZE PUSH1 0x1F NOT PUSH1 0x1F DUP3 ADD AND DUP3 ADD DUP1 PUSH1 0x40 MSTORE POP DUP2 ADD SWAP1 PUSH2 0x55F SWAP2 SWAP1 PUSH2 0x158A JUMP JUMPDEST POP PUSH0 DUP1 SLOAD SWAP1 PUSH2 0x100 EXP SWAP1 DIV PUSH20 0xFFFFFFFFFFFFFFFFFFFFFFFFFFFFFFFFFFFFFFFF AND PUSH20 0xFFFFFFFFFFFFFFFFFFFFFFFFFFFFFFFFFFFFFFFF AND PUSH4 0xA9059CBB CALLER DUP4 PUSH1 0x40 MLOAD DUP4 PUSH4 0xFFFFFFFF AND PUSH1 0xE0 SHL DUP2 MSTORE PUSH1 0x4 ADD PUSH2 0x5BA SWAP3 SWAP2 SWAP1 PUSH2 0x15B5 JUMP JUMPDEST PUSH1 0x20 PUSH1 0x40 MLOAD DUP1 DUP4 SUB DUP2 PUSH0 DUP8 GAS CALL ISZERO DUP1 ISZERO PUSH2 0x5D6 JUMPI RETURNDATASIZE PUSH0 DUP1 RETURNDATACOPY RETURNDATASIZE PUSH0 REVERT JUMPDEST POP POP POP POP PUSH1 0x40 MLOAD RETURNDATASIZE PUSH1 0x1F NOT PUSH1 0x1F DUP3 ADD AND DUP3 ADD DUP1 PUSH1 0x40 MSTORE POP DUP2 ADD SWAP1 PUSH2 0x5FA SWAP2 SWAP1 PUSH2 0x158A JUMP JUMPDEST POP DUP4 PUSH1 0x3 PUSH0 DUP3 DUP3 SLOAD PUSH2 0x60C SWAP2 SWAP1 PUSH2 0x1452 JUMP JUMPDEST SWAP3 POP POP DUP2 SWAP1 SSTORE POP DUP1 PUSH1 0x2 PUSH0 DUP3 DUP3 SLOAD PUSH2 0x624 SWAP2 SWAP1 PUSH2 0x1485 JUMP JUMPDEST SWAP3 POP POP DUP2 SWAP1 SSTORE POP CALLER PUSH20 0xFFFFFFFFFFFFFFFFFFFFFFFFFFFFFFFFFFFFFFFF AND PUSH32 0xC6DFCBE388852B9B58EC79BA1D25CFF46E16D6F01EA19C67A47AAE86C1AC2DC7 PUSH1 0x1 PUSH0 SWAP1 SLOAD SWAP1 PUSH2 0x100 EXP SWAP1 DIV PUSH20 0xFFFFFFFFFFFFFFFFFFFFFFFFFFFFFFFFFFFFFFFF AND PUSH0 DUP1 SLOAD SWAP1 PUSH2 0x100 EXP SWAP1 DIV PUSH20 0xFFFFFFFFFFFFFFFFFFFFFFFFFFFFFFFFFFFFFFFF AND DUP8 DUP6 PUSH0 PUSH1 0x40 MLOAD PUSH2 0x6B9 SWAP6 SWAP5 SWAP4 SWAP3 SWAP2 SWAP1 PUSH2 0x15EB JUMP JUMPDEST PUSH1 0x40 MLOAD DUP1 SWAP2 SUB SWAP1 LOG2 POP POP POP POP JUMP JUMPDEST PUSH1 0x5 PUSH1 0x20 MSTORE DUP1 PUSH0 MSTORE PUSH1 0x40 PUSH0 KECCAK256 PUSH0 SWAP2 POP SWAP1 POP SLOAD DUP2 JUMP JUMPDEST PUSH0 DUP3 GT DUP1 ISZERO PUSH2 0x6EA JUMPI POP PUSH0 DUP2 GT JUMPDEST PUSH2 0x729 JUMPI PUSH1 0x40 MLOAD PUSH32 0x8C379A000000000000000000000000000000000000000000000000000000000 DUP2 MSTORE PUSH1 0x4 ADD PUSH2 0x720 SWAP1 PUSH2 0x1686 JUMP JUMPDEST PUSH1 0x40 MLOAD DUP1 SWAP2 SUB SWAP1 REVERT JUMPDEST PUSH0 DUP1 SLOAD SWAP1 PUSH2 0x100 EXP SWAP1 DIV PUSH20 0xFFFFFFFFFFFFFFFFFFFFFFFFFFFFFFFFFFFFFFFF AND PUSH20 0xFFFFFFFFFFFFFFFFFFFFFFFFFFFFFFFFFFFFFFFF AND PUSH4 0x23B872DD CALLER ADDRESS DUP6 PUSH1 0x40 MLOAD DUP5 PUSH4 0xFFFFFFFF AND PUSH1 0xE0 SHL DUP2 MSTORE PUSH1 0x4 ADD PUSH2 0x785 SWAP4 SWAP3 SWAP2 SWAP1 PUSH2 0x1520 JUMP JUMPDEST PUSH1 0x20 PUSH1 0x40 MLOAD DUP1 DUP4 SUB DUP2 PUSH0 DUP8 GAS CALL ISZERO DUP1 ISZERO PUSH2 0x7A1 JUMPI RETURNDATASIZE PUSH0 DUP1 RETURNDATACOPY RETURNDATASIZE PUSH0 REVERT JUMPDEST POP POP POP POP PUSH1 0x40 MLOAD RETURNDATASIZE PUSH1 0x1F NOT PUSH1 0x1F DUP3 ADD AND DUP3 ADD DUP1 PUSH1 0x40 MSTORE POP DUP2 ADD SWAP1 PUSH2 0x7C5 SWAP2 SWAP1 PUSH2 0x158A JUMP JUMPDEST POP PUSH1 0x1 PUSH0 SWAP1 SLOAD SWAP1 PUSH2 0x100 EXP SWAP1 DIV PUSH20 0xFFFFFFFFFFFFFFFFFFFFFFFFFFFFFFFFFFFFFFFF AND PUSH20 0xFFFFFFFFFFFFFFFFFFFFFFFFFFFFFFFFFFFFFFFF AND PUSH4 0x23B872DD CALLER ADDRESS DUP5 PUSH1 0x40 MLOAD DUP5 PUSH4 0xFFFFFFFF AND PUSH1 0xE0 SHL DUP2 MSTORE PUSH1 0x4 ADD PUSH2 0x824 SWAP4 SWAP3 SWAP2 SWAP1 PUSH2 0x1520 JUMP JUMPDEST PUSH1 0x20 PUSH1 0x40 MLOAD DUP1 DUP4 SUB DUP2 PUSH0 DUP8 GAS CALL ISZERO DUP1 ISZERO PUSH2 0x840 JUMPI RETURNDATASIZE PUSH0 DUP1 RETURNDATACOPY RETURNDATASIZE PUSH0 REVERT JUMPDEST POP POP POP POP PUSH1 0x40 MLOAD RETURNDATASIZE PUSH1 0x1F NOT PUSH1 0x1F DUP3 ADD AND DUP3 ADD DUP1 PUSH1 0x40 MSTORE POP DUP2 ADD SWAP1 PUSH2 0x864 SWAP2 SWAP1 PUSH2 0x158A JUMP JUMPDEST POP DUP2 PUSH1 0x2 PUSH0 DUP3 DUP3 SLOAD PUSH2 0x876 SWAP2 SWAP1 PUSH2 0x1452 JUMP JUMPDEST SWAP3 POP POP DUP2 SWAP1 SSTORE POP DUP1 PUSH1 0x3 PUSH0 DUP3 DUP3 SLOAD PUSH2 0x88E SWAP2 SWAP1 PUSH2 0x1452 JUMP JUMPDEST SWAP3 POP POP DUP2 SWAP1 SSTORE POP DUP2 PUSH1 0x4 PUSH0 CALLER PUSH20 0xFFFFFFFFFFFFFFFFFFFFFFFFFFFFFFFFFFFFFFFF AND PUSH20 0xFFFFFFFFFFFFFFFFFFFFFFFFFFFFFFFFFFFFFFFF AND DUP2 MSTORE PUSH1 0x20 ADD SWAP1 DUP2 MSTORE PUSH1 0x20 ADD PUSH0 KECCAK256 PUSH0 DUP3 DUP3 SLOAD PUSH2 0x8E1 SWAP2 SWAP1 PUSH2 0x1452 JUMP JUMPDEST SWAP3 POP POP DUP2 SWAP1 SSTORE POP DUP1 PUSH1 0x5 PUSH0 CALLER PUSH20 0xFFFFFFFFFFFFFFFFFFFFFFFFFFFFFFFFFFFFFFFF AND PUSH20 0xFFFFFFFFFFFFFFFFFFFFFFFFFFFFFFFFFFFFFFFF AND DUP2 MSTORE PUSH1 0x20 ADD SWAP1 DUP2 MSTORE PUSH1 0x20 ADD PUSH0 KECCAK256 PUSH0 DUP3 DUP3 SLOAD PUSH2 0x934 SWAP2 SWAP1 PUSH2 0x1452 JUMP JUMPDEST SWAP3 POP POP DUP2 SWAP1 SSTORE POP CALLER PUSH20 0xFFFFFFFFFFFFFFFFFFFFFFFFFFFFFFFFFFFFFFFF AND PUSH32 0xAC1D76749E5447B7B16F5AB61447E1BD502F3BB4807AF3B28E620D1700A6EE45 DUP4 DUP4 PUSH1 0x40 MLOAD PUSH2 0x983 SWAP3 SWAP2 SWAP1 PUSH2 0x16A4 JUMP JUMPDEST PUSH1 0x40 MLOAD DUP1 SWAP2 SUB SWAP1 LOG2 POP POP JUMP JUMPDEST PUSH0 DUP3 GT DUP1 ISZERO PUSH2 0x99D JUMPI POP PUSH0 DUP2 GT JUMPDEST PUSH2 0x9DC JUMPI PUSH1 0x40 MLOAD PUSH32 0x8C379A000000000000000000000000000000000000000000000000000000000 DUP2 MSTORE PUSH1 0x4 ADD PUSH2 0x9D3 SWAP1 PUSH2 0x1715 JUMP JUMPDEST PUSH1 0x40 MLOAD DUP1 SWAP2 SUB SWAP1 REVERT JUMPDEST DUP2 PUSH1 0x2 SLOAD LT ISZERO DUP1 ISZERO PUSH2 0x9F0 JUMPI POP DUP1 PUSH1 0x3 SLOAD LT ISZERO JUMPDEST PUSH2 0xA2F JUMPI PUSH1 0x40 MLOAD PUSH32 0x8C379A000000000000000000000000000000000000000000000000000000000 DUP2 MSTORE PUSH1 0x4 ADD PUSH2 0xA26 SWAP1 PUSH2 0x1434 JUMP JUMPDEST PUSH1 0x40 MLOAD DUP1 SWAP2 SUB SWAP1 REVERT JUMPDEST PUSH0 PUSH1 0x4 PUSH0 CALLER PUSH20 0xFFFFFFFFFFFFFFFFFFFFFFFFFFFFFFFFFFFFFFFF AND PUSH20 0xFFFFFFFFFFFFFFFFFFFFFFFFFFFFFFFFFFFFFFFF AND DUP2 MSTORE PUSH1 0x20 ADD SWAP1 DUP2 MSTORE PUSH1 0x20 ADD PUSH0 KECCAK256 SLOAD SWAP1 POP PUSH0 PUSH1 0x5 PUSH0 CALLER PUSH20 0xFFFFFFFFFFFFFFFFFFFFFFFFFFFFFFFFFFFFFFFF AND PUSH20 0xFFFFFFFFFFFFFFFFFFFFFFFFFFFFFFFFFFFFFFFF AND DUP2 MSTORE PUSH1 0x20 ADD SWAP1 DUP2 MSTORE PUSH1 0x20 ADD PUSH0 KECCAK256 SLOAD SWAP1 POP DUP4 DUP3 LT ISZERO PUSH2 0xAF4 JUMPI PUSH1 0x40 MLOAD PUSH32 0x8C379A000000000000000000000000000000000000000000000000000000000 DUP2 MSTORE PUSH1 0x4 ADD PUSH2 0xAEB SWAP1 PUSH2 0x177D JUMP JUMPDEST PUSH1 0x40 MLOAD DUP1 SWAP2 SUB SWAP1 REVERT JUMPDEST DUP3 DUP2 LT ISZERO PUSH2 0xB37 JUMPI PUSH1 0x40 MLOAD PUSH32 0x8C379A000000000000000000000000000000000000000000000000000000000 DUP2 MSTORE PUSH1 0x4 ADD PUSH2 0xB2E SWAP1 PUSH2 0x17E5 JUMP JUMPDEST PUSH1 0x40 MLOAD DUP1 SWAP2 SUB SWAP1 REVERT JUMPDEST PUSH0 DUP1 SLOAD SWAP1 PUSH2 0x100 EXP SWAP1 DIV PUSH20 0xFFFFFFFFFFFFFFFFFFFFFFFFFFFFFFFFFFFFFFFF AND PUSH20 0xFFFFFFFFFFFFFFFFFFFFFFFFFFFFFFFFFFFFFFFF AND PUSH4 0xA9059CBB CALLER DUP7 PUSH1 0x40 MLOAD DUP4 PUSH4 0xFFFFFFFF AND PUSH1 0xE0 SHL DUP2 MSTORE PUSH1 0x4 ADD PUSH2 0xB91 SWAP3 SWAP2 SWAP1 PUSH2 0x15B5 JUMP JUMPDEST PUSH1 0x20 PUSH1 0x40 MLOAD DUP1 DUP4 SUB DUP2 PUSH0 DUP8 GAS CALL ISZERO DUP1 ISZERO PUSH2 0xBAD JUMPI RETURNDATASIZE PUSH0 DUP1 RETURNDATACOPY RETURNDATASIZE PUSH0 REVERT JUMPDEST POP POP POP POP PUSH1 0x40 MLOAD RETURNDATASIZE PUSH1 0x1F NOT PUSH1 0x1F DUP3 ADD AND DUP3 ADD DUP1 PUSH1 0x40 MSTORE POP DUP2 ADD SWAP1 PUSH2 0xBD1 SWAP2 SWAP1 PUSH2 0x158A JUMP JUMPDEST POP PUSH1 0x1 PUSH0 SWAP1 SLOAD SWAP1 PUSH2 0x100 EXP SWAP1 DIV PUSH20 0xFFFFFFFFFFFFFFFFFFFFFFFFFFFFFFFFFFFFFFFF AND PUSH20 0xFFFFFFFFFFFFFFFFFFFFFFFFFFFFFFFFFFFFFFFF AND PUSH4 0xA9059CBB CALLER DUP6 PUSH1 0x40 MLOAD DUP4 PUSH4 0xFFFFFFFF AND PUSH1 0xE0 SHL DUP2 MSTORE PUSH1 0x4 ADD PUSH2 0xC2E SWAP3 SWAP2 SWAP1 PUSH2 0x15B5 JUMP JUMPDEST PUSH1 0x20 PUSH1 0x40 MLOAD DUP1 DUP4 SUB DUP2 PUSH0 DUP8 GAS CALL ISZERO DUP1 ISZERO PUSH2 0xC4A JUMPI RETURNDATASIZE PUSH0 DUP1 RETURNDATACOPY RETURNDATASIZE PUSH0 REVERT JUMPDEST POP POP POP POP PUSH1 0x40 MLOAD RETURNDATASIZE PUSH1 0x1F NOT PUSH1 0x1F DUP3 ADD AND DUP3 ADD DUP1 PUSH1 0x40 MSTORE POP DUP2 ADD SWAP1 PUSH2 0xC6E SWAP2 SWAP1 PUSH2 0x158A JUMP JUMPDEST POP DUP4 PUSH1 0x2 PUSH0 DUP3 DUP3 SLOAD PUSH2 0xC80 SWAP2 SWAP1 PUSH2 0x1485 JUMP JUMPDEST SWAP3 POP POP DUP2 SWAP1 SSTORE POP DUP3 PUSH1 0x3 PUSH0 DUP3 DUP3 SLOAD PUSH2 0xC98 SWAP2 SWAP1 PUSH2 0x1485 JUMP JUMPDEST SWAP3 POP POP DUP2 SWAP1 SSTORE POP DUP4 PUSH1 0x4 PUSH0 CALLER PUSH20 0xFFFFFFFFFFFFFFFFFFFFFFFFFFFFFFFFFFFFFFFF AND PUSH20 0xFFFFFFFFFFFFFFFFFFFFFFFFFFFFFFFFFFFFFFFF AND DUP2 MSTORE PUSH1 0x20 ADD SWAP1 DUP2 MSTORE PUSH1 0x20 ADD PUSH0 KECCAK256 PUSH0 DUP3 DUP3 SLOAD PUSH2 0xCEB SWAP2 SWAP1 PUSH2 0x1485 JUMP JUMPDEST SWAP3 POP POP DUP2 SWAP1 SSTORE POP DUP3 PUSH1 0x5 PUSH0 CALLER PUSH20 0xFFFFFFFFFFFFFFFFFFFFFFFFFFFFFFFFFFFFFFFF AND PUSH20 0xFFFFFFFFFFFFFFFFFFFFFFFFFFFFFFFFFFFFFFFF AND DUP2 MSTORE PUSH1 0x20 ADD SWAP1 DUP2 MSTORE PUSH1 0x20 ADD PUSH0 KECCAK256 PUSH0 DUP3 DUP3 SLOAD PUSH2 0xD3E SWAP2 SWAP1 PUSH2 0x1485 JUMP JUMPDEST SWAP3 POP POP DUP2 SWAP1 SSTORE POP CALLER PUSH20 0xFFFFFFFFFFFFFFFFFFFFFFFFFFFFFFFFFFFFFFFF AND PUSH32 0x96CD817C6329656790EF8FBA7675405193677D39619571282F5E21F3A98CD059 DUP6 DUP6 PUSH1 0x40 MLOAD PUSH2 0xD8D SWAP3 SWAP2 SWAP1 PUSH2 0x16A4 JUMP JUMPDEST PUSH1 0x40 MLOAD DUP1 SWAP2 SUB SWAP1 LOG2 POP POP POP POP JUMP JUMPDEST PUSH1 0x2 SLOAD DUP2 JUMP JUMPDEST PUSH1 0x4 PUSH1 0x20 MSTORE DUP1 PUSH0 MSTORE PUSH1 0x40 PUSH0 KECCAK256 PUSH0 SWAP2 POP SWAP1 POP SLOAD DUP2 JUMP JUMPDEST PUSH0 DUP2 GT PUSH2 0xDF8 JUMPI PUSH1 0x40 MLOAD PUSH32 0x8C379A000000000000000000000000000000000000000000000000000000000 DUP2 MSTORE PUSH1 0x4 ADD PUSH2 0xDEF SWAP1 PUSH2 0x13CC JUMP JUMPDEST PUSH1 0x40 MLOAD DUP1 SWAP2 SUB SWAP1 REVERT JUMPDEST PUSH0 PUSH1 0x2 SLOAD SWAP1 POP PUSH0 PUSH1 0x3 SLOAD SWAP1 POP PUSH0 DUP3 GT DUP1 ISZERO PUSH2 0xE12 JUMPI POP PUSH0 DUP2 GT JUMPDEST PUSH2 0xE51 JUMPI PUSH1 0x40 MLOAD PUSH32 0x8C379A000000000000000000000000000000000000000000000000000000000 DUP2 MSTORE PUSH1 0x4 ADD PUSH2 0xE48 SWAP1 PUSH2 0x1434 JUMP JUMPDEST PUSH1 0x40 MLOAD DUP1 SWAP2 SUB SWAP1 REVERT JUMPDEST PUSH0 DUP4 DUP4 PUSH2 0xE5E SWAP2 SWAP1 PUSH2 0x1452 JUMP JUMPDEST DUP3 DUP5 PUSH2 0xE6A SWAP2 SWAP1 PUSH2 0x126C JUMP JUMPDEST PUSH2 0xE74 SWAP2 SWAP1 PUSH2 0x12DA JUMP JUMPDEST DUP3 PUSH2 0xE7F SWAP2 SWAP1 PUSH2 0x1485 JUMP JUMPDEST SWAP1 POP PUSH0 DUP2 GT PUSH2 0xEC3 JUMPI PUSH1 0x40 MLOAD PUSH32 0x8C379A000000000000000000000000000000000000000000000000000000000 DUP2 MSTORE PUSH1 0x4 ADD PUSH2 0xEBA SWAP1 PUSH2 0x1502 JUMP JUMPDEST PUSH1 0x40 MLOAD DUP1 SWAP2 SUB SWAP1 REVERT JUMPDEST PUSH0 DUP1 SLOAD SWAP1 PUSH2 0x100 EXP SWAP1 DIV PUSH20 0xFFFFFFFFFFFFFFFFFFFFFFFFFFFFFFFFFFFFFFFF AND PUSH20 0xFFFFFFFFFFFFFFFFFFFFFFFFFFFFFFFFFFFFFFFF AND PUSH4 0x23B872DD CALLER ADDRESS DUP8 PUSH1 0x40 MLOAD DUP5 PUSH4 0xFFFFFFFF AND PUSH1 0xE0 SHL DUP2 MSTORE PUSH1 0x4 ADD PUSH2 0xF1F SWAP4 SWAP3 SWAP2 SWAP1 PUSH2 0x1520 JUMP JUMPDEST PUSH1 0x20 PUSH1 0x40 MLOAD DUP1 DUP4 SUB DUP2 PUSH0 DUP8 GAS CALL ISZERO DUP1 ISZERO PUSH2 0xF3B JUMPI RETURNDATASIZE PUSH0 DUP1 RETURNDATACOPY RETURNDATASIZE PUSH0 REVERT JUMPDEST POP POP POP POP PUSH1 0x40 MLOAD RETURNDATASIZE PUSH1 0x1F NOT PUSH1 0x1F DUP3 ADD AND DUP3 ADD DUP1 PUSH1 0x40 MSTORE POP DUP2 ADD SWAP1 PUSH2 0xF5F SWAP2 SWAP1 PUSH2 0x158A JUMP JUMPDEST POP PUSH1 0x1 PUSH0 SWAP1 SLOAD SWAP1 PUSH2 0x100 EXP SWAP1 DIV PUSH20 0xFFFFFFFFFFFFFFFFFFFFFFFFFFFFFFFFFFFFFFFF AND PUSH20 0xFFFFFFFFFFFFFFFFFFFFFFFFFFFFFFFFFFFFFFFF AND PUSH4 0xA9059CBB CALLER DUP4 PUSH1 0x40 MLOAD DUP4 PUSH4 0xFFFFFFFF AND PUSH1 0xE0 SHL DUP2 MSTORE PUSH1 0x4 ADD PUSH2 0xFBC SWAP3 SWAP2 SWAP1 PUSH2 0x15B5 JUMP JUMPDEST PUSH1 0x20 PUSH1 0x40 MLOAD DUP1 DUP4 SUB DUP2 PUSH0 DUP8 GAS CALL ISZERO DUP1 ISZERO PUSH2 0xFD8 JUMPI RETURNDATASIZE PUSH0 DUP1 RETURNDATACOPY RETURNDATASIZE PUSH0 REVERT JUMPDEST POP POP POP POP PUSH1 0x40 MLOAD RETURNDATASIZE PUSH1 0x1F NOT PUSH1 0x1F DUP3 ADD AND DUP3 ADD DUP1 PUSH1 0x40 MSTORE POP DUP2 ADD SWAP1 PUSH2 0xFFC SWAP2 SWAP1 PUSH2 0x158A JUMP JUMPDEST POP DUP4 PUSH1 0x2 PUSH0 DUP3 DUP3 SLOAD PUSH2 0x100E SWAP2 SWAP1 PUSH2 0x1452 JUMP JUMPDEST SWAP3 POP POP DUP2 SWAP1 SSTORE POP DUP1 PUSH1 0x3 PUSH0 DUP3 DUP3 SLOAD PUSH2 0x1026 SWAP2 SWAP1 PUSH2 0x1485 JUMP JUMPDEST SWAP3 POP POP DUP2 SWAP1 SSTORE POP CALLER PUSH20 0xFFFFFFFFFFFFFFFFFFFFFFFFFFFFFFFFFFFFFFFF AND PUSH32 0xC6DFCBE388852B9B58EC79BA1D25CFF46E16D6F01EA19C67A47AAE86C1AC2DC7 PUSH0 DUP1 SLOAD SWAP1 PUSH2 0x100 EXP SWAP1 DIV PUSH20 0xFFFFFFFFFFFFFFFFFFFFFFFFFFFFFFFFFFFFFFFF AND PUSH1 0x1 PUSH0 SWAP1 SLOAD SWAP1 PUSH2 0x100 EXP SWAP1 DIV PUSH20 0xFFFFFFFFFFFFFFFFFFFFFFFFFFFFFFFFFFFFFFFF AND DUP8 DUP6 PUSH1 0x1 PUSH1 0x40 MLOAD PUSH2 0x10BC SWAP6 SWAP5 SWAP4 SWAP3 SWAP2 SWAP1 PUSH2 0x15EB JUMP JUMPDEST PUSH1 0x40 MLOAD DUP1 SWAP2 SUB SWAP1 LOG2 POP POP POP POP JUMP JUMPDEST PUSH0 PUSH20 0xFFFFFFFFFFFFFFFFFFFFFFFFFFFFFFFFFFFFFFFF DUP3 AND SWAP1 POP SWAP2 SWAP1 POP JUMP JUMPDEST PUSH0 PUSH2 0x10F3 DUP3 PUSH2 0x10CA JUMP JUMPDEST SWAP1 POP SWAP2 SWAP1 POP JUMP JUMPDEST PUSH2 0x1103 DUP2 PUSH2 0x10E9 JUMP JUMPDEST DUP3 MSTORE POP POP JUMP JUMPDEST PUSH0 PUSH1 0x20 DUP3 ADD SWAP1 POP PUSH2 0x111C PUSH0 DUP4 ADD DUP5 PUSH2 0x10FA JUMP JUMPDEST SWAP3 SWAP2 POP POP JUMP JUMPDEST PUSH0 DUP2 SWAP1 POP SWAP2 SWAP1 POP JUMP JUMPDEST PUSH2 0x1134 DUP2 PUSH2 0x1122 JUMP JUMPDEST DUP3 MSTORE POP POP JUMP JUMPDEST PUSH0 PUSH1 0x20 DUP3 ADD SWAP1 POP PUSH2 0x114D PUSH0 DUP4 ADD DUP5 PUSH2 0x112B JUMP JUMPDEST SWAP3 SWAP2 POP POP JUMP JUMPDEST PUSH0 DUP1 REVERT JUMPDEST PUSH2 0x1160 DUP2 PUSH2 0x10E9 JUMP JUMPDEST DUP2 EQ PUSH2 0x116A JUMPI PUSH0 DUP1 REVERT JUMPDEST POP JUMP JUMPDEST PUSH0 DUP2 CALLDATALOAD SWAP1 POP PUSH2 0x117B DUP2 PUSH2 0x1157 JUMP JUMPDEST SWAP3 SWAP2 POP POP JUMP JUMPDEST PUSH0 PUSH1 0x20 DUP3 DUP5 SUB SLT ISZERO PUSH2 0x1196 JUMPI PUSH2 0x1195 PUSH2 0x1153 JUMP JUMPDEST JUMPDEST PUSH0 PUSH2 0x11A3 DUP5 DUP3 DUP6 ADD PUSH2 0x116D JUMP JUMPDEST SWAP2 POP POP SWAP3 SWAP2 POP POP JUMP JUMPDEST PUSH2 0x11B5 DUP2 PUSH2 0x1122 JUMP JUMPDEST DUP2 EQ PUSH2 0x11BF JUMPI PUSH0 DUP1 REVERT JUMPDEST POP JUMP JUMPDEST PUSH0 DUP2 CALLDATALOAD SWAP1 POP PUSH2 0x11D0 DUP2 PUSH2 0x11AC JUMP JUMPDEST SWAP3 SWAP2 POP POP JUMP JUMPDEST PUSH0 PUSH1 0x20 DUP3 DUP5 SUB SLT ISZERO PUSH2 0x11EB JUMPI PUSH2 0x11EA PUSH2 0x1153 JUMP JUMPDEST JUMPDEST PUSH0 PUSH2 0x11F8 DUP5 DUP3 DUP6 ADD PUSH2 0x11C2 JUMP JUMPDEST SWAP2 POP POP SWAP3 SWAP2 POP POP JUMP JUMPDEST PUSH0 DUP1 PUSH1 0x40 DUP4 DUP6 SUB SLT ISZERO PUSH2 0x1217 JUMPI PUSH2 0x1216 PUSH2 0x1153 JUMP JUMPDEST JUMPDEST PUSH0 PUSH2 0x1224 DUP6 DUP3 DUP7 ADD PUSH2 0x11C2 JUMP JUMPDEST SWAP3 POP POP PUSH1 0x20 PUSH2 0x1235 DUP6 DUP3 DUP7 ADD PUSH2 0x11C2 JUMP JUMPDEST SWAP2 POP POP SWAP3 POP SWAP3 SWAP1 POP JUMP JUMPDEST PUSH32 0x4E487B7100000000000000000000000000000000000000000000000000000000 PUSH0 MSTORE PUSH1 0x11 PUSH1 0x4 MSTORE PUSH1 0x24 PUSH0 REVERT JUMPDEST PUSH0 PUSH2 0x1276 DUP3 PUSH2 0x1122 JUMP JUMPDEST SWAP2 POP PUSH2 0x1281 DUP4 PUSH2 0x1122 JUMP JUMPDEST SWAP3 POP DUP3 DUP3 MUL PUSH2 0x128F DUP2 PUSH2 0x1122 JUMP JUMPDEST SWAP2 POP DUP3 DUP3 DIV DUP5 EQ DUP4 ISZERO OR PUSH2 0x12A6 JUMPI PUSH2 0x12A5 PUSH2 0x123F JUMP JUMPDEST JUMPDEST POP SWAP3 SWAP2 POP POP JUMP JUMPDEST PUSH32 0x4E487B7100000000000000000000000000000000000000000000000000000000 PUSH0 MSTORE PUSH1 0x12 PUSH1 0x4 MSTORE PUSH1 0x24 PUSH0 REVERT JUMPDEST PUSH0 PUSH2 0x12E4 DUP3 PUSH2 0x1122 JUMP JUMPDEST SWAP2 POP PUSH2 0x12EF DUP4 PUSH2 0x1122 JUMP JUMPDEST SWAP3 POP DUP3 PUSH2 0x12FF JUMPI PUSH2 0x12FE PUSH2 0x12AD JUMP JUMPDEST JUMPDEST DUP3 DUP3 DIV SWAP1 POP SWAP3 SWAP2 POP POP JUMP JUMPDEST PUSH0 DUP3 DUP3 MSTORE PUSH1 0x20 DUP3 ADD SWAP1 POP SWAP3 SWAP2 POP POP JUMP JUMPDEST PUSH32 0x496E76616C696420746F6B656E00000000000000000000000000000000000000 PUSH0 DUP3 ADD MSTORE POP JUMP JUMPDEST PUSH0 PUSH2 0x134E PUSH1 0xD DUP4 PUSH2 0x130A JUMP JUMPDEST SWAP2 POP PUSH2 0x1359 DUP3 PUSH2 0x131A JUMP JUMPDEST PUSH1 0x20 DUP3 ADD SWAP1 POP SWAP2 SWAP1 POP JUMP JUMPDEST PUSH0 PUSH1 0x20 DUP3 ADD SWAP1 POP DUP2 DUP2 SUB PUSH0 DUP4 ADD MSTORE PUSH2 0x137B DUP2 PUSH2 0x1342 JUMP JUMPDEST SWAP1 POP SWAP2 SWAP1 POP JUMP JUMPDEST PUSH32 0x5A65726F20696E70757400000000000000000000000000000000000000000000 PUSH0 DUP3 ADD MSTORE POP JUMP JUMPDEST PUSH0 PUSH2 0x13B6 PUSH1 0xA DUP4 PUSH2 0x130A JUMP JUMPDEST SWAP2 POP PUSH2 0x13C1 DUP3 PUSH2 0x1382 JUMP JUMPDEST PUSH1 0x20 DUP3 ADD SWAP1 POP SWAP2 SWAP1 POP JUMP JUMPDEST PUSH0 PUSH1 0x20 DUP3 ADD SWAP1 POP DUP2 DUP2 SUB PUSH0 DUP4 ADD MSTORE PUSH2 0x13E3 DUP2 PUSH2 0x13AA JUMP JUMPDEST SWAP1 POP SWAP2 SWAP1 POP JUMP JUMPDEST PUSH32 0x4C6F77206C697175696469747900000000000000000000000000000000000000 PUSH0 DUP3 ADD MSTORE POP JUMP JUMPDEST PUSH0 PUSH2 0x141E PUSH1 0xD DUP4 PUSH2 0x130A JUMP JUMPDEST SWAP2 POP PUSH2 0x1429 DUP3 PUSH2 0x13EA JUMP JUMPDEST PUSH1 0x20 DUP3 ADD SWAP1 POP SWAP2 SWAP1 POP JUMP JUMPDEST PUSH0 PUSH1 0x20 DUP3 ADD SWAP1 POP DUP2 DUP2 SUB PUSH0 DUP4 ADD MSTORE PUSH2 0x144B DUP2 PUSH2 0x1412 JUMP JUMPDEST SWAP1 POP SWAP2 SWAP1 POP JUMP JUMPDEST PUSH0 PUSH2 0x145C DUP3 PUSH2 0x1122 JUMP JUMPDEST SWAP2 POP PUSH2 0x1467 DUP4 PUSH2 0x1122 JUMP JUMPDEST SWAP3 POP DUP3 DUP3 ADD SWAP1 POP DUP1 DUP3 GT ISZERO PUSH2 0x147F JUMPI PUSH2 0x147E PUSH2 0x123F JUMP JUMPDEST JUMPDEST SWAP3 SWAP2 POP POP JUMP JUMPDEST PUSH0 PUSH2 0x148F DUP3 PUSH2 0x1122 JUMP JUMPDEST SWAP2 POP PUSH2 0x149A DUP4 PUSH2 0x1122 JUMP JUMPDEST SWAP3 POP DUP3 DUP3 SUB SWAP1 POP DUP2 DUP2 GT ISZERO PUSH2 0x14B2 JUMPI PUSH2 0x14B1 PUSH2 0x123F JUMP JUMPDEST JUMPDEST SWAP3 SWAP2 POP POP JUMP JUMPDEST PUSH32 0x4C6F77206F757470757400000000000000000000000000000000000000000000 PUSH0 DUP3 ADD MSTORE POP JUMP JUMPDEST PUSH0 PUSH2 0x14EC PUSH1 0xA DUP4 PUSH2 0x130A JUMP JUMPDEST SWAP2 POP PUSH2 0x14F7 DUP3 PUSH2 0x14B8 JUMP JUMPDEST PUSH1 0x20 DUP3 ADD SWAP1 POP SWAP2 SWAP1 POP JUMP JUMPDEST PUSH0 PUSH1 0x20 DUP3 ADD SWAP1 POP DUP2 DUP2 SUB PUSH0 DUP4 ADD MSTORE PUSH2 0x1519 DUP2 PUSH2 0x14E0 JUMP JUMPDEST SWAP1 POP SWAP2 SWAP1 POP JUMP JUMPDEST PUSH0 PUSH1 0x60 DUP3 ADD SWAP1 POP PUSH2 0x1533 PUSH0 DUP4 ADD DUP7 PUSH2 0x10FA JUMP JUMPDEST PUSH2 0x1540 PUSH1 0x20 DUP4 ADD DUP6 PUSH2 0x10FA JUMP JUMPDEST PUSH2 0x154D PUSH1 0x40 DUP4 ADD DUP5 PUSH2 0x112B JUMP JUMPDEST SWAP5 SWAP4 POP POP POP POP JUMP JUMPDEST PUSH0 DUP2 ISZERO ISZERO SWAP1 POP SWAP2 SWAP1 POP JUMP JUMPDEST PUSH2 0x1569 DUP2 PUSH2 0x1555 JUMP JUMPDEST DUP2 EQ PUSH2 0x1573 JUMPI PUSH0 DUP1 REVERT JUMPDEST POP JUMP JUMPDEST PUSH0 DUP2 MLOAD SWAP1 POP PUSH2 0x1584 DUP2 PUSH2 0x1560 JUMP JUMPDEST SWAP3 SWAP2 POP POP JUMP JUMPDEST PUSH0 PUSH1 0x20 DUP3 DUP5 SUB SLT ISZERO PUSH2 0x159F JUMPI PUSH2 0x159E PUSH2 0x1153 JUMP JUMPDEST JUMPDEST PUSH0 PUSH2 0x15AC DUP5 DUP3 DUP6 ADD PUSH2 0x1576 JUMP JUMPDEST SWAP2 POP POP SWAP3 SWAP2 POP POP JUMP JUMPDEST PUSH0 PUSH1 0x40 DUP3 ADD SWAP1 POP PUSH2 0x15C8 PUSH0 DUP4 ADD DUP6 PUSH2 0x10FA JUMP JUMPDEST PUSH2 0x15D5 PUSH1 0x20 DUP4 ADD DUP5 PUSH2 0x112B JUMP JUMPDEST SWAP4 SWAP3 POP POP POP JUMP JUMPDEST PUSH2 0x15E5 DUP2 PUSH2 0x1555 JUMP JUMPDEST DUP3 MSTORE POP POP JUMP JUMPDEST PUSH0 PUSH1 0xA0 DUP3 ADD SWAP1 POP PUSH2 0x15FE PUSH0 DUP4 ADD DUP9 PUSH2 0x10FA JUMP JUMPDEST PUSH2 0x160B PUSH1 0x20 DUP4 ADD DUP8 PUSH2 0x10FA JUMP JUMPDEST PUSH2 0x1618 PUSH1 0x40 DUP4 ADD DUP7 PUSH2 0x112B JUMP JUMPDEST PUSH2 0x1625 PUSH1 0x60 DUP4 ADD DUP6 PUSH2 0x112B JUMP JUMPDEST PUSH2 0x1632 PUSH1 0x80 DUP4 ADD DUP5 PUSH2 0x15DC JUMP JUMPDEST SWAP7 SWAP6 POP POP POP POP POP POP JUMP JUMPDEST PUSH32 0x5A65726F206C6971756964697479000000000000000000000000000000000000 PUSH0 DUP3 ADD MSTORE POP JUMP JUMPDEST PUSH0 PUSH2 0x1670 PUSH1 0xE DUP4 PUSH2 0x130A JUMP JUMPDEST SWAP2 POP PUSH2 0x167B DUP3 PUSH2 0x163C JUMP JUMPDEST PUSH1 0x20 DUP3 ADD SWAP1 POP SWAP2 SWAP1 POP JUMP JUMPDEST PUSH0 PUSH1 0x20 DUP3 ADD SWAP1 POP DUP2 DUP2 SUB PUSH0 DUP4 ADD MSTORE PUSH2 0x169D DUP2 PUSH2 0x1664 JUMP JUMPDEST SWAP1 POP SWAP2 SWAP1 POP JUMP JUMPDEST PUSH0 PUSH1 0x40 DUP3 ADD SWAP1 POP PUSH2 0x16B7 PUSH0 DUP4 ADD DUP6 PUSH2 0x112B JUMP JUMPDEST PUSH2 0x16C4 PUSH1 0x20 DUP4 ADD DUP5 PUSH2 0x112B JUMP JUMPDEST SWAP4 SWAP3 POP POP POP JUMP JUMPDEST PUSH32 0x496E76616C696420616D6F756E74730000000000000000000000000000000000 PUSH0 DUP3 ADD MSTORE POP JUMP JUMPDEST PUSH0 PUSH2 0x16FF PUSH1 0xF DUP4 PUSH2 0x130A JUMP JUMPDEST SWAP2 POP PUSH2 0x170A DUP3 PUSH2 0x16CB JUMP JUMPDEST PUSH1 0x20 DUP3 ADD SWAP1 POP SWAP2 SWAP1 POP JUMP JUMPDEST PUSH0 PUSH1 0x20 DUP3 ADD SWAP1 POP DUP2 DUP2 SUB PUSH0 DUP4 ADD MSTORE PUSH2 0x172C DUP2 PUSH2 0x16F3 JUMP JUMPDEST SWAP1 POP SWAP2 SWAP1 POP JUMP JUMPDEST PUSH32 0x4578636565647320546F6B656E20410000000000000000000000000000000000 PUSH0 DUP3 ADD MSTORE POP JUMP JUMPDEST PUSH0 PUSH2 0x1767 PUSH1 0xF DUP4 PUSH2 0x130A JUMP JUMPDEST SWAP2 POP PUSH2 0x1772 DUP3 PUSH2 0x1733 JUMP JUMPDEST PUSH1 0x20 DUP3 ADD SWAP1 POP SWAP2 SWAP1 POP JUMP JUMPDEST PUSH0 PUSH1 0x20 DUP3 ADD SWAP1 POP DUP2 DUP2 SUB PUSH0 DUP4 ADD MSTORE PUSH2 0x1794 DUP2 PUSH2 0x175B JUMP JUMPDEST SWAP1 POP SWAP2 SWAP1 POP JUMP JUMPDEST PUSH32 0x4578636565647320546F6B656E20420000000000000000000000000000000000 PUSH0 DUP3 ADD MSTORE POP JUMP JUMPDEST PUSH0 PUSH2 0x17CF PUSH1 0xF DUP4 PUSH2 0x130A JUMP JUMPDEST SWAP2 POP PUSH2 0x17DA DUP3 PUSH2 0x179B JUMP JUMPDEST PUSH1 0x20 DUP3 ADD SWAP1 POP SWAP2 SWAP1 POP JUMP JUMPDEST PUSH0 PUSH1 0x20 DUP3 ADD SWAP1 POP DUP2 DUP2 SUB PUSH0 DUP4 ADD MSTORE PUSH2 0x17FC DUP2 PUSH2 0x17C3 JUMP JUMPDEST SWAP1 POP SWAP2 SWAP1 POP JUMP INVALID LOG2 PUSH5 0x6970667358 0x22 SLT KECCAK256 0x25 0xF 0xEB GASPRICE EXTCODEHASH OR CREATE COINBASE 0xE0 SWAP7 EXP CALLCODE SWAP15 0xF8 0xBD CREATE2 0xB2 0xED 0x4D PUSH18 0xF9E63630D9C96B391BC0F90564736F6C6343 STOP ADDMOD BYTE STOP CALLER "
				},
				"gasEstimates": {
					"creation": {
						"codeDepositCost": "1240200",
						"executionCost": "infinite",
						"totalCost": "infinite"
					},
					"external": {
						"addLiquidity(uint256,uint256)": "infinite",
						"getPrice(address)": "infinite",
						"liquidityA(address)": "2890",
						"liquidityB(address)": "2802",
						"removeLiquidity(uint256,uint256)": "infinite",
						"reserveA()": "2491",
						"reserveB()": "2448",
						"swapAforB(uint256)": "infinite",
						"swapBforA(uint256)": "infinite",
						"tokenA()": "2506",
						"tokenB()": "2575"
					}
				},
				"methodIdentifiers": {
					"addLiquidity(uint256,uint256)": "9cd441da",
					"getPrice(address)": "41976e09",
					"liquidityA(address)": "e29556ee",
					"liquidityB(address)": "86731a8f",
					"removeLiquidity(uint256,uint256)": "9d7de6b3",
					"reserveA()": "dc5fa6c5",
					"reserveB()": "19e36f3b",
					"swapAforB(uint256)": "e4f1f70a",
					"swapBforA(uint256)": "8014a7aa",
					"tokenA()": "0fc63d10",
					"tokenB()": "5f64b55b"
				}
			},
			"storageLayout": {
				"storage": [
					{
						"astId": 82,
						"contract": "SimpleDEX.sol:SimpleDEX",
						"label": "tokenA",
						"offset": 0,
						"slot": "0",
						"type": "t_address"
					},
					{
						"astId": 84,
						"contract": "SimpleDEX.sol:SimpleDEX",
						"label": "tokenB",
						"offset": 0,
						"slot": "1",
						"type": "t_address"
					},
					{
						"astId": 86,
						"contract": "SimpleDEX.sol:SimpleDEX",
						"label": "reserveA",
						"offset": 0,
						"slot": "2",
						"type": "t_uint256"
					},
					{
						"astId": 88,
						"contract": "SimpleDEX.sol:SimpleDEX",
						"label": "reserveB",
						"offset": 0,
						"slot": "3",
						"type": "t_uint256"
					},
					{
						"astId": 92,
						"contract": "SimpleDEX.sol:SimpleDEX",
						"label": "liquidityA",
						"offset": 0,
						"slot": "4",
						"type": "t_mapping(t_address,t_uint256)"
					},
					{
						"astId": 96,
						"contract": "SimpleDEX.sol:SimpleDEX",
						"label": "liquidityB",
						"offset": 0,
						"slot": "5",
						"type": "t_mapping(t_address,t_uint256)"
					}
				],
				"types": {
					"t_address": {
						"encoding": "inplace",
						"label": "address",
						"numberOfBytes": "20"
					},
					"t_mapping(t_address,t_uint256)": {
						"encoding": "mapping",
						"key": "t_address",
						"label": "mapping(address => uint256)",
						"numberOfBytes": "32",
						"value": "t_uint256"
					},
					"t_uint256": {
						"encoding": "inplace",
						"label": "uint256",
						"numberOfBytes": "32"
					}
				}
			},
			"userdoc": {
				"kind": "user",
				"methods": {},
				"version": 1
			}
		}
	}
}