{
	"SimpleDEX_flattened.sol": {
		"SimpleDEX": {
			"abi": [
				{
					"inputs": [
						{
							"internalType": "address",
							"name": "_tokenA",
							"type": "address"
						},
						{
							"internalType": "address",
							"name": "_tokenB",
							"type": "address"
						}
					],
					"stateMutability": "nonpayable",
					"type": "constructor"
				},
				{
					"inputs": [
						{
							"internalType": "address",
							"name": "owner",
							"type": "address"
						}
					],
					"name": "OwnableInvalidOwner",
					"type": "error"
				},
				{
					"inputs": [
						{
							"internalType": "address",
							"name": "account",
							"type": "address"
						}
					],
					"name": "OwnableUnauthorizedAccount",
					"type": "error"
				},
				{
					"anonymous": false,
					"inputs": [
						{
							"indexed": false,
							"internalType": "uint256",
							"name": "amountA",
							"type": "uint256"
						},
						{
							"indexed": false,
							"internalType": "uint256",
							"name": "amountB",
							"type": "uint256"
						}
					],
					"name": "LiquidityAdded",
					"type": "event"
				},
				{
					"anonymous": false,
					"inputs": [
						{
							"indexed": false,
							"internalType": "uint256",
							"name": "amountA",
							"type": "uint256"
						},
						{
							"indexed": false,
							"internalType": "uint256",
							"name": "amountB",
							"type": "uint256"
						}
					],
					"name": "LiquidityRemoved",
					"type": "event"
				},
				{
					"anonymous": false,
					"inputs": [
						{
							"indexed": true,
							"internalType": "address",
							"name": "previousOwner",
							"type": "address"
						},
						{
							"indexed": true,
							"internalType": "address",
							"name": "newOwner",
							"type": "address"
						}
					],
					"name": "OwnershipTransferred",
					"type": "event"
				},
				{
					"anonymous": false,
					"inputs": [
						{
							"indexed": true,
							"internalType": "address",
							"name": "user",
							"type": "address"
						},
						{
							"indexed": false,
							"internalType": "uint256",
							"name": "amountIn",
							"type": "uint256"
						},
						{
							"indexed": false,
							"internalType": "uint256",
							"name": "amountOut",
							"type": "uint256"
						}
					],
					"name": "TokenSwapped",
					"type": "event"
				},
				{
					"inputs": [
						{
							"internalType": "uint256",
							"name": "amountA",
							"type": "uint256"
						},
						{
							"internalType": "uint256",
							"name": "amountB",
							"type": "uint256"
						}
					],
					"name": "addLiquidity",
					"outputs": [],
					"stateMutability": "nonpayable",
					"type": "function"
				},
				{
					"inputs": [
						{
							"internalType": "address",
							"name": "_token",
							"type": "address"
						}
					],
					"name": "getPrice",
					"outputs": [
						{
							"internalType": "uint256",
							"name": "",
							"type": "uint256"
						}
					],
					"stateMutability": "view",
					"type": "function"
				},
				{
					"inputs": [],
					"name": "owner",
					"outputs": [
						{
							"internalType": "address",
							"name": "",
							"type": "address"
						}
					],
					"stateMutability": "view",
					"type": "function"
				},
				{
					"inputs": [
						{
							"internalType": "uint256",
							"name": "amountA",
							"type": "uint256"
						},
						{
							"internalType": "uint256",
							"name": "amountB",
							"type": "uint256"
						}
					],
					"name": "removeLiquidity",
					"outputs": [],
					"stateMutability": "nonpayable",
					"type": "function"
				},
				{
					"inputs": [],
					"name": "renounceOwnership",
					"outputs": [],
					"stateMutability": "nonpayable",
					"type": "function"
				},
				{
					"inputs": [
						{
							"internalType": "uint256",
							"name": "amountAIn",
							"type": "uint256"
						}
					],
					"name": "swapAforB",
					"outputs": [],
					"stateMutability": "nonpayable",
					"type": "function"
				},
				{
					"inputs": [
						{
							"internalType": "uint256",
							"name": "amountBIn",
							"type": "uint256"
						}
					],
					"name": "swapBforA",
					"outputs": [],
					"stateMutability": "nonpayable",
					"type": "function"
				},
				{
					"inputs": [],
					"name": "tokenA",
					"outputs": [
						{
							"internalType": "contract IERC20",
							"name": "",
							"type": "address"
						}
					],
					"stateMutability": "view",
					"type": "function"
				},
				{
					"inputs": [],
					"name": "tokenB",
					"outputs": [
						{
							"internalType": "contract IERC20",
							"name": "",
							"type": "address"
						}
					],
					"stateMutability": "view",
					"type": "function"
				},
				{
					"inputs": [
						{
							"internalType": "address",
							"name": "newOwner",
							"type": "address"
						}
					],
					"name": "transferOwnership",
					"outputs": [],
					"stateMutability": "nonpayable",
					"type": "function"
				}
			],
			"devdoc": {
				"author": "[Gabriel Iakantas]",
				"details": "Implementa la fórmula de producto constante para intercambios",
				"errors": {
					"OwnableInvalidOwner(address)": [
						{
							"details": "The owner is not a valid owner account. (eg. `address(0)`)"
						}
					],
					"OwnableUnauthorizedAccount(address)": [
						{
							"details": "The caller account is not authorized to perform an operation."
						}
					]
				},
				"events": {
					"LiquidityAdded(uint256,uint256)": {
						"params": {
							"amountA": "Cantidad de token A agregada",
							"amountB": "Cantidad de token B agregada"
						}
					},
					"LiquidityRemoved(uint256,uint256)": {
						"params": {
							"amountA": "Cantidad de token A removida",
							"amountB": "Cantidad de token B removida"
						}
					},
					"TokenSwapped(address,uint256,uint256)": {
						"params": {
							"amountIn": "Cantidad del token de entrada",
							"amountOut": "Cantidad del token de salida",
							"user": "Dirección del usuario que realizó el intercambio"
						}
					}
				},
				"kind": "dev",
				"methods": {
					"addLiquidity(uint256,uint256)": {
						"details": "Solo puede ser llamado por el propietario",
						"params": {
							"amountA": "Cantidad de token A a agregar",
							"amountB": "Cantidad de token B a agregar"
						}
					},
					"constructor": {
						"params": {
							"_tokenA": "Dirección del token A",
							"_tokenB": "Dirección del token B"
						}
					},
					"getPrice(address)": {
						"params": {
							"_token": "Dirección del token a evaluar"
						},
						"returns": {
							"_0": "Precio relativo en términos del otro token"
						}
					},
					"owner()": {
						"details": "Returns the address of the current owner."
					},
					"removeLiquidity(uint256,uint256)": {
						"details": "Solo puede ser llamado por el propietario",
						"params": {
							"amountA": "Cantidad de token A a remover",
							"amountB": "Cantidad de token B a remover"
						}
					},
					"renounceOwnership()": {
						"details": "Leaves the contract without owner. It will not be possible to call `onlyOwner` functions. Can only be called by the current owner. NOTE: Renouncing ownership will leave the contract without an owner, thereby disabling any functionality that is only available to the owner."
					},
					"swapAforB(uint256)": {
						"params": {
							"amountAIn": "Cantidad de token A para intercambiar"
						}
					},
					"swapBforA(uint256)": {
						"params": {
							"amountBIn": "Cantidad de token B para intercambiar"
						}
					},
					"transferOwnership(address)": {
						"details": "Transfers ownership of the contract to a new account (`newOwner`). Can only be called by the current owner."
					}
				},
				"title": "Simple Decentralized Exchange (DEX)",
				"version": 1
			},
			"evm": {
				"assembly": "    /* \"SimpleDEX_flattened.sol\":7060:12198  contract SimpleDEX is Ownable {... */\n  mstore(0x40, 0x80)\n    /* \"SimpleDEX_flattened.sol\":8163:8472  constructor(address _tokenA, address _tokenB) Ownable(msg.sender) {... */\n  callvalue\n  dup1\n  iszero\n  tag_1\n  jumpi\n  0x00\n  dup1\n  revert\ntag_1:\n  pop\n  mload(0x40)\n  sub(codesize, bytecodeSize)\n  dup1\n  bytecodeSize\n  dup4\n  codecopy\n  dup2\n  dup2\n  add\n  0x40\n  mstore\n  dup2\n  add\n  swap1\n  tag_2\n  swap2\n  swap1\n  tag_3\n  jump\t// in\ntag_2:\n    /* \"SimpleDEX_flattened.sol\":8217:8227  msg.sender */\n  caller\n    /* \"SimpleDEX_flattened.sol\":5013:5014  0 */\n  0x00\n    /* \"SimpleDEX_flattened.sol\":4989:5015  initialOwner == address(0) */\n  0xffffffffffffffffffffffffffffffffffffffff\n  and\n    /* \"SimpleDEX_flattened.sol\":4989:5001  initialOwner */\n  dup2\n    /* \"SimpleDEX_flattened.sol\":4989:5015  initialOwner == address(0) */\n  0xffffffffffffffffffffffffffffffffffffffff\n  and\n  sub\n    /* \"SimpleDEX_flattened.sol\":4985:5080  if (initialOwner == address(0)) {... */\n  tag_7\n  jumpi\n    /* \"SimpleDEX_flattened.sol\":5066:5067  0 */\n  0x00\n    /* \"SimpleDEX_flattened.sol\":5038:5069  OwnableInvalidOwner(address(0)) */\n  mload(0x40)\n  0x1e4fbdf700000000000000000000000000000000000000000000000000000000\n  dup2\n  mstore\n  0x04\n  add\n  tag_8\n  swap2\n  swap1\n  tag_9\n  jump\t// in\ntag_8:\n  mload(0x40)\n  dup1\n  swap2\n  sub\n  swap1\n  revert\n    /* \"SimpleDEX_flattened.sol\":4985:5080  if (initialOwner == address(0)) {... */\ntag_7:\n    /* \"SimpleDEX_flattened.sol\":5089:5121  _transferOwnership(initialOwner) */\n  tag_10\n    /* \"SimpleDEX_flattened.sol\":5108:5120  initialOwner */\n  dup2\n    /* \"SimpleDEX_flattened.sol\":5089:5107  _transferOwnership */\n  shl(0x20, tag_11)\n    /* \"SimpleDEX_flattened.sol\":5089:5121  _transferOwnership(initialOwner) */\n  0x20\n  shr\n  jump\t// in\ntag_10:\n    /* \"SimpleDEX_flattened.sol\":4941:5128  constructor(address initialOwner) {... */\n  pop\n    /* \"SimpleDEX_flattened.sol\":8266:8267  0 */\n  0x00\n    /* \"SimpleDEX_flattened.sol\":8247:8268  _tokenA != address(0) */\n  0xffffffffffffffffffffffffffffffffffffffff\n  and\n    /* \"SimpleDEX_flattened.sol\":8247:8254  _tokenA */\n  dup3\n    /* \"SimpleDEX_flattened.sol\":8247:8268  _tokenA != address(0) */\n  0xffffffffffffffffffffffffffffffffffffffff\n  and\n  eq\n  iszero\n    /* \"SimpleDEX_flattened.sol\":8247:8293  _tokenA != address(0) && _tokenB != address(0) */\n  dup1\n  iszero\n  tag_13\n  jumpi\n  pop\n    /* \"SimpleDEX_flattened.sol\":8291:8292  0 */\n  0x00\n    /* \"SimpleDEX_flattened.sol\":8272:8293  _tokenB != address(0) */\n  0xffffffffffffffffffffffffffffffffffffffff\n  and\n    /* \"SimpleDEX_flattened.sol\":8272:8279  _tokenB */\n  dup2\n    /* \"SimpleDEX_flattened.sol\":8272:8293  _tokenB != address(0) */\n  0xffffffffffffffffffffffffffffffffffffffff\n  and\n  eq\n  iszero\n    /* \"SimpleDEX_flattened.sol\":8247:8293  _tokenA != address(0) && _tokenB != address(0) */\ntag_13:\n    /* \"SimpleDEX_flattened.sol\":8239:8323  require(_tokenA != address(0) && _tokenB != address(0), \"Token address cannot be 0\") */\n  tag_14\n  jumpi\n  mload(0x40)\n  0x08c379a000000000000000000000000000000000000000000000000000000000\n  dup2\n  mstore\n  0x04\n  add\n  tag_15\n  swap1\n  tag_16\n  jump\t// in\ntag_15:\n  mload(0x40)\n  dup1\n  swap2\n  sub\n  swap1\n  revert\ntag_14:\n    /* \"SimpleDEX_flattened.sol\":8352:8359  _tokenB */\n  dup1\n    /* \"SimpleDEX_flattened.sol\":8341:8359  _tokenA != _tokenB */\n  0xffffffffffffffffffffffffffffffffffffffff\n  and\n    /* \"SimpleDEX_flattened.sol\":8341:8348  _tokenA */\n  dup3\n    /* \"SimpleDEX_flattened.sol\":8341:8359  _tokenA != _tokenB */\n  0xffffffffffffffffffffffffffffffffffffffff\n  and\n  sub\n    /* \"SimpleDEX_flattened.sol\":8333:8388  require(_tokenA != _tokenB, \"Tokens must be different\") */\n  tag_17\n  jumpi\n  mload(0x40)\n  0x08c379a000000000000000000000000000000000000000000000000000000000\n  dup2\n  mstore\n  0x04\n  add\n  tag_18\n  swap1\n  tag_19\n  jump\t// in\ntag_18:\n  mload(0x40)\n  dup1\n  swap2\n  sub\n  swap1\n  revert\ntag_17:\n    /* \"SimpleDEX_flattened.sol\":8423:8430  _tokenA */\n  dup2\n    /* \"SimpleDEX_flattened.sol\":8407:8413  tokenA */\n  0x01\n  0x00\n    /* \"SimpleDEX_flattened.sol\":8407:8431  tokenA = IERC20(_tokenA) */\n  0x0100\n  exp\n  dup2\n  sload\n  dup2\n  0xffffffffffffffffffffffffffffffffffffffff\n  mul\n  not\n  and\n  swap1\n  dup4\n  0xffffffffffffffffffffffffffffffffffffffff\n  and\n  mul\n  or\n  swap1\n  sstore\n  pop\n    /* \"SimpleDEX_flattened.sol\":8457:8464  _tokenB */\n  dup1\n    /* \"SimpleDEX_flattened.sol\":8441:8447  tokenB */\n  0x02\n  0x00\n    /* \"SimpleDEX_flattened.sol\":8441:8465  tokenB = IERC20(_tokenB) */\n  0x0100\n  exp\n  dup2\n  sload\n  dup2\n  0xffffffffffffffffffffffffffffffffffffffff\n  mul\n  not\n  and\n  swap1\n  dup4\n  0xffffffffffffffffffffffffffffffffffffffff\n  and\n  mul\n  or\n  swap1\n  sstore\n  pop\n    /* \"SimpleDEX_flattened.sol\":8163:8472  constructor(address _tokenA, address _tokenB) Ownable(msg.sender) {... */\n  pop\n  pop\n    /* \"SimpleDEX_flattened.sol\":7060:12198  contract SimpleDEX is Ownable {... */\n  jump(tag_20)\n    /* \"SimpleDEX_flattened.sol\":6628:6815  function _transferOwnership(address newOwner) internal virtual {... */\ntag_11:\n    /* \"SimpleDEX_flattened.sol\":6701:6717  address oldOwner */\n  0x00\n    /* \"SimpleDEX_flattened.sol\":6720:6726  _owner */\n  dup1\n  0x00\n  swap1\n  sload\n  swap1\n  0x0100\n  exp\n  swap1\n  div\n  0xffffffffffffffffffffffffffffffffffffffff\n  and\n    /* \"SimpleDEX_flattened.sol\":6701:6726  address oldOwner = _owner */\n  swap1\n  pop\n    /* \"SimpleDEX_flattened.sol\":6745:6753  newOwner */\n  dup2\n    /* \"SimpleDEX_flattened.sol\":6736:6742  _owner */\n  0x00\n  dup1\n    /* \"SimpleDEX_flattened.sol\":6736:6753  _owner = newOwner */\n  0x0100\n  exp\n  dup2\n  sload\n  dup2\n  0xffffffffffffffffffffffffffffffffffffffff\n  mul\n  not\n  and\n  swap1\n  dup4\n  0xffffffffffffffffffffffffffffffffffffffff\n  and\n  mul\n  or\n  swap1\n  sstore\n  pop\n    /* \"SimpleDEX_flattened.sol\":6799:6807  newOwner */\n  dup2\n    /* \"SimpleDEX_flattened.sol\":6768:6808  OwnershipTransferred(oldOwner, newOwner) */\n  0xffffffffffffffffffffffffffffffffffffffff\n  and\n    /* \"SimpleDEX_flattened.sol\":6789:6797  oldOwner */\n  dup2\n    /* \"SimpleDEX_flattened.sol\":6768:6808  OwnershipTransferred(oldOwner, newOwner) */\n  0xffffffffffffffffffffffffffffffffffffffff\n  and\n  0x8be0079c531659141344cd1fd0a4f28419497f9722a3daafe3b4186f6b6457e0\n  mload(0x40)\n  mload(0x40)\n  dup1\n  swap2\n  sub\n  swap1\n  log3\n    /* \"SimpleDEX_flattened.sol\":6691:6815  {... */\n  pop\n    /* \"SimpleDEX_flattened.sol\":6628:6815  function _transferOwnership(address newOwner) internal virtual {... */\n  pop\n  jump\t// out\n    /* \"#utility.yul\":88:205   */\ntag_23:\n    /* \"#utility.yul\":197:198   */\n  0x00\n    /* \"#utility.yul\":194:195   */\n  dup1\n    /* \"#utility.yul\":187:199   */\n  revert\n    /* \"#utility.yul\":334:460   */\ntag_25:\n    /* \"#utility.yul\":371:378   */\n  0x00\n    /* \"#utility.yul\":411:453   */\n  0xffffffffffffffffffffffffffffffffffffffff\n    /* \"#utility.yul\":404:409   */\n  dup3\n    /* \"#utility.yul\":400:454   */\n  and\n    /* \"#utility.yul\":389:454   */\n  swap1\n  pop\n    /* \"#utility.yul\":334:460   */\n  swap2\n  swap1\n  pop\n  jump\t// out\n    /* \"#utility.yul\":466:562   */\ntag_26:\n    /* \"#utility.yul\":503:510   */\n  0x00\n    /* \"#utility.yul\":532:556   */\n  tag_41\n    /* \"#utility.yul\":550:555   */\n  dup3\n    /* \"#utility.yul\":532:556   */\n  tag_25\n  jump\t// in\ntag_41:\n    /* \"#utility.yul\":521:556   */\n  swap1\n  pop\n    /* \"#utility.yul\":466:562   */\n  swap2\n  swap1\n  pop\n  jump\t// out\n    /* \"#utility.yul\":568:690   */\ntag_27:\n    /* \"#utility.yul\":641:665   */\n  tag_43\n    /* \"#utility.yul\":659:664   */\n  dup2\n    /* \"#utility.yul\":641:665   */\n  tag_26\n  jump\t// in\ntag_43:\n    /* \"#utility.yul\":634:639   */\n  dup2\n    /* \"#utility.yul\":631:666   */\n  eq\n    /* \"#utility.yul\":621:684   */\n  tag_44\n  jumpi\n    /* \"#utility.yul\":680:681   */\n  0x00\n    /* \"#utility.yul\":677:678   */\n  dup1\n    /* \"#utility.yul\":670:682   */\n  revert\n    /* \"#utility.yul\":621:684   */\ntag_44:\n    /* \"#utility.yul\":568:690   */\n  pop\n  jump\t// out\n    /* \"#utility.yul\":696:839   */\ntag_28:\n    /* \"#utility.yul\":753:758   */\n  0x00\n    /* \"#utility.yul\":784:790   */\n  dup2\n    /* \"#utility.yul\":778:791   */\n  mload\n    /* \"#utility.yul\":769:791   */\n  swap1\n  pop\n    /* \"#utility.yul\":800:833   */\n  tag_46\n    /* \"#utility.yul\":827:832   */\n  dup2\n    /* \"#utility.yul\":800:833   */\n  tag_27\n  jump\t// in\ntag_46:\n    /* \"#utility.yul\":696:839   */\n  swap3\n  swap2\n  pop\n  pop\n  jump\t// out\n    /* \"#utility.yul\":845:1352   */\ntag_3:\n    /* \"#utility.yul\":924:930   */\n  0x00\n    /* \"#utility.yul\":932:938   */\n  dup1\n    /* \"#utility.yul\":981:983   */\n  0x40\n    /* \"#utility.yul\":969:978   */\n  dup4\n    /* \"#utility.yul\":960:967   */\n  dup6\n    /* \"#utility.yul\":956:979   */\n  sub\n    /* \"#utility.yul\":952:984   */\n  slt\n    /* \"#utility.yul\":949:1068   */\n  iszero\n  tag_48\n  jumpi\n    /* \"#utility.yul\":987:1066   */\n  tag_49\n  tag_23\n  jump\t// in\ntag_49:\n    /* \"#utility.yul\":949:1068   */\ntag_48:\n    /* \"#utility.yul\":1107:1108   */\n  0x00\n    /* \"#utility.yul\":1132:1196   */\n  tag_50\n    /* \"#utility.yul\":1188:1195   */\n  dup6\n    /* \"#utility.yul\":1179:1185   */\n  dup3\n    /* \"#utility.yul\":1168:1177   */\n  dup7\n    /* \"#utility.yul\":1164:1186   */\n  add\n    /* \"#utility.yul\":1132:1196   */\n  tag_28\n  jump\t// in\ntag_50:\n    /* \"#utility.yul\":1122:1196   */\n  swap3\n  pop\n    /* \"#utility.yul\":1078:1206   */\n  pop\n    /* \"#utility.yul\":1245:1247   */\n  0x20\n    /* \"#utility.yul\":1271:1335   */\n  tag_51\n    /* \"#utility.yul\":1327:1334   */\n  dup6\n    /* \"#utility.yul\":1318:1324   */\n  dup3\n    /* \"#utility.yul\":1307:1316   */\n  dup7\n    /* \"#utility.yul\":1303:1325   */\n  add\n    /* \"#utility.yul\":1271:1335   */\n  tag_28\n  jump\t// in\ntag_51:\n    /* \"#utility.yul\":1261:1335   */\n  swap2\n  pop\n    /* \"#utility.yul\":1216:1345   */\n  pop\n    /* \"#utility.yul\":845:1352   */\n  swap3\n  pop\n  swap3\n  swap1\n  pop\n  jump\t// out\n    /* \"#utility.yul\":1358:1476   */\ntag_29:\n    /* \"#utility.yul\":1445:1469   */\n  tag_53\n    /* \"#utility.yul\":1463:1468   */\n  dup2\n    /* \"#utility.yul\":1445:1469   */\n  tag_26\n  jump\t// in\ntag_53:\n    /* \"#utility.yul\":1440:1443   */\n  dup3\n    /* \"#utility.yul\":1433:1470   */\n  mstore\n    /* \"#utility.yul\":1358:1476   */\n  pop\n  pop\n  jump\t// out\n    /* \"#utility.yul\":1482:1704   */\ntag_9:\n    /* \"#utility.yul\":1575:1579   */\n  0x00\n    /* \"#utility.yul\":1613:1615   */\n  0x20\n    /* \"#utility.yul\":1602:1611   */\n  dup3\n    /* \"#utility.yul\":1598:1616   */\n  add\n    /* \"#utility.yul\":1590:1616   */\n  swap1\n  pop\n    /* \"#utility.yul\":1626:1697   */\n  tag_55\n    /* \"#utility.yul\":1694:1695   */\n  0x00\n    /* \"#utility.yul\":1683:1692   */\n  dup4\n    /* \"#utility.yul\":1679:1696   */\n  add\n    /* \"#utility.yul\":1670:1676   */\n  dup5\n    /* \"#utility.yul\":1626:1697   */\n  tag_29\n  jump\t// in\ntag_55:\n    /* \"#utility.yul\":1482:1704   */\n  swap3\n  swap2\n  pop\n  pop\n  jump\t// out\n    /* \"#utility.yul\":1710:1879   */\ntag_30:\n    /* \"#utility.yul\":1794:1805   */\n  0x00\n    /* \"#utility.yul\":1828:1834   */\n  dup3\n    /* \"#utility.yul\":1823:1826   */\n  dup3\n    /* \"#utility.yul\":1816:1835   */\n  mstore\n    /* \"#utility.yul\":1868:1872   */\n  0x20\n    /* \"#utility.yul\":1863:1866   */\n  dup3\n    /* \"#utility.yul\":1859:1873   */\n  add\n    /* \"#utility.yul\":1844:1873   */\n  swap1\n  pop\n    /* \"#utility.yul\":1710:1879   */\n  swap3\n  swap2\n  pop\n  pop\n  jump\t// out\n    /* \"#utility.yul\":1885:2060   */\ntag_31:\n    /* \"#utility.yul\":2025:2052   */\n  0x546f6b656e20616464726573732063616e6e6f74206265203000000000000000\n    /* \"#utility.yul\":2021:2022   */\n  0x00\n    /* \"#utility.yul\":2013:2019   */\n  dup3\n    /* \"#utility.yul\":2009:2023   */\n  add\n    /* \"#utility.yul\":2002:2053   */\n  mstore\n    /* \"#utility.yul\":1885:2060   */\n  pop\n  jump\t// out\n    /* \"#utility.yul\":2066:2432   */\ntag_32:\n    /* \"#utility.yul\":2208:2211   */\n  0x00\n    /* \"#utility.yul\":2229:2296   */\n  tag_59\n    /* \"#utility.yul\":2293:2295   */\n  0x19\n    /* \"#utility.yul\":2288:2291   */\n  dup4\n    /* \"#utility.yul\":2229:2296   */\n  tag_30\n  jump\t// in\ntag_59:\n    /* \"#utility.yul\":2222:2296   */\n  swap2\n  pop\n    /* \"#utility.yul\":2305:2398   */\n  tag_60\n    /* \"#utility.yul\":2394:2397   */\n  dup3\n    /* \"#utility.yul\":2305:2398   */\n  tag_31\n  jump\t// in\ntag_60:\n    /* \"#utility.yul\":2423:2425   */\n  0x20\n    /* \"#utility.yul\":2418:2421   */\n  dup3\n    /* \"#utility.yul\":2414:2426   */\n  add\n    /* \"#utility.yul\":2407:2426   */\n  swap1\n  pop\n    /* \"#utility.yul\":2066:2432   */\n  swap2\n  swap1\n  pop\n  jump\t// out\n    /* \"#utility.yul\":2438:2857   */\ntag_16:\n    /* \"#utility.yul\":2604:2608   */\n  0x00\n    /* \"#utility.yul\":2642:2644   */\n  0x20\n    /* \"#utility.yul\":2631:2640   */\n  dup3\n    /* \"#utility.yul\":2627:2645   */\n  add\n    /* \"#utility.yul\":2619:2645   */\n  swap1\n  pop\n    /* \"#utility.yul\":2691:2700   */\n  dup2\n    /* \"#utility.yul\":2685:2689   */\n  dup2\n    /* \"#utility.yul\":2681:2701   */\n  sub\n    /* \"#utility.yul\":2677:2678   */\n  0x00\n    /* \"#utility.yul\":2666:2675   */\n  dup4\n    /* \"#utility.yul\":2662:2679   */\n  add\n    /* \"#utility.yul\":2655:2702   */\n  mstore\n    /* \"#utility.yul\":2719:2850   */\n  tag_62\n    /* \"#utility.yul\":2845:2849   */\n  dup2\n    /* \"#utility.yul\":2719:2850   */\n  tag_32\n  jump\t// in\ntag_62:\n    /* \"#utility.yul\":2711:2850   */\n  swap1\n  pop\n    /* \"#utility.yul\":2438:2857   */\n  swap2\n  swap1\n  pop\n  jump\t// out\n    /* \"#utility.yul\":2863:3037   */\ntag_33:\n    /* \"#utility.yul\":3003:3029   */\n  0x546f6b656e73206d75737420626520646966666572656e740000000000000000\n    /* \"#utility.yul\":2999:3000   */\n  0x00\n    /* \"#utility.yul\":2991:2997   */\n  dup3\n    /* \"#utility.yul\":2987:3001   */\n  add\n    /* \"#utility.yul\":2980:3030   */\n  mstore\n    /* \"#utility.yul\":2863:3037   */\n  pop\n  jump\t// out\n    /* \"#utility.yul\":3043:3409   */\ntag_34:\n    /* \"#utility.yul\":3185:3188   */\n  0x00\n    /* \"#utility.yul\":3206:3273   */\n  tag_65\n    /* \"#utility.yul\":3270:3272   */\n  0x18\n    /* \"#utility.yul\":3265:3268   */\n  dup4\n    /* \"#utility.yul\":3206:3273   */\n  tag_30\n  jump\t// in\ntag_65:\n    /* \"#utility.yul\":3199:3273   */\n  swap2\n  pop\n    /* \"#utility.yul\":3282:3375   */\n  tag_66\n    /* \"#utility.yul\":3371:3374   */\n  dup3\n    /* \"#utility.yul\":3282:3375   */\n  tag_33\n  jump\t// in\ntag_66:\n    /* \"#utility.yul\":3400:3402   */\n  0x20\n    /* \"#utility.yul\":3395:3398   */\n  dup3\n    /* \"#utility.yul\":3391:3403   */\n  add\n    /* \"#utility.yul\":3384:3403   */\n  swap1\n  pop\n    /* \"#utility.yul\":3043:3409   */\n  swap2\n  swap1\n  pop\n  jump\t// out\n    /* \"#utility.yul\":3415:3834   */\ntag_19:\n    /* \"#utility.yul\":3581:3585   */\n  0x00\n    /* \"#utility.yul\":3619:3621   */\n  0x20\n    /* \"#utility.yul\":3608:3617   */\n  dup3\n    /* \"#utility.yul\":3604:3622   */\n  add\n    /* \"#utility.yul\":3596:3622   */\n  swap1\n  pop\n    /* \"#utility.yul\":3668:3677   */\n  dup2\n    /* \"#utility.yul\":3662:3666   */\n  dup2\n    /* \"#utility.yul\":3658:3678   */\n  sub\n    /* \"#utility.yul\":3654:3655   */\n  0x00\n    /* \"#utility.yul\":3643:3652   */\n  dup4\n    /* \"#utility.yul\":3639:3656   */\n  add\n    /* \"#utility.yul\":3632:3679   */\n  mstore\n    /* \"#utility.yul\":3696:3827   */\n  tag_68\n    /* \"#utility.yul\":3822:3826   */\n  dup2\n    /* \"#utility.yul\":3696:3827   */\n  tag_34\n  jump\t// in\ntag_68:\n    /* \"#utility.yul\":3688:3827   */\n  swap1\n  pop\n    /* \"#utility.yul\":3415:3834   */\n  swap2\n  swap1\n  pop\n  jump\t// out\n    /* \"SimpleDEX_flattened.sol\":7060:12198  contract SimpleDEX is Ownable {... */\ntag_20:\n  dataSize(sub_0)\n  dup1\n  dataOffset(sub_0)\n  0x00\n  codecopy\n  0x00\n  return\nstop\n\nsub_0: assembly {\n        /* \"SimpleDEX_flattened.sol\":7060:12198  contract SimpleDEX is Ownable {... */\n      mstore(0x40, 0x80)\n      callvalue\n      dup1\n      iszero\n      tag_1\n      jumpi\n      0x00\n      dup1\n      revert\n    tag_1:\n      pop\n      jumpi(tag_2, lt(calldatasize, 0x04))\n      shr(0xe0, calldataload(0x00))\n      dup1\n      0x8da5cb5b\n      gt\n      tag_13\n      jumpi\n      dup1\n      0x8da5cb5b\n      eq\n      tag_8\n      jumpi\n      dup1\n      0x9cd441da\n      eq\n      tag_9\n      jumpi\n      dup1\n      0x9d7de6b3\n      eq\n      tag_10\n      jumpi\n      dup1\n      0xe4f1f70a\n      eq\n      tag_11\n      jumpi\n      dup1\n      0xf2fde38b\n      eq\n      tag_12\n      jumpi\n      jump(tag_2)\n    tag_13:\n      dup1\n      0x0fc63d10\n      eq\n      tag_3\n      jumpi\n      dup1\n      0x41976e09\n      eq\n      tag_4\n      jumpi\n      dup1\n      0x5f64b55b\n      eq\n      tag_5\n      jumpi\n      dup1\n      0x715018a6\n      eq\n      tag_6\n      jumpi\n      dup1\n      0x8014a7aa\n      eq\n      tag_7\n      jumpi\n    tag_2:\n      0x00\n      dup1\n      revert\n        /* \"SimpleDEX_flattened.sol\":7143:7163  IERC20 public tokenA */\n    tag_3:\n      tag_14\n      tag_15\n      jump\t// in\n    tag_14:\n      mload(0x40)\n      tag_16\n      swap2\n      swap1\n      tag_17\n      jump\t// in\n    tag_16:\n      mload(0x40)\n      dup1\n      swap2\n      sub\n      swap1\n      return\n        /* \"SimpleDEX_flattened.sol\":11202:11622  function getPrice(address _token) external view returns (uint256) {... */\n    tag_4:\n      tag_18\n      0x04\n      dup1\n      calldatasize\n      sub\n      dup2\n      add\n      swap1\n      tag_19\n      swap2\n      swap1\n      tag_20\n      jump\t// in\n    tag_19:\n      tag_21\n      jump\t// in\n    tag_18:\n      mload(0x40)\n      tag_22\n      swap2\n      swap1\n      tag_23\n      jump\t// in\n    tag_22:\n      mload(0x40)\n      dup1\n      swap2\n      sub\n      swap1\n      return\n        /* \"SimpleDEX_flattened.sol\":7217:7237  IERC20 public tokenB */\n    tag_5:\n      tag_24\n      tag_25\n      jump\t// in\n    tag_24:\n      mload(0x40)\n      tag_26\n      swap2\n      swap1\n      tag_17\n      jump\t// in\n    tag_26:\n      mload(0x40)\n      dup1\n      swap2\n      sub\n      swap1\n      return\n        /* \"SimpleDEX_flattened.sol\":6009:6110  function renounceOwnership() public virtual onlyOwner {... */\n    tag_6:\n      tag_27\n      tag_28\n      jump\t// in\n    tag_27:\n      stop\n        /* \"SimpleDEX_flattened.sol\":10465:11028  function swapBforA(uint256 amountBIn) external {... */\n    tag_7:\n      tag_29\n      0x04\n      dup1\n      calldatasize\n      sub\n      dup2\n      add\n      swap1\n      tag_30\n      swap2\n      swap1\n      tag_31\n      jump\t// in\n    tag_30:\n      tag_32\n      jump\t// in\n    tag_29:\n      stop\n        /* \"SimpleDEX_flattened.sol\":5354:5439  function owner() public view virtual returns (address) {... */\n    tag_8:\n      tag_33\n      tag_34\n      jump\t// in\n    tag_33:\n      mload(0x40)\n      tag_35\n      swap2\n      swap1\n      tag_36\n      jump\t// in\n    tag_35:\n      mload(0x40)\n      dup1\n      swap2\n      sub\n      swap1\n      return\n        /* \"SimpleDEX_flattened.sol\":8679:9016  function addLiquidity(uint256 amountA, uint256 amountB) external onlyOwner {... */\n    tag_9:\n      tag_37\n      0x04\n      dup1\n      calldatasize\n      sub\n      dup2\n      add\n      swap1\n      tag_38\n      swap2\n      swap1\n      tag_39\n      jump\t// in\n    tag_38:\n      tag_40\n      jump\t// in\n    tag_37:\n      stop\n        /* \"SimpleDEX_flattened.sol\":9225:9668  function removeLiquidity(uint256 amountA, uint256 amountB) external onlyOwner {... */\n    tag_10:\n      tag_41\n      0x04\n      dup1\n      calldatasize\n      sub\n      dup2\n      add\n      swap1\n      tag_42\n      swap2\n      swap1\n      tag_39\n      jump\t// in\n    tag_42:\n      tag_43\n      jump\t// in\n    tag_41:\n      stop\n        /* \"SimpleDEX_flattened.sol\":9785:10348  function swapAforB(uint256 amountAIn) external {... */\n    tag_11:\n      tag_44\n      0x04\n      dup1\n      calldatasize\n      sub\n      dup2\n      add\n      swap1\n      tag_45\n      swap2\n      swap1\n      tag_31\n      jump\t// in\n    tag_45:\n      tag_46\n      jump\t// in\n    tag_44:\n      stop\n        /* \"SimpleDEX_flattened.sol\":6259:6474  function transferOwnership(address newOwner) public virtual onlyOwner {... */\n    tag_12:\n      tag_47\n      0x04\n      dup1\n      calldatasize\n      sub\n      dup2\n      add\n      swap1\n      tag_48\n      swap2\n      swap1\n      tag_20\n      jump\t// in\n    tag_48:\n      tag_49\n      jump\t// in\n    tag_47:\n      stop\n        /* \"SimpleDEX_flattened.sol\":7143:7163  IERC20 public tokenA */\n    tag_15:\n      0x01\n      0x00\n      swap1\n      sload\n      swap1\n      0x0100\n      exp\n      swap1\n      div\n      0xffffffffffffffffffffffffffffffffffffffff\n      and\n      dup2\n      jump\t// out\n        /* \"SimpleDEX_flattened.sol\":11202:11622  function getPrice(address _token) external view returns (uint256) {... */\n    tag_21:\n        /* \"SimpleDEX_flattened.sol\":11259:11266  uint256 */\n      0x00\n        /* \"SimpleDEX_flattened.sol\":11304:11310  tokenA */\n      0x01\n      0x00\n      swap1\n      sload\n      swap1\n      0x0100\n      exp\n      swap1\n      div\n      0xffffffffffffffffffffffffffffffffffffffff\n      and\n        /* \"SimpleDEX_flattened.sol\":11286:11311  _token == address(tokenA) */\n      0xffffffffffffffffffffffffffffffffffffffff\n      and\n        /* \"SimpleDEX_flattened.sol\":11286:11292  _token */\n      dup3\n        /* \"SimpleDEX_flattened.sol\":11286:11311  _token == address(tokenA) */\n      0xffffffffffffffffffffffffffffffffffffffff\n      and\n      eq\n        /* \"SimpleDEX_flattened.sol\":11286:11340  _token == address(tokenA) || _token == address(tokenB) */\n      dup1\n      tag_51\n      jumpi\n      pop\n        /* \"SimpleDEX_flattened.sol\":11333:11339  tokenB */\n      0x02\n      0x00\n      swap1\n      sload\n      swap1\n      0x0100\n      exp\n      swap1\n      div\n      0xffffffffffffffffffffffffffffffffffffffff\n      and\n        /* \"SimpleDEX_flattened.sol\":11315:11340  _token == address(tokenB) */\n      0xffffffffffffffffffffffffffffffffffffffff\n      and\n        /* \"SimpleDEX_flattened.sol\":11315:11321  _token */\n      dup3\n        /* \"SimpleDEX_flattened.sol\":11315:11340  _token == address(tokenB) */\n      0xffffffffffffffffffffffffffffffffffffffff\n      and\n      eq\n        /* \"SimpleDEX_flattened.sol\":11286:11340  _token == address(tokenA) || _token == address(tokenB) */\n    tag_51:\n        /* \"SimpleDEX_flattened.sol\":11278:11366  require(_token == address(tokenA) || _token == address(tokenB), \"Invalid token address\") */\n      tag_52\n      jumpi\n      mload(0x40)\n      0x08c379a000000000000000000000000000000000000000000000000000000000\n      dup2\n      mstore\n      0x04\n      add\n      tag_53\n      swap1\n      tag_54\n      jump\t// in\n    tag_53:\n      mload(0x40)\n      dup1\n      swap2\n      sub\n      swap1\n      revert\n    tag_52:\n        /* \"SimpleDEX_flattened.sol\":11377:11393  uint256 balanceA */\n      0x00\n        /* \"SimpleDEX_flattened.sol\":11396:11402  tokenA */\n      0x01\n      0x00\n      swap1\n      sload\n      swap1\n      0x0100\n      exp\n      swap1\n      div\n      0xffffffffffffffffffffffffffffffffffffffff\n      and\n        /* \"SimpleDEX_flattened.sol\":11396:11412  tokenA.balanceOf */\n      0xffffffffffffffffffffffffffffffffffffffff\n      and\n      0x70a08231\n        /* \"SimpleDEX_flattened.sol\":11421:11425  this */\n      address\n        /* \"SimpleDEX_flattened.sol\":11396:11427  tokenA.balanceOf(address(this)) */\n      mload(0x40)\n      dup3\n      0xffffffff\n      and\n      0xe0\n      shl\n      dup2\n      mstore\n      0x04\n      add\n      tag_55\n      swap2\n      swap1\n      tag_36\n      jump\t// in\n    tag_55:\n      0x20\n      mload(0x40)\n      dup1\n      dup4\n      sub\n      dup2\n      dup7\n      gas\n      staticcall\n      iszero\n      dup1\n      iszero\n      tag_57\n      jumpi\n      returndatasize\n      0x00\n      dup1\n      returndatacopy\n      revert(0x00, returndatasize)\n    tag_57:\n      pop\n      pop\n      pop\n      pop\n      mload(0x40)\n      returndatasize\n      not(0x1f)\n      0x1f\n      dup3\n      add\n      and\n      dup3\n      add\n      dup1\n      0x40\n      mstore\n      pop\n      dup2\n      add\n      swap1\n      tag_58\n      swap2\n      swap1\n      tag_59\n      jump\t// in\n    tag_58:\n        /* \"SimpleDEX_flattened.sol\":11377:11427  uint256 balanceA = tokenA.balanceOf(address(this)) */\n      swap1\n      pop\n        /* \"SimpleDEX_flattened.sol\":11437:11453  uint256 balanceB */\n      0x00\n        /* \"SimpleDEX_flattened.sol\":11456:11462  tokenB */\n      0x02\n      0x00\n      swap1\n      sload\n      swap1\n      0x0100\n      exp\n      swap1\n      div\n      0xffffffffffffffffffffffffffffffffffffffff\n      and\n        /* \"SimpleDEX_flattened.sol\":11456:11472  tokenB.balanceOf */\n      0xffffffffffffffffffffffffffffffffffffffff\n      and\n      0x70a08231\n        /* \"SimpleDEX_flattened.sol\":11481:11485  this */\n      address\n        /* \"SimpleDEX_flattened.sol\":11456:11487  tokenB.balanceOf(address(this)) */\n      mload(0x40)\n      dup3\n      0xffffffff\n      and\n      0xe0\n      shl\n      dup2\n      mstore\n      0x04\n      add\n      tag_60\n      swap2\n      swap1\n      tag_36\n      jump\t// in\n    tag_60:\n      0x20\n      mload(0x40)\n      dup1\n      dup4\n      sub\n      dup2\n      dup7\n      gas\n      staticcall\n      iszero\n      dup1\n      iszero\n      tag_62\n      jumpi\n      returndatasize\n      0x00\n      dup1\n      returndatacopy\n      revert(0x00, returndatasize)\n    tag_62:\n      pop\n      pop\n      pop\n      pop\n      mload(0x40)\n      returndatasize\n      not(0x1f)\n      0x1f\n      dup3\n      add\n      and\n      dup3\n      add\n      dup1\n      0x40\n      mstore\n      pop\n      dup2\n      add\n      swap1\n      tag_63\n      swap2\n      swap1\n      tag_59\n      jump\t// in\n    tag_63:\n        /* \"SimpleDEX_flattened.sol\":11437:11487  uint256 balanceB = tokenB.balanceOf(address(this)) */\n      swap1\n      pop\n        /* \"SimpleDEX_flattened.sol\":11522:11528  tokenA */\n      0x01\n      0x00\n      swap1\n      sload\n      swap1\n      0x0100\n      exp\n      swap1\n      div\n      0xffffffffffffffffffffffffffffffffffffffff\n      and\n        /* \"SimpleDEX_flattened.sol\":11504:11529  _token == address(tokenA) */\n      0xffffffffffffffffffffffffffffffffffffffff\n      and\n        /* \"SimpleDEX_flattened.sol\":11504:11510  _token */\n      dup5\n        /* \"SimpleDEX_flattened.sol\":11504:11529  _token == address(tokenA) */\n      0xffffffffffffffffffffffffffffffffffffffff\n      and\n      eq\n        /* \"SimpleDEX_flattened.sol\":11504:11615  _token == address(tokenA)... */\n      tag_64\n      jumpi\n        /* \"SimpleDEX_flattened.sol\":11607:11615  balanceB */\n      dup1\n        /* \"SimpleDEX_flattened.sol\":11599:11603  1e18 */\n      0x0de0b6b3a7640000\n        /* \"SimpleDEX_flattened.sol\":11588:11596  balanceA */\n      dup4\n        /* \"SimpleDEX_flattened.sol\":11588:11603  balanceA * 1e18 */\n      tag_65\n      swap2\n      swap1\n      tag_66\n      jump\t// in\n    tag_65:\n        /* \"SimpleDEX_flattened.sol\":11587:11615  (balanceA * 1e18) / balanceB */\n      tag_67\n      swap2\n      swap1\n      tag_68\n      jump\t// in\n    tag_67:\n        /* \"SimpleDEX_flattened.sol\":11504:11615  _token == address(tokenA)... */\n      jump(tag_69)\n    tag_64:\n        /* \"SimpleDEX_flattened.sol\":11564:11572  balanceA */\n      dup2\n        /* \"SimpleDEX_flattened.sol\":11556:11560  1e18 */\n      0x0de0b6b3a7640000\n        /* \"SimpleDEX_flattened.sol\":11545:11553  balanceB */\n      dup3\n        /* \"SimpleDEX_flattened.sol\":11545:11560  balanceB * 1e18 */\n      tag_70\n      swap2\n      swap1\n      tag_66\n      jump\t// in\n    tag_70:\n        /* \"SimpleDEX_flattened.sol\":11544:11572  (balanceB * 1e18) / balanceA */\n      tag_71\n      swap2\n      swap1\n      tag_68\n      jump\t// in\n    tag_71:\n        /* \"SimpleDEX_flattened.sol\":11504:11615  _token == address(tokenA)... */\n    tag_69:\n        /* \"SimpleDEX_flattened.sol\":11497:11615  return _token == address(tokenA)... */\n      swap3\n      pop\n      pop\n      pop\n        /* \"SimpleDEX_flattened.sol\":11202:11622  function getPrice(address _token) external view returns (uint256) {... */\n      swap2\n      swap1\n      pop\n      jump\t// out\n        /* \"SimpleDEX_flattened.sol\":7217:7237  IERC20 public tokenB */\n    tag_25:\n      0x02\n      0x00\n      swap1\n      sload\n      swap1\n      0x0100\n      exp\n      swap1\n      div\n      0xffffffffffffffffffffffffffffffffffffffff\n      and\n      dup2\n      jump\t// out\n        /* \"SimpleDEX_flattened.sol\":6009:6110  function renounceOwnership() public virtual onlyOwner {... */\n    tag_28:\n        /* \"SimpleDEX_flattened.sol\":5247:5260  _checkOwner() */\n      tag_73\n        /* \"SimpleDEX_flattened.sol\":5247:5258  _checkOwner */\n      tag_74\n        /* \"SimpleDEX_flattened.sol\":5247:5260  _checkOwner() */\n      jump\t// in\n    tag_73:\n        /* \"SimpleDEX_flattened.sol\":6073:6103  _transferOwnership(address(0)) */\n      tag_76\n        /* \"SimpleDEX_flattened.sol\":6100:6101  0 */\n      0x00\n        /* \"SimpleDEX_flattened.sol\":6073:6091  _transferOwnership */\n      tag_77\n        /* \"SimpleDEX_flattened.sol\":6073:6103  _transferOwnership(address(0)) */\n      jump\t// in\n    tag_76:\n        /* \"SimpleDEX_flattened.sol\":6009:6110  function renounceOwnership() public virtual onlyOwner {... */\n      jump\t// out\n        /* \"SimpleDEX_flattened.sol\":10465:11028  function swapBforA(uint256 amountBIn) external {... */\n    tag_32:\n        /* \"SimpleDEX_flattened.sol\":10542:10543  0 */\n      0x00\n        /* \"SimpleDEX_flattened.sol\":10530:10539  amountBIn */\n      dup2\n        /* \"SimpleDEX_flattened.sol\":10530:10543  amountBIn > 0 */\n      gt\n        /* \"SimpleDEX_flattened.sol\":10522:10572  require(amountBIn > 0, \"Input amount must be > 0\") */\n      tag_79\n      jumpi\n      mload(0x40)\n      0x08c379a000000000000000000000000000000000000000000000000000000000\n      dup2\n      mstore\n      0x04\n      add\n      tag_80\n      swap1\n      tag_81\n      jump\t// in\n    tag_80:\n      mload(0x40)\n      dup1\n      swap2\n      sub\n      swap1\n      revert\n    tag_79:\n        /* \"SimpleDEX_flattened.sol\":10583:10599  uint256 balanceA */\n      0x00\n        /* \"SimpleDEX_flattened.sol\":10602:10608  tokenA */\n      0x01\n      0x00\n      swap1\n      sload\n      swap1\n      0x0100\n      exp\n      swap1\n      div\n      0xffffffffffffffffffffffffffffffffffffffff\n      and\n        /* \"SimpleDEX_flattened.sol\":10602:10618  tokenA.balanceOf */\n      0xffffffffffffffffffffffffffffffffffffffff\n      and\n      0x70a08231\n        /* \"SimpleDEX_flattened.sol\":10627:10631  this */\n      address\n        /* \"SimpleDEX_flattened.sol\":10602:10633  tokenA.balanceOf(address(this)) */\n      mload(0x40)\n      dup3\n      0xffffffff\n      and\n      0xe0\n      shl\n      dup2\n      mstore\n      0x04\n      add\n      tag_82\n      swap2\n      swap1\n      tag_36\n      jump\t// in\n    tag_82:\n      0x20\n      mload(0x40)\n      dup1\n      dup4\n      sub\n      dup2\n      dup7\n      gas\n      staticcall\n      iszero\n      dup1\n      iszero\n      tag_84\n      jumpi\n      returndatasize\n      0x00\n      dup1\n      returndatacopy\n      revert(0x00, returndatasize)\n    tag_84:\n      pop\n      pop\n      pop\n      pop\n      mload(0x40)\n      returndatasize\n      not(0x1f)\n      0x1f\n      dup3\n      add\n      and\n      dup3\n      add\n      dup1\n      0x40\n      mstore\n      pop\n      dup2\n      add\n      swap1\n      tag_85\n      swap2\n      swap1\n      tag_59\n      jump\t// in\n    tag_85:\n        /* \"SimpleDEX_flattened.sol\":10583:10633  uint256 balanceA = tokenA.balanceOf(address(this)) */\n      swap1\n      pop\n        /* \"SimpleDEX_flattened.sol\":10643:10659  uint256 balanceB */\n      0x00\n        /* \"SimpleDEX_flattened.sol\":10662:10668  tokenB */\n      0x02\n      0x00\n      swap1\n      sload\n      swap1\n      0x0100\n      exp\n      swap1\n      div\n      0xffffffffffffffffffffffffffffffffffffffff\n      and\n        /* \"SimpleDEX_flattened.sol\":10662:10678  tokenB.balanceOf */\n      0xffffffffffffffffffffffffffffffffffffffff\n      and\n      0x70a08231\n        /* \"SimpleDEX_flattened.sol\":10687:10691  this */\n      address\n        /* \"SimpleDEX_flattened.sol\":10662:10693  tokenB.balanceOf(address(this)) */\n      mload(0x40)\n      dup3\n      0xffffffff\n      and\n      0xe0\n      shl\n      dup2\n      mstore\n      0x04\n      add\n      tag_86\n      swap2\n      swap1\n      tag_36\n      jump\t// in\n    tag_86:\n      0x20\n      mload(0x40)\n      dup1\n      dup4\n      sub\n      dup2\n      dup7\n      gas\n      staticcall\n      iszero\n      dup1\n      iszero\n      tag_88\n      jumpi\n      returndatasize\n      0x00\n      dup1\n      returndatacopy\n      revert(0x00, returndatasize)\n    tag_88:\n      pop\n      pop\n      pop\n      pop\n      mload(0x40)\n      returndatasize\n      not(0x1f)\n      0x1f\n      dup3\n      add\n      and\n      dup3\n      add\n      dup1\n      0x40\n      mstore\n      pop\n      dup2\n      add\n      swap1\n      tag_89\n      swap2\n      swap1\n      tag_59\n      jump\t// in\n    tag_89:\n        /* \"SimpleDEX_flattened.sol\":10643:10693  uint256 balanceB = tokenB.balanceOf(address(this)) */\n      swap1\n      pop\n        /* \"SimpleDEX_flattened.sol\":10722:10723  0 */\n      0x00\n        /* \"SimpleDEX_flattened.sol\":10711:10719  balanceA */\n      dup3\n        /* \"SimpleDEX_flattened.sol\":10711:10723  balanceA > 0 */\n      gt\n        /* \"SimpleDEX_flattened.sol\":10711:10739  balanceA > 0 && balanceB > 0 */\n      dup1\n      iszero\n      tag_90\n      jumpi\n      pop\n        /* \"SimpleDEX_flattened.sol\":10738:10739  0 */\n      0x00\n        /* \"SimpleDEX_flattened.sol\":10727:10735  balanceB */\n      dup2\n        /* \"SimpleDEX_flattened.sol\":10727:10739  balanceB > 0 */\n      gt\n        /* \"SimpleDEX_flattened.sol\":10711:10739  balanceA > 0 && balanceB > 0 */\n    tag_90:\n        /* \"SimpleDEX_flattened.sol\":10703:10766  require(balanceA > 0 && balanceB > 0, \"Insufficient liquidity\") */\n      tag_91\n      jumpi\n      mload(0x40)\n      0x08c379a000000000000000000000000000000000000000000000000000000000\n      dup2\n      mstore\n      0x04\n      add\n      tag_92\n      swap1\n      tag_93\n      jump\t// in\n    tag_92:\n      mload(0x40)\n      dup1\n      swap2\n      sub\n      swap1\n      revert\n    tag_91:\n        /* \"SimpleDEX_flattened.sol\":10777:10795  uint256 amountAOut */\n      0x00\n        /* \"SimpleDEX_flattened.sol\":10798:10841  getAmountOut(amountBIn, balanceB, balanceA) */\n      tag_94\n        /* \"SimpleDEX_flattened.sol\":10811:10820  amountBIn */\n      dup5\n        /* \"SimpleDEX_flattened.sol\":10822:10830  balanceB */\n      dup4\n        /* \"SimpleDEX_flattened.sol\":10832:10840  balanceA */\n      dup6\n        /* \"SimpleDEX_flattened.sol\":10798:10810  getAmountOut */\n      tag_95\n        /* \"SimpleDEX_flattened.sol\":10798:10841  getAmountOut(amountBIn, balanceB, balanceA) */\n      jump\t// in\n    tag_94:\n        /* \"SimpleDEX_flattened.sol\":10777:10841  uint256 amountAOut = getAmountOut(amountBIn, balanceB, balanceA) */\n      swap1\n      pop\n        /* \"SimpleDEX_flattened.sol\":10852:10858  tokenB */\n      0x02\n      0x00\n      swap1\n      sload\n      swap1\n      0x0100\n      exp\n      swap1\n      div\n      0xffffffffffffffffffffffffffffffffffffffff\n      and\n        /* \"SimpleDEX_flattened.sol\":10852:10871  tokenB.transferFrom */\n      0xffffffffffffffffffffffffffffffffffffffff\n      and\n      0x23b872dd\n        /* \"SimpleDEX_flattened.sol\":10872:10882  msg.sender */\n      caller\n        /* \"SimpleDEX_flattened.sol\":10892:10896  this */\n      address\n        /* \"SimpleDEX_flattened.sol\":10899:10908  amountBIn */\n      dup8\n        /* \"SimpleDEX_flattened.sol\":10852:10909  tokenB.transferFrom(msg.sender, address(this), amountBIn) */\n      mload(0x40)\n      dup5\n      0xffffffff\n      and\n      0xe0\n      shl\n      dup2\n      mstore\n      0x04\n      add\n      tag_96\n      swap4\n      swap3\n      swap2\n      swap1\n      tag_97\n      jump\t// in\n    tag_96:\n      0x20\n      mload(0x40)\n      dup1\n      dup4\n      sub\n      dup2\n      0x00\n      dup8\n      gas\n      call\n      iszero\n      dup1\n      iszero\n      tag_99\n      jumpi\n      returndatasize\n      0x00\n      dup1\n      returndatacopy\n      revert(0x00, returndatasize)\n    tag_99:\n      pop\n      pop\n      pop\n      pop\n      mload(0x40)\n      returndatasize\n      not(0x1f)\n      0x1f\n      dup3\n      add\n      and\n      dup3\n      add\n      dup1\n      0x40\n      mstore\n      pop\n      dup2\n      add\n      swap1\n      tag_100\n      swap2\n      swap1\n      tag_101\n      jump\t// in\n    tag_100:\n      pop\n        /* \"SimpleDEX_flattened.sol\":10919:10925  tokenA */\n      0x01\n      0x00\n      swap1\n      sload\n      swap1\n      0x0100\n      exp\n      swap1\n      div\n      0xffffffffffffffffffffffffffffffffffffffff\n      and\n        /* \"SimpleDEX_flattened.sol\":10919:10934  tokenA.transfer */\n      0xffffffffffffffffffffffffffffffffffffffff\n      and\n      0xa9059cbb\n        /* \"SimpleDEX_flattened.sol\":10935:10945  msg.sender */\n      caller\n        /* \"SimpleDEX_flattened.sol\":10947:10957  amountAOut */\n      dup4\n        /* \"SimpleDEX_flattened.sol\":10919:10958  tokenA.transfer(msg.sender, amountAOut) */\n      mload(0x40)\n      dup4\n      0xffffffff\n      and\n      0xe0\n      shl\n      dup2\n      mstore\n      0x04\n      add\n      tag_102\n      swap3\n      swap2\n      swap1\n      tag_103\n      jump\t// in\n    tag_102:\n      0x20\n      mload(0x40)\n      dup1\n      dup4\n      sub\n      dup2\n      0x00\n      dup8\n      gas\n      call\n      iszero\n      dup1\n      iszero\n      tag_105\n      jumpi\n      returndatasize\n      0x00\n      dup1\n      returndatacopy\n      revert(0x00, returndatasize)\n    tag_105:\n      pop\n      pop\n      pop\n      pop\n      mload(0x40)\n      returndatasize\n      not(0x1f)\n      0x1f\n      dup3\n      add\n      and\n      dup3\n      add\n      dup1\n      0x40\n      mstore\n      pop\n      dup2\n      add\n      swap1\n      tag_106\n      swap2\n      swap1\n      tag_101\n      jump\t// in\n    tag_106:\n      pop\n        /* \"SimpleDEX_flattened.sol\":10987:10997  msg.sender */\n      caller\n        /* \"SimpleDEX_flattened.sol\":10974:11021  TokenSwapped(msg.sender, amountBIn, amountAOut) */\n      0xffffffffffffffffffffffffffffffffffffffff\n      and\n      0xd5a1cd88ddd329cc1ddf861a21708efa9ef3136b88e1420c21f91ef6f95ad024\n        /* \"SimpleDEX_flattened.sol\":10999:11008  amountBIn */\n      dup6\n        /* \"SimpleDEX_flattened.sol\":11010:11020  amountAOut */\n      dup4\n        /* \"SimpleDEX_flattened.sol\":10974:11021  TokenSwapped(msg.sender, amountBIn, amountAOut) */\n      mload(0x40)\n      tag_107\n      swap3\n      swap2\n      swap1\n      tag_108\n      jump\t// in\n    tag_107:\n      mload(0x40)\n      dup1\n      swap2\n      sub\n      swap1\n      log2\n        /* \"SimpleDEX_flattened.sol\":10512:11028  {... */\n      pop\n      pop\n      pop\n        /* \"SimpleDEX_flattened.sol\":10465:11028  function swapBforA(uint256 amountBIn) external {... */\n      pop\n      jump\t// out\n        /* \"SimpleDEX_flattened.sol\":5354:5439  function owner() public view virtual returns (address) {... */\n    tag_34:\n        /* \"SimpleDEX_flattened.sol\":5400:5407  address */\n      0x00\n        /* \"SimpleDEX_flattened.sol\":5426:5432  _owner */\n      dup1\n      0x00\n      swap1\n      sload\n      swap1\n      0x0100\n      exp\n      swap1\n      div\n      0xffffffffffffffffffffffffffffffffffffffff\n      and\n        /* \"SimpleDEX_flattened.sol\":5419:5432  return _owner */\n      swap1\n      pop\n        /* \"SimpleDEX_flattened.sol\":5354:5439  function owner() public view virtual returns (address) {... */\n      swap1\n      jump\t// out\n        /* \"SimpleDEX_flattened.sol\":8679:9016  function addLiquidity(uint256 amountA, uint256 amountB) external onlyOwner {... */\n    tag_40:\n        /* \"SimpleDEX_flattened.sol\":5247:5260  _checkOwner() */\n      tag_111\n        /* \"SimpleDEX_flattened.sol\":5247:5258  _checkOwner */\n      tag_74\n        /* \"SimpleDEX_flattened.sol\":5247:5260  _checkOwner() */\n      jump\t// in\n    tag_111:\n        /* \"SimpleDEX_flattened.sol\":8782:8783  0 */\n      0x00\n        /* \"SimpleDEX_flattened.sol\":8772:8779  amountA */\n      dup3\n        /* \"SimpleDEX_flattened.sol\":8772:8783  amountA > 0 */\n      gt\n        /* \"SimpleDEX_flattened.sol\":8772:8798  amountA > 0 && amountB > 0 */\n      dup1\n      iszero\n      tag_113\n      jumpi\n      pop\n        /* \"SimpleDEX_flattened.sol\":8797:8798  0 */\n      0x00\n        /* \"SimpleDEX_flattened.sol\":8787:8794  amountB */\n      dup2\n        /* \"SimpleDEX_flattened.sol\":8787:8798  amountB > 0 */\n      gt\n        /* \"SimpleDEX_flattened.sol\":8772:8798  amountA > 0 && amountB > 0 */\n    tag_113:\n        /* \"SimpleDEX_flattened.sol\":8764:8822  require(amountA > 0 && amountB > 0, \"Amounts must be > 0\") */\n      tag_114\n      jumpi\n      mload(0x40)\n      0x08c379a000000000000000000000000000000000000000000000000000000000\n      dup2\n      mstore\n      0x04\n      add\n      tag_115\n      swap1\n      tag_116\n      jump\t// in\n    tag_115:\n      mload(0x40)\n      dup1\n      swap2\n      sub\n      swap1\n      revert\n    tag_114:\n        /* \"SimpleDEX_flattened.sol\":8841:8847  tokenA */\n      0x01\n      0x00\n      swap1\n      sload\n      swap1\n      0x0100\n      exp\n      swap1\n      div\n      0xffffffffffffffffffffffffffffffffffffffff\n      and\n        /* \"SimpleDEX_flattened.sol\":8841:8860  tokenA.transferFrom */\n      0xffffffffffffffffffffffffffffffffffffffff\n      and\n      0x23b872dd\n        /* \"SimpleDEX_flattened.sol\":8861:8871  msg.sender */\n      caller\n        /* \"SimpleDEX_flattened.sol\":8881:8885  this */\n      address\n        /* \"SimpleDEX_flattened.sol\":8888:8895  amountA */\n      dup6\n        /* \"SimpleDEX_flattened.sol\":8841:8896  tokenA.transferFrom(msg.sender, address(this), amountA) */\n      mload(0x40)\n      dup5\n      0xffffffff\n      and\n      0xe0\n      shl\n      dup2\n      mstore\n      0x04\n      add\n      tag_117\n      swap4\n      swap3\n      swap2\n      swap1\n      tag_97\n      jump\t// in\n    tag_117:\n      0x20\n      mload(0x40)\n      dup1\n      dup4\n      sub\n      dup2\n      0x00\n      dup8\n      gas\n      call\n      iszero\n      dup1\n      iszero\n      tag_119\n      jumpi\n      returndatasize\n      0x00\n      dup1\n      returndatacopy\n      revert(0x00, returndatasize)\n    tag_119:\n      pop\n      pop\n      pop\n      pop\n      mload(0x40)\n      returndatasize\n      not(0x1f)\n      0x1f\n      dup3\n      add\n      and\n      dup3\n      add\n      dup1\n      0x40\n      mstore\n      pop\n      dup2\n      add\n      swap1\n      tag_120\n      swap2\n      swap1\n      tag_101\n      jump\t// in\n    tag_120:\n      pop\n        /* \"SimpleDEX_flattened.sol\":8906:8912  tokenB */\n      0x02\n      0x00\n      swap1\n      sload\n      swap1\n      0x0100\n      exp\n      swap1\n      div\n      0xffffffffffffffffffffffffffffffffffffffff\n      and\n        /* \"SimpleDEX_flattened.sol\":8906:8925  tokenB.transferFrom */\n      0xffffffffffffffffffffffffffffffffffffffff\n      and\n      0x23b872dd\n        /* \"SimpleDEX_flattened.sol\":8926:8936  msg.sender */\n      caller\n        /* \"SimpleDEX_flattened.sol\":8946:8950  this */\n      address\n        /* \"SimpleDEX_flattened.sol\":8953:8960  amountB */\n      dup5\n        /* \"SimpleDEX_flattened.sol\":8906:8961  tokenB.transferFrom(msg.sender, address(this), amountB) */\n      mload(0x40)\n      dup5\n      0xffffffff\n      and\n      0xe0\n      shl\n      dup2\n      mstore\n      0x04\n      add\n      tag_121\n      swap4\n      swap3\n      swap2\n      swap1\n      tag_97\n      jump\t// in\n    tag_121:\n      0x20\n      mload(0x40)\n      dup1\n      dup4\n      sub\n      dup2\n      0x00\n      dup8\n      gas\n      call\n      iszero\n      dup1\n      iszero\n      tag_123\n      jumpi\n      returndatasize\n      0x00\n      dup1\n      returndatacopy\n      revert(0x00, returndatasize)\n    tag_123:\n      pop\n      pop\n      pop\n      pop\n      mload(0x40)\n      returndatasize\n      not(0x1f)\n      0x1f\n      dup3\n      add\n      and\n      dup3\n      add\n      dup1\n      0x40\n      mstore\n      pop\n      dup2\n      add\n      swap1\n      tag_124\n      swap2\n      swap1\n      tag_101\n      jump\t// in\n    tag_124:\n      pop\n        /* \"SimpleDEX_flattened.sol\":8977:9009  LiquidityAdded(amountA, amountB) */\n      0x38f8a0c92f4c5b0b6877f878cb4c0c8d348a47b76d716c8e78f425043df9515b\n        /* \"SimpleDEX_flattened.sol\":8992:8999  amountA */\n      dup3\n        /* \"SimpleDEX_flattened.sol\":9001:9008  amountB */\n      dup3\n        /* \"SimpleDEX_flattened.sol\":8977:9009  LiquidityAdded(amountA, amountB) */\n      mload(0x40)\n      tag_125\n      swap3\n      swap2\n      swap1\n      tag_108\n      jump\t// in\n    tag_125:\n      mload(0x40)\n      dup1\n      swap2\n      sub\n      swap1\n      log1\n        /* \"SimpleDEX_flattened.sol\":8679:9016  function addLiquidity(uint256 amountA, uint256 amountB) external onlyOwner {... */\n      pop\n      pop\n      jump\t// out\n        /* \"SimpleDEX_flattened.sol\":9225:9668  function removeLiquidity(uint256 amountA, uint256 amountB) external onlyOwner {... */\n    tag_43:\n        /* \"SimpleDEX_flattened.sol\":5247:5260  _checkOwner() */\n      tag_127\n        /* \"SimpleDEX_flattened.sol\":5247:5258  _checkOwner */\n      tag_74\n        /* \"SimpleDEX_flattened.sol\":5247:5260  _checkOwner() */\n      jump\t// in\n    tag_127:\n        /* \"SimpleDEX_flattened.sol\":9313:9329  uint256 balanceA */\n      0x00\n        /* \"SimpleDEX_flattened.sol\":9332:9338  tokenA */\n      0x01\n      0x00\n      swap1\n      sload\n      swap1\n      0x0100\n      exp\n      swap1\n      div\n      0xffffffffffffffffffffffffffffffffffffffff\n      and\n        /* \"SimpleDEX_flattened.sol\":9332:9348  tokenA.balanceOf */\n      0xffffffffffffffffffffffffffffffffffffffff\n      and\n      0x70a08231\n        /* \"SimpleDEX_flattened.sol\":9357:9361  this */\n      address\n        /* \"SimpleDEX_flattened.sol\":9332:9363  tokenA.balanceOf(address(this)) */\n      mload(0x40)\n      dup3\n      0xffffffff\n      and\n      0xe0\n      shl\n      dup2\n      mstore\n      0x04\n      add\n      tag_129\n      swap2\n      swap1\n      tag_36\n      jump\t// in\n    tag_129:\n      0x20\n      mload(0x40)\n      dup1\n      dup4\n      sub\n      dup2\n      dup7\n      gas\n      staticcall\n      iszero\n      dup1\n      iszero\n      tag_131\n      jumpi\n      returndatasize\n      0x00\n      dup1\n      returndatacopy\n      revert(0x00, returndatasize)\n    tag_131:\n      pop\n      pop\n      pop\n      pop\n      mload(0x40)\n      returndatasize\n      not(0x1f)\n      0x1f\n      dup3\n      add\n      and\n      dup3\n      add\n      dup1\n      0x40\n      mstore\n      pop\n      dup2\n      add\n      swap1\n      tag_132\n      swap2\n      swap1\n      tag_59\n      jump\t// in\n    tag_132:\n        /* \"SimpleDEX_flattened.sol\":9313:9363  uint256 balanceA = tokenA.balanceOf(address(this)) */\n      swap1\n      pop\n        /* \"SimpleDEX_flattened.sol\":9373:9389  uint256 balanceB */\n      0x00\n        /* \"SimpleDEX_flattened.sol\":9392:9398  tokenB */\n      0x02\n      0x00\n      swap1\n      sload\n      swap1\n      0x0100\n      exp\n      swap1\n      div\n      0xffffffffffffffffffffffffffffffffffffffff\n      and\n        /* \"SimpleDEX_flattened.sol\":9392:9408  tokenB.balanceOf */\n      0xffffffffffffffffffffffffffffffffffffffff\n      and\n      0x70a08231\n        /* \"SimpleDEX_flattened.sol\":9417:9421  this */\n      address\n        /* \"SimpleDEX_flattened.sol\":9392:9423  tokenB.balanceOf(address(this)) */\n      mload(0x40)\n      dup3\n      0xffffffff\n      and\n      0xe0\n      shl\n      dup2\n      mstore\n      0x04\n      add\n      tag_133\n      swap2\n      swap1\n      tag_36\n      jump\t// in\n    tag_133:\n      0x20\n      mload(0x40)\n      dup1\n      dup4\n      sub\n      dup2\n      dup7\n      gas\n      staticcall\n      iszero\n      dup1\n      iszero\n      tag_135\n      jumpi\n      returndatasize\n      0x00\n      dup1\n      returndatacopy\n      revert(0x00, returndatasize)\n    tag_135:\n      pop\n      pop\n      pop\n      pop\n      mload(0x40)\n      returndatasize\n      not(0x1f)\n      0x1f\n      dup3\n      add\n      and\n      dup3\n      add\n      dup1\n      0x40\n      mstore\n      pop\n      dup2\n      add\n      swap1\n      tag_136\n      swap2\n      swap1\n      tag_59\n      jump\t// in\n    tag_136:\n        /* \"SimpleDEX_flattened.sol\":9373:9423  uint256 balanceB = tokenB.balanceOf(address(this)) */\n      swap1\n      pop\n        /* \"SimpleDEX_flattened.sol\":9452:9460  balanceA */\n      dup2\n        /* \"SimpleDEX_flattened.sol\":9441:9448  amountA */\n      dup5\n        /* \"SimpleDEX_flattened.sol\":9441:9460  amountA <= balanceA */\n      gt\n      iszero\n        /* \"SimpleDEX_flattened.sol\":9441:9483  amountA <= balanceA && amountB <= balanceB */\n      dup1\n      iszero\n      tag_137\n      jumpi\n      pop\n        /* \"SimpleDEX_flattened.sol\":9475:9483  balanceB */\n      dup1\n        /* \"SimpleDEX_flattened.sol\":9464:9471  amountB */\n      dup4\n        /* \"SimpleDEX_flattened.sol\":9464:9483  amountB <= balanceB */\n      gt\n      iszero\n        /* \"SimpleDEX_flattened.sol\":9441:9483  amountA <= balanceA && amountB <= balanceB */\n    tag_137:\n        /* \"SimpleDEX_flattened.sol\":9433:9518  require(amountA <= balanceA && amountB <= balanceB, \"Not enough liquidity available\") */\n      tag_138\n      jumpi\n      mload(0x40)\n      0x08c379a000000000000000000000000000000000000000000000000000000000\n      dup2\n      mstore\n      0x04\n      add\n      tag_139\n      swap1\n      tag_140\n      jump\t// in\n    tag_139:\n      mload(0x40)\n      dup1\n      swap2\n      sub\n      swap1\n      revert\n    tag_138:\n        /* \"SimpleDEX_flattened.sol\":9529:9535  tokenA */\n      0x01\n      0x00\n      swap1\n      sload\n      swap1\n      0x0100\n      exp\n      swap1\n      div\n      0xffffffffffffffffffffffffffffffffffffffff\n      and\n        /* \"SimpleDEX_flattened.sol\":9529:9544  tokenA.transfer */\n      0xffffffffffffffffffffffffffffffffffffffff\n      and\n      0xa9059cbb\n        /* \"SimpleDEX_flattened.sol\":9545:9555  msg.sender */\n      caller\n        /* \"SimpleDEX_flattened.sol\":9557:9564  amountA */\n      dup7\n        /* \"SimpleDEX_flattened.sol\":9529:9565  tokenA.transfer(msg.sender, amountA) */\n      mload(0x40)\n      dup4\n      0xffffffff\n      and\n      0xe0\n      shl\n      dup2\n      mstore\n      0x04\n      add\n      tag_141\n      swap3\n      swap2\n      swap1\n      tag_103\n      jump\t// in\n    tag_141:\n      0x20\n      mload(0x40)\n      dup1\n      dup4\n      sub\n      dup2\n      0x00\n      dup8\n      gas\n      call\n      iszero\n      dup1\n      iszero\n      tag_143\n      jumpi\n      returndatasize\n      0x00\n      dup1\n      returndatacopy\n      revert(0x00, returndatasize)\n    tag_143:\n      pop\n      pop\n      pop\n      pop\n      mload(0x40)\n      returndatasize\n      not(0x1f)\n      0x1f\n      dup3\n      add\n      and\n      dup3\n      add\n      dup1\n      0x40\n      mstore\n      pop\n      dup2\n      add\n      swap1\n      tag_144\n      swap2\n      swap1\n      tag_101\n      jump\t// in\n    tag_144:\n      pop\n        /* \"SimpleDEX_flattened.sol\":9575:9581  tokenB */\n      0x02\n      0x00\n      swap1\n      sload\n      swap1\n      0x0100\n      exp\n      swap1\n      div\n      0xffffffffffffffffffffffffffffffffffffffff\n      and\n        /* \"SimpleDEX_flattened.sol\":9575:9590  tokenB.transfer */\n      0xffffffffffffffffffffffffffffffffffffffff\n      and\n      0xa9059cbb\n        /* \"SimpleDEX_flattened.sol\":9591:9601  msg.sender */\n      caller\n        /* \"SimpleDEX_flattened.sol\":9603:9610  amountB */\n      dup6\n        /* \"SimpleDEX_flattened.sol\":9575:9611  tokenB.transfer(msg.sender, amountB) */\n      mload(0x40)\n      dup4\n      0xffffffff\n      and\n      0xe0\n      shl\n      dup2\n      mstore\n      0x04\n      add\n      tag_145\n      swap3\n      swap2\n      swap1\n      tag_103\n      jump\t// in\n    tag_145:\n      0x20\n      mload(0x40)\n      dup1\n      dup4\n      sub\n      dup2\n      0x00\n      dup8\n      gas\n      call\n      iszero\n      dup1\n      iszero\n      tag_147\n      jumpi\n      returndatasize\n      0x00\n      dup1\n      returndatacopy\n      revert(0x00, returndatasize)\n    tag_147:\n      pop\n      pop\n      pop\n      pop\n      mload(0x40)\n      returndatasize\n      not(0x1f)\n      0x1f\n      dup3\n      add\n      and\n      dup3\n      add\n      dup1\n      0x40\n      mstore\n      pop\n      dup2\n      add\n      swap1\n      tag_148\n      swap2\n      swap1\n      tag_101\n      jump\t// in\n    tag_148:\n      pop\n        /* \"SimpleDEX_flattened.sol\":9627:9661  LiquidityRemoved(amountA, amountB) */\n      0x6f0f96292ae0038c04f9b6bab30f185d9ca02c471d0983f563f2a4f674aef137\n        /* \"SimpleDEX_flattened.sol\":9644:9651  amountA */\n      dup5\n        /* \"SimpleDEX_flattened.sol\":9653:9660  amountB */\n      dup5\n        /* \"SimpleDEX_flattened.sol\":9627:9661  LiquidityRemoved(amountA, amountB) */\n      mload(0x40)\n      tag_149\n      swap3\n      swap2\n      swap1\n      tag_108\n      jump\t// in\n    tag_149:\n      mload(0x40)\n      dup1\n      swap2\n      sub\n      swap1\n      log1\n        /* \"SimpleDEX_flattened.sol\":9303:9668  {... */\n      pop\n      pop\n        /* \"SimpleDEX_flattened.sol\":9225:9668  function removeLiquidity(uint256 amountA, uint256 amountB) external onlyOwner {... */\n      pop\n      pop\n      jump\t// out\n        /* \"SimpleDEX_flattened.sol\":9785:10348  function swapAforB(uint256 amountAIn) external {... */\n    tag_46:\n        /* \"SimpleDEX_flattened.sol\":9862:9863  0 */\n      0x00\n        /* \"SimpleDEX_flattened.sol\":9850:9859  amountAIn */\n      dup2\n        /* \"SimpleDEX_flattened.sol\":9850:9863  amountAIn > 0 */\n      gt\n        /* \"SimpleDEX_flattened.sol\":9842:9892  require(amountAIn > 0, \"Input amount must be > 0\") */\n      tag_151\n      jumpi\n      mload(0x40)\n      0x08c379a000000000000000000000000000000000000000000000000000000000\n      dup2\n      mstore\n      0x04\n      add\n      tag_152\n      swap1\n      tag_81\n      jump\t// in\n    tag_152:\n      mload(0x40)\n      dup1\n      swap2\n      sub\n      swap1\n      revert\n    tag_151:\n        /* \"SimpleDEX_flattened.sol\":9903:9919  uint256 balanceA */\n      0x00\n        /* \"SimpleDEX_flattened.sol\":9922:9928  tokenA */\n      0x01\n      0x00\n      swap1\n      sload\n      swap1\n      0x0100\n      exp\n      swap1\n      div\n      0xffffffffffffffffffffffffffffffffffffffff\n      and\n        /* \"SimpleDEX_flattened.sol\":9922:9938  tokenA.balanceOf */\n      0xffffffffffffffffffffffffffffffffffffffff\n      and\n      0x70a08231\n        /* \"SimpleDEX_flattened.sol\":9947:9951  this */\n      address\n        /* \"SimpleDEX_flattened.sol\":9922:9953  tokenA.balanceOf(address(this)) */\n      mload(0x40)\n      dup3\n      0xffffffff\n      and\n      0xe0\n      shl\n      dup2\n      mstore\n      0x04\n      add\n      tag_153\n      swap2\n      swap1\n      tag_36\n      jump\t// in\n    tag_153:\n      0x20\n      mload(0x40)\n      dup1\n      dup4\n      sub\n      dup2\n      dup7\n      gas\n      staticcall\n      iszero\n      dup1\n      iszero\n      tag_155\n      jumpi\n      returndatasize\n      0x00\n      dup1\n      returndatacopy\n      revert(0x00, returndatasize)\n    tag_155:\n      pop\n      pop\n      pop\n      pop\n      mload(0x40)\n      returndatasize\n      not(0x1f)\n      0x1f\n      dup3\n      add\n      and\n      dup3\n      add\n      dup1\n      0x40\n      mstore\n      pop\n      dup2\n      add\n      swap1\n      tag_156\n      swap2\n      swap1\n      tag_59\n      jump\t// in\n    tag_156:\n        /* \"SimpleDEX_flattened.sol\":9903:9953  uint256 balanceA = tokenA.balanceOf(address(this)) */\n      swap1\n      pop\n        /* \"SimpleDEX_flattened.sol\":9963:9979  uint256 balanceB */\n      0x00\n        /* \"SimpleDEX_flattened.sol\":9982:9988  tokenB */\n      0x02\n      0x00\n      swap1\n      sload\n      swap1\n      0x0100\n      exp\n      swap1\n      div\n      0xffffffffffffffffffffffffffffffffffffffff\n      and\n        /* \"SimpleDEX_flattened.sol\":9982:9998  tokenB.balanceOf */\n      0xffffffffffffffffffffffffffffffffffffffff\n      and\n      0x70a08231\n        /* \"SimpleDEX_flattened.sol\":10007:10011  this */\n      address\n        /* \"SimpleDEX_flattened.sol\":9982:10013  tokenB.balanceOf(address(this)) */\n      mload(0x40)\n      dup3\n      0xffffffff\n      and\n      0xe0\n      shl\n      dup2\n      mstore\n      0x04\n      add\n      tag_157\n      swap2\n      swap1\n      tag_36\n      jump\t// in\n    tag_157:\n      0x20\n      mload(0x40)\n      dup1\n      dup4\n      sub\n      dup2\n      dup7\n      gas\n      staticcall\n      iszero\n      dup1\n      iszero\n      tag_159\n      jumpi\n      returndatasize\n      0x00\n      dup1\n      returndatacopy\n      revert(0x00, returndatasize)\n    tag_159:\n      pop\n      pop\n      pop\n      pop\n      mload(0x40)\n      returndatasize\n      not(0x1f)\n      0x1f\n      dup3\n      add\n      and\n      dup3\n      add\n      dup1\n      0x40\n      mstore\n      pop\n      dup2\n      add\n      swap1\n      tag_160\n      swap2\n      swap1\n      tag_59\n      jump\t// in\n    tag_160:\n        /* \"SimpleDEX_flattened.sol\":9963:10013  uint256 balanceB = tokenB.balanceOf(address(this)) */\n      swap1\n      pop\n        /* \"SimpleDEX_flattened.sol\":10042:10043  0 */\n      0x00\n        /* \"SimpleDEX_flattened.sol\":10031:10039  balanceA */\n      dup3\n        /* \"SimpleDEX_flattened.sol\":10031:10043  balanceA > 0 */\n      gt\n        /* \"SimpleDEX_flattened.sol\":10031:10059  balanceA > 0 && balanceB > 0 */\n      dup1\n      iszero\n      tag_161\n      jumpi\n      pop\n        /* \"SimpleDEX_flattened.sol\":10058:10059  0 */\n      0x00\n        /* \"SimpleDEX_flattened.sol\":10047:10055  balanceB */\n      dup2\n        /* \"SimpleDEX_flattened.sol\":10047:10059  balanceB > 0 */\n      gt\n        /* \"SimpleDEX_flattened.sol\":10031:10059  balanceA > 0 && balanceB > 0 */\n    tag_161:\n        /* \"SimpleDEX_flattened.sol\":10023:10086  require(balanceA > 0 && balanceB > 0, \"Insufficient liquidity\") */\n      tag_162\n      jumpi\n      mload(0x40)\n      0x08c379a000000000000000000000000000000000000000000000000000000000\n      dup2\n      mstore\n      0x04\n      add\n      tag_163\n      swap1\n      tag_93\n      jump\t// in\n    tag_163:\n      mload(0x40)\n      dup1\n      swap2\n      sub\n      swap1\n      revert\n    tag_162:\n        /* \"SimpleDEX_flattened.sol\":10097:10115  uint256 amountBOut */\n      0x00\n        /* \"SimpleDEX_flattened.sol\":10118:10161  getAmountOut(amountAIn, balanceA, balanceB) */\n      tag_164\n        /* \"SimpleDEX_flattened.sol\":10131:10140  amountAIn */\n      dup5\n        /* \"SimpleDEX_flattened.sol\":10142:10150  balanceA */\n      dup5\n        /* \"SimpleDEX_flattened.sol\":10152:10160  balanceB */\n      dup5\n        /* \"SimpleDEX_flattened.sol\":10118:10130  getAmountOut */\n      tag_95\n        /* \"SimpleDEX_flattened.sol\":10118:10161  getAmountOut(amountAIn, balanceA, balanceB) */\n      jump\t// in\n    tag_164:\n        /* \"SimpleDEX_flattened.sol\":10097:10161  uint256 amountBOut = getAmountOut(amountAIn, balanceA, balanceB) */\n      swap1\n      pop\n        /* \"SimpleDEX_flattened.sol\":10172:10178  tokenA */\n      0x01\n      0x00\n      swap1\n      sload\n      swap1\n      0x0100\n      exp\n      swap1\n      div\n      0xffffffffffffffffffffffffffffffffffffffff\n      and\n        /* \"SimpleDEX_flattened.sol\":10172:10191  tokenA.transferFrom */\n      0xffffffffffffffffffffffffffffffffffffffff\n      and\n      0x23b872dd\n        /* \"SimpleDEX_flattened.sol\":10192:10202  msg.sender */\n      caller\n        /* \"SimpleDEX_flattened.sol\":10212:10216  this */\n      address\n        /* \"SimpleDEX_flattened.sol\":10219:10228  amountAIn */\n      dup8\n        /* \"SimpleDEX_flattened.sol\":10172:10229  tokenA.transferFrom(msg.sender, address(this), amountAIn) */\n      mload(0x40)\n      dup5\n      0xffffffff\n      and\n      0xe0\n      shl\n      dup2\n      mstore\n      0x04\n      add\n      tag_165\n      swap4\n      swap3\n      swap2\n      swap1\n      tag_97\n      jump\t// in\n    tag_165:\n      0x20\n      mload(0x40)\n      dup1\n      dup4\n      sub\n      dup2\n      0x00\n      dup8\n      gas\n      call\n      iszero\n      dup1\n      iszero\n      tag_167\n      jumpi\n      returndatasize\n      0x00\n      dup1\n      returndatacopy\n      revert(0x00, returndatasize)\n    tag_167:\n      pop\n      pop\n      pop\n      pop\n      mload(0x40)\n      returndatasize\n      not(0x1f)\n      0x1f\n      dup3\n      add\n      and\n      dup3\n      add\n      dup1\n      0x40\n      mstore\n      pop\n      dup2\n      add\n      swap1\n      tag_168\n      swap2\n      swap1\n      tag_101\n      jump\t// in\n    tag_168:\n      pop\n        /* \"SimpleDEX_flattened.sol\":10239:10245  tokenB */\n      0x02\n      0x00\n      swap1\n      sload\n      swap1\n      0x0100\n      exp\n      swap1\n      div\n      0xffffffffffffffffffffffffffffffffffffffff\n      and\n        /* \"SimpleDEX_flattened.sol\":10239:10254  tokenB.transfer */\n      0xffffffffffffffffffffffffffffffffffffffff\n      and\n      0xa9059cbb\n        /* \"SimpleDEX_flattened.sol\":10255:10265  msg.sender */\n      caller\n        /* \"SimpleDEX_flattened.sol\":10267:10277  amountBOut */\n      dup4\n        /* \"SimpleDEX_flattened.sol\":10239:10278  tokenB.transfer(msg.sender, amountBOut) */\n      mload(0x40)\n      dup4\n      0xffffffff\n      and\n      0xe0\n      shl\n      dup2\n      mstore\n      0x04\n      add\n      tag_169\n      swap3\n      swap2\n      swap1\n      tag_103\n      jump\t// in\n    tag_169:\n      0x20\n      mload(0x40)\n      dup1\n      dup4\n      sub\n      dup2\n      0x00\n      dup8\n      gas\n      call\n      iszero\n      dup1\n      iszero\n      tag_171\n      jumpi\n      returndatasize\n      0x00\n      dup1\n      returndatacopy\n      revert(0x00, returndatasize)\n    tag_171:\n      pop\n      pop\n      pop\n      pop\n      mload(0x40)\n      returndatasize\n      not(0x1f)\n      0x1f\n      dup3\n      add\n      and\n      dup3\n      add\n      dup1\n      0x40\n      mstore\n      pop\n      dup2\n      add\n      swap1\n      tag_172\n      swap2\n      swap1\n      tag_101\n      jump\t// in\n    tag_172:\n      pop\n        /* \"SimpleDEX_flattened.sol\":10307:10317  msg.sender */\n      caller\n        /* \"SimpleDEX_flattened.sol\":10294:10341  TokenSwapped(msg.sender, amountAIn, amountBOut) */\n      0xffffffffffffffffffffffffffffffffffffffff\n      and\n      0xd5a1cd88ddd329cc1ddf861a21708efa9ef3136b88e1420c21f91ef6f95ad024\n        /* \"SimpleDEX_flattened.sol\":10319:10328  amountAIn */\n      dup6\n        /* \"SimpleDEX_flattened.sol\":10330:10340  amountBOut */\n      dup4\n        /* \"SimpleDEX_flattened.sol\":10294:10341  TokenSwapped(msg.sender, amountAIn, amountBOut) */\n      mload(0x40)\n      tag_173\n      swap3\n      swap2\n      swap1\n      tag_108\n      jump\t// in\n    tag_173:\n      mload(0x40)\n      dup1\n      swap2\n      sub\n      swap1\n      log2\n        /* \"SimpleDEX_flattened.sol\":9832:10348  {... */\n      pop\n      pop\n      pop\n        /* \"SimpleDEX_flattened.sol\":9785:10348  function swapAforB(uint256 amountAIn) external {... */\n      pop\n      jump\t// out\n        /* \"SimpleDEX_flattened.sol\":6259:6474  function transferOwnership(address newOwner) public virtual onlyOwner {... */\n    tag_49:\n        /* \"SimpleDEX_flattened.sol\":5247:5260  _checkOwner() */\n      tag_175\n        /* \"SimpleDEX_flattened.sol\":5247:5258  _checkOwner */\n      tag_74\n        /* \"SimpleDEX_flattened.sol\":5247:5260  _checkOwner() */\n      jump\t// in\n    tag_175:\n        /* \"SimpleDEX_flattened.sol\":6363:6364  0 */\n      0x00\n        /* \"SimpleDEX_flattened.sol\":6343:6365  newOwner == address(0) */\n      0xffffffffffffffffffffffffffffffffffffffff\n      and\n        /* \"SimpleDEX_flattened.sol\":6343:6351  newOwner */\n      dup2\n        /* \"SimpleDEX_flattened.sol\":6343:6365  newOwner == address(0) */\n      0xffffffffffffffffffffffffffffffffffffffff\n      and\n      sub\n        /* \"SimpleDEX_flattened.sol\":6339:6430  if (newOwner == address(0)) {... */\n      tag_177\n      jumpi\n        /* \"SimpleDEX_flattened.sol\":6416:6417  0 */\n      0x00\n        /* \"SimpleDEX_flattened.sol\":6388:6419  OwnableInvalidOwner(address(0)) */\n      mload(0x40)\n      0x1e4fbdf700000000000000000000000000000000000000000000000000000000\n      dup2\n      mstore\n      0x04\n      add\n      tag_178\n      swap2\n      swap1\n      tag_36\n      jump\t// in\n    tag_178:\n      mload(0x40)\n      dup1\n      swap2\n      sub\n      swap1\n      revert\n        /* \"SimpleDEX_flattened.sol\":6339:6430  if (newOwner == address(0)) {... */\n    tag_177:\n        /* \"SimpleDEX_flattened.sol\":6439:6467  _transferOwnership(newOwner) */\n      tag_179\n        /* \"SimpleDEX_flattened.sol\":6458:6466  newOwner */\n      dup2\n        /* \"SimpleDEX_flattened.sol\":6439:6457  _transferOwnership */\n      tag_77\n        /* \"SimpleDEX_flattened.sol\":6439:6467  _transferOwnership(newOwner) */\n      jump\t// in\n    tag_179:\n        /* \"SimpleDEX_flattened.sol\":6259:6474  function transferOwnership(address newOwner) public virtual onlyOwner {... */\n      pop\n      jump\t// out\n        /* \"SimpleDEX_flattened.sol\":5512:5674  function _checkOwner() internal view virtual {... */\n    tag_74:\n        /* \"SimpleDEX_flattened.sol\":5582:5594  _msgSender() */\n      tag_181\n        /* \"SimpleDEX_flattened.sol\":5582:5592  _msgSender */\n      tag_182\n        /* \"SimpleDEX_flattened.sol\":5582:5594  _msgSender() */\n      jump\t// in\n    tag_181:\n        /* \"SimpleDEX_flattened.sol\":5571:5594  owner() != _msgSender() */\n      0xffffffffffffffffffffffffffffffffffffffff\n      and\n        /* \"SimpleDEX_flattened.sol\":5571:5578  owner() */\n      tag_183\n        /* \"SimpleDEX_flattened.sol\":5571:5576  owner */\n      tag_34\n        /* \"SimpleDEX_flattened.sol\":5571:5578  owner() */\n      jump\t// in\n    tag_183:\n        /* \"SimpleDEX_flattened.sol\":5571:5594  owner() != _msgSender() */\n      0xffffffffffffffffffffffffffffffffffffffff\n      and\n      eq\n        /* \"SimpleDEX_flattened.sol\":5567:5668  if (owner() != _msgSender()) {... */\n      tag_184\n      jumpi\n        /* \"SimpleDEX_flattened.sol\":5644:5656  _msgSender() */\n      tag_185\n        /* \"SimpleDEX_flattened.sol\":5644:5654  _msgSender */\n      tag_182\n        /* \"SimpleDEX_flattened.sol\":5644:5656  _msgSender() */\n      jump\t// in\n    tag_185:\n        /* \"SimpleDEX_flattened.sol\":5617:5657  OwnableUnauthorizedAccount(_msgSender()) */\n      mload(0x40)\n      0x118cdaa700000000000000000000000000000000000000000000000000000000\n      dup2\n      mstore\n      0x04\n      add\n      tag_186\n      swap2\n      swap1\n      tag_36\n      jump\t// in\n    tag_186:\n      mload(0x40)\n      dup1\n      swap2\n      sub\n      swap1\n      revert\n        /* \"SimpleDEX_flattened.sol\":5567:5668  if (owner() != _msgSender()) {... */\n    tag_184:\n        /* \"SimpleDEX_flattened.sol\":5512:5674  function _checkOwner() internal view virtual {... */\n      jump\t// out\n        /* \"SimpleDEX_flattened.sol\":6628:6815  function _transferOwnership(address newOwner) internal virtual {... */\n    tag_77:\n        /* \"SimpleDEX_flattened.sol\":6701:6717  address oldOwner */\n      0x00\n        /* \"SimpleDEX_flattened.sol\":6720:6726  _owner */\n      dup1\n      0x00\n      swap1\n      sload\n      swap1\n      0x0100\n      exp\n      swap1\n      div\n      0xffffffffffffffffffffffffffffffffffffffff\n      and\n        /* \"SimpleDEX_flattened.sol\":6701:6726  address oldOwner = _owner */\n      swap1\n      pop\n        /* \"SimpleDEX_flattened.sol\":6745:6753  newOwner */\n      dup2\n        /* \"SimpleDEX_flattened.sol\":6736:6742  _owner */\n      0x00\n      dup1\n        /* \"SimpleDEX_flattened.sol\":6736:6753  _owner = newOwner */\n      0x0100\n      exp\n      dup2\n      sload\n      dup2\n      0xffffffffffffffffffffffffffffffffffffffff\n      mul\n      not\n      and\n      swap1\n      dup4\n      0xffffffffffffffffffffffffffffffffffffffff\n      and\n      mul\n      or\n      swap1\n      sstore\n      pop\n        /* \"SimpleDEX_flattened.sol\":6799:6807  newOwner */\n      dup2\n        /* \"SimpleDEX_flattened.sol\":6768:6808  OwnershipTransferred(oldOwner, newOwner) */\n      0xffffffffffffffffffffffffffffffffffffffff\n      and\n        /* \"SimpleDEX_flattened.sol\":6789:6797  oldOwner */\n      dup2\n        /* \"SimpleDEX_flattened.sol\":6768:6808  OwnershipTransferred(oldOwner, newOwner) */\n      0xffffffffffffffffffffffffffffffffffffffff\n      and\n      0x8be0079c531659141344cd1fd0a4f28419497f9722a3daafe3b4186f6b6457e0\n      mload(0x40)\n      mload(0x40)\n      dup1\n      swap2\n      sub\n      swap1\n      log3\n        /* \"SimpleDEX_flattened.sol\":6691:6815  {... */\n      pop\n        /* \"SimpleDEX_flattened.sol\":6628:6815  function _transferOwnership(address newOwner) internal virtual {... */\n      pop\n      jump\t// out\n        /* \"SimpleDEX_flattened.sol\":11939:12196  function getAmountOut(uint256 amountIn, uint256 reserveIn, uint256 reserveOut) private pure returns (uint256) {... */\n    tag_95:\n        /* \"SimpleDEX_flattened.sol\":12040:12047  uint256 */\n      0x00\n        /* \"SimpleDEX_flattened.sol\":12079:12080  0 */\n      dup1\n        /* \"SimpleDEX_flattened.sol\":12067:12076  reserveIn */\n      dup4\n        /* \"SimpleDEX_flattened.sol\":12067:12080  reserveIn > 0 */\n      gt\n        /* \"SimpleDEX_flattened.sol\":12067:12098  reserveIn > 0 && reserveOut > 0 */\n      dup1\n      iszero\n      tag_189\n      jumpi\n      pop\n        /* \"SimpleDEX_flattened.sol\":12097:12098  0 */\n      0x00\n        /* \"SimpleDEX_flattened.sol\":12084:12094  reserveOut */\n      dup3\n        /* \"SimpleDEX_flattened.sol\":12084:12098  reserveOut > 0 */\n      gt\n        /* \"SimpleDEX_flattened.sol\":12067:12098  reserveIn > 0 && reserveOut > 0 */\n    tag_189:\n        /* \"SimpleDEX_flattened.sol\":12059:12124  require(reserveIn > 0 && reserveOut > 0, \"Insufficient reserves\") */\n      tag_190\n      jumpi\n      mload(0x40)\n      0x08c379a000000000000000000000000000000000000000000000000000000000\n      dup2\n      mstore\n      0x04\n      add\n      tag_191\n      swap1\n      tag_192\n      jump\t// in\n    tag_191:\n      mload(0x40)\n      dup1\n      swap2\n      sub\n      swap1\n      revert\n    tag_190:\n        /* \"SimpleDEX_flattened.sol\":12180:12188  amountIn */\n      dup4\n        /* \"SimpleDEX_flattened.sol\":12168:12177  reserveIn */\n      dup4\n        /* \"SimpleDEX_flattened.sol\":12168:12188  reserveIn + amountIn */\n      tag_193\n      swap2\n      swap1\n      tag_194\n      jump\t// in\n    tag_193:\n        /* \"SimpleDEX_flattened.sol\":12153:12163  reserveOut */\n      dup3\n        /* \"SimpleDEX_flattened.sol\":12142:12150  amountIn */\n      dup6\n        /* \"SimpleDEX_flattened.sol\":12142:12163  amountIn * reserveOut */\n      tag_195\n      swap2\n      swap1\n      tag_66\n      jump\t// in\n    tag_195:\n        /* \"SimpleDEX_flattened.sol\":12141:12189  (amountIn * reserveOut) / (reserveIn + amountIn) */\n      tag_196\n      swap2\n      swap1\n      tag_68\n      jump\t// in\n    tag_196:\n        /* \"SimpleDEX_flattened.sol\":12134:12189  return (amountIn * reserveOut) / (reserveIn + amountIn) */\n      swap1\n      pop\n        /* \"SimpleDEX_flattened.sol\":11939:12196  function getAmountOut(uint256 amountIn, uint256 reserveIn, uint256 reserveOut) private pure returns (uint256) {... */\n      swap4\n      swap3\n      pop\n      pop\n      pop\n      jump\t// out\n        /* \"SimpleDEX_flattened.sol\":3459:3555  function _msgSender() internal view virtual returns (address) {... */\n    tag_182:\n        /* \"SimpleDEX_flattened.sol\":3512:3519  address */\n      0x00\n        /* \"SimpleDEX_flattened.sol\":3538:3548  msg.sender */\n      caller\n        /* \"SimpleDEX_flattened.sol\":3531:3548  return msg.sender */\n      swap1\n      pop\n        /* \"SimpleDEX_flattened.sol\":3459:3555  function _msgSender() internal view virtual returns (address) {... */\n      swap1\n      jump\t// out\n        /* \"#utility.yul\":7:133   */\n    tag_198:\n        /* \"#utility.yul\":44:51   */\n      0x00\n        /* \"#utility.yul\":84:126   */\n      0xffffffffffffffffffffffffffffffffffffffff\n        /* \"#utility.yul\":77:82   */\n      dup3\n        /* \"#utility.yul\":73:127   */\n      and\n        /* \"#utility.yul\":62:127   */\n      swap1\n      pop\n        /* \"#utility.yul\":7:133   */\n      swap2\n      swap1\n      pop\n      jump\t// out\n        /* \"#utility.yul\":139:199   */\n    tag_199:\n        /* \"#utility.yul\":167:170   */\n      0x00\n        /* \"#utility.yul\":188:193   */\n      dup2\n        /* \"#utility.yul\":181:193   */\n      swap1\n      pop\n        /* \"#utility.yul\":139:199   */\n      swap2\n      swap1\n      pop\n      jump\t// out\n        /* \"#utility.yul\":205:347   */\n    tag_200:\n        /* \"#utility.yul\":255:264   */\n      0x00\n        /* \"#utility.yul\":288:341   */\n      tag_238\n        /* \"#utility.yul\":306:340   */\n      tag_239\n        /* \"#utility.yul\":315:339   */\n      tag_240\n        /* \"#utility.yul\":333:338   */\n      dup5\n        /* \"#utility.yul\":315:339   */\n      tag_198\n      jump\t// in\n    tag_240:\n        /* \"#utility.yul\":306:340   */\n      tag_199\n      jump\t// in\n    tag_239:\n        /* \"#utility.yul\":288:341   */\n      tag_198\n      jump\t// in\n    tag_238:\n        /* \"#utility.yul\":275:341   */\n      swap1\n      pop\n        /* \"#utility.yul\":205:347   */\n      swap2\n      swap1\n      pop\n      jump\t// out\n        /* \"#utility.yul\":353:479   */\n    tag_201:\n        /* \"#utility.yul\":403:412   */\n      0x00\n        /* \"#utility.yul\":436:473   */\n      tag_242\n        /* \"#utility.yul\":467:472   */\n      dup3\n        /* \"#utility.yul\":436:473   */\n      tag_200\n      jump\t// in\n    tag_242:\n        /* \"#utility.yul\":423:473   */\n      swap1\n      pop\n        /* \"#utility.yul\":353:479   */\n      swap2\n      swap1\n      pop\n      jump\t// out\n        /* \"#utility.yul\":485:624   */\n    tag_202:\n        /* \"#utility.yul\":548:557   */\n      0x00\n        /* \"#utility.yul\":581:618   */\n      tag_244\n        /* \"#utility.yul\":612:617   */\n      dup3\n        /* \"#utility.yul\":581:618   */\n      tag_201\n      jump\t// in\n    tag_244:\n        /* \"#utility.yul\":568:618   */\n      swap1\n      pop\n        /* \"#utility.yul\":485:624   */\n      swap2\n      swap1\n      pop\n      jump\t// out\n        /* \"#utility.yul\":630:787   */\n    tag_203:\n        /* \"#utility.yul\":730:780   */\n      tag_246\n        /* \"#utility.yul\":774:779   */\n      dup2\n        /* \"#utility.yul\":730:780   */\n      tag_202\n      jump\t// in\n    tag_246:\n        /* \"#utility.yul\":725:728   */\n      dup3\n        /* \"#utility.yul\":718:781   */\n      mstore\n        /* \"#utility.yul\":630:787   */\n      pop\n      pop\n      jump\t// out\n        /* \"#utility.yul\":793:1041   */\n    tag_17:\n        /* \"#utility.yul\":899:903   */\n      0x00\n        /* \"#utility.yul\":937:939   */\n      0x20\n        /* \"#utility.yul\":926:935   */\n      dup3\n        /* \"#utility.yul\":922:940   */\n      add\n        /* \"#utility.yul\":914:940   */\n      swap1\n      pop\n        /* \"#utility.yul\":950:1034   */\n      tag_248\n        /* \"#utility.yul\":1031:1032   */\n      0x00\n        /* \"#utility.yul\":1020:1029   */\n      dup4\n        /* \"#utility.yul\":1016:1033   */\n      add\n        /* \"#utility.yul\":1007:1013   */\n      dup5\n        /* \"#utility.yul\":950:1034   */\n      tag_203\n      jump\t// in\n    tag_248:\n        /* \"#utility.yul\":793:1041   */\n      swap3\n      swap2\n      pop\n      pop\n      jump\t// out\n        /* \"#utility.yul\":1128:1245   */\n    tag_205:\n        /* \"#utility.yul\":1237:1238   */\n      0x00\n        /* \"#utility.yul\":1234:1235   */\n      dup1\n        /* \"#utility.yul\":1227:1239   */\n      revert\n        /* \"#utility.yul\":1374:1470   */\n    tag_207:\n        /* \"#utility.yul\":1411:1418   */\n      0x00\n        /* \"#utility.yul\":1440:1464   */\n      tag_253\n        /* \"#utility.yul\":1458:1463   */\n      dup3\n        /* \"#utility.yul\":1440:1464   */\n      tag_198\n      jump\t// in\n    tag_253:\n        /* \"#utility.yul\":1429:1464   */\n      swap1\n      pop\n        /* \"#utility.yul\":1374:1470   */\n      swap2\n      swap1\n      pop\n      jump\t// out\n        /* \"#utility.yul\":1476:1598   */\n    tag_208:\n        /* \"#utility.yul\":1549:1573   */\n      tag_255\n        /* \"#utility.yul\":1567:1572   */\n      dup2\n        /* \"#utility.yul\":1549:1573   */\n      tag_207\n      jump\t// in\n    tag_255:\n        /* \"#utility.yul\":1542:1547   */\n      dup2\n        /* \"#utility.yul\":1539:1574   */\n      eq\n        /* \"#utility.yul\":1529:1592   */\n      tag_256\n      jumpi\n        /* \"#utility.yul\":1588:1589   */\n      0x00\n        /* \"#utility.yul\":1585:1586   */\n      dup1\n        /* \"#utility.yul\":1578:1590   */\n      revert\n        /* \"#utility.yul\":1529:1592   */\n    tag_256:\n        /* \"#utility.yul\":1476:1598   */\n      pop\n      jump\t// out\n        /* \"#utility.yul\":1604:1743   */\n    tag_209:\n        /* \"#utility.yul\":1650:1655   */\n      0x00\n        /* \"#utility.yul\":1688:1694   */\n      dup2\n        /* \"#utility.yul\":1675:1695   */\n      calldataload\n        /* \"#utility.yul\":1666:1695   */\n      swap1\n      pop\n        /* \"#utility.yul\":1704:1737   */\n      tag_258\n        /* \"#utility.yul\":1731:1736   */\n      dup2\n        /* \"#utility.yul\":1704:1737   */\n      tag_208\n      jump\t// in\n    tag_258:\n        /* \"#utility.yul\":1604:1743   */\n      swap3\n      swap2\n      pop\n      pop\n      jump\t// out\n        /* \"#utility.yul\":1749:2078   */\n    tag_20:\n        /* \"#utility.yul\":1808:1814   */\n      0x00\n        /* \"#utility.yul\":1857:1859   */\n      0x20\n        /* \"#utility.yul\":1845:1854   */\n      dup3\n        /* \"#utility.yul\":1836:1843   */\n      dup5\n        /* \"#utility.yul\":1832:1855   */\n      sub\n        /* \"#utility.yul\":1828:1860   */\n      slt\n        /* \"#utility.yul\":1825:1944   */\n      iszero\n      tag_260\n      jumpi\n        /* \"#utility.yul\":1863:1942   */\n      tag_261\n      tag_205\n      jump\t// in\n    tag_261:\n        /* \"#utility.yul\":1825:1944   */\n    tag_260:\n        /* \"#utility.yul\":1983:1984   */\n      0x00\n        /* \"#utility.yul\":2008:2061   */\n      tag_262\n        /* \"#utility.yul\":2053:2060   */\n      dup5\n        /* \"#utility.yul\":2044:2050   */\n      dup3\n        /* \"#utility.yul\":2033:2042   */\n      dup6\n        /* \"#utility.yul\":2029:2051   */\n      add\n        /* \"#utility.yul\":2008:2061   */\n      tag_209\n      jump\t// in\n    tag_262:\n        /* \"#utility.yul\":1998:2061   */\n      swap2\n      pop\n        /* \"#utility.yul\":1954:2071   */\n      pop\n        /* \"#utility.yul\":1749:2078   */\n      swap3\n      swap2\n      pop\n      pop\n      jump\t// out\n        /* \"#utility.yul\":2084:2161   */\n    tag_210:\n        /* \"#utility.yul\":2121:2128   */\n      0x00\n        /* \"#utility.yul\":2150:2155   */\n      dup2\n        /* \"#utility.yul\":2139:2155   */\n      swap1\n      pop\n        /* \"#utility.yul\":2084:2161   */\n      swap2\n      swap1\n      pop\n      jump\t// out\n        /* \"#utility.yul\":2167:2285   */\n    tag_211:\n        /* \"#utility.yul\":2254:2278   */\n      tag_265\n        /* \"#utility.yul\":2272:2277   */\n      dup2\n        /* \"#utility.yul\":2254:2278   */\n      tag_210\n      jump\t// in\n    tag_265:\n        /* \"#utility.yul\":2249:2252   */\n      dup3\n        /* \"#utility.yul\":2242:2279   */\n      mstore\n        /* \"#utility.yul\":2167:2285   */\n      pop\n      pop\n      jump\t// out\n        /* \"#utility.yul\":2291:2513   */\n    tag_23:\n        /* \"#utility.yul\":2384:2388   */\n      0x00\n        /* \"#utility.yul\":2422:2424   */\n      0x20\n        /* \"#utility.yul\":2411:2420   */\n      dup3\n        /* \"#utility.yul\":2407:2425   */\n      add\n        /* \"#utility.yul\":2399:2425   */\n      swap1\n      pop\n        /* \"#utility.yul\":2435:2506   */\n      tag_267\n        /* \"#utility.yul\":2503:2504   */\n      0x00\n        /* \"#utility.yul\":2492:2501   */\n      dup4\n        /* \"#utility.yul\":2488:2505   */\n      add\n        /* \"#utility.yul\":2479:2485   */\n      dup5\n        /* \"#utility.yul\":2435:2506   */\n      tag_211\n      jump\t// in\n    tag_267:\n        /* \"#utility.yul\":2291:2513   */\n      swap3\n      swap2\n      pop\n      pop\n      jump\t// out\n        /* \"#utility.yul\":2519:2641   */\n    tag_212:\n        /* \"#utility.yul\":2592:2616   */\n      tag_269\n        /* \"#utility.yul\":2610:2615   */\n      dup2\n        /* \"#utility.yul\":2592:2616   */\n      tag_210\n      jump\t// in\n    tag_269:\n        /* \"#utility.yul\":2585:2590   */\n      dup2\n        /* \"#utility.yul\":2582:2617   */\n      eq\n        /* \"#utility.yul\":2572:2635   */\n      tag_270\n      jumpi\n        /* \"#utility.yul\":2631:2632   */\n      0x00\n        /* \"#utility.yul\":2628:2629   */\n      dup1\n        /* \"#utility.yul\":2621:2633   */\n      revert\n        /* \"#utility.yul\":2572:2635   */\n    tag_270:\n        /* \"#utility.yul\":2519:2641   */\n      pop\n      jump\t// out\n        /* \"#utility.yul\":2647:2786   */\n    tag_213:\n        /* \"#utility.yul\":2693:2698   */\n      0x00\n        /* \"#utility.yul\":2731:2737   */\n      dup2\n        /* \"#utility.yul\":2718:2738   */\n      calldataload\n        /* \"#utility.yul\":2709:2738   */\n      swap1\n      pop\n        /* \"#utility.yul\":2747:2780   */\n      tag_272\n        /* \"#utility.yul\":2774:2779   */\n      dup2\n        /* \"#utility.yul\":2747:2780   */\n      tag_212\n      jump\t// in\n    tag_272:\n        /* \"#utility.yul\":2647:2786   */\n      swap3\n      swap2\n      pop\n      pop\n      jump\t// out\n        /* \"#utility.yul\":2792:3121   */\n    tag_31:\n        /* \"#utility.yul\":2851:2857   */\n      0x00\n        /* \"#utility.yul\":2900:2902   */\n      0x20\n        /* \"#utility.yul\":2888:2897   */\n      dup3\n        /* \"#utility.yul\":2879:2886   */\n      dup5\n        /* \"#utility.yul\":2875:2898   */\n      sub\n        /* \"#utility.yul\":2871:2903   */\n      slt\n        /* \"#utility.yul\":2868:2987   */\n      iszero\n      tag_274\n      jumpi\n        /* \"#utility.yul\":2906:2985   */\n      tag_275\n      tag_205\n      jump\t// in\n    tag_275:\n        /* \"#utility.yul\":2868:2987   */\n    tag_274:\n        /* \"#utility.yul\":3026:3027   */\n      0x00\n        /* \"#utility.yul\":3051:3104   */\n      tag_276\n        /* \"#utility.yul\":3096:3103   */\n      dup5\n        /* \"#utility.yul\":3087:3093   */\n      dup3\n        /* \"#utility.yul\":3076:3085   */\n      dup6\n        /* \"#utility.yul\":3072:3094   */\n      add\n        /* \"#utility.yul\":3051:3104   */\n      tag_213\n      jump\t// in\n    tag_276:\n        /* \"#utility.yul\":3041:3104   */\n      swap2\n      pop\n        /* \"#utility.yul\":2997:3114   */\n      pop\n        /* \"#utility.yul\":2792:3121   */\n      swap3\n      swap2\n      pop\n      pop\n      jump\t// out\n        /* \"#utility.yul\":3127:3245   */\n    tag_214:\n        /* \"#utility.yul\":3214:3238   */\n      tag_278\n        /* \"#utility.yul\":3232:3237   */\n      dup2\n        /* \"#utility.yul\":3214:3238   */\n      tag_207\n      jump\t// in\n    tag_278:\n        /* \"#utility.yul\":3209:3212   */\n      dup3\n        /* \"#utility.yul\":3202:3239   */\n      mstore\n        /* \"#utility.yul\":3127:3245   */\n      pop\n      pop\n      jump\t// out\n        /* \"#utility.yul\":3251:3473   */\n    tag_36:\n        /* \"#utility.yul\":3344:3348   */\n      0x00\n        /* \"#utility.yul\":3382:3384   */\n      0x20\n        /* \"#utility.yul\":3371:3380   */\n      dup3\n        /* \"#utility.yul\":3367:3385   */\n      add\n        /* \"#utility.yul\":3359:3385   */\n      swap1\n      pop\n        /* \"#utility.yul\":3395:3466   */\n      tag_280\n        /* \"#utility.yul\":3463:3464   */\n      0x00\n        /* \"#utility.yul\":3452:3461   */\n      dup4\n        /* \"#utility.yul\":3448:3465   */\n      add\n        /* \"#utility.yul\":3439:3445   */\n      dup5\n        /* \"#utility.yul\":3395:3466   */\n      tag_214\n      jump\t// in\n    tag_280:\n        /* \"#utility.yul\":3251:3473   */\n      swap3\n      swap2\n      pop\n      pop\n      jump\t// out\n        /* \"#utility.yul\":3479:3953   */\n    tag_39:\n        /* \"#utility.yul\":3547:3553   */\n      0x00\n        /* \"#utility.yul\":3555:3561   */\n      dup1\n        /* \"#utility.yul\":3604:3606   */\n      0x40\n        /* \"#utility.yul\":3592:3601   */\n      dup4\n        /* \"#utility.yul\":3583:3590   */\n      dup6\n        /* \"#utility.yul\":3579:3602   */\n      sub\n        /* \"#utility.yul\":3575:3607   */\n      slt\n        /* \"#utility.yul\":3572:3691   */\n      iszero\n      tag_282\n      jumpi\n        /* \"#utility.yul\":3610:3689   */\n      tag_283\n      tag_205\n      jump\t// in\n    tag_283:\n        /* \"#utility.yul\":3572:3691   */\n    tag_282:\n        /* \"#utility.yul\":3730:3731   */\n      0x00\n        /* \"#utility.yul\":3755:3808   */\n      tag_284\n        /* \"#utility.yul\":3800:3807   */\n      dup6\n        /* \"#utility.yul\":3791:3797   */\n      dup3\n        /* \"#utility.yul\":3780:3789   */\n      dup7\n        /* \"#utility.yul\":3776:3798   */\n      add\n        /* \"#utility.yul\":3755:3808   */\n      tag_213\n      jump\t// in\n    tag_284:\n        /* \"#utility.yul\":3745:3808   */\n      swap3\n      pop\n        /* \"#utility.yul\":3701:3818   */\n      pop\n        /* \"#utility.yul\":3857:3859   */\n      0x20\n        /* \"#utility.yul\":3883:3936   */\n      tag_285\n        /* \"#utility.yul\":3928:3935   */\n      dup6\n        /* \"#utility.yul\":3919:3925   */\n      dup3\n        /* \"#utility.yul\":3908:3917   */\n      dup7\n        /* \"#utility.yul\":3904:3926   */\n      add\n        /* \"#utility.yul\":3883:3936   */\n      tag_213\n      jump\t// in\n    tag_285:\n        /* \"#utility.yul\":3873:3936   */\n      swap2\n      pop\n        /* \"#utility.yul\":3828:3946   */\n      pop\n        /* \"#utility.yul\":3479:3953   */\n      swap3\n      pop\n      swap3\n      swap1\n      pop\n      jump\t// out\n        /* \"#utility.yul\":3959:4128   */\n    tag_215:\n        /* \"#utility.yul\":4043:4054   */\n      0x00\n        /* \"#utility.yul\":4077:4083   */\n      dup3\n        /* \"#utility.yul\":4072:4075   */\n      dup3\n        /* \"#utility.yul\":4065:4084   */\n      mstore\n        /* \"#utility.yul\":4117:4121   */\n      0x20\n        /* \"#utility.yul\":4112:4115   */\n      dup3\n        /* \"#utility.yul\":4108:4122   */\n      add\n        /* \"#utility.yul\":4093:4122   */\n      swap1\n      pop\n        /* \"#utility.yul\":3959:4128   */\n      swap3\n      swap2\n      pop\n      pop\n      jump\t// out\n        /* \"#utility.yul\":4134:4305   */\n    tag_216:\n        /* \"#utility.yul\":4274:4297   */\n      0x496e76616c696420746f6b656e20616464726573730000000000000000000000\n        /* \"#utility.yul\":4270:4271   */\n      0x00\n        /* \"#utility.yul\":4262:4268   */\n      dup3\n        /* \"#utility.yul\":4258:4272   */\n      add\n        /* \"#utility.yul\":4251:4298   */\n      mstore\n        /* \"#utility.yul\":4134:4305   */\n      pop\n      jump\t// out\n        /* \"#utility.yul\":4311:4677   */\n    tag_217:\n        /* \"#utility.yul\":4453:4456   */\n      0x00\n        /* \"#utility.yul\":4474:4541   */\n      tag_289\n        /* \"#utility.yul\":4538:4540   */\n      0x15\n        /* \"#utility.yul\":4533:4536   */\n      dup4\n        /* \"#utility.yul\":4474:4541   */\n      tag_215\n      jump\t// in\n    tag_289:\n        /* \"#utility.yul\":4467:4541   */\n      swap2\n      pop\n        /* \"#utility.yul\":4550:4643   */\n      tag_290\n        /* \"#utility.yul\":4639:4642   */\n      dup3\n        /* \"#utility.yul\":4550:4643   */\n      tag_216\n      jump\t// in\n    tag_290:\n        /* \"#utility.yul\":4668:4670   */\n      0x20\n        /* \"#utility.yul\":4663:4666   */\n      dup3\n        /* \"#utility.yul\":4659:4671   */\n      add\n        /* \"#utility.yul\":4652:4671   */\n      swap1\n      pop\n        /* \"#utility.yul\":4311:4677   */\n      swap2\n      swap1\n      pop\n      jump\t// out\n        /* \"#utility.yul\":4683:5102   */\n    tag_54:\n        /* \"#utility.yul\":4849:4853   */\n      0x00\n        /* \"#utility.yul\":4887:4889   */\n      0x20\n        /* \"#utility.yul\":4876:4885   */\n      dup3\n        /* \"#utility.yul\":4872:4890   */\n      add\n        /* \"#utility.yul\":4864:4890   */\n      swap1\n      pop\n        /* \"#utility.yul\":4936:4945   */\n      dup2\n        /* \"#utility.yul\":4930:4934   */\n      dup2\n        /* \"#utility.yul\":4926:4946   */\n      sub\n        /* \"#utility.yul\":4922:4923   */\n      0x00\n        /* \"#utility.yul\":4911:4920   */\n      dup4\n        /* \"#utility.yul\":4907:4924   */\n      add\n        /* \"#utility.yul\":4900:4947   */\n      mstore\n        /* \"#utility.yul\":4964:5095   */\n      tag_292\n        /* \"#utility.yul\":5090:5094   */\n      dup2\n        /* \"#utility.yul\":4964:5095   */\n      tag_217\n      jump\t// in\n    tag_292:\n        /* \"#utility.yul\":4956:5095   */\n      swap1\n      pop\n        /* \"#utility.yul\":4683:5102   */\n      swap2\n      swap1\n      pop\n      jump\t// out\n        /* \"#utility.yul\":5108:5251   */\n    tag_218:\n        /* \"#utility.yul\":5165:5170   */\n      0x00\n        /* \"#utility.yul\":5196:5202   */\n      dup2\n        /* \"#utility.yul\":5190:5203   */\n      mload\n        /* \"#utility.yul\":5181:5203   */\n      swap1\n      pop\n        /* \"#utility.yul\":5212:5245   */\n      tag_294\n        /* \"#utility.yul\":5239:5244   */\n      dup2\n        /* \"#utility.yul\":5212:5245   */\n      tag_212\n      jump\t// in\n    tag_294:\n        /* \"#utility.yul\":5108:5251   */\n      swap3\n      swap2\n      pop\n      pop\n      jump\t// out\n        /* \"#utility.yul\":5257:5608   */\n    tag_59:\n        /* \"#utility.yul\":5327:5333   */\n      0x00\n        /* \"#utility.yul\":5376:5378   */\n      0x20\n        /* \"#utility.yul\":5364:5373   */\n      dup3\n        /* \"#utility.yul\":5355:5362   */\n      dup5\n        /* \"#utility.yul\":5351:5374   */\n      sub\n        /* \"#utility.yul\":5347:5379   */\n      slt\n        /* \"#utility.yul\":5344:5463   */\n      iszero\n      tag_296\n      jumpi\n        /* \"#utility.yul\":5382:5461   */\n      tag_297\n      tag_205\n      jump\t// in\n    tag_297:\n        /* \"#utility.yul\":5344:5463   */\n    tag_296:\n        /* \"#utility.yul\":5502:5503   */\n      0x00\n        /* \"#utility.yul\":5527:5591   */\n      tag_298\n        /* \"#utility.yul\":5583:5590   */\n      dup5\n        /* \"#utility.yul\":5574:5580   */\n      dup3\n        /* \"#utility.yul\":5563:5572   */\n      dup6\n        /* \"#utility.yul\":5559:5581   */\n      add\n        /* \"#utility.yul\":5527:5591   */\n      tag_218\n      jump\t// in\n    tag_298:\n        /* \"#utility.yul\":5517:5591   */\n      swap2\n      pop\n        /* \"#utility.yul\":5473:5601   */\n      pop\n        /* \"#utility.yul\":5257:5608   */\n      swap3\n      swap2\n      pop\n      pop\n      jump\t// out\n        /* \"#utility.yul\":5614:5794   */\n    tag_219:\n        /* \"#utility.yul\":5662:5739   */\n      0x4e487b7100000000000000000000000000000000000000000000000000000000\n        /* \"#utility.yul\":5659:5660   */\n      0x00\n        /* \"#utility.yul\":5652:5740   */\n      mstore\n        /* \"#utility.yul\":5759:5763   */\n      0x11\n        /* \"#utility.yul\":5756:5757   */\n      0x04\n        /* \"#utility.yul\":5749:5764   */\n      mstore\n        /* \"#utility.yul\":5783:5787   */\n      0x24\n        /* \"#utility.yul\":5780:5781   */\n      0x00\n        /* \"#utility.yul\":5773:5788   */\n      revert\n        /* \"#utility.yul\":5800:6210   */\n    tag_66:\n        /* \"#utility.yul\":5840:5847   */\n      0x00\n        /* \"#utility.yul\":5863:5883   */\n      tag_301\n        /* \"#utility.yul\":5881:5882   */\n      dup3\n        /* \"#utility.yul\":5863:5883   */\n      tag_210\n      jump\t// in\n    tag_301:\n        /* \"#utility.yul\":5858:5883   */\n      swap2\n      pop\n        /* \"#utility.yul\":5897:5917   */\n      tag_302\n        /* \"#utility.yul\":5915:5916   */\n      dup4\n        /* \"#utility.yul\":5897:5917   */\n      tag_210\n      jump\t// in\n    tag_302:\n        /* \"#utility.yul\":5892:5917   */\n      swap3\n      pop\n        /* \"#utility.yul\":5952:5953   */\n      dup3\n        /* \"#utility.yul\":5949:5950   */\n      dup3\n        /* \"#utility.yul\":5945:5954   */\n      mul\n        /* \"#utility.yul\":5974:6004   */\n      tag_303\n        /* \"#utility.yul\":5992:6003   */\n      dup2\n        /* \"#utility.yul\":5974:6004   */\n      tag_210\n      jump\t// in\n    tag_303:\n        /* \"#utility.yul\":5963:6004   */\n      swap2\n      pop\n        /* \"#utility.yul\":6153:6154   */\n      dup3\n        /* \"#utility.yul\":6144:6151   */\n      dup3\n        /* \"#utility.yul\":6140:6155   */\n      div\n        /* \"#utility.yul\":6137:6138   */\n      dup5\n        /* \"#utility.yul\":6134:6156   */\n      eq\n        /* \"#utility.yul\":6114:6115   */\n      dup4\n        /* \"#utility.yul\":6107:6116   */\n      iszero\n        /* \"#utility.yul\":6087:6170   */\n      or\n        /* \"#utility.yul\":6064:6203   */\n      tag_304\n      jumpi\n        /* \"#utility.yul\":6183:6201   */\n      tag_305\n      tag_219\n      jump\t// in\n    tag_305:\n        /* \"#utility.yul\":6064:6203   */\n    tag_304:\n        /* \"#utility.yul\":5848:6210   */\n      pop\n        /* \"#utility.yul\":5800:6210   */\n      swap3\n      swap2\n      pop\n      pop\n      jump\t// out\n        /* \"#utility.yul\":6216:6396   */\n    tag_220:\n        /* \"#utility.yul\":6264:6341   */\n      0x4e487b7100000000000000000000000000000000000000000000000000000000\n        /* \"#utility.yul\":6261:6262   */\n      0x00\n        /* \"#utility.yul\":6254:6342   */\n      mstore\n        /* \"#utility.yul\":6361:6365   */\n      0x12\n        /* \"#utility.yul\":6358:6359   */\n      0x04\n        /* \"#utility.yul\":6351:6366   */\n      mstore\n        /* \"#utility.yul\":6385:6389   */\n      0x24\n        /* \"#utility.yul\":6382:6383   */\n      0x00\n        /* \"#utility.yul\":6375:6390   */\n      revert\n        /* \"#utility.yul\":6402:6587   */\n    tag_68:\n        /* \"#utility.yul\":6442:6443   */\n      0x00\n        /* \"#utility.yul\":6459:6479   */\n      tag_308\n        /* \"#utility.yul\":6477:6478   */\n      dup3\n        /* \"#utility.yul\":6459:6479   */\n      tag_210\n      jump\t// in\n    tag_308:\n        /* \"#utility.yul\":6454:6479   */\n      swap2\n      pop\n        /* \"#utility.yul\":6493:6513   */\n      tag_309\n        /* \"#utility.yul\":6511:6512   */\n      dup4\n        /* \"#utility.yul\":6493:6513   */\n      tag_210\n      jump\t// in\n    tag_309:\n        /* \"#utility.yul\":6488:6513   */\n      swap3\n      pop\n        /* \"#utility.yul\":6532:6533   */\n      dup3\n        /* \"#utility.yul\":6522:6557   */\n      tag_310\n      jumpi\n        /* \"#utility.yul\":6537:6555   */\n      tag_311\n      tag_220\n      jump\t// in\n    tag_311:\n        /* \"#utility.yul\":6522:6557   */\n    tag_310:\n        /* \"#utility.yul\":6579:6580   */\n      dup3\n        /* \"#utility.yul\":6576:6577   */\n      dup3\n        /* \"#utility.yul\":6572:6581   */\n      div\n        /* \"#utility.yul\":6567:6581   */\n      swap1\n      pop\n        /* \"#utility.yul\":6402:6587   */\n      swap3\n      swap2\n      pop\n      pop\n      jump\t// out\n        /* \"#utility.yul\":6593:6767   */\n    tag_221:\n        /* \"#utility.yul\":6733:6759   */\n      0x496e70757420616d6f756e74206d757374206265203e20300000000000000000\n        /* \"#utility.yul\":6729:6730   */\n      0x00\n        /* \"#utility.yul\":6721:6727   */\n      dup3\n        /* \"#utility.yul\":6717:6731   */\n      add\n        /* \"#utility.yul\":6710:6760   */\n      mstore\n        /* \"#utility.yul\":6593:6767   */\n      pop\n      jump\t// out\n        /* \"#utility.yul\":6773:7139   */\n    tag_222:\n        /* \"#utility.yul\":6915:6918   */\n      0x00\n        /* \"#utility.yul\":6936:7003   */\n      tag_314\n        /* \"#utility.yul\":7000:7002   */\n      0x18\n        /* \"#utility.yul\":6995:6998   */\n      dup4\n        /* \"#utility.yul\":6936:7003   */\n      tag_215\n      jump\t// in\n    tag_314:\n        /* \"#utility.yul\":6929:7003   */\n      swap2\n      pop\n        /* \"#utility.yul\":7012:7105   */\n      tag_315\n        /* \"#utility.yul\":7101:7104   */\n      dup3\n        /* \"#utility.yul\":7012:7105   */\n      tag_221\n      jump\t// in\n    tag_315:\n        /* \"#utility.yul\":7130:7132   */\n      0x20\n        /* \"#utility.yul\":7125:7128   */\n      dup3\n        /* \"#utility.yul\":7121:7133   */\n      add\n        /* \"#utility.yul\":7114:7133   */\n      swap1\n      pop\n        /* \"#utility.yul\":6773:7139   */\n      swap2\n      swap1\n      pop\n      jump\t// out\n        /* \"#utility.yul\":7145:7564   */\n    tag_81:\n        /* \"#utility.yul\":7311:7315   */\n      0x00\n        /* \"#utility.yul\":7349:7351   */\n      0x20\n        /* \"#utility.yul\":7338:7347   */\n      dup3\n        /* \"#utility.yul\":7334:7352   */\n      add\n        /* \"#utility.yul\":7326:7352   */\n      swap1\n      pop\n        /* \"#utility.yul\":7398:7407   */\n      dup2\n        /* \"#utility.yul\":7392:7396   */\n      dup2\n        /* \"#utility.yul\":7388:7408   */\n      sub\n        /* \"#utility.yul\":7384:7385   */\n      0x00\n        /* \"#utility.yul\":7373:7382   */\n      dup4\n        /* \"#utility.yul\":7369:7386   */\n      add\n        /* \"#utility.yul\":7362:7409   */\n      mstore\n        /* \"#utility.yul\":7426:7557   */\n      tag_317\n        /* \"#utility.yul\":7552:7556   */\n      dup2\n        /* \"#utility.yul\":7426:7557   */\n      tag_222\n      jump\t// in\n    tag_317:\n        /* \"#utility.yul\":7418:7557   */\n      swap1\n      pop\n        /* \"#utility.yul\":7145:7564   */\n      swap2\n      swap1\n      pop\n      jump\t// out\n        /* \"#utility.yul\":7570:7742   */\n    tag_223:\n        /* \"#utility.yul\":7710:7734   */\n      0x496e73756666696369656e74206c697175696469747900000000000000000000\n        /* \"#utility.yul\":7706:7707   */\n      0x00\n        /* \"#utility.yul\":7698:7704   */\n      dup3\n        /* \"#utility.yul\":7694:7708   */\n      add\n        /* \"#utility.yul\":7687:7735   */\n      mstore\n        /* \"#utility.yul\":7570:7742   */\n      pop\n      jump\t// out\n        /* \"#utility.yul\":7748:8114   */\n    tag_224:\n        /* \"#utility.yul\":7890:7893   */\n      0x00\n        /* \"#utility.yul\":7911:7978   */\n      tag_320\n        /* \"#utility.yul\":7975:7977   */\n      0x16\n        /* \"#utility.yul\":7970:7973   */\n      dup4\n        /* \"#utility.yul\":7911:7978   */\n      tag_215\n      jump\t// in\n    tag_320:\n        /* \"#utility.yul\":7904:7978   */\n      swap2\n      pop\n        /* \"#utility.yul\":7987:8080   */\n      tag_321\n        /* \"#utility.yul\":8076:8079   */\n      dup3\n        /* \"#utility.yul\":7987:8080   */\n      tag_223\n      jump\t// in\n    tag_321:\n        /* \"#utility.yul\":8105:8107   */\n      0x20\n        /* \"#utility.yul\":8100:8103   */\n      dup3\n        /* \"#utility.yul\":8096:8108   */\n      add\n        /* \"#utility.yul\":8089:8108   */\n      swap1\n      pop\n        /* \"#utility.yul\":7748:8114   */\n      swap2\n      swap1\n      pop\n      jump\t// out\n        /* \"#utility.yul\":8120:8539   */\n    tag_93:\n        /* \"#utility.yul\":8286:8290   */\n      0x00\n        /* \"#utility.yul\":8324:8326   */\n      0x20\n        /* \"#utility.yul\":8313:8322   */\n      dup3\n        /* \"#utility.yul\":8309:8327   */\n      add\n        /* \"#utility.yul\":8301:8327   */\n      swap1\n      pop\n        /* \"#utility.yul\":8373:8382   */\n      dup2\n        /* \"#utility.yul\":8367:8371   */\n      dup2\n        /* \"#utility.yul\":8363:8383   */\n      sub\n        /* \"#utility.yul\":8359:8360   */\n      0x00\n        /* \"#utility.yul\":8348:8357   */\n      dup4\n        /* \"#utility.yul\":8344:8361   */\n      add\n        /* \"#utility.yul\":8337:8384   */\n      mstore\n        /* \"#utility.yul\":8401:8532   */\n      tag_323\n        /* \"#utility.yul\":8527:8531   */\n      dup2\n        /* \"#utility.yul\":8401:8532   */\n      tag_224\n      jump\t// in\n    tag_323:\n        /* \"#utility.yul\":8393:8532   */\n      swap1\n      pop\n        /* \"#utility.yul\":8120:8539   */\n      swap2\n      swap1\n      pop\n      jump\t// out\n        /* \"#utility.yul\":8545:8987   */\n    tag_97:\n        /* \"#utility.yul\":8694:8698   */\n      0x00\n        /* \"#utility.yul\":8732:8734   */\n      0x60\n        /* \"#utility.yul\":8721:8730   */\n      dup3\n        /* \"#utility.yul\":8717:8735   */\n      add\n        /* \"#utility.yul\":8709:8735   */\n      swap1\n      pop\n        /* \"#utility.yul\":8745:8816   */\n      tag_325\n        /* \"#utility.yul\":8813:8814   */\n      0x00\n        /* \"#utility.yul\":8802:8811   */\n      dup4\n        /* \"#utility.yul\":8798:8815   */\n      add\n        /* \"#utility.yul\":8789:8795   */\n      dup7\n        /* \"#utility.yul\":8745:8816   */\n      tag_214\n      jump\t// in\n    tag_325:\n        /* \"#utility.yul\":8826:8898   */\n      tag_326\n        /* \"#utility.yul\":8894:8896   */\n      0x20\n        /* \"#utility.yul\":8883:8892   */\n      dup4\n        /* \"#utility.yul\":8879:8897   */\n      add\n        /* \"#utility.yul\":8870:8876   */\n      dup6\n        /* \"#utility.yul\":8826:8898   */\n      tag_214\n      jump\t// in\n    tag_326:\n        /* \"#utility.yul\":8908:8980   */\n      tag_327\n        /* \"#utility.yul\":8976:8978   */\n      0x40\n        /* \"#utility.yul\":8965:8974   */\n      dup4\n        /* \"#utility.yul\":8961:8979   */\n      add\n        /* \"#utility.yul\":8952:8958   */\n      dup5\n        /* \"#utility.yul\":8908:8980   */\n      tag_211\n      jump\t// in\n    tag_327:\n        /* \"#utility.yul\":8545:8987   */\n      swap5\n      swap4\n      pop\n      pop\n      pop\n      pop\n      jump\t// out\n        /* \"#utility.yul\":8993:9083   */\n    tag_225:\n        /* \"#utility.yul\":9027:9034   */\n      0x00\n        /* \"#utility.yul\":9070:9075   */\n      dup2\n        /* \"#utility.yul\":9063:9076   */\n      iszero\n        /* \"#utility.yul\":9056:9077   */\n      iszero\n        /* \"#utility.yul\":9045:9077   */\n      swap1\n      pop\n        /* \"#utility.yul\":8993:9083   */\n      swap2\n      swap1\n      pop\n      jump\t// out\n        /* \"#utility.yul\":9089:9205   */\n    tag_226:\n        /* \"#utility.yul\":9159:9180   */\n      tag_330\n        /* \"#utility.yul\":9174:9179   */\n      dup2\n        /* \"#utility.yul\":9159:9180   */\n      tag_225\n      jump\t// in\n    tag_330:\n        /* \"#utility.yul\":9152:9157   */\n      dup2\n        /* \"#utility.yul\":9149:9181   */\n      eq\n        /* \"#utility.yul\":9139:9199   */\n      tag_331\n      jumpi\n        /* \"#utility.yul\":9195:9196   */\n      0x00\n        /* \"#utility.yul\":9192:9193   */\n      dup1\n        /* \"#utility.yul\":9185:9197   */\n      revert\n        /* \"#utility.yul\":9139:9199   */\n    tag_331:\n        /* \"#utility.yul\":9089:9205   */\n      pop\n      jump\t// out\n        /* \"#utility.yul\":9211:9348   */\n    tag_227:\n        /* \"#utility.yul\":9265:9270   */\n      0x00\n        /* \"#utility.yul\":9296:9302   */\n      dup2\n        /* \"#utility.yul\":9290:9303   */\n      mload\n        /* \"#utility.yul\":9281:9303   */\n      swap1\n      pop\n        /* \"#utility.yul\":9312:9342   */\n      tag_333\n        /* \"#utility.yul\":9336:9341   */\n      dup2\n        /* \"#utility.yul\":9312:9342   */\n      tag_226\n      jump\t// in\n    tag_333:\n        /* \"#utility.yul\":9211:9348   */\n      swap3\n      swap2\n      pop\n      pop\n      jump\t// out\n        /* \"#utility.yul\":9354:9699   */\n    tag_101:\n        /* \"#utility.yul\":9421:9427   */\n      0x00\n        /* \"#utility.yul\":9470:9472   */\n      0x20\n        /* \"#utility.yul\":9458:9467   */\n      dup3\n        /* \"#utility.yul\":9449:9456   */\n      dup5\n        /* \"#utility.yul\":9445:9468   */\n      sub\n        /* \"#utility.yul\":9441:9473   */\n      slt\n        /* \"#utility.yul\":9438:9557   */\n      iszero\n      tag_335\n      jumpi\n        /* \"#utility.yul\":9476:9555   */\n      tag_336\n      tag_205\n      jump\t// in\n    tag_336:\n        /* \"#utility.yul\":9438:9557   */\n    tag_335:\n        /* \"#utility.yul\":9596:9597   */\n      0x00\n        /* \"#utility.yul\":9621:9682   */\n      tag_337\n        /* \"#utility.yul\":9674:9681   */\n      dup5\n        /* \"#utility.yul\":9665:9671   */\n      dup3\n        /* \"#utility.yul\":9654:9663   */\n      dup6\n        /* \"#utility.yul\":9650:9672   */\n      add\n        /* \"#utility.yul\":9621:9682   */\n      tag_227\n      jump\t// in\n    tag_337:\n        /* \"#utility.yul\":9611:9682   */\n      swap2\n      pop\n        /* \"#utility.yul\":9567:9692   */\n      pop\n        /* \"#utility.yul\":9354:9699   */\n      swap3\n      swap2\n      pop\n      pop\n      jump\t// out\n        /* \"#utility.yul\":9705:10037   */\n    tag_103:\n        /* \"#utility.yul\":9826:9830   */\n      0x00\n        /* \"#utility.yul\":9864:9866   */\n      0x40\n        /* \"#utility.yul\":9853:9862   */\n      dup3\n        /* \"#utility.yul\":9849:9867   */\n      add\n        /* \"#utility.yul\":9841:9867   */\n      swap1\n      pop\n        /* \"#utility.yul\":9877:9948   */\n      tag_339\n        /* \"#utility.yul\":9945:9946   */\n      0x00\n        /* \"#utility.yul\":9934:9943   */\n      dup4\n        /* \"#utility.yul\":9930:9947   */\n      add\n        /* \"#utility.yul\":9921:9927   */\n      dup6\n        /* \"#utility.yul\":9877:9948   */\n      tag_214\n      jump\t// in\n    tag_339:\n        /* \"#utility.yul\":9958:10030   */\n      tag_340\n        /* \"#utility.yul\":10026:10028   */\n      0x20\n        /* \"#utility.yul\":10015:10024   */\n      dup4\n        /* \"#utility.yul\":10011:10029   */\n      add\n        /* \"#utility.yul\":10002:10008   */\n      dup5\n        /* \"#utility.yul\":9958:10030   */\n      tag_211\n      jump\t// in\n    tag_340:\n        /* \"#utility.yul\":9705:10037   */\n      swap4\n      swap3\n      pop\n      pop\n      pop\n      jump\t// out\n        /* \"#utility.yul\":10043:10375   */\n    tag_108:\n        /* \"#utility.yul\":10164:10168   */\n      0x00\n        /* \"#utility.yul\":10202:10204   */\n      0x40\n        /* \"#utility.yul\":10191:10200   */\n      dup3\n        /* \"#utility.yul\":10187:10205   */\n      add\n        /* \"#utility.yul\":10179:10205   */\n      swap1\n      pop\n        /* \"#utility.yul\":10215:10286   */\n      tag_342\n        /* \"#utility.yul\":10283:10284   */\n      0x00\n        /* \"#utility.yul\":10272:10281   */\n      dup4\n        /* \"#utility.yul\":10268:10285   */\n      add\n        /* \"#utility.yul\":10259:10265   */\n      dup6\n        /* \"#utility.yul\":10215:10286   */\n      tag_211\n      jump\t// in\n    tag_342:\n        /* \"#utility.yul\":10296:10368   */\n      tag_343\n        /* \"#utility.yul\":10364:10366   */\n      0x20\n        /* \"#utility.yul\":10353:10362   */\n      dup4\n        /* \"#utility.yul\":10349:10367   */\n      add\n        /* \"#utility.yul\":10340:10346   */\n      dup5\n        /* \"#utility.yul\":10296:10368   */\n      tag_211\n      jump\t// in\n    tag_343:\n        /* \"#utility.yul\":10043:10375   */\n      swap4\n      swap3\n      pop\n      pop\n      pop\n      jump\t// out\n        /* \"#utility.yul\":10381:10550   */\n    tag_228:\n        /* \"#utility.yul\":10521:10542   */\n      0x416d6f756e7473206d757374206265203e203000000000000000000000000000\n        /* \"#utility.yul\":10517:10518   */\n      0x00\n        /* \"#utility.yul\":10509:10515   */\n      dup3\n        /* \"#utility.yul\":10505:10519   */\n      add\n        /* \"#utility.yul\":10498:10543   */\n      mstore\n        /* \"#utility.yul\":10381:10550   */\n      pop\n      jump\t// out\n        /* \"#utility.yul\":10556:10922   */\n    tag_229:\n        /* \"#utility.yul\":10698:10701   */\n      0x00\n        /* \"#utility.yul\":10719:10786   */\n      tag_346\n        /* \"#utility.yul\":10783:10785   */\n      0x13\n        /* \"#utility.yul\":10778:10781   */\n      dup4\n        /* \"#utility.yul\":10719:10786   */\n      tag_215\n      jump\t// in\n    tag_346:\n        /* \"#utility.yul\":10712:10786   */\n      swap2\n      pop\n        /* \"#utility.yul\":10795:10888   */\n      tag_347\n        /* \"#utility.yul\":10884:10887   */\n      dup3\n        /* \"#utility.yul\":10795:10888   */\n      tag_228\n      jump\t// in\n    tag_347:\n        /* \"#utility.yul\":10913:10915   */\n      0x20\n        /* \"#utility.yul\":10908:10911   */\n      dup3\n        /* \"#utility.yul\":10904:10916   */\n      add\n        /* \"#utility.yul\":10897:10916   */\n      swap1\n      pop\n        /* \"#utility.yul\":10556:10922   */\n      swap2\n      swap1\n      pop\n      jump\t// out\n        /* \"#utility.yul\":10928:11347   */\n    tag_116:\n        /* \"#utility.yul\":11094:11098   */\n      0x00\n        /* \"#utility.yul\":11132:11134   */\n      0x20\n        /* \"#utility.yul\":11121:11130   */\n      dup3\n        /* \"#utility.yul\":11117:11135   */\n      add\n        /* \"#utility.yul\":11109:11135   */\n      swap1\n      pop\n        /* \"#utility.yul\":11181:11190   */\n      dup2\n        /* \"#utility.yul\":11175:11179   */\n      dup2\n        /* \"#utility.yul\":11171:11191   */\n      sub\n        /* \"#utility.yul\":11167:11168   */\n      0x00\n        /* \"#utility.yul\":11156:11165   */\n      dup4\n        /* \"#utility.yul\":11152:11169   */\n      add\n        /* \"#utility.yul\":11145:11192   */\n      mstore\n        /* \"#utility.yul\":11209:11340   */\n      tag_349\n        /* \"#utility.yul\":11335:11339   */\n      dup2\n        /* \"#utility.yul\":11209:11340   */\n      tag_229\n      jump\t// in\n    tag_349:\n        /* \"#utility.yul\":11201:11340   */\n      swap1\n      pop\n        /* \"#utility.yul\":10928:11347   */\n      swap2\n      swap1\n      pop\n      jump\t// out\n        /* \"#utility.yul\":11353:11533   */\n    tag_230:\n        /* \"#utility.yul\":11493:11525   */\n      0x4e6f7420656e6f756768206c697175696469747920617661696c61626c650000\n        /* \"#utility.yul\":11489:11490   */\n      0x00\n        /* \"#utility.yul\":11481:11487   */\n      dup3\n        /* \"#utility.yul\":11477:11491   */\n      add\n        /* \"#utility.yul\":11470:11526   */\n      mstore\n        /* \"#utility.yul\":11353:11533   */\n      pop\n      jump\t// out\n        /* \"#utility.yul\":11539:11905   */\n    tag_231:\n        /* \"#utility.yul\":11681:11684   */\n      0x00\n        /* \"#utility.yul\":11702:11769   */\n      tag_352\n        /* \"#utility.yul\":11766:11768   */\n      0x1e\n        /* \"#utility.yul\":11761:11764   */\n      dup4\n        /* \"#utility.yul\":11702:11769   */\n      tag_215\n      jump\t// in\n    tag_352:\n        /* \"#utility.yul\":11695:11769   */\n      swap2\n      pop\n        /* \"#utility.yul\":11778:11871   */\n      tag_353\n        /* \"#utility.yul\":11867:11870   */\n      dup3\n        /* \"#utility.yul\":11778:11871   */\n      tag_230\n      jump\t// in\n    tag_353:\n        /* \"#utility.yul\":11896:11898   */\n      0x20\n        /* \"#utility.yul\":11891:11894   */\n      dup3\n        /* \"#utility.yul\":11887:11899   */\n      add\n        /* \"#utility.yul\":11880:11899   */\n      swap1\n      pop\n        /* \"#utility.yul\":11539:11905   */\n      swap2\n      swap1\n      pop\n      jump\t// out\n        /* \"#utility.yul\":11911:12330   */\n    tag_140:\n        /* \"#utility.yul\":12077:12081   */\n      0x00\n        /* \"#utility.yul\":12115:12117   */\n      0x20\n        /* \"#utility.yul\":12104:12113   */\n      dup3\n        /* \"#utility.yul\":12100:12118   */\n      add\n        /* \"#utility.yul\":12092:12118   */\n      swap1\n      pop\n        /* \"#utility.yul\":12164:12173   */\n      dup2\n        /* \"#utility.yul\":12158:12162   */\n      dup2\n        /* \"#utility.yul\":12154:12174   */\n      sub\n        /* \"#utility.yul\":12150:12151   */\n      0x00\n        /* \"#utility.yul\":12139:12148   */\n      dup4\n        /* \"#utility.yul\":12135:12152   */\n      add\n        /* \"#utility.yul\":12128:12175   */\n      mstore\n        /* \"#utility.yul\":12192:12323   */\n      tag_355\n        /* \"#utility.yul\":12318:12322   */\n      dup2\n        /* \"#utility.yul\":12192:12323   */\n      tag_231\n      jump\t// in\n    tag_355:\n        /* \"#utility.yul\":12184:12323   */\n      swap1\n      pop\n        /* \"#utility.yul\":11911:12330   */\n      swap2\n      swap1\n      pop\n      jump\t// out\n        /* \"#utility.yul\":12336:12507   */\n    tag_232:\n        /* \"#utility.yul\":12476:12499   */\n      0x496e73756666696369656e742072657365727665730000000000000000000000\n        /* \"#utility.yul\":12472:12473   */\n      0x00\n        /* \"#utility.yul\":12464:12470   */\n      dup3\n        /* \"#utility.yul\":12460:12474   */\n      add\n        /* \"#utility.yul\":12453:12500   */\n      mstore\n        /* \"#utility.yul\":12336:12507   */\n      pop\n      jump\t// out\n        /* \"#utility.yul\":12513:12879   */\n    tag_233:\n        /* \"#utility.yul\":12655:12658   */\n      0x00\n        /* \"#utility.yul\":12676:12743   */\n      tag_358\n        /* \"#utility.yul\":12740:12742   */\n      0x15\n        /* \"#utility.yul\":12735:12738   */\n      dup4\n        /* \"#utility.yul\":12676:12743   */\n      tag_215\n      jump\t// in\n    tag_358:\n        /* \"#utility.yul\":12669:12743   */\n      swap2\n      pop\n        /* \"#utility.yul\":12752:12845   */\n      tag_359\n        /* \"#utility.yul\":12841:12844   */\n      dup3\n        /* \"#utility.yul\":12752:12845   */\n      tag_232\n      jump\t// in\n    tag_359:\n        /* \"#utility.yul\":12870:12872   */\n      0x20\n        /* \"#utility.yul\":12865:12868   */\n      dup3\n        /* \"#utility.yul\":12861:12873   */\n      add\n        /* \"#utility.yul\":12854:12873   */\n      swap1\n      pop\n        /* \"#utility.yul\":12513:12879   */\n      swap2\n      swap1\n      pop\n      jump\t// out\n        /* \"#utility.yul\":12885:13304   */\n    tag_192:\n        /* \"#utility.yul\":13051:13055   */\n      0x00\n        /* \"#utility.yul\":13089:13091   */\n      0x20\n        /* \"#utility.yul\":13078:13087   */\n      dup3\n        /* \"#utility.yul\":13074:13092   */\n      add\n        /* \"#utility.yul\":13066:13092   */\n      swap1\n      pop\n        /* \"#utility.yul\":13138:13147   */\n      dup2\n        /* \"#utility.yul\":13132:13136   */\n      dup2\n        /* \"#utility.yul\":13128:13148   */\n      sub\n        /* \"#utility.yul\":13124:13125   */\n      0x00\n        /* \"#utility.yul\":13113:13122   */\n      dup4\n        /* \"#utility.yul\":13109:13126   */\n      add\n        /* \"#utility.yul\":13102:13149   */\n      mstore\n        /* \"#utility.yul\":13166:13297   */\n      tag_361\n        /* \"#utility.yul\":13292:13296   */\n      dup2\n        /* \"#utility.yul\":13166:13297   */\n      tag_233\n      jump\t// in\n    tag_361:\n        /* \"#utility.yul\":13158:13297   */\n      swap1\n      pop\n        /* \"#utility.yul\":12885:13304   */\n      swap2\n      swap1\n      pop\n      jump\t// out\n        /* \"#utility.yul\":13310:13501   */\n    tag_194:\n        /* \"#utility.yul\":13350:13353   */\n      0x00\n        /* \"#utility.yul\":13369:13389   */\n      tag_363\n        /* \"#utility.yul\":13387:13388   */\n      dup3\n        /* \"#utility.yul\":13369:13389   */\n      tag_210\n      jump\t// in\n    tag_363:\n        /* \"#utility.yul\":13364:13389   */\n      swap2\n      pop\n        /* \"#utility.yul\":13403:13423   */\n      tag_364\n        /* \"#utility.yul\":13421:13422   */\n      dup4\n        /* \"#utility.yul\":13403:13423   */\n      tag_210\n      jump\t// in\n    tag_364:\n        /* \"#utility.yul\":13398:13423   */\n      swap3\n      pop\n        /* \"#utility.yul\":13446:13447   */\n      dup3\n        /* \"#utility.yul\":13443:13444   */\n      dup3\n        /* \"#utility.yul\":13439:13448   */\n      add\n        /* \"#utility.yul\":13432:13448   */\n      swap1\n      pop\n        /* \"#utility.yul\":13467:13470   */\n      dup1\n        /* \"#utility.yul\":13464:13465   */\n      dup3\n        /* \"#utility.yul\":13461:13471   */\n      gt\n        /* \"#utility.yul\":13458:13494   */\n      iszero\n      tag_365\n      jumpi\n        /* \"#utility.yul\":13474:13492   */\n      tag_366\n      tag_219\n      jump\t// in\n    tag_366:\n        /* \"#utility.yul\":13458:13494   */\n    tag_365:\n        /* \"#utility.yul\":13310:13501   */\n      swap3\n      swap2\n      pop\n      pop\n      jump\t// out\n\n    auxdata: 0xa26469706673582212201bda334481fb0d906856472aed2bf98d0486344f4af485a209fa34ca92c0dc1d64736f6c634300081a0033\n}\n",
				"bytecode": {
					"linkReferences": {},
					"object": "608060405234801561000f575f80fd5b50604051611e75380380611e758339818101604052810190610031919061036d565b335f73ffffffffffffffffffffffffffffffffffffffff168173ffffffffffffffffffffffffffffffffffffffff16036100a2575f6040517f1e4fbdf700000000000000000000000000000000000000000000000000000000815260040161009991906103ba565b60405180910390fd5b6100b18161024e60201b60201c565b505f73ffffffffffffffffffffffffffffffffffffffff168273ffffffffffffffffffffffffffffffffffffffff161415801561011a57505f73ffffffffffffffffffffffffffffffffffffffff168173ffffffffffffffffffffffffffffffffffffffff1614155b610159576040517f08c379a00000000000000000000000000000000000000000000000000000000081526004016101509061042d565b60405180910390fd5b8073ffffffffffffffffffffffffffffffffffffffff168273ffffffffffffffffffffffffffffffffffffffff16036101c7576040517f08c379a00000000000000000000000000000000000000000000000000000000081526004016101be90610495565b60405180910390fd5b8160015f6101000a81548173ffffffffffffffffffffffffffffffffffffffff021916908373ffffffffffffffffffffffffffffffffffffffff1602179055508060025f6101000a81548173ffffffffffffffffffffffffffffffffffffffff021916908373ffffffffffffffffffffffffffffffffffffffff16021790555050506104b3565b5f805f9054906101000a900473ffffffffffffffffffffffffffffffffffffffff169050815f806101000a81548173ffffffffffffffffffffffffffffffffffffffff021916908373ffffffffffffffffffffffffffffffffffffffff1602179055508173ffffffffffffffffffffffffffffffffffffffff168173ffffffffffffffffffffffffffffffffffffffff167f8be0079c531659141344cd1fd0a4f28419497f9722a3daafe3b4186f6b6457e060405160405180910390a35050565b5f80fd5b5f73ffffffffffffffffffffffffffffffffffffffff82169050919050565b5f61033c82610313565b9050919050565b61034c81610332565b8114610356575f80fd5b50565b5f8151905061036781610343565b92915050565b5f80604083850312156103835761038261030f565b5b5f61039085828601610359565b92505060206103a185828601610359565b9150509250929050565b6103b481610332565b82525050565b5f6020820190506103cd5f8301846103ab565b92915050565b5f82825260208201905092915050565b7f546f6b656e20616464726573732063616e6e6f742062652030000000000000005f82015250565b5f6104176019836103d3565b9150610422826103e3565b602082019050919050565b5f6020820190508181035f8301526104448161040b565b9050919050565b7f546f6b656e73206d75737420626520646966666572656e7400000000000000005f82015250565b5f61047f6018836103d3565b915061048a8261044b565b602082019050919050565b5f6020820190508181035f8301526104ac81610473565b9050919050565b6119b5806104c05f395ff3fe608060405234801561000f575f80fd5b506004361061009c575f3560e01c80638da5cb5b116100645780638da5cb5b146101325780639cd441da146101505780639d7de6b31461016c578063e4f1f70a14610188578063f2fde38b146101a45761009c565b80630fc63d10146100a057806341976e09146100be5780635f64b55b146100ee578063715018a61461010c5780638014a7aa14610116575b5f80fd5b6100a86101c0565b6040516100b59190611370565b60405180910390f35b6100d860048036038101906100d391906113c8565b6101e5565b6040516100e5919061140b565b60405180910390f35b6100f66104a5565b6040516101039190611370565b60405180910390f35b6101146104ca565b005b610130600480360381019061012b919061144e565b6104dd565b005b61013a610844565b6040516101479190611488565b60405180910390f35b61016a600480360381019061016591906114a1565b61086b565b005b610186600480360381019061018191906114a1565b610a3b565b005b6101a2600480360381019061019d919061144e565b610d43565b005b6101be60048036038101906101b991906113c8565b6110aa565b005b60015f9054906101000a900473ffffffffffffffffffffffffffffffffffffffff1681565b5f60015f9054906101000a900473ffffffffffffffffffffffffffffffffffffffff1673ffffffffffffffffffffffffffffffffffffffff168273ffffffffffffffffffffffffffffffffffffffff16148061028d575060025f9054906101000a900473ffffffffffffffffffffffffffffffffffffffff1673ffffffffffffffffffffffffffffffffffffffff168273ffffffffffffffffffffffffffffffffffffffff16145b6102cc576040517f08c379a00000000000000000000000000000000000000000000000000000000081526004016102c390611539565b60405180910390fd5b5f60015f9054906101000a900473ffffffffffffffffffffffffffffffffffffffff1673ffffffffffffffffffffffffffffffffffffffff166370a08231306040518263ffffffff1660e01b81526004016103279190611488565b602060405180830381865afa158015610342573d5f803e3d5ffd5b505050506040513d601f19601f82011682018060405250810190610366919061156b565b90505f60025f9054906101000a900473ffffffffffffffffffffffffffffffffffffffff1673ffffffffffffffffffffffffffffffffffffffff166370a08231306040518263ffffffff1660e01b81526004016103c39190611488565b602060405180830381865afa1580156103de573d5f803e3d5ffd5b505050506040513d601f19601f82011682018060405250810190610402919061156b565b905060015f9054906101000a900473ffffffffffffffffffffffffffffffffffffffff1673ffffffffffffffffffffffffffffffffffffffff168473ffffffffffffffffffffffffffffffffffffffff161461047c5780670de0b6b3a76400008361046d91906115c3565b6104779190611631565b61049c565b81670de0b6b3a76400008261049191906115c3565b61049b9190611631565b5b92505050919050565b60025f9054906101000a900473ffffffffffffffffffffffffffffffffffffffff1681565b6104d261112e565b6104db5f6111b5565b565b5f811161051f576040517f08c379a0000000000000000000000000000000000000000000000000000000008152600401610516906116ab565b60405180910390fd5b5f60015f9054906101000a900473ffffffffffffffffffffffffffffffffffffffff1673ffffffffffffffffffffffffffffffffffffffff166370a08231306040518263ffffffff1660e01b815260040161057a9190611488565b602060405180830381865afa158015610595573d5f803e3d5ffd5b505050506040513d601f19601f820116820180604052508101906105b9919061156b565b90505f60025f9054906101000a900473ffffffffffffffffffffffffffffffffffffffff1673ffffffffffffffffffffffffffffffffffffffff166370a08231306040518263ffffffff1660e01b81526004016106169190611488565b602060405180830381865afa158015610631573d5f803e3d5ffd5b505050506040513d601f19601f82011682018060405250810190610655919061156b565b90505f8211801561066557505f81115b6106a4576040517f08c379a000000000000000000000000000000000000000000000000000000000815260040161069b90611713565b60405180910390fd5b5f6106b0848385611276565b905060025f9054906101000a900473ffffffffffffffffffffffffffffffffffffffff1673ffffffffffffffffffffffffffffffffffffffff166323b872dd3330876040518463ffffffff1660e01b815260040161071093929190611731565b6020604051808303815f875af115801561072c573d5f803e3d5ffd5b505050506040513d601f19601f82011682018060405250810190610750919061179b565b5060015f9054906101000a900473ffffffffffffffffffffffffffffffffffffffff1673ffffffffffffffffffffffffffffffffffffffff1663a9059cbb33836040518363ffffffff1660e01b81526004016107ad9291906117c6565b6020604051808303815f875af11580156107c9573d5f803e3d5ffd5b505050506040513d601f19601f820116820180604052508101906107ed919061179b565b503373ffffffffffffffffffffffffffffffffffffffff167fd5a1cd88ddd329cc1ddf861a21708efa9ef3136b88e1420c21f91ef6f95ad02485836040516108369291906117ed565b60405180910390a250505050565b5f805f9054906101000a900473ffffffffffffffffffffffffffffffffffffffff16905090565b61087361112e565b5f8211801561088157505f81115b6108c0576040517f08c379a00000000000000000000000000000000000000000000000000000000081526004016108b79061185e565b60405180910390fd5b60015f9054906101000a900473ffffffffffffffffffffffffffffffffffffffff1673ffffffffffffffffffffffffffffffffffffffff166323b872dd3330856040518463ffffffff1660e01b815260040161091e93929190611731565b6020604051808303815f875af115801561093a573d5f803e3d5ffd5b505050506040513d601f19601f8201168201806040525081019061095e919061179b565b5060025f9054906101000a900473ffffffffffffffffffffffffffffffffffffffff1673ffffffffffffffffffffffffffffffffffffffff166323b872dd3330846040518463ffffffff1660e01b81526004016109bd93929190611731565b6020604051808303815f875af11580156109d9573d5f803e3d5ffd5b505050506040513d601f19601f820116820180604052508101906109fd919061179b565b507f38f8a0c92f4c5b0b6877f878cb4c0c8d348a47b76d716c8e78f425043df9515b8282604051610a2f9291906117ed565b60405180910390a15050565b610a4361112e565b5f60015f9054906101000a900473ffffffffffffffffffffffffffffffffffffffff1673ffffffffffffffffffffffffffffffffffffffff166370a08231306040518263ffffffff1660e01b8152600401610a9e9190611488565b602060405180830381865afa158015610ab9573d5f803e3d5ffd5b505050506040513d601f19601f82011682018060405250810190610add919061156b565b90505f60025f9054906101000a900473ffffffffffffffffffffffffffffffffffffffff1673ffffffffffffffffffffffffffffffffffffffff166370a08231306040518263ffffffff1660e01b8152600401610b3a9190611488565b602060405180830381865afa158015610b55573d5f803e3d5ffd5b505050506040513d601f19601f82011682018060405250810190610b79919061156b565b9050818411158015610b8b5750808311155b610bca576040517f08c379a0000000000000000000000000000000000000000000000000000000008152600401610bc1906118c6565b60405180910390fd5b60015f9054906101000a900473ffffffffffffffffffffffffffffffffffffffff1673ffffffffffffffffffffffffffffffffffffffff1663a9059cbb33866040518363ffffffff1660e01b8152600401610c269291906117c6565b6020604051808303815f875af1158015610c42573d5f803e3d5ffd5b505050506040513d601f19601f82011682018060405250810190610c66919061179b565b5060025f9054906101000a900473ffffffffffffffffffffffffffffffffffffffff1673ffffffffffffffffffffffffffffffffffffffff1663a9059cbb33856040518363ffffffff1660e01b8152600401610cc39291906117c6565b6020604051808303815f875af1158015610cdf573d5f803e3d5ffd5b505050506040513d601f19601f82011682018060405250810190610d03919061179b565b507f6f0f96292ae0038c04f9b6bab30f185d9ca02c471d0983f563f2a4f674aef1378484604051610d359291906117ed565b60405180910390a150505050565b5f8111610d85576040517f08c379a0000000000000000000000000000000000000000000000000000000008152600401610d7c906116ab565b60405180910390fd5b5f60015f9054906101000a900473ffffffffffffffffffffffffffffffffffffffff1673ffffffffffffffffffffffffffffffffffffffff166370a08231306040518263ffffffff1660e01b8152600401610de09190611488565b602060405180830381865afa158015610dfb573d5f803e3d5ffd5b505050506040513d601f19601f82011682018060405250810190610e1f919061156b565b90505f60025f9054906101000a900473ffffffffffffffffffffffffffffffffffffffff1673ffffffffffffffffffffffffffffffffffffffff166370a08231306040518263ffffffff1660e01b8152600401610e7c9190611488565b602060405180830381865afa158015610e97573d5f803e3d5ffd5b505050506040513d601f19601f82011682018060405250810190610ebb919061156b565b90505f82118015610ecb57505f81115b610f0a576040517f08c379a0000000000000000000000000000000000000000000000000000000008152600401610f0190611713565b60405180910390fd5b5f610f16848484611276565b905060015f9054906101000a900473ffffffffffffffffffffffffffffffffffffffff1673ffffffffffffffffffffffffffffffffffffffff166323b872dd3330876040518463ffffffff1660e01b8152600401610f7693929190611731565b6020604051808303815f875af1158015610f92573d5f803e3d5ffd5b505050506040513d601f19601f82011682018060405250810190610fb6919061179b565b5060025f9054906101000a900473ffffffffffffffffffffffffffffffffffffffff1673ffffffffffffffffffffffffffffffffffffffff1663a9059cbb33836040518363ffffffff1660e01b81526004016110139291906117c6565b6020604051808303815f875af115801561102f573d5f803e3d5ffd5b505050506040513d601f19601f82011682018060405250810190611053919061179b565b503373ffffffffffffffffffffffffffffffffffffffff167fd5a1cd88ddd329cc1ddf861a21708efa9ef3136b88e1420c21f91ef6f95ad024858360405161109c9291906117ed565b60405180910390a250505050565b6110b261112e565b5f73ffffffffffffffffffffffffffffffffffffffff168173ffffffffffffffffffffffffffffffffffffffff1603611122575f6040517f1e4fbdf70000000000000000000000000000000000000000000000000000000081526004016111199190611488565b60405180910390fd5b61112b816111b5565b50565b6111366112ef565b73ffffffffffffffffffffffffffffffffffffffff16611154610844565b73ffffffffffffffffffffffffffffffffffffffff16146111b3576111776112ef565b6040517f118cdaa70000000000000000000000000000000000000000000000000000000081526004016111aa9190611488565b60405180910390fd5b565b5f805f9054906101000a900473ffffffffffffffffffffffffffffffffffffffff169050815f806101000a81548173ffffffffffffffffffffffffffffffffffffffff021916908373ffffffffffffffffffffffffffffffffffffffff1602179055508173ffffffffffffffffffffffffffffffffffffffff168173ffffffffffffffffffffffffffffffffffffffff167f8be0079c531659141344cd1fd0a4f28419497f9722a3daafe3b4186f6b6457e060405160405180910390a35050565b5f808311801561128557505f82115b6112c4576040517f08c379a00000000000000000000000000000000000000000000000000000000081526004016112bb9061192e565b60405180910390fd5b83836112d0919061194c565b82856112dc91906115c3565b6112e69190611631565b90509392505050565b5f33905090565b5f73ffffffffffffffffffffffffffffffffffffffff82169050919050565b5f819050919050565b5f61133861133361132e846112f6565b611315565b6112f6565b9050919050565b5f6113498261131e565b9050919050565b5f61135a8261133f565b9050919050565b61136a81611350565b82525050565b5f6020820190506113835f830184611361565b92915050565b5f80fd5b5f611397826112f6565b9050919050565b6113a78161138d565b81146113b1575f80fd5b50565b5f813590506113c28161139e565b92915050565b5f602082840312156113dd576113dc611389565b5b5f6113ea848285016113b4565b91505092915050565b5f819050919050565b611405816113f3565b82525050565b5f60208201905061141e5f8301846113fc565b92915050565b61142d816113f3565b8114611437575f80fd5b50565b5f8135905061144881611424565b92915050565b5f6020828403121561146357611462611389565b5b5f6114708482850161143a565b91505092915050565b6114828161138d565b82525050565b5f60208201905061149b5f830184611479565b92915050565b5f80604083850312156114b7576114b6611389565b5b5f6114c48582860161143a565b92505060206114d58582860161143a565b9150509250929050565b5f82825260208201905092915050565b7f496e76616c696420746f6b656e206164647265737300000000000000000000005f82015250565b5f6115236015836114df565b915061152e826114ef565b602082019050919050565b5f6020820190508181035f83015261155081611517565b9050919050565b5f8151905061156581611424565b92915050565b5f602082840312156115805761157f611389565b5b5f61158d84828501611557565b91505092915050565b7f4e487b71000000000000000000000000000000000000000000000000000000005f52601160045260245ffd5b5f6115cd826113f3565b91506115d8836113f3565b92508282026115e6816113f3565b915082820484148315176115fd576115fc611596565b5b5092915050565b7f4e487b71000000000000000000000000000000000000000000000000000000005f52601260045260245ffd5b5f61163b826113f3565b9150611646836113f3565b92508261165657611655611604565b5b828204905092915050565b7f496e70757420616d6f756e74206d757374206265203e203000000000000000005f82015250565b5f6116956018836114df565b91506116a082611661565b602082019050919050565b5f6020820190508181035f8301526116c281611689565b9050919050565b7f496e73756666696369656e74206c6971756964697479000000000000000000005f82015250565b5f6116fd6016836114df565b9150611708826116c9565b602082019050919050565b5f6020820190508181035f83015261172a816116f1565b9050919050565b5f6060820190506117445f830186611479565b6117516020830185611479565b61175e60408301846113fc565b949350505050565b5f8115159050919050565b61177a81611766565b8114611784575f80fd5b50565b5f8151905061179581611771565b92915050565b5f602082840312156117b0576117af611389565b5b5f6117bd84828501611787565b91505092915050565b5f6040820190506117d95f830185611479565b6117e660208301846113fc565b9392505050565b5f6040820190506118005f8301856113fc565b61180d60208301846113fc565b9392505050565b7f416d6f756e7473206d757374206265203e2030000000000000000000000000005f82015250565b5f6118486013836114df565b915061185382611814565b602082019050919050565b5f6020820190508181035f8301526118758161183c565b9050919050565b7f4e6f7420656e6f756768206c697175696469747920617661696c61626c6500005f82015250565b5f6118b0601e836114df565b91506118bb8261187c565b602082019050919050565b5f6020820190508181035f8301526118dd816118a4565b9050919050565b7f496e73756666696369656e7420726573657276657300000000000000000000005f82015250565b5f6119186015836114df565b9150611923826118e4565b602082019050919050565b5f6020820190508181035f8301526119458161190c565b9050919050565b5f611956826113f3565b9150611961836113f3565b925082820190508082111561197957611978611596565b5b9291505056fea26469706673582212201bda334481fb0d906856472aed2bf98d0486344f4af485a209fa34ca92c0dc1d64736f6c634300081a0033",
					"opcodes": "PUSH1 0x80 PUSH1 0x40 MSTORE CALLVALUE DUP1 ISZERO PUSH2 0xF JUMPI PUSH0 DUP1 REVERT JUMPDEST POP PUSH1 0x40 MLOAD PUSH2 0x1E75 CODESIZE SUB DUP1 PUSH2 0x1E75 DUP4 CODECOPY DUP2 DUP2 ADD PUSH1 0x40 MSTORE DUP2 ADD SWAP1 PUSH2 0x31 SWAP2 SWAP1 PUSH2 0x36D JUMP JUMPDEST CALLER PUSH0 PUSH20 0xFFFFFFFFFFFFFFFFFFFFFFFFFFFFFFFFFFFFFFFF AND DUP2 PUSH20 0xFFFFFFFFFFFFFFFFFFFFFFFFFFFFFFFFFFFFFFFF AND SUB PUSH2 0xA2 JUMPI PUSH0 PUSH1 0x40 MLOAD PUSH32 0x1E4FBDF700000000000000000000000000000000000000000000000000000000 DUP2 MSTORE PUSH1 0x4 ADD PUSH2 0x99 SWAP2 SWAP1 PUSH2 0x3BA JUMP JUMPDEST PUSH1 0x40 MLOAD DUP1 SWAP2 SUB SWAP1 REVERT JUMPDEST PUSH2 0xB1 DUP2 PUSH2 0x24E PUSH1 0x20 SHL PUSH1 0x20 SHR JUMP JUMPDEST POP PUSH0 PUSH20 0xFFFFFFFFFFFFFFFFFFFFFFFFFFFFFFFFFFFFFFFF AND DUP3 PUSH20 0xFFFFFFFFFFFFFFFFFFFFFFFFFFFFFFFFFFFFFFFF AND EQ ISZERO DUP1 ISZERO PUSH2 0x11A JUMPI POP PUSH0 PUSH20 0xFFFFFFFFFFFFFFFFFFFFFFFFFFFFFFFFFFFFFFFF AND DUP2 PUSH20 0xFFFFFFFFFFFFFFFFFFFFFFFFFFFFFFFFFFFFFFFF AND EQ ISZERO JUMPDEST PUSH2 0x159 JUMPI PUSH1 0x40 MLOAD PUSH32 0x8C379A000000000000000000000000000000000000000000000000000000000 DUP2 MSTORE PUSH1 0x4 ADD PUSH2 0x150 SWAP1 PUSH2 0x42D JUMP JUMPDEST PUSH1 0x40 MLOAD DUP1 SWAP2 SUB SWAP1 REVERT JUMPDEST DUP1 PUSH20 0xFFFFFFFFFFFFFFFFFFFFFFFFFFFFFFFFFFFFFFFF AND DUP3 PUSH20 0xFFFFFFFFFFFFFFFFFFFFFFFFFFFFFFFFFFFFFFFF AND SUB PUSH2 0x1C7 JUMPI PUSH1 0x40 MLOAD PUSH32 0x8C379A000000000000000000000000000000000000000000000000000000000 DUP2 MSTORE PUSH1 0x4 ADD PUSH2 0x1BE SWAP1 PUSH2 0x495 JUMP JUMPDEST PUSH1 0x40 MLOAD DUP1 SWAP2 SUB SWAP1 REVERT JUMPDEST DUP2 PUSH1 0x1 PUSH0 PUSH2 0x100 EXP DUP2 SLOAD DUP2 PUSH20 0xFFFFFFFFFFFFFFFFFFFFFFFFFFFFFFFFFFFFFFFF MUL NOT AND SWAP1 DUP4 PUSH20 0xFFFFFFFFFFFFFFFFFFFFFFFFFFFFFFFFFFFFFFFF AND MUL OR SWAP1 SSTORE POP DUP1 PUSH1 0x2 PUSH0 PUSH2 0x100 EXP DUP2 SLOAD DUP2 PUSH20 0xFFFFFFFFFFFFFFFFFFFFFFFFFFFFFFFFFFFFFFFF MUL NOT AND SWAP1 DUP4 PUSH20 0xFFFFFFFFFFFFFFFFFFFFFFFFFFFFFFFFFFFFFFFF AND MUL OR SWAP1 SSTORE POP POP POP PUSH2 0x4B3 JUMP JUMPDEST PUSH0 DUP1 PUSH0 SWAP1 SLOAD SWAP1 PUSH2 0x100 EXP SWAP1 DIV PUSH20 0xFFFFFFFFFFFFFFFFFFFFFFFFFFFFFFFFFFFFFFFF AND SWAP1 POP DUP2 PUSH0 DUP1 PUSH2 0x100 EXP DUP2 SLOAD DUP2 PUSH20 0xFFFFFFFFFFFFFFFFFFFFFFFFFFFFFFFFFFFFFFFF MUL NOT AND SWAP1 DUP4 PUSH20 0xFFFFFFFFFFFFFFFFFFFFFFFFFFFFFFFFFFFFFFFF AND MUL OR SWAP1 SSTORE POP DUP2 PUSH20 0xFFFFFFFFFFFFFFFFFFFFFFFFFFFFFFFFFFFFFFFF AND DUP2 PUSH20 0xFFFFFFFFFFFFFFFFFFFFFFFFFFFFFFFFFFFFFFFF AND PUSH32 0x8BE0079C531659141344CD1FD0A4F28419497F9722A3DAAFE3B4186F6B6457E0 PUSH1 0x40 MLOAD PUSH1 0x40 MLOAD DUP1 SWAP2 SUB SWAP1 LOG3 POP POP JUMP JUMPDEST PUSH0 DUP1 REVERT JUMPDEST PUSH0 PUSH20 0xFFFFFFFFFFFFFFFFFFFFFFFFFFFFFFFFFFFFFFFF DUP3 AND SWAP1 POP SWAP2 SWAP1 POP JUMP JUMPDEST PUSH0 PUSH2 0x33C DUP3 PUSH2 0x313 JUMP JUMPDEST SWAP1 POP SWAP2 SWAP1 POP JUMP JUMPDEST PUSH2 0x34C DUP2 PUSH2 0x332 JUMP JUMPDEST DUP2 EQ PUSH2 0x356 JUMPI PUSH0 DUP1 REVERT JUMPDEST POP JUMP JUMPDEST PUSH0 DUP2 MLOAD SWAP1 POP PUSH2 0x367 DUP2 PUSH2 0x343 JUMP JUMPDEST SWAP3 SWAP2 POP POP JUMP JUMPDEST PUSH0 DUP1 PUSH1 0x40 DUP4 DUP6 SUB SLT ISZERO PUSH2 0x383 JUMPI PUSH2 0x382 PUSH2 0x30F JUMP JUMPDEST JUMPDEST PUSH0 PUSH2 0x390 DUP6 DUP3 DUP7 ADD PUSH2 0x359 JUMP JUMPDEST SWAP3 POP POP PUSH1 0x20 PUSH2 0x3A1 DUP6 DUP3 DUP7 ADD PUSH2 0x359 JUMP JUMPDEST SWAP2 POP POP SWAP3 POP SWAP3 SWAP1 POP JUMP JUMPDEST PUSH2 0x3B4 DUP2 PUSH2 0x332 JUMP JUMPDEST DUP3 MSTORE POP POP JUMP JUMPDEST PUSH0 PUSH1 0x20 DUP3 ADD SWAP1 POP PUSH2 0x3CD PUSH0 DUP4 ADD DUP5 PUSH2 0x3AB JUMP JUMPDEST SWAP3 SWAP2 POP POP JUMP JUMPDEST PUSH0 DUP3 DUP3 MSTORE PUSH1 0x20 DUP3 ADD SWAP1 POP SWAP3 SWAP2 POP POP JUMP JUMPDEST PUSH32 0x546F6B656E20616464726573732063616E6E6F74206265203000000000000000 PUSH0 DUP3 ADD MSTORE POP JUMP JUMPDEST PUSH0 PUSH2 0x417 PUSH1 0x19 DUP4 PUSH2 0x3D3 JUMP JUMPDEST SWAP2 POP PUSH2 0x422 DUP3 PUSH2 0x3E3 JUMP JUMPDEST PUSH1 0x20 DUP3 ADD SWAP1 POP SWAP2 SWAP1 POP JUMP JUMPDEST PUSH0 PUSH1 0x20 DUP3 ADD SWAP1 POP DUP2 DUP2 SUB PUSH0 DUP4 ADD MSTORE PUSH2 0x444 DUP2 PUSH2 0x40B JUMP JUMPDEST SWAP1 POP SWAP2 SWAP1 POP JUMP JUMPDEST PUSH32 0x546F6B656E73206D75737420626520646966666572656E740000000000000000 PUSH0 DUP3 ADD MSTORE POP JUMP JUMPDEST PUSH0 PUSH2 0x47F PUSH1 0x18 DUP4 PUSH2 0x3D3 JUMP JUMPDEST SWAP2 POP PUSH2 0x48A DUP3 PUSH2 0x44B JUMP JUMPDEST PUSH1 0x20 DUP3 ADD SWAP1 POP SWAP2 SWAP1 POP JUMP JUMPDEST PUSH0 PUSH1 0x20 DUP3 ADD SWAP1 POP DUP2 DUP2 SUB PUSH0 DUP4 ADD MSTORE PUSH2 0x4AC DUP2 PUSH2 0x473 JUMP JUMPDEST SWAP1 POP SWAP2 SWAP1 POP JUMP JUMPDEST PUSH2 0x19B5 DUP1 PUSH2 0x4C0 PUSH0 CODECOPY PUSH0 RETURN INVALID PUSH1 0x80 PUSH1 0x40 MSTORE CALLVALUE DUP1 ISZERO PUSH2 0xF JUMPI PUSH0 DUP1 REVERT JUMPDEST POP PUSH1 0x4 CALLDATASIZE LT PUSH2 0x9C JUMPI PUSH0 CALLDATALOAD PUSH1 0xE0 SHR DUP1 PUSH4 0x8DA5CB5B GT PUSH2 0x64 JUMPI DUP1 PUSH4 0x8DA5CB5B EQ PUSH2 0x132 JUMPI DUP1 PUSH4 0x9CD441DA EQ PUSH2 0x150 JUMPI DUP1 PUSH4 0x9D7DE6B3 EQ PUSH2 0x16C JUMPI DUP1 PUSH4 0xE4F1F70A EQ PUSH2 0x188 JUMPI DUP1 PUSH4 0xF2FDE38B EQ PUSH2 0x1A4 JUMPI PUSH2 0x9C JUMP JUMPDEST DUP1 PUSH4 0xFC63D10 EQ PUSH2 0xA0 JUMPI DUP1 PUSH4 0x41976E09 EQ PUSH2 0xBE JUMPI DUP1 PUSH4 0x5F64B55B EQ PUSH2 0xEE JUMPI DUP1 PUSH4 0x715018A6 EQ PUSH2 0x10C JUMPI DUP1 PUSH4 0x8014A7AA EQ PUSH2 0x116 JUMPI JUMPDEST PUSH0 DUP1 REVERT JUMPDEST PUSH2 0xA8 PUSH2 0x1C0 JUMP JUMPDEST PUSH1 0x40 MLOAD PUSH2 0xB5 SWAP2 SWAP1 PUSH2 0x1370 JUMP JUMPDEST PUSH1 0x40 MLOAD DUP1 SWAP2 SUB SWAP1 RETURN JUMPDEST PUSH2 0xD8 PUSH1 0x4 DUP1 CALLDATASIZE SUB DUP2 ADD SWAP1 PUSH2 0xD3 SWAP2 SWAP1 PUSH2 0x13C8 JUMP JUMPDEST PUSH2 0x1E5 JUMP JUMPDEST PUSH1 0x40 MLOAD PUSH2 0xE5 SWAP2 SWAP1 PUSH2 0x140B JUMP JUMPDEST PUSH1 0x40 MLOAD DUP1 SWAP2 SUB SWAP1 RETURN JUMPDEST PUSH2 0xF6 PUSH2 0x4A5 JUMP JUMPDEST PUSH1 0x40 MLOAD PUSH2 0x103 SWAP2 SWAP1 PUSH2 0x1370 JUMP JUMPDEST PUSH1 0x40 MLOAD DUP1 SWAP2 SUB SWAP1 RETURN JUMPDEST PUSH2 0x114 PUSH2 0x4CA JUMP JUMPDEST STOP JUMPDEST PUSH2 0x130 PUSH1 0x4 DUP1 CALLDATASIZE SUB DUP2 ADD SWAP1 PUSH2 0x12B SWAP2 SWAP1 PUSH2 0x144E JUMP JUMPDEST PUSH2 0x4DD JUMP JUMPDEST STOP JUMPDEST PUSH2 0x13A PUSH2 0x844 JUMP JUMPDEST PUSH1 0x40 MLOAD PUSH2 0x147 SWAP2 SWAP1 PUSH2 0x1488 JUMP JUMPDEST PUSH1 0x40 MLOAD DUP1 SWAP2 SUB SWAP1 RETURN JUMPDEST PUSH2 0x16A PUSH1 0x4 DUP1 CALLDATASIZE SUB DUP2 ADD SWAP1 PUSH2 0x165 SWAP2 SWAP1 PUSH2 0x14A1 JUMP JUMPDEST PUSH2 0x86B JUMP JUMPDEST STOP JUMPDEST PUSH2 0x186 PUSH1 0x4 DUP1 CALLDATASIZE SUB DUP2 ADD SWAP1 PUSH2 0x181 SWAP2 SWAP1 PUSH2 0x14A1 JUMP JUMPDEST PUSH2 0xA3B JUMP JUMPDEST STOP JUMPDEST PUSH2 0x1A2 PUSH1 0x4 DUP1 CALLDATASIZE SUB DUP2 ADD SWAP1 PUSH2 0x19D SWAP2 SWAP1 PUSH2 0x144E JUMP JUMPDEST PUSH2 0xD43 JUMP JUMPDEST STOP JUMPDEST PUSH2 0x1BE PUSH1 0x4 DUP1 CALLDATASIZE SUB DUP2 ADD SWAP1 PUSH2 0x1B9 SWAP2 SWAP1 PUSH2 0x13C8 JUMP JUMPDEST PUSH2 0x10AA JUMP JUMPDEST STOP JUMPDEST PUSH1 0x1 PUSH0 SWAP1 SLOAD SWAP1 PUSH2 0x100 EXP SWAP1 DIV PUSH20 0xFFFFFFFFFFFFFFFFFFFFFFFFFFFFFFFFFFFFFFFF AND DUP2 JUMP JUMPDEST PUSH0 PUSH1 0x1 PUSH0 SWAP1 SLOAD SWAP1 PUSH2 0x100 EXP SWAP1 DIV PUSH20 0xFFFFFFFFFFFFFFFFFFFFFFFFFFFFFFFFFFFFFFFF AND PUSH20 0xFFFFFFFFFFFFFFFFFFFFFFFFFFFFFFFFFFFFFFFF AND DUP3 PUSH20 0xFFFFFFFFFFFFFFFFFFFFFFFFFFFFFFFFFFFFFFFF AND EQ DUP1 PUSH2 0x28D JUMPI POP PUSH1 0x2 PUSH0 SWAP1 SLOAD SWAP1 PUSH2 0x100 EXP SWAP1 DIV PUSH20 0xFFFFFFFFFFFFFFFFFFFFFFFFFFFFFFFFFFFFFFFF AND PUSH20 0xFFFFFFFFFFFFFFFFFFFFFFFFFFFFFFFFFFFFFFFF AND DUP3 PUSH20 0xFFFFFFFFFFFFFFFFFFFFFFFFFFFFFFFFFFFFFFFF AND EQ JUMPDEST PUSH2 0x2CC JUMPI PUSH1 0x40 MLOAD PUSH32 0x8C379A000000000000000000000000000000000000000000000000000000000 DUP2 MSTORE PUSH1 0x4 ADD PUSH2 0x2C3 SWAP1 PUSH2 0x1539 JUMP JUMPDEST PUSH1 0x40 MLOAD DUP1 SWAP2 SUB SWAP1 REVERT JUMPDEST PUSH0 PUSH1 0x1 PUSH0 SWAP1 SLOAD SWAP1 PUSH2 0x100 EXP SWAP1 DIV PUSH20 0xFFFFFFFFFFFFFFFFFFFFFFFFFFFFFFFFFFFFFFFF AND PUSH20 0xFFFFFFFFFFFFFFFFFFFFFFFFFFFFFFFFFFFFFFFF AND PUSH4 0x70A08231 ADDRESS PUSH1 0x40 MLOAD DUP3 PUSH4 0xFFFFFFFF AND PUSH1 0xE0 SHL DUP2 MSTORE PUSH1 0x4 ADD PUSH2 0x327 SWAP2 SWAP1 PUSH2 0x1488 JUMP JUMPDEST PUSH1 0x20 PUSH1 0x40 MLOAD DUP1 DUP4 SUB DUP2 DUP7 GAS STATICCALL ISZERO DUP1 ISZERO PUSH2 0x342 JUMPI RETURNDATASIZE PUSH0 DUP1 RETURNDATACOPY RETURNDATASIZE PUSH0 REVERT JUMPDEST POP POP POP POP PUSH1 0x40 MLOAD RETURNDATASIZE PUSH1 0x1F NOT PUSH1 0x1F DUP3 ADD AND DUP3 ADD DUP1 PUSH1 0x40 MSTORE POP DUP2 ADD SWAP1 PUSH2 0x366 SWAP2 SWAP1 PUSH2 0x156B JUMP JUMPDEST SWAP1 POP PUSH0 PUSH1 0x2 PUSH0 SWAP1 SLOAD SWAP1 PUSH2 0x100 EXP SWAP1 DIV PUSH20 0xFFFFFFFFFFFFFFFFFFFFFFFFFFFFFFFFFFFFFFFF AND PUSH20 0xFFFFFFFFFFFFFFFFFFFFFFFFFFFFFFFFFFFFFFFF AND PUSH4 0x70A08231 ADDRESS PUSH1 0x40 MLOAD DUP3 PUSH4 0xFFFFFFFF AND PUSH1 0xE0 SHL DUP2 MSTORE PUSH1 0x4 ADD PUSH2 0x3C3 SWAP2 SWAP1 PUSH2 0x1488 JUMP JUMPDEST PUSH1 0x20 PUSH1 0x40 MLOAD DUP1 DUP4 SUB DUP2 DUP7 GAS STATICCALL ISZERO DUP1 ISZERO PUSH2 0x3DE JUMPI RETURNDATASIZE PUSH0 DUP1 RETURNDATACOPY RETURNDATASIZE PUSH0 REVERT JUMPDEST POP POP POP POP PUSH1 0x40 MLOAD RETURNDATASIZE PUSH1 0x1F NOT PUSH1 0x1F DUP3 ADD AND DUP3 ADD DUP1 PUSH1 0x40 MSTORE POP DUP2 ADD SWAP1 PUSH2 0x402 SWAP2 SWAP1 PUSH2 0x156B JUMP JUMPDEST SWAP1 POP PUSH1 0x1 PUSH0 SWAP1 SLOAD SWAP1 PUSH2 0x100 EXP SWAP1 DIV PUSH20 0xFFFFFFFFFFFFFFFFFFFFFFFFFFFFFFFFFFFFFFFF AND PUSH20 0xFFFFFFFFFFFFFFFFFFFFFFFFFFFFFFFFFFFFFFFF AND DUP5 PUSH20 0xFFFFFFFFFFFFFFFFFFFFFFFFFFFFFFFFFFFFFFFF AND EQ PUSH2 0x47C JUMPI DUP1 PUSH8 0xDE0B6B3A7640000 DUP4 PUSH2 0x46D SWAP2 SWAP1 PUSH2 0x15C3 JUMP JUMPDEST PUSH2 0x477 SWAP2 SWAP1 PUSH2 0x1631 JUMP JUMPDEST PUSH2 0x49C JUMP JUMPDEST DUP2 PUSH8 0xDE0B6B3A7640000 DUP3 PUSH2 0x491 SWAP2 SWAP1 PUSH2 0x15C3 JUMP JUMPDEST PUSH2 0x49B SWAP2 SWAP1 PUSH2 0x1631 JUMP JUMPDEST JUMPDEST SWAP3 POP POP POP SWAP2 SWAP1 POP JUMP JUMPDEST PUSH1 0x2 PUSH0 SWAP1 SLOAD SWAP1 PUSH2 0x100 EXP SWAP1 DIV PUSH20 0xFFFFFFFFFFFFFFFFFFFFFFFFFFFFFFFFFFFFFFFF AND DUP2 JUMP JUMPDEST PUSH2 0x4D2 PUSH2 0x112E JUMP JUMPDEST PUSH2 0x4DB PUSH0 PUSH2 0x11B5 JUMP JUMPDEST JUMP JUMPDEST PUSH0 DUP2 GT PUSH2 0x51F JUMPI PUSH1 0x40 MLOAD PUSH32 0x8C379A000000000000000000000000000000000000000000000000000000000 DUP2 MSTORE PUSH1 0x4 ADD PUSH2 0x516 SWAP1 PUSH2 0x16AB JUMP JUMPDEST PUSH1 0x40 MLOAD DUP1 SWAP2 SUB SWAP1 REVERT JUMPDEST PUSH0 PUSH1 0x1 PUSH0 SWAP1 SLOAD SWAP1 PUSH2 0x100 EXP SWAP1 DIV PUSH20 0xFFFFFFFFFFFFFFFFFFFFFFFFFFFFFFFFFFFFFFFF AND PUSH20 0xFFFFFFFFFFFFFFFFFFFFFFFFFFFFFFFFFFFFFFFF AND PUSH4 0x70A08231 ADDRESS PUSH1 0x40 MLOAD DUP3 PUSH4 0xFFFFFFFF AND PUSH1 0xE0 SHL DUP2 MSTORE PUSH1 0x4 ADD PUSH2 0x57A SWAP2 SWAP1 PUSH2 0x1488 JUMP JUMPDEST PUSH1 0x20 PUSH1 0x40 MLOAD DUP1 DUP4 SUB DUP2 DUP7 GAS STATICCALL ISZERO DUP1 ISZERO PUSH2 0x595 JUMPI RETURNDATASIZE PUSH0 DUP1 RETURNDATACOPY RETURNDATASIZE PUSH0 REVERT JUMPDEST POP POP POP POP PUSH1 0x40 MLOAD RETURNDATASIZE PUSH1 0x1F NOT PUSH1 0x1F DUP3 ADD AND DUP3 ADD DUP1 PUSH1 0x40 MSTORE POP DUP2 ADD SWAP1 PUSH2 0x5B9 SWAP2 SWAP1 PUSH2 0x156B JUMP JUMPDEST SWAP1 POP PUSH0 PUSH1 0x2 PUSH0 SWAP1 SLOAD SWAP1 PUSH2 0x100 EXP SWAP1 DIV PUSH20 0xFFFFFFFFFFFFFFFFFFFFFFFFFFFFFFFFFFFFFFFF AND PUSH20 0xFFFFFFFFFFFFFFFFFFFFFFFFFFFFFFFFFFFFFFFF AND PUSH4 0x70A08231 ADDRESS PUSH1 0x40 MLOAD DUP3 PUSH4 0xFFFFFFFF AND PUSH1 0xE0 SHL DUP2 MSTORE PUSH1 0x4 ADD PUSH2 0x616 SWAP2 SWAP1 PUSH2 0x1488 JUMP JUMPDEST PUSH1 0x20 PUSH1 0x40 MLOAD DUP1 DUP4 SUB DUP2 DUP7 GAS STATICCALL ISZERO DUP1 ISZERO PUSH2 0x631 JUMPI RETURNDATASIZE PUSH0 DUP1 RETURNDATACOPY RETURNDATASIZE PUSH0 REVERT JUMPDEST POP POP POP POP PUSH1 0x40 MLOAD RETURNDATASIZE PUSH1 0x1F NOT PUSH1 0x1F DUP3 ADD AND DUP3 ADD DUP1 PUSH1 0x40 MSTORE POP DUP2 ADD SWAP1 PUSH2 0x655 SWAP2 SWAP1 PUSH2 0x156B JUMP JUMPDEST SWAP1 POP PUSH0 DUP3 GT DUP1 ISZERO PUSH2 0x665 JUMPI POP PUSH0 DUP2 GT JUMPDEST PUSH2 0x6A4 JUMPI PUSH1 0x40 MLOAD PUSH32 0x8C379A000000000000000000000000000000000000000000000000000000000 DUP2 MSTORE PUSH1 0x4 ADD PUSH2 0x69B SWAP1 PUSH2 0x1713 JUMP JUMPDEST PUSH1 0x40 MLOAD DUP1 SWAP2 SUB SWAP1 REVERT JUMPDEST PUSH0 PUSH2 0x6B0 DUP5 DUP4 DUP6 PUSH2 0x1276 JUMP JUMPDEST SWAP1 POP PUSH1 0x2 PUSH0 SWAP1 SLOAD SWAP1 PUSH2 0x100 EXP SWAP1 DIV PUSH20 0xFFFFFFFFFFFFFFFFFFFFFFFFFFFFFFFFFFFFFFFF AND PUSH20 0xFFFFFFFFFFFFFFFFFFFFFFFFFFFFFFFFFFFFFFFF AND PUSH4 0x23B872DD CALLER ADDRESS DUP8 PUSH1 0x40 MLOAD DUP5 PUSH4 0xFFFFFFFF AND PUSH1 0xE0 SHL DUP2 MSTORE PUSH1 0x4 ADD PUSH2 0x710 SWAP4 SWAP3 SWAP2 SWAP1 PUSH2 0x1731 JUMP JUMPDEST PUSH1 0x20 PUSH1 0x40 MLOAD DUP1 DUP4 SUB DUP2 PUSH0 DUP8 GAS CALL ISZERO DUP1 ISZERO PUSH2 0x72C JUMPI RETURNDATASIZE PUSH0 DUP1 RETURNDATACOPY RETURNDATASIZE PUSH0 REVERT JUMPDEST POP POP POP POP PUSH1 0x40 MLOAD RETURNDATASIZE PUSH1 0x1F NOT PUSH1 0x1F DUP3 ADD AND DUP3 ADD DUP1 PUSH1 0x40 MSTORE POP DUP2 ADD SWAP1 PUSH2 0x750 SWAP2 SWAP1 PUSH2 0x179B JUMP JUMPDEST POP PUSH1 0x1 PUSH0 SWAP1 SLOAD SWAP1 PUSH2 0x100 EXP SWAP1 DIV PUSH20 0xFFFFFFFFFFFFFFFFFFFFFFFFFFFFFFFFFFFFFFFF AND PUSH20 0xFFFFFFFFFFFFFFFFFFFFFFFFFFFFFFFFFFFFFFFF AND PUSH4 0xA9059CBB CALLER DUP4 PUSH1 0x40 MLOAD DUP4 PUSH4 0xFFFFFFFF AND PUSH1 0xE0 SHL DUP2 MSTORE PUSH1 0x4 ADD PUSH2 0x7AD SWAP3 SWAP2 SWAP1 PUSH2 0x17C6 JUMP JUMPDEST PUSH1 0x20 PUSH1 0x40 MLOAD DUP1 DUP4 SUB DUP2 PUSH0 DUP8 GAS CALL ISZERO DUP1 ISZERO PUSH2 0x7C9 JUMPI RETURNDATASIZE PUSH0 DUP1 RETURNDATACOPY RETURNDATASIZE PUSH0 REVERT JUMPDEST POP POP POP POP PUSH1 0x40 MLOAD RETURNDATASIZE PUSH1 0x1F NOT PUSH1 0x1F DUP3 ADD AND DUP3 ADD DUP1 PUSH1 0x40 MSTORE POP DUP2 ADD SWAP1 PUSH2 0x7ED SWAP2 SWAP1 PUSH2 0x179B JUMP JUMPDEST POP CALLER PUSH20 0xFFFFFFFFFFFFFFFFFFFFFFFFFFFFFFFFFFFFFFFF AND PUSH32 0xD5A1CD88DDD329CC1DDF861A21708EFA9EF3136B88E1420C21F91EF6F95AD024 DUP6 DUP4 PUSH1 0x40 MLOAD PUSH2 0x836 SWAP3 SWAP2 SWAP1 PUSH2 0x17ED JUMP JUMPDEST PUSH1 0x40 MLOAD DUP1 SWAP2 SUB SWAP1 LOG2 POP POP POP POP JUMP JUMPDEST PUSH0 DUP1 PUSH0 SWAP1 SLOAD SWAP1 PUSH2 0x100 EXP SWAP1 DIV PUSH20 0xFFFFFFFFFFFFFFFFFFFFFFFFFFFFFFFFFFFFFFFF AND SWAP1 POP SWAP1 JUMP JUMPDEST PUSH2 0x873 PUSH2 0x112E JUMP JUMPDEST PUSH0 DUP3 GT DUP1 ISZERO PUSH2 0x881 JUMPI POP PUSH0 DUP2 GT JUMPDEST PUSH2 0x8C0 JUMPI PUSH1 0x40 MLOAD PUSH32 0x8C379A000000000000000000000000000000000000000000000000000000000 DUP2 MSTORE PUSH1 0x4 ADD PUSH2 0x8B7 SWAP1 PUSH2 0x185E JUMP JUMPDEST PUSH1 0x40 MLOAD DUP1 SWAP2 SUB SWAP1 REVERT JUMPDEST PUSH1 0x1 PUSH0 SWAP1 SLOAD SWAP1 PUSH2 0x100 EXP SWAP1 DIV PUSH20 0xFFFFFFFFFFFFFFFFFFFFFFFFFFFFFFFFFFFFFFFF AND PUSH20 0xFFFFFFFFFFFFFFFFFFFFFFFFFFFFFFFFFFFFFFFF AND PUSH4 0x23B872DD CALLER ADDRESS DUP6 PUSH1 0x40 MLOAD DUP5 PUSH4 0xFFFFFFFF AND PUSH1 0xE0 SHL DUP2 MSTORE PUSH1 0x4 ADD PUSH2 0x91E SWAP4 SWAP3 SWAP2 SWAP1 PUSH2 0x1731 JUMP JUMPDEST PUSH1 0x20 PUSH1 0x40 MLOAD DUP1 DUP4 SUB DUP2 PUSH0 DUP8 GAS CALL ISZERO DUP1 ISZERO PUSH2 0x93A JUMPI RETURNDATASIZE PUSH0 DUP1 RETURNDATACOPY RETURNDATASIZE PUSH0 REVERT JUMPDEST POP POP POP POP PUSH1 0x40 MLOAD RETURNDATASIZE PUSH1 0x1F NOT PUSH1 0x1F DUP3 ADD AND DUP3 ADD DUP1 PUSH1 0x40 MSTORE POP DUP2 ADD SWAP1 PUSH2 0x95E SWAP2 SWAP1 PUSH2 0x179B JUMP JUMPDEST POP PUSH1 0x2 PUSH0 SWAP1 SLOAD SWAP1 PUSH2 0x100 EXP SWAP1 DIV PUSH20 0xFFFFFFFFFFFFFFFFFFFFFFFFFFFFFFFFFFFFFFFF AND PUSH20 0xFFFFFFFFFFFFFFFFFFFFFFFFFFFFFFFFFFFFFFFF AND PUSH4 0x23B872DD CALLER ADDRESS DUP5 PUSH1 0x40 MLOAD DUP5 PUSH4 0xFFFFFFFF AND PUSH1 0xE0 SHL DUP2 MSTORE PUSH1 0x4 ADD PUSH2 0x9BD SWAP4 SWAP3 SWAP2 SWAP1 PUSH2 0x1731 JUMP JUMPDEST PUSH1 0x20 PUSH1 0x40 MLOAD DUP1 DUP4 SUB DUP2 PUSH0 DUP8 GAS CALL ISZERO DUP1 ISZERO PUSH2 0x9D9 JUMPI RETURNDATASIZE PUSH0 DUP1 RETURNDATACOPY RETURNDATASIZE PUSH0 REVERT JUMPDEST POP POP POP POP PUSH1 0x40 MLOAD RETURNDATASIZE PUSH1 0x1F NOT PUSH1 0x1F DUP3 ADD AND DUP3 ADD DUP1 PUSH1 0x40 MSTORE POP DUP2 ADD SWAP1 PUSH2 0x9FD SWAP2 SWAP1 PUSH2 0x179B JUMP JUMPDEST POP PUSH32 0x38F8A0C92F4C5B0B6877F878CB4C0C8D348A47B76D716C8E78F425043DF9515B DUP3 DUP3 PUSH1 0x40 MLOAD PUSH2 0xA2F SWAP3 SWAP2 SWAP1 PUSH2 0x17ED JUMP JUMPDEST PUSH1 0x40 MLOAD DUP1 SWAP2 SUB SWAP1 LOG1 POP POP JUMP JUMPDEST PUSH2 0xA43 PUSH2 0x112E JUMP JUMPDEST PUSH0 PUSH1 0x1 PUSH0 SWAP1 SLOAD SWAP1 PUSH2 0x100 EXP SWAP1 DIV PUSH20 0xFFFFFFFFFFFFFFFFFFFFFFFFFFFFFFFFFFFFFFFF AND PUSH20 0xFFFFFFFFFFFFFFFFFFFFFFFFFFFFFFFFFFFFFFFF AND PUSH4 0x70A08231 ADDRESS PUSH1 0x40 MLOAD DUP3 PUSH4 0xFFFFFFFF AND PUSH1 0xE0 SHL DUP2 MSTORE PUSH1 0x4 ADD PUSH2 0xA9E SWAP2 SWAP1 PUSH2 0x1488 JUMP JUMPDEST PUSH1 0x20 PUSH1 0x40 MLOAD DUP1 DUP4 SUB DUP2 DUP7 GAS STATICCALL ISZERO DUP1 ISZERO PUSH2 0xAB9 JUMPI RETURNDATASIZE PUSH0 DUP1 RETURNDATACOPY RETURNDATASIZE PUSH0 REVERT JUMPDEST POP POP POP POP PUSH1 0x40 MLOAD RETURNDATASIZE PUSH1 0x1F NOT PUSH1 0x1F DUP3 ADD AND DUP3 ADD DUP1 PUSH1 0x40 MSTORE POP DUP2 ADD SWAP1 PUSH2 0xADD SWAP2 SWAP1 PUSH2 0x156B JUMP JUMPDEST SWAP1 POP PUSH0 PUSH1 0x2 PUSH0 SWAP1 SLOAD SWAP1 PUSH2 0x100 EXP SWAP1 DIV PUSH20 0xFFFFFFFFFFFFFFFFFFFFFFFFFFFFFFFFFFFFFFFF AND PUSH20 0xFFFFFFFFFFFFFFFFFFFFFFFFFFFFFFFFFFFFFFFF AND PUSH4 0x70A08231 ADDRESS PUSH1 0x40 MLOAD DUP3 PUSH4 0xFFFFFFFF AND PUSH1 0xE0 SHL DUP2 MSTORE PUSH1 0x4 ADD PUSH2 0xB3A SWAP2 SWAP1 PUSH2 0x1488 JUMP JUMPDEST PUSH1 0x20 PUSH1 0x40 MLOAD DUP1 DUP4 SUB DUP2 DUP7 GAS STATICCALL ISZERO DUP1 ISZERO PUSH2 0xB55 JUMPI RETURNDATASIZE PUSH0 DUP1 RETURNDATACOPY RETURNDATASIZE PUSH0 REVERT JUMPDEST POP POP POP POP PUSH1 0x40 MLOAD RETURNDATASIZE PUSH1 0x1F NOT PUSH1 0x1F DUP3 ADD AND DUP3 ADD DUP1 PUSH1 0x40 MSTORE POP DUP2 ADD SWAP1 PUSH2 0xB79 SWAP2 SWAP1 PUSH2 0x156B JUMP JUMPDEST SWAP1 POP DUP2 DUP5 GT ISZERO DUP1 ISZERO PUSH2 0xB8B JUMPI POP DUP1 DUP4 GT ISZERO JUMPDEST PUSH2 0xBCA JUMPI PUSH1 0x40 MLOAD PUSH32 0x8C379A000000000000000000000000000000000000000000000000000000000 DUP2 MSTORE PUSH1 0x4 ADD PUSH2 0xBC1 SWAP1 PUSH2 0x18C6 JUMP JUMPDEST PUSH1 0x40 MLOAD DUP1 SWAP2 SUB SWAP1 REVERT JUMPDEST PUSH1 0x1 PUSH0 SWAP1 SLOAD SWAP1 PUSH2 0x100 EXP SWAP1 DIV PUSH20 0xFFFFFFFFFFFFFFFFFFFFFFFFFFFFFFFFFFFFFFFF AND PUSH20 0xFFFFFFFFFFFFFFFFFFFFFFFFFFFFFFFFFFFFFFFF AND PUSH4 0xA9059CBB CALLER DUP7 PUSH1 0x40 MLOAD DUP4 PUSH4 0xFFFFFFFF AND PUSH1 0xE0 SHL DUP2 MSTORE PUSH1 0x4 ADD PUSH2 0xC26 SWAP3 SWAP2 SWAP1 PUSH2 0x17C6 JUMP JUMPDEST PUSH1 0x20 PUSH1 0x40 MLOAD DUP1 DUP4 SUB DUP2 PUSH0 DUP8 GAS CALL ISZERO DUP1 ISZERO PUSH2 0xC42 JUMPI RETURNDATASIZE PUSH0 DUP1 RETURNDATACOPY RETURNDATASIZE PUSH0 REVERT JUMPDEST POP POP POP POP PUSH1 0x40 MLOAD RETURNDATASIZE PUSH1 0x1F NOT PUSH1 0x1F DUP3 ADD AND DUP3 ADD DUP1 PUSH1 0x40 MSTORE POP DUP2 ADD SWAP1 PUSH2 0xC66 SWAP2 SWAP1 PUSH2 0x179B JUMP JUMPDEST POP PUSH1 0x2 PUSH0 SWAP1 SLOAD SWAP1 PUSH2 0x100 EXP SWAP1 DIV PUSH20 0xFFFFFFFFFFFFFFFFFFFFFFFFFFFFFFFFFFFFFFFF AND PUSH20 0xFFFFFFFFFFFFFFFFFFFFFFFFFFFFFFFFFFFFFFFF AND PUSH4 0xA9059CBB CALLER DUP6 PUSH1 0x40 MLOAD DUP4 PUSH4 0xFFFFFFFF AND PUSH1 0xE0 SHL DUP2 MSTORE PUSH1 0x4 ADD PUSH2 0xCC3 SWAP3 SWAP2 SWAP1 PUSH2 0x17C6 JUMP JUMPDEST PUSH1 0x20 PUSH1 0x40 MLOAD DUP1 DUP4 SUB DUP2 PUSH0 DUP8 GAS CALL ISZERO DUP1 ISZERO PUSH2 0xCDF JUMPI RETURNDATASIZE PUSH0 DUP1 RETURNDATACOPY RETURNDATASIZE PUSH0 REVERT JUMPDEST POP POP POP POP PUSH1 0x40 MLOAD RETURNDATASIZE PUSH1 0x1F NOT PUSH1 0x1F DUP3 ADD AND DUP3 ADD DUP1 PUSH1 0x40 MSTORE POP DUP2 ADD SWAP1 PUSH2 0xD03 SWAP2 SWAP1 PUSH2 0x179B JUMP JUMPDEST POP PUSH32 0x6F0F96292AE0038C04F9B6BAB30F185D9CA02C471D0983F563F2A4F674AEF137 DUP5 DUP5 PUSH1 0x40 MLOAD PUSH2 0xD35 SWAP3 SWAP2 SWAP1 PUSH2 0x17ED JUMP JUMPDEST PUSH1 0x40 MLOAD DUP1 SWAP2 SUB SWAP1 LOG1 POP POP POP POP JUMP JUMPDEST PUSH0 DUP2 GT PUSH2 0xD85 JUMPI PUSH1 0x40 MLOAD PUSH32 0x8C379A000000000000000000000000000000000000000000000000000000000 DUP2 MSTORE PUSH1 0x4 ADD PUSH2 0xD7C SWAP1 PUSH2 0x16AB JUMP JUMPDEST PUSH1 0x40 MLOAD DUP1 SWAP2 SUB SWAP1 REVERT JUMPDEST PUSH0 PUSH1 0x1 PUSH0 SWAP1 SLOAD SWAP1 PUSH2 0x100 EXP SWAP1 DIV PUSH20 0xFFFFFFFFFFFFFFFFFFFFFFFFFFFFFFFFFFFFFFFF AND PUSH20 0xFFFFFFFFFFFFFFFFFFFFFFFFFFFFFFFFFFFFFFFF AND PUSH4 0x70A08231 ADDRESS PUSH1 0x40 MLOAD DUP3 PUSH4 0xFFFFFFFF AND PUSH1 0xE0 SHL DUP2 MSTORE PUSH1 0x4 ADD PUSH2 0xDE0 SWAP2 SWAP1 PUSH2 0x1488 JUMP JUMPDEST PUSH1 0x20 PUSH1 0x40 MLOAD DUP1 DUP4 SUB DUP2 DUP7 GAS STATICCALL ISZERO DUP1 ISZERO PUSH2 0xDFB JUMPI RETURNDATASIZE PUSH0 DUP1 RETURNDATACOPY RETURNDATASIZE PUSH0 REVERT JUMPDEST POP POP POP POP PUSH1 0x40 MLOAD RETURNDATASIZE PUSH1 0x1F NOT PUSH1 0x1F DUP3 ADD AND DUP3 ADD DUP1 PUSH1 0x40 MSTORE POP DUP2 ADD SWAP1 PUSH2 0xE1F SWAP2 SWAP1 PUSH2 0x156B JUMP JUMPDEST SWAP1 POP PUSH0 PUSH1 0x2 PUSH0 SWAP1 SLOAD SWAP1 PUSH2 0x100 EXP SWAP1 DIV PUSH20 0xFFFFFFFFFFFFFFFFFFFFFFFFFFFFFFFFFFFFFFFF AND PUSH20 0xFFFFFFFFFFFFFFFFFFFFFFFFFFFFFFFFFFFFFFFF AND PUSH4 0x70A08231 ADDRESS PUSH1 0x40 MLOAD DUP3 PUSH4 0xFFFFFFFF AND PUSH1 0xE0 SHL DUP2 MSTORE PUSH1 0x4 ADD PUSH2 0xE7C SWAP2 SWAP1 PUSH2 0x1488 JUMP JUMPDEST PUSH1 0x20 PUSH1 0x40 MLOAD DUP1 DUP4 SUB DUP2 DUP7 GAS STATICCALL ISZERO DUP1 ISZERO PUSH2 0xE97 JUMPI RETURNDATASIZE PUSH0 DUP1 RETURNDATACOPY RETURNDATASIZE PUSH0 REVERT JUMPDEST POP POP POP POP PUSH1 0x40 MLOAD RETURNDATASIZE PUSH1 0x1F NOT PUSH1 0x1F DUP3 ADD AND DUP3 ADD DUP1 PUSH1 0x40 MSTORE POP DUP2 ADD SWAP1 PUSH2 0xEBB SWAP2 SWAP1 PUSH2 0x156B JUMP JUMPDEST SWAP1 POP PUSH0 DUP3 GT DUP1 ISZERO PUSH2 0xECB JUMPI POP PUSH0 DUP2 GT JUMPDEST PUSH2 0xF0A JUMPI PUSH1 0x40 MLOAD PUSH32 0x8C379A000000000000000000000000000000000000000000000000000000000 DUP2 MSTORE PUSH1 0x4 ADD PUSH2 0xF01 SWAP1 PUSH2 0x1713 JUMP JUMPDEST PUSH1 0x40 MLOAD DUP1 SWAP2 SUB SWAP1 REVERT JUMPDEST PUSH0 PUSH2 0xF16 DUP5 DUP5 DUP5 PUSH2 0x1276 JUMP JUMPDEST SWAP1 POP PUSH1 0x1 PUSH0 SWAP1 SLOAD SWAP1 PUSH2 0x100 EXP SWAP1 DIV PUSH20 0xFFFFFFFFFFFFFFFFFFFFFFFFFFFFFFFFFFFFFFFF AND PUSH20 0xFFFFFFFFFFFFFFFFFFFFFFFFFFFFFFFFFFFFFFFF AND PUSH4 0x23B872DD CALLER ADDRESS DUP8 PUSH1 0x40 MLOAD DUP5 PUSH4 0xFFFFFFFF AND PUSH1 0xE0 SHL DUP2 MSTORE PUSH1 0x4 ADD PUSH2 0xF76 SWAP4 SWAP3 SWAP2 SWAP1 PUSH2 0x1731 JUMP JUMPDEST PUSH1 0x20 PUSH1 0x40 MLOAD DUP1 DUP4 SUB DUP2 PUSH0 DUP8 GAS CALL ISZERO DUP1 ISZERO PUSH2 0xF92 JUMPI RETURNDATASIZE PUSH0 DUP1 RETURNDATACOPY RETURNDATASIZE PUSH0 REVERT JUMPDEST POP POP POP POP PUSH1 0x40 MLOAD RETURNDATASIZE PUSH1 0x1F NOT PUSH1 0x1F DUP3 ADD AND DUP3 ADD DUP1 PUSH1 0x40 MSTORE POP DUP2 ADD SWAP1 PUSH2 0xFB6 SWAP2 SWAP1 PUSH2 0x179B JUMP JUMPDEST POP PUSH1 0x2 PUSH0 SWAP1 SLOAD SWAP1 PUSH2 0x100 EXP SWAP1 DIV PUSH20 0xFFFFFFFFFFFFFFFFFFFFFFFFFFFFFFFFFFFFFFFF AND PUSH20 0xFFFFFFFFFFFFFFFFFFFFFFFFFFFFFFFFFFFFFFFF AND PUSH4 0xA9059CBB CALLER DUP4 PUSH1 0x40 MLOAD DUP4 PUSH4 0xFFFFFFFF AND PUSH1 0xE0 SHL DUP2 MSTORE PUSH1 0x4 ADD PUSH2 0x1013 SWAP3 SWAP2 SWAP1 PUSH2 0x17C6 JUMP JUMPDEST PUSH1 0x20 PUSH1 0x40 MLOAD DUP1 DUP4 SUB DUP2 PUSH0 DUP8 GAS CALL ISZERO DUP1 ISZERO PUSH2 0x102F JUMPI RETURNDATASIZE PUSH0 DUP1 RETURNDATACOPY RETURNDATASIZE PUSH0 REVERT JUMPDEST POP POP POP POP PUSH1 0x40 MLOAD RETURNDATASIZE PUSH1 0x1F NOT PUSH1 0x1F DUP3 ADD AND DUP3 ADD DUP1 PUSH1 0x40 MSTORE POP DUP2 ADD SWAP1 PUSH2 0x1053 SWAP2 SWAP1 PUSH2 0x179B JUMP JUMPDEST POP CALLER PUSH20 0xFFFFFFFFFFFFFFFFFFFFFFFFFFFFFFFFFFFFFFFF AND PUSH32 0xD5A1CD88DDD329CC1DDF861A21708EFA9EF3136B88E1420C21F91EF6F95AD024 DUP6 DUP4 PUSH1 0x40 MLOAD PUSH2 0x109C SWAP3 SWAP2 SWAP1 PUSH2 0x17ED JUMP JUMPDEST PUSH1 0x40 MLOAD DUP1 SWAP2 SUB SWAP1 LOG2 POP POP POP POP JUMP JUMPDEST PUSH2 0x10B2 PUSH2 0x112E JUMP JUMPDEST PUSH0 PUSH20 0xFFFFFFFFFFFFFFFFFFFFFFFFFFFFFFFFFFFFFFFF AND DUP2 PUSH20 0xFFFFFFFFFFFFFFFFFFFFFFFFFFFFFFFFFFFFFFFF AND SUB PUSH2 0x1122 JUMPI PUSH0 PUSH1 0x40 MLOAD PUSH32 0x1E4FBDF700000000000000000000000000000000000000000000000000000000 DUP2 MSTORE PUSH1 0x4 ADD PUSH2 0x1119 SWAP2 SWAP1 PUSH2 0x1488 JUMP JUMPDEST PUSH1 0x40 MLOAD DUP1 SWAP2 SUB SWAP1 REVERT JUMPDEST PUSH2 0x112B DUP2 PUSH2 0x11B5 JUMP JUMPDEST POP JUMP JUMPDEST PUSH2 0x1136 PUSH2 0x12EF JUMP JUMPDEST PUSH20 0xFFFFFFFFFFFFFFFFFFFFFFFFFFFFFFFFFFFFFFFF AND PUSH2 0x1154 PUSH2 0x844 JUMP JUMPDEST PUSH20 0xFFFFFFFFFFFFFFFFFFFFFFFFFFFFFFFFFFFFFFFF AND EQ PUSH2 0x11B3 JUMPI PUSH2 0x1177 PUSH2 0x12EF JUMP JUMPDEST PUSH1 0x40 MLOAD PUSH32 0x118CDAA700000000000000000000000000000000000000000000000000000000 DUP2 MSTORE PUSH1 0x4 ADD PUSH2 0x11AA SWAP2 SWAP1 PUSH2 0x1488 JUMP JUMPDEST PUSH1 0x40 MLOAD DUP1 SWAP2 SUB SWAP1 REVERT JUMPDEST JUMP JUMPDEST PUSH0 DUP1 PUSH0 SWAP1 SLOAD SWAP1 PUSH2 0x100 EXP SWAP1 DIV PUSH20 0xFFFFFFFFFFFFFFFFFFFFFFFFFFFFFFFFFFFFFFFF AND SWAP1 POP DUP2 PUSH0 DUP1 PUSH2 0x100 EXP DUP2 SLOAD DUP2 PUSH20 0xFFFFFFFFFFFFFFFFFFFFFFFFFFFFFFFFFFFFFFFF MUL NOT AND SWAP1 DUP4 PUSH20 0xFFFFFFFFFFFFFFFFFFFFFFFFFFFFFFFFFFFFFFFF AND MUL OR SWAP1 SSTORE POP DUP2 PUSH20 0xFFFFFFFFFFFFFFFFFFFFFFFFFFFFFFFFFFFFFFFF AND DUP2 PUSH20 0xFFFFFFFFFFFFFFFFFFFFFFFFFFFFFFFFFFFFFFFF AND PUSH32 0x8BE0079C531659141344CD1FD0A4F28419497F9722A3DAAFE3B4186F6B6457E0 PUSH1 0x40 MLOAD PUSH1 0x40 MLOAD DUP1 SWAP2 SUB SWAP1 LOG3 POP POP JUMP JUMPDEST PUSH0 DUP1 DUP4 GT DUP1 ISZERO PUSH2 0x1285 JUMPI POP PUSH0 DUP3 GT JUMPDEST PUSH2 0x12C4 JUMPI PUSH1 0x40 MLOAD PUSH32 0x8C379A000000000000000000000000000000000000000000000000000000000 DUP2 MSTORE PUSH1 0x4 ADD PUSH2 0x12BB SWAP1 PUSH2 0x192E JUMP JUMPDEST PUSH1 0x40 MLOAD DUP1 SWAP2 SUB SWAP1 REVERT JUMPDEST DUP4 DUP4 PUSH2 0x12D0 SWAP2 SWAP1 PUSH2 0x194C JUMP JUMPDEST DUP3 DUP6 PUSH2 0x12DC SWAP2 SWAP1 PUSH2 0x15C3 JUMP JUMPDEST PUSH2 0x12E6 SWAP2 SWAP1 PUSH2 0x1631 JUMP JUMPDEST SWAP1 POP SWAP4 SWAP3 POP POP POP JUMP JUMPDEST PUSH0 CALLER SWAP1 POP SWAP1 JUMP JUMPDEST PUSH0 PUSH20 0xFFFFFFFFFFFFFFFFFFFFFFFFFFFFFFFFFFFFFFFF DUP3 AND SWAP1 POP SWAP2 SWAP1 POP JUMP JUMPDEST PUSH0 DUP2 SWAP1 POP SWAP2 SWAP1 POP JUMP JUMPDEST PUSH0 PUSH2 0x1338 PUSH2 0x1333 PUSH2 0x132E DUP5 PUSH2 0x12F6 JUMP JUMPDEST PUSH2 0x1315 JUMP JUMPDEST PUSH2 0x12F6 JUMP JUMPDEST SWAP1 POP SWAP2 SWAP1 POP JUMP JUMPDEST PUSH0 PUSH2 0x1349 DUP3 PUSH2 0x131E JUMP JUMPDEST SWAP1 POP SWAP2 SWAP1 POP JUMP JUMPDEST PUSH0 PUSH2 0x135A DUP3 PUSH2 0x133F JUMP JUMPDEST SWAP1 POP SWAP2 SWAP1 POP JUMP JUMPDEST PUSH2 0x136A DUP2 PUSH2 0x1350 JUMP JUMPDEST DUP3 MSTORE POP POP JUMP JUMPDEST PUSH0 PUSH1 0x20 DUP3 ADD SWAP1 POP PUSH2 0x1383 PUSH0 DUP4 ADD DUP5 PUSH2 0x1361 JUMP JUMPDEST SWAP3 SWAP2 POP POP JUMP JUMPDEST PUSH0 DUP1 REVERT JUMPDEST PUSH0 PUSH2 0x1397 DUP3 PUSH2 0x12F6 JUMP JUMPDEST SWAP1 POP SWAP2 SWAP1 POP JUMP JUMPDEST PUSH2 0x13A7 DUP2 PUSH2 0x138D JUMP JUMPDEST DUP2 EQ PUSH2 0x13B1 JUMPI PUSH0 DUP1 REVERT JUMPDEST POP JUMP JUMPDEST PUSH0 DUP2 CALLDATALOAD SWAP1 POP PUSH2 0x13C2 DUP2 PUSH2 0x139E JUMP JUMPDEST SWAP3 SWAP2 POP POP JUMP JUMPDEST PUSH0 PUSH1 0x20 DUP3 DUP5 SUB SLT ISZERO PUSH2 0x13DD JUMPI PUSH2 0x13DC PUSH2 0x1389 JUMP JUMPDEST JUMPDEST PUSH0 PUSH2 0x13EA DUP5 DUP3 DUP6 ADD PUSH2 0x13B4 JUMP JUMPDEST SWAP2 POP POP SWAP3 SWAP2 POP POP JUMP JUMPDEST PUSH0 DUP2 SWAP1 POP SWAP2 SWAP1 POP JUMP JUMPDEST PUSH2 0x1405 DUP2 PUSH2 0x13F3 JUMP JUMPDEST DUP3 MSTORE POP POP JUMP JUMPDEST PUSH0 PUSH1 0x20 DUP3 ADD SWAP1 POP PUSH2 0x141E PUSH0 DUP4 ADD DUP5 PUSH2 0x13FC JUMP JUMPDEST SWAP3 SWAP2 POP POP JUMP JUMPDEST PUSH2 0x142D DUP2 PUSH2 0x13F3 JUMP JUMPDEST DUP2 EQ PUSH2 0x1437 JUMPI PUSH0 DUP1 REVERT JUMPDEST POP JUMP JUMPDEST PUSH0 DUP2 CALLDATALOAD SWAP1 POP PUSH2 0x1448 DUP2 PUSH2 0x1424 JUMP JUMPDEST SWAP3 SWAP2 POP POP JUMP JUMPDEST PUSH0 PUSH1 0x20 DUP3 DUP5 SUB SLT ISZERO PUSH2 0x1463 JUMPI PUSH2 0x1462 PUSH2 0x1389 JUMP JUMPDEST JUMPDEST PUSH0 PUSH2 0x1470 DUP5 DUP3 DUP6 ADD PUSH2 0x143A JUMP JUMPDEST SWAP2 POP POP SWAP3 SWAP2 POP POP JUMP JUMPDEST PUSH2 0x1482 DUP2 PUSH2 0x138D JUMP JUMPDEST DUP3 MSTORE POP POP JUMP JUMPDEST PUSH0 PUSH1 0x20 DUP3 ADD SWAP1 POP PUSH2 0x149B PUSH0 DUP4 ADD DUP5 PUSH2 0x1479 JUMP JUMPDEST SWAP3 SWAP2 POP POP JUMP JUMPDEST PUSH0 DUP1 PUSH1 0x40 DUP4 DUP6 SUB SLT ISZERO PUSH2 0x14B7 JUMPI PUSH2 0x14B6 PUSH2 0x1389 JUMP JUMPDEST JUMPDEST PUSH0 PUSH2 0x14C4 DUP6 DUP3 DUP7 ADD PUSH2 0x143A JUMP JUMPDEST SWAP3 POP POP PUSH1 0x20 PUSH2 0x14D5 DUP6 DUP3 DUP7 ADD PUSH2 0x143A JUMP JUMPDEST SWAP2 POP POP SWAP3 POP SWAP3 SWAP1 POP JUMP JUMPDEST PUSH0 DUP3 DUP3 MSTORE PUSH1 0x20 DUP3 ADD SWAP1 POP SWAP3 SWAP2 POP POP JUMP JUMPDEST PUSH32 0x496E76616C696420746F6B656E20616464726573730000000000000000000000 PUSH0 DUP3 ADD MSTORE POP JUMP JUMPDEST PUSH0 PUSH2 0x1523 PUSH1 0x15 DUP4 PUSH2 0x14DF JUMP JUMPDEST SWAP2 POP PUSH2 0x152E DUP3 PUSH2 0x14EF JUMP JUMPDEST PUSH1 0x20 DUP3 ADD SWAP1 POP SWAP2 SWAP1 POP JUMP JUMPDEST PUSH0 PUSH1 0x20 DUP3 ADD SWAP1 POP DUP2 DUP2 SUB PUSH0 DUP4 ADD MSTORE PUSH2 0x1550 DUP2 PUSH2 0x1517 JUMP JUMPDEST SWAP1 POP SWAP2 SWAP1 POP JUMP JUMPDEST PUSH0 DUP2 MLOAD SWAP1 POP PUSH2 0x1565 DUP2 PUSH2 0x1424 JUMP JUMPDEST SWAP3 SWAP2 POP POP JUMP JUMPDEST PUSH0 PUSH1 0x20 DUP3 DUP5 SUB SLT ISZERO PUSH2 0x1580 JUMPI PUSH2 0x157F PUSH2 0x1389 JUMP JUMPDEST JUMPDEST PUSH0 PUSH2 0x158D DUP5 DUP3 DUP6 ADD PUSH2 0x1557 JUMP JUMPDEST SWAP2 POP POP SWAP3 SWAP2 POP POP JUMP JUMPDEST PUSH32 0x4E487B7100000000000000000000000000000000000000000000000000000000 PUSH0 MSTORE PUSH1 0x11 PUSH1 0x4 MSTORE PUSH1 0x24 PUSH0 REVERT JUMPDEST PUSH0 PUSH2 0x15CD DUP3 PUSH2 0x13F3 JUMP JUMPDEST SWAP2 POP PUSH2 0x15D8 DUP4 PUSH2 0x13F3 JUMP JUMPDEST SWAP3 POP DUP3 DUP3 MUL PUSH2 0x15E6 DUP2 PUSH2 0x13F3 JUMP JUMPDEST SWAP2 POP DUP3 DUP3 DIV DUP5 EQ DUP4 ISZERO OR PUSH2 0x15FD JUMPI PUSH2 0x15FC PUSH2 0x1596 JUMP JUMPDEST JUMPDEST POP SWAP3 SWAP2 POP POP JUMP JUMPDEST PUSH32 0x4E487B7100000000000000000000000000000000000000000000000000000000 PUSH0 MSTORE PUSH1 0x12 PUSH1 0x4 MSTORE PUSH1 0x24 PUSH0 REVERT JUMPDEST PUSH0 PUSH2 0x163B DUP3 PUSH2 0x13F3 JUMP JUMPDEST SWAP2 POP PUSH2 0x1646 DUP4 PUSH2 0x13F3 JUMP JUMPDEST SWAP3 POP DUP3 PUSH2 0x1656 JUMPI PUSH2 0x1655 PUSH2 0x1604 JUMP JUMPDEST JUMPDEST DUP3 DUP3 DIV SWAP1 POP SWAP3 SWAP2 POP POP JUMP JUMPDEST PUSH32 0x496E70757420616D6F756E74206D757374206265203E20300000000000000000 PUSH0 DUP3 ADD MSTORE POP JUMP JUMPDEST PUSH0 PUSH2 0x1695 PUSH1 0x18 DUP4 PUSH2 0x14DF JUMP JUMPDEST SWAP2 POP PUSH2 0x16A0 DUP3 PUSH2 0x1661 JUMP JUMPDEST PUSH1 0x20 DUP3 ADD SWAP1 POP SWAP2 SWAP1 POP JUMP JUMPDEST PUSH0 PUSH1 0x20 DUP3 ADD SWAP1 POP DUP2 DUP2 SUB PUSH0 DUP4 ADD MSTORE PUSH2 0x16C2 DUP2 PUSH2 0x1689 JUMP JUMPDEST SWAP1 POP SWAP2 SWAP1 POP JUMP JUMPDEST PUSH32 0x496E73756666696369656E74206C697175696469747900000000000000000000 PUSH0 DUP3 ADD MSTORE POP JUMP JUMPDEST PUSH0 PUSH2 0x16FD PUSH1 0x16 DUP4 PUSH2 0x14DF JUMP JUMPDEST SWAP2 POP PUSH2 0x1708 DUP3 PUSH2 0x16C9 JUMP JUMPDEST PUSH1 0x20 DUP3 ADD SWAP1 POP SWAP2 SWAP1 POP JUMP JUMPDEST PUSH0 PUSH1 0x20 DUP3 ADD SWAP1 POP DUP2 DUP2 SUB PUSH0 DUP4 ADD MSTORE PUSH2 0x172A DUP2 PUSH2 0x16F1 JUMP JUMPDEST SWAP1 POP SWAP2 SWAP1 POP JUMP JUMPDEST PUSH0 PUSH1 0x60 DUP3 ADD SWAP1 POP PUSH2 0x1744 PUSH0 DUP4 ADD DUP7 PUSH2 0x1479 JUMP JUMPDEST PUSH2 0x1751 PUSH1 0x20 DUP4 ADD DUP6 PUSH2 0x1479 JUMP JUMPDEST PUSH2 0x175E PUSH1 0x40 DUP4 ADD DUP5 PUSH2 0x13FC JUMP JUMPDEST SWAP5 SWAP4 POP POP POP POP JUMP JUMPDEST PUSH0 DUP2 ISZERO ISZERO SWAP1 POP SWAP2 SWAP1 POP JUMP JUMPDEST PUSH2 0x177A DUP2 PUSH2 0x1766 JUMP JUMPDEST DUP2 EQ PUSH2 0x1784 JUMPI PUSH0 DUP1 REVERT JUMPDEST POP JUMP JUMPDEST PUSH0 DUP2 MLOAD SWAP1 POP PUSH2 0x1795 DUP2 PUSH2 0x1771 JUMP JUMPDEST SWAP3 SWAP2 POP POP JUMP JUMPDEST PUSH0 PUSH1 0x20 DUP3 DUP5 SUB SLT ISZERO PUSH2 0x17B0 JUMPI PUSH2 0x17AF PUSH2 0x1389 JUMP JUMPDEST JUMPDEST PUSH0 PUSH2 0x17BD DUP5 DUP3 DUP6 ADD PUSH2 0x1787 JUMP JUMPDEST SWAP2 POP POP SWAP3 SWAP2 POP POP JUMP JUMPDEST PUSH0 PUSH1 0x40 DUP3 ADD SWAP1 POP PUSH2 0x17D9 PUSH0 DUP4 ADD DUP6 PUSH2 0x1479 JUMP JUMPDEST PUSH2 0x17E6 PUSH1 0x20 DUP4 ADD DUP5 PUSH2 0x13FC JUMP JUMPDEST SWAP4 SWAP3 POP POP POP JUMP JUMPDEST PUSH0 PUSH1 0x40 DUP3 ADD SWAP1 POP PUSH2 0x1800 PUSH0 DUP4 ADD DUP6 PUSH2 0x13FC JUMP JUMPDEST PUSH2 0x180D PUSH1 0x20 DUP4 ADD DUP5 PUSH2 0x13FC JUMP JUMPDEST SWAP4 SWAP3 POP POP POP JUMP JUMPDEST PUSH32 0x416D6F756E7473206D757374206265203E203000000000000000000000000000 PUSH0 DUP3 ADD MSTORE POP JUMP JUMPDEST PUSH0 PUSH2 0x1848 PUSH1 0x13 DUP4 PUSH2 0x14DF JUMP JUMPDEST SWAP2 POP PUSH2 0x1853 DUP3 PUSH2 0x1814 JUMP JUMPDEST PUSH1 0x20 DUP3 ADD SWAP1 POP SWAP2 SWAP1 POP JUMP JUMPDEST PUSH0 PUSH1 0x20 DUP3 ADD SWAP1 POP DUP2 DUP2 SUB PUSH0 DUP4 ADD MSTORE PUSH2 0x1875 DUP2 PUSH2 0x183C JUMP JUMPDEST SWAP1 POP SWAP2 SWAP1 POP JUMP JUMPDEST PUSH32 0x4E6F7420656E6F756768206C697175696469747920617661696C61626C650000 PUSH0 DUP3 ADD MSTORE POP JUMP JUMPDEST PUSH0 PUSH2 0x18B0 PUSH1 0x1E DUP4 PUSH2 0x14DF JUMP JUMPDEST SWAP2 POP PUSH2 0x18BB DUP3 PUSH2 0x187C JUMP JUMPDEST PUSH1 0x20 DUP3 ADD SWAP1 POP SWAP2 SWAP1 POP JUMP JUMPDEST PUSH0 PUSH1 0x20 DUP3 ADD SWAP1 POP DUP2 DUP2 SUB PUSH0 DUP4 ADD MSTORE PUSH2 0x18DD DUP2 PUSH2 0x18A4 JUMP JUMPDEST SWAP1 POP SWAP2 SWAP1 POP JUMP JUMPDEST PUSH32 0x496E73756666696369656E742072657365727665730000000000000000000000 PUSH0 DUP3 ADD MSTORE POP JUMP JUMPDEST PUSH0 PUSH2 0x1918 PUSH1 0x15 DUP4 PUSH2 0x14DF JUMP JUMPDEST SWAP2 POP PUSH2 0x1923 DUP3 PUSH2 0x18E4 JUMP JUMPDEST PUSH1 0x20 DUP3 ADD SWAP1 POP SWAP2 SWAP1 POP JUMP JUMPDEST PUSH0 PUSH1 0x20 DUP3 ADD SWAP1 POP DUP2 DUP2 SUB PUSH0 DUP4 ADD MSTORE PUSH2 0x1945 DUP2 PUSH2 0x190C JUMP JUMPDEST SWAP1 POP SWAP2 SWAP1 POP JUMP JUMPDEST PUSH0 PUSH2 0x1956 DUP3 PUSH2 0x13F3 JUMP JUMPDEST SWAP2 POP PUSH2 0x1961 DUP4 PUSH2 0x13F3 JUMP JUMPDEST SWAP3 POP DUP3 DUP3 ADD SWAP1 POP DUP1 DUP3 GT ISZERO PUSH2 0x1979 JUMPI PUSH2 0x1978 PUSH2 0x1596 JUMP JUMPDEST JUMPDEST SWAP3 SWAP2 POP POP JUMP INVALID LOG2 PUSH5 0x6970667358 0x22 SLT KECCAK256 SHL 0xDA CALLER PREVRANDAO DUP2 0xFB 0xD SWAP1 PUSH9 0x56472AED2BF98D0486 CALLVALUE 0x4F BLOBBASEFEE DELEGATECALL DUP6 LOG2 MULMOD STATICCALL CALLVALUE 0xCA SWAP3 0xC0 0xDC SAR PUSH5 0x736F6C6343 STOP ADDMOD BYTE STOP CALLER "
				},
				"gasEstimates": {
					"creation": {
						"codeDepositCost": "1316200",
						"executionCost": "infinite",
						"totalCost": "infinite"
					},
					"external": {
						"addLiquidity(uint256,uint256)": "infinite",
						"getPrice(address)": "infinite",
						"owner()": "2515",
						"removeLiquidity(uint256,uint256)": "infinite",
						"renounceOwnership()": "infinite",
						"swapAforB(uint256)": "infinite",
						"swapBforA(uint256)": "infinite",
						"tokenA()": "infinite",
						"tokenB()": "infinite",
						"transferOwnership(address)": "infinite"
					},
					"internal": {
						"getAmountOut(uint256,uint256,uint256)": "infinite"
					}
				},
				"methodIdentifiers": {
					"addLiquidity(uint256,uint256)": "9cd441da",
					"getPrice(address)": "41976e09",
					"owner()": "8da5cb5b",
					"removeLiquidity(uint256,uint256)": "9d7de6b3",
					"renounceOwnership()": "715018a6",
					"swapAforB(uint256)": "e4f1f70a",
					"swapBforA(uint256)": "8014a7aa",
					"tokenA()": "0fc63d10",
					"tokenB()": "5f64b55b",
					"transferOwnership(address)": "f2fde38b"
				}
			},
			"storageLayout": {
				"storage": [
					{
						"astId": 110,
						"contract": "SimpleDEX_flattened.sol:SimpleDEX",
						"label": "_owner",
						"offset": 0,
						"slot": "0",
						"type": "t_address"
					},
					{
						"astId": 256,
						"contract": "SimpleDEX_flattened.sol:SimpleDEX",
						"label": "tokenA",
						"offset": 0,
						"slot": "1",
						"type": "t_contract(IERC20)77"
					},
					{
						"astId": 260,
						"contract": "SimpleDEX_flattened.sol:SimpleDEX",
						"label": "tokenB",
						"offset": 0,
						"slot": "2",
						"type": "t_contract(IERC20)77"
					}
				],
				"types": {
					"t_address": {
						"encoding": "inplace",
						"label": "address",
						"numberOfBytes": "20"
					},
					"t_contract(IERC20)77": {
						"encoding": "inplace",
						"label": "contract IERC20",
						"numberOfBytes": "20"
					}
				}
			},
			"userdoc": {
				"events": {
					"LiquidityAdded(uint256,uint256)": {
						"notice": "Evento emitido al agregar liquidez"
					},
					"LiquidityRemoved(uint256,uint256)": {
						"notice": "Evento emitido al remover liquidez"
					},
					"TokenSwapped(address,uint256,uint256)": {
						"notice": "Evento emitido al realizar un intercambio"
					}
				},
				"kind": "user",
				"methods": {
					"addLiquidity(uint256,uint256)": {
						"notice": "Agrega liquidez al pool"
					},
					"constructor": {
						"notice": "Constructor para inicializar el contrato con los tokens"
					},
					"getPrice(address)": {
						"notice": "Calcula el precio relativo de un token"
					},
					"removeLiquidity(uint256,uint256)": {
						"notice": "Remueve liquidez del pool"
					},
					"swapAforB(uint256)": {
						"notice": "Intercambia token A por token B"
					},
					"swapBforA(uint256)": {
						"notice": "Intercambia token B por token A"
					},
					"tokenA()": {
						"notice": "Token A en el pool de liquidez"
					},
					"tokenB()": {
						"notice": "Token B en el pool de liquidez"
					}
				},
				"notice": "Contrato para intercambiar tokens y gestionar liquidez",
				"version": 1
			}
		}
	}
}