{
	"SimpleDEX.sol": {
		"SimpleDEX": {
			"abi": [
				{
					"inputs": [
						{
							"internalType": "address",
							"name": "_tokenA",
							"type": "address"
						},
						{
							"internalType": "address",
							"name": "_tokenB",
							"type": "address"
						}
					],
					"stateMutability": "nonpayable",
					"type": "constructor"
				},
				{
					"anonymous": false,
					"inputs": [
						{
							"indexed": true,
							"internalType": "address",
							"name": "provider",
							"type": "address"
						},
						{
							"indexed": false,
							"internalType": "uint256",
							"name": "amountA",
							"type": "uint256"
						},
						{
							"indexed": false,
							"internalType": "uint256",
							"name": "amountB",
							"type": "uint256"
						}
					],
					"name": "LiquidityAdded",
					"type": "event"
				},
				{
					"anonymous": false,
					"inputs": [
						{
							"indexed": true,
							"internalType": "address",
							"name": "provider",
							"type": "address"
						},
						{
							"indexed": false,
							"internalType": "uint256",
							"name": "amountA",
							"type": "uint256"
						},
						{
							"indexed": false,
							"internalType": "uint256",
							"name": "amountB",
							"type": "uint256"
						}
					],
					"name": "LiquidityRemoved",
					"type": "event"
				},
				{
					"anonymous": false,
					"inputs": [
						{
							"indexed": true,
							"internalType": "address",
							"name": "trader",
							"type": "address"
						},
						{
							"indexed": false,
							"internalType": "address",
							"name": "tokenIn",
							"type": "address"
						},
						{
							"indexed": false,
							"internalType": "address",
							"name": "tokenOut",
							"type": "address"
						},
						{
							"indexed": false,
							"internalType": "uint256",
							"name": "amountIn",
							"type": "uint256"
						},
						{
							"indexed": false,
							"internalType": "uint256",
							"name": "amountOut",
							"type": "uint256"
						}
					],
					"name": "TokensSwapped",
					"type": "event"
				},
				{
					"inputs": [
						{
							"internalType": "uint256",
							"name": "amountA",
							"type": "uint256"
						},
						{
							"internalType": "uint256",
							"name": "amountB",
							"type": "uint256"
						}
					],
					"name": "addLiquidity",
					"outputs": [],
					"stateMutability": "nonpayable",
					"type": "function"
				},
				{
					"inputs": [
						{
							"internalType": "address",
							"name": "_token",
							"type": "address"
						}
					],
					"name": "getPrice",
					"outputs": [
						{
							"internalType": "uint256",
							"name": "",
							"type": "uint256"
						}
					],
					"stateMutability": "view",
					"type": "function"
				},
				{
					"inputs": [
						{
							"internalType": "address",
							"name": "",
							"type": "address"
						}
					],
					"name": "liquidityA",
					"outputs": [
						{
							"internalType": "uint256",
							"name": "",
							"type": "uint256"
						}
					],
					"stateMutability": "view",
					"type": "function"
				},
				{
					"inputs": [
						{
							"internalType": "address",
							"name": "",
							"type": "address"
						}
					],
					"name": "liquidityB",
					"outputs": [
						{
							"internalType": "uint256",
							"name": "",
							"type": "uint256"
						}
					],
					"stateMutability": "view",
					"type": "function"
				},
				{
					"inputs": [
						{
							"internalType": "uint256",
							"name": "amountA",
							"type": "uint256"
						},
						{
							"internalType": "uint256",
							"name": "amountB",
							"type": "uint256"
						}
					],
					"name": "removeLiquidity",
					"outputs": [],
					"stateMutability": "nonpayable",
					"type": "function"
				},
				{
					"inputs": [],
					"name": "reserveA",
					"outputs": [
						{
							"internalType": "uint256",
							"name": "",
							"type": "uint256"
						}
					],
					"stateMutability": "view",
					"type": "function"
				},
				{
					"inputs": [],
					"name": "reserveB",
					"outputs": [
						{
							"internalType": "uint256",
							"name": "",
							"type": "uint256"
						}
					],
					"stateMutability": "view",
					"type": "function"
				},
				{
					"inputs": [
						{
							"internalType": "uint256",
							"name": "amountAIn",
							"type": "uint256"
						}
					],
					"name": "swapAforB",
					"outputs": [],
					"stateMutability": "nonpayable",
					"type": "function"
				},
				{
					"inputs": [
						{
							"internalType": "uint256",
							"name": "amountBIn",
							"type": "uint256"
						}
					],
					"name": "swapBforA",
					"outputs": [],
					"stateMutability": "nonpayable",
					"type": "function"
				},
				{
					"inputs": [],
					"name": "tokenA",
					"outputs": [
						{
							"internalType": "address",
							"name": "",
							"type": "address"
						}
					],
					"stateMutability": "view",
					"type": "function"
				},
				{
					"inputs": [],
					"name": "tokenB",
					"outputs": [
						{
							"internalType": "address",
							"name": "",
							"type": "address"
						}
					],
					"stateMutability": "view",
					"type": "function"
				}
			],
			"devdoc": {
				"kind": "dev",
				"methods": {
					"addLiquidity(uint256,uint256)": {
						"details": "No need to validate that amountA and amountB are less than or equal to the approved amount,  as the ERC-20 transferFrom function automatically reverts the transaction if the approval is insufficient.",
						"params": {
							"amountA": "The amount of Token A to be added to the liquidity pool",
							"amountB": "The amount of Token B to be added to the liquidity pool"
						}
					},
					"getPrice(address)": {
						"params": {
							"_token": "The address of the token whose price is being queried"
						},
						"returns": {
							"_0": "The price of the given token in terms of the other token (scaled to 1e18)"
						}
					},
					"removeLiquidity(uint256,uint256)": {
						"params": {
							"amountA": "The amount of Token A to be removed from the liquidity pool",
							"amountB": "The amount of Token B to be removed from the liquidity pool"
						}
					},
					"swapAforB(uint256)": {
						"params": {
							"amountAIn": "The amount of Token A to be exchanged for Token B"
						}
					},
					"swapBforA(uint256)": {
						"params": {
							"amountBIn": "The amount of Token B to be exchanged for Token A"
						}
					}
				},
				"version": 1
			},
			"evm": {
				"assembly": "    /* \"SimpleDEX.sol\":120:7724  contract SimpleDEX {... */\n  mstore(0x40, 0x80)\n    /* \"SimpleDEX.sol\":979:1087  constructor(address _tokenA, address _tokenB) {... */\n  callvalue\n  dup1\n  iszero\n  tag_1\n  jumpi\n  0x00\n  dup1\n  revert\ntag_1:\n  pop\n  mload(0x40)\n  sub(codesize, bytecodeSize)\n  dup1\n  bytecodeSize\n  dup4\n  codecopy\n  dup2\n  dup2\n  add\n  0x40\n  mstore\n  dup2\n  add\n  swap1\n  tag_2\n  swap2\n  swap1\n  tag_3\n  jump\t// in\ntag_2:\n    /* \"SimpleDEX.sol\":1045:1052  _tokenA */\n  dup2\n    /* \"SimpleDEX.sol\":1036:1042  tokenA */\n  0x00\n  dup1\n    /* \"SimpleDEX.sol\":1036:1052  tokenA = _tokenA */\n  0x0100\n  exp\n  dup2\n  sload\n  dup2\n  0xffffffffffffffffffffffffffffffffffffffff\n  mul\n  not\n  and\n  swap1\n  dup4\n  0xffffffffffffffffffffffffffffffffffffffff\n  and\n  mul\n  or\n  swap1\n  sstore\n  pop\n    /* \"SimpleDEX.sol\":1072:1079  _tokenB */\n  dup1\n    /* \"SimpleDEX.sol\":1063:1069  tokenB */\n  0x01\n  0x00\n    /* \"SimpleDEX.sol\":1063:1079  tokenB = _tokenB */\n  0x0100\n  exp\n  dup2\n  sload\n  dup2\n  0xffffffffffffffffffffffffffffffffffffffff\n  mul\n  not\n  and\n  swap1\n  dup4\n  0xffffffffffffffffffffffffffffffffffffffff\n  and\n  mul\n  or\n  swap1\n  sstore\n  pop\n    /* \"SimpleDEX.sol\":979:1087  constructor(address _tokenA, address _tokenB) {... */\n  pop\n  pop\n    /* \"SimpleDEX.sol\":120:7724  contract SimpleDEX {... */\n  jump(tag_6)\n    /* \"#utility.yul\":88:205   */\ntag_8:\n    /* \"#utility.yul\":197:198   */\n  0x00\n    /* \"#utility.yul\":194:195   */\n  dup1\n    /* \"#utility.yul\":187:199   */\n  revert\n    /* \"#utility.yul\":334:460   */\ntag_10:\n    /* \"#utility.yul\":371:378   */\n  0x00\n    /* \"#utility.yul\":411:453   */\n  0xffffffffffffffffffffffffffffffffffffffff\n    /* \"#utility.yul\":404:409   */\n  dup3\n    /* \"#utility.yul\":400:454   */\n  and\n    /* \"#utility.yul\":389:454   */\n  swap1\n  pop\n    /* \"#utility.yul\":334:460   */\n  swap2\n  swap1\n  pop\n  jump\t// out\n    /* \"#utility.yul\":466:562   */\ntag_11:\n    /* \"#utility.yul\":503:510   */\n  0x00\n    /* \"#utility.yul\":532:556   */\n  tag_20\n    /* \"#utility.yul\":550:555   */\n  dup3\n    /* \"#utility.yul\":532:556   */\n  tag_10\n  jump\t// in\ntag_20:\n    /* \"#utility.yul\":521:556   */\n  swap1\n  pop\n    /* \"#utility.yul\":466:562   */\n  swap2\n  swap1\n  pop\n  jump\t// out\n    /* \"#utility.yul\":568:690   */\ntag_12:\n    /* \"#utility.yul\":641:665   */\n  tag_22\n    /* \"#utility.yul\":659:664   */\n  dup2\n    /* \"#utility.yul\":641:665   */\n  tag_11\n  jump\t// in\ntag_22:\n    /* \"#utility.yul\":634:639   */\n  dup2\n    /* \"#utility.yul\":631:666   */\n  eq\n    /* \"#utility.yul\":621:684   */\n  tag_23\n  jumpi\n    /* \"#utility.yul\":680:681   */\n  0x00\n    /* \"#utility.yul\":677:678   */\n  dup1\n    /* \"#utility.yul\":670:682   */\n  revert\n    /* \"#utility.yul\":621:684   */\ntag_23:\n    /* \"#utility.yul\":568:690   */\n  pop\n  jump\t// out\n    /* \"#utility.yul\":696:839   */\ntag_13:\n    /* \"#utility.yul\":753:758   */\n  0x00\n    /* \"#utility.yul\":784:790   */\n  dup2\n    /* \"#utility.yul\":778:791   */\n  mload\n    /* \"#utility.yul\":769:791   */\n  swap1\n  pop\n    /* \"#utility.yul\":800:833   */\n  tag_25\n    /* \"#utility.yul\":827:832   */\n  dup2\n    /* \"#utility.yul\":800:833   */\n  tag_12\n  jump\t// in\ntag_25:\n    /* \"#utility.yul\":696:839   */\n  swap3\n  swap2\n  pop\n  pop\n  jump\t// out\n    /* \"#utility.yul\":845:1352   */\ntag_3:\n    /* \"#utility.yul\":924:930   */\n  0x00\n    /* \"#utility.yul\":932:938   */\n  dup1\n    /* \"#utility.yul\":981:983   */\n  0x40\n    /* \"#utility.yul\":969:978   */\n  dup4\n    /* \"#utility.yul\":960:967   */\n  dup6\n    /* \"#utility.yul\":956:979   */\n  sub\n    /* \"#utility.yul\":952:984   */\n  slt\n    /* \"#utility.yul\":949:1068   */\n  iszero\n  tag_27\n  jumpi\n    /* \"#utility.yul\":987:1066   */\n  tag_28\n  tag_8\n  jump\t// in\ntag_28:\n    /* \"#utility.yul\":949:1068   */\ntag_27:\n    /* \"#utility.yul\":1107:1108   */\n  0x00\n    /* \"#utility.yul\":1132:1196   */\n  tag_29\n    /* \"#utility.yul\":1188:1195   */\n  dup6\n    /* \"#utility.yul\":1179:1185   */\n  dup3\n    /* \"#utility.yul\":1168:1177   */\n  dup7\n    /* \"#utility.yul\":1164:1186   */\n  add\n    /* \"#utility.yul\":1132:1196   */\n  tag_13\n  jump\t// in\ntag_29:\n    /* \"#utility.yul\":1122:1196   */\n  swap3\n  pop\n    /* \"#utility.yul\":1078:1206   */\n  pop\n    /* \"#utility.yul\":1245:1247   */\n  0x20\n    /* \"#utility.yul\":1271:1335   */\n  tag_30\n    /* \"#utility.yul\":1327:1334   */\n  dup6\n    /* \"#utility.yul\":1318:1324   */\n  dup3\n    /* \"#utility.yul\":1307:1316   */\n  dup7\n    /* \"#utility.yul\":1303:1325   */\n  add\n    /* \"#utility.yul\":1271:1335   */\n  tag_13\n  jump\t// in\ntag_30:\n    /* \"#utility.yul\":1261:1335   */\n  swap2\n  pop\n    /* \"#utility.yul\":1216:1345   */\n  pop\n    /* \"#utility.yul\":845:1352   */\n  swap3\n  pop\n  swap3\n  swap1\n  pop\n  jump\t// out\n    /* \"SimpleDEX.sol\":120:7724  contract SimpleDEX {... */\ntag_6:\n  dataSize(sub_0)\n  dup1\n  dataOffset(sub_0)\n  0x00\n  codecopy\n  0x00\n  return\nstop\n\nsub_0: assembly {\n        /* \"SimpleDEX.sol\":120:7724  contract SimpleDEX {... */\n      mstore(0x40, 0x80)\n      callvalue\n      dup1\n      iszero\n      tag_1\n      jumpi\n      0x00\n      dup1\n      revert\n    tag_1:\n      pop\n      jumpi(tag_2, lt(calldatasize, 0x04))\n      shr(0xe0, calldataload(0x00))\n      dup1\n      0x86731a8f\n      gt\n      tag_14\n      jumpi\n      dup1\n      0x86731a8f\n      eq\n      tag_8\n      jumpi\n      dup1\n      0x9cd441da\n      eq\n      tag_9\n      jumpi\n      dup1\n      0x9d7de6b3\n      eq\n      tag_10\n      jumpi\n      dup1\n      0xdc5fa6c5\n      eq\n      tag_11\n      jumpi\n      dup1\n      0xe29556ee\n      eq\n      tag_12\n      jumpi\n      dup1\n      0xe4f1f70a\n      eq\n      tag_13\n      jumpi\n      jump(tag_2)\n    tag_14:\n      dup1\n      0x0fc63d10\n      eq\n      tag_3\n      jumpi\n      dup1\n      0x19e36f3b\n      eq\n      tag_4\n      jumpi\n      dup1\n      0x41976e09\n      eq\n      tag_5\n      jumpi\n      dup1\n      0x5f64b55b\n      eq\n      tag_6\n      jumpi\n      dup1\n      0x8014a7aa\n      eq\n      tag_7\n      jumpi\n    tag_2:\n      0x00\n      dup1\n      revert\n        /* \"SimpleDEX.sol\":146:167  address public tokenA */\n    tag_3:\n      tag_15\n      tag_16\n      jump\t// in\n    tag_15:\n      mload(0x40)\n      tag_17\n      swap2\n      swap1\n      tag_18\n      jump\t// in\n    tag_17:\n      mload(0x40)\n      dup1\n      swap2\n      sub\n      swap1\n      return\n        /* \"SimpleDEX.sol\":351:374  uint256 public reserveB */\n    tag_4:\n      tag_19\n      tag_20\n      jump\t// in\n    tag_19:\n      mload(0x40)\n      tag_21\n      swap2\n      swap1\n      tag_22\n      jump\t// in\n    tag_21:\n      mload(0x40)\n      dup1\n      swap2\n      sub\n      swap1\n      return\n        /* \"SimpleDEX.sol\":7180:7717  function getPrice(address _token) external view returns (uint256) {... */\n    tag_5:\n      tag_23\n      0x04\n      dup1\n      calldatasize\n      sub\n      dup2\n      add\n      swap1\n      tag_24\n      swap2\n      swap1\n      tag_25\n      jump\t// in\n    tag_24:\n      tag_26\n      jump\t// in\n    tag_23:\n      mload(0x40)\n      tag_27\n      swap2\n      swap1\n      tag_22\n      jump\t// in\n    tag_27:\n      mload(0x40)\n      dup1\n      swap2\n      sub\n      swap1\n      return\n        /* \"SimpleDEX.sol\":215:236  address public tokenB */\n    tag_6:\n      tag_28\n      tag_29\n      jump\t// in\n    tag_28:\n      mload(0x40)\n      tag_30\n      swap2\n      swap1\n      tag_18\n      jump\t// in\n    tag_30:\n      mload(0x40)\n      dup1\n      swap2\n      sub\n      swap1\n      return\n        /* \"SimpleDEX.sol\":5638:6913  function swapBforA(uint256 amountBIn) external {... */\n    tag_7:\n      tag_31\n      0x04\n      dup1\n      calldatasize\n      sub\n      dup2\n      add\n      swap1\n      tag_32\n      swap2\n      swap1\n      tag_33\n      jump\t// in\n    tag_32:\n      tag_34\n      jump\t// in\n    tag_31:\n      stop\n        /* \"SimpleDEX.sol\":531:576  mapping(address => uint256) public liquidityB */\n    tag_8:\n      tag_35\n      0x04\n      dup1\n      calldatasize\n      sub\n      dup2\n      add\n      swap1\n      tag_36\n      swap2\n      swap1\n      tag_25\n      jump\t// in\n    tag_36:\n      tag_37\n      jump\t// in\n    tag_35:\n      mload(0x40)\n      tag_38\n      swap2\n      swap1\n      tag_22\n      jump\t// in\n    tag_38:\n      mload(0x40)\n      dup1\n      swap2\n      sub\n      swap1\n      return\n        /* \"SimpleDEX.sol\":1685:2260  function addLiquidity(uint256 amountA, uint256 amountB) external {... */\n    tag_9:\n      tag_39\n      0x04\n      dup1\n      calldatasize\n      sub\n      dup2\n      add\n      swap1\n      tag_40\n      swap2\n      swap1\n      tag_41\n      jump\t// in\n    tag_40:\n      tag_42\n      jump\t// in\n    tag_39:\n      stop\n        /* \"SimpleDEX.sol\":2542:3442  function removeLiquidity(uint256 amountA, uint256 amountB) external {... */\n    tag_10:\n      tag_43\n      0x04\n      dup1\n      calldatasize\n      sub\n      dup2\n      add\n      swap1\n      tag_44\n      swap2\n      swap1\n      tag_41\n      jump\t// in\n    tag_44:\n      tag_45\n      jump\t// in\n    tag_43:\n      stop\n        /* \"SimpleDEX.sol\":287:310  uint256 public reserveA */\n    tag_11:\n      tag_46\n      tag_47\n      jump\t// in\n    tag_46:\n      mload(0x40)\n      tag_48\n      swap2\n      swap1\n      tag_22\n      jump\t// in\n    tag_48:\n      mload(0x40)\n      dup1\n      swap2\n      sub\n      swap1\n      return\n        /* \"SimpleDEX.sol\":479:524  mapping(address => uint256) public liquidityA */\n    tag_12:\n      tag_49\n      0x04\n      dup1\n      calldatasize\n      sub\n      dup2\n      add\n      swap1\n      tag_50\n      swap2\n      swap1\n      tag_25\n      jump\t// in\n    tag_50:\n      tag_51\n      jump\t// in\n    tag_49:\n      mload(0x40)\n      tag_52\n      swap2\n      swap1\n      tag_22\n      jump\t// in\n    tag_52:\n      mload(0x40)\n      dup1\n      swap2\n      sub\n      swap1\n      return\n        /* \"SimpleDEX.sol\":4128:5464  function swapAforB(uint256 amountAIn) external {... */\n    tag_13:\n      tag_53\n      0x04\n      dup1\n      calldatasize\n      sub\n      dup2\n      add\n      swap1\n      tag_54\n      swap2\n      swap1\n      tag_33\n      jump\t// in\n    tag_54:\n      tag_55\n      jump\t// in\n    tag_53:\n      stop\n        /* \"SimpleDEX.sol\":146:167  address public tokenA */\n    tag_16:\n      0x00\n      dup1\n      sload\n      swap1\n      0x0100\n      exp\n      swap1\n      div\n      0xffffffffffffffffffffffffffffffffffffffff\n      and\n      dup2\n      jump\t// out\n        /* \"SimpleDEX.sol\":351:374  uint256 public reserveB */\n    tag_20:\n      sload(0x03)\n      dup2\n      jump\t// out\n        /* \"SimpleDEX.sol\":7180:7717  function getPrice(address _token) external view returns (uint256) {... */\n    tag_26:\n        /* \"SimpleDEX.sol\":7237:7244  uint256 */\n      0x00\n        /* \"SimpleDEX.sol\":7341:7347  tokenA */\n      dup1\n      0x00\n      swap1\n      sload\n      swap1\n      0x0100\n      exp\n      swap1\n      div\n      0xffffffffffffffffffffffffffffffffffffffff\n      and\n        /* \"SimpleDEX.sol\":7331:7347  _token == tokenA */\n      0xffffffffffffffffffffffffffffffffffffffff\n      and\n        /* \"SimpleDEX.sol\":7331:7337  _token */\n      dup3\n        /* \"SimpleDEX.sol\":7331:7347  _token == tokenA */\n      0xffffffffffffffffffffffffffffffffffffffff\n      and\n      eq\n        /* \"SimpleDEX.sol\":7331:7367  _token == tokenA || _token == tokenB */\n      dup1\n      tag_57\n      jumpi\n      pop\n        /* \"SimpleDEX.sol\":7361:7367  tokenB */\n      0x01\n      0x00\n      swap1\n      sload\n      swap1\n      0x0100\n      exp\n      swap1\n      div\n      0xffffffffffffffffffffffffffffffffffffffff\n      and\n        /* \"SimpleDEX.sol\":7351:7367  _token == tokenB */\n      0xffffffffffffffffffffffffffffffffffffffff\n      and\n        /* \"SimpleDEX.sol\":7351:7357  _token */\n      dup3\n        /* \"SimpleDEX.sol\":7351:7367  _token == tokenB */\n      0xffffffffffffffffffffffffffffffffffffffff\n      and\n      eq\n        /* \"SimpleDEX.sol\":7331:7367  _token == tokenA || _token == tokenB */\n    tag_57:\n        /* \"SimpleDEX.sol\":7323:7393  require(_token == tokenA || _token == tokenB, \"Invalid token address\") */\n      tag_58\n      jumpi\n      mload(0x40)\n      0x08c379a000000000000000000000000000000000000000000000000000000000\n      dup2\n      mstore\n      0x04\n      add\n      tag_59\n      swap1\n      tag_60\n      jump\t// in\n    tag_59:\n      mload(0x40)\n      dup1\n      swap2\n      sub\n      swap1\n      revert\n    tag_58:\n        /* \"SimpleDEX.sol\":7492:7498  tokenA */\n      0x00\n      dup1\n      sload\n      swap1\n      0x0100\n      exp\n      swap1\n      div\n      0xffffffffffffffffffffffffffffffffffffffff\n      and\n        /* \"SimpleDEX.sol\":7482:7498  _token == tokenA */\n      0xffffffffffffffffffffffffffffffffffffffff\n      and\n        /* \"SimpleDEX.sol\":7482:7488  _token */\n      dup3\n        /* \"SimpleDEX.sol\":7482:7498  _token == tokenA */\n      0xffffffffffffffffffffffffffffffffffffffff\n      and\n      sub\n        /* \"SimpleDEX.sol\":7478:7710  if (_token == tokenA) {... */\n      tag_61\n      jumpi\n        /* \"SimpleDEX.sol\":7542:7550  reserveA */\n      sload(0x02)\n        /* \"SimpleDEX.sol\":7534:7538  1e18 */\n      0x0de0b6b3a7640000\n        /* \"SimpleDEX.sol\":7523:7531  reserveB */\n      sload(0x03)\n        /* \"SimpleDEX.sol\":7523:7538  reserveB * 1e18 */\n      tag_62\n      swap2\n      swap1\n      tag_63\n      jump\t// in\n    tag_62:\n        /* \"SimpleDEX.sol\":7522:7550  (reserveB * 1e18) / reserveA */\n      tag_64\n      swap2\n      swap1\n      tag_65\n      jump\t// in\n    tag_64:\n        /* \"SimpleDEX.sol\":7515:7550  return (reserveB * 1e18) / reserveA */\n      swap1\n      pop\n      jump(tag_56)\n        /* \"SimpleDEX.sol\":7478:7710  if (_token == tokenA) {... */\n    tag_61:\n        /* \"SimpleDEX.sol\":7650:7658  reserveB */\n      sload(0x03)\n        /* \"SimpleDEX.sol\":7642:7646  1e18 */\n      0x0de0b6b3a7640000\n        /* \"SimpleDEX.sol\":7631:7639  reserveA */\n      sload(0x02)\n        /* \"SimpleDEX.sol\":7631:7646  reserveA * 1e18 */\n      tag_67\n      swap2\n      swap1\n      tag_63\n      jump\t// in\n    tag_67:\n        /* \"SimpleDEX.sol\":7630:7658  (reserveA * 1e18) / reserveB */\n      tag_68\n      swap2\n      swap1\n      tag_65\n      jump\t// in\n    tag_68:\n        /* \"SimpleDEX.sol\":7623:7658  return (reserveA * 1e18) / reserveB */\n      swap1\n      pop\n        /* \"SimpleDEX.sol\":7180:7717  function getPrice(address _token) external view returns (uint256) {... */\n    tag_56:\n      swap2\n      swap1\n      pop\n      jump\t// out\n        /* \"SimpleDEX.sol\":215:236  address public tokenB */\n    tag_29:\n      0x01\n      0x00\n      swap1\n      sload\n      swap1\n      0x0100\n      exp\n      swap1\n      div\n      0xffffffffffffffffffffffffffffffffffffffff\n      and\n      dup2\n      jump\t// out\n        /* \"SimpleDEX.sol\":5638:6913  function swapBforA(uint256 amountBIn) external {... */\n    tag_34:\n        /* \"SimpleDEX.sol\":5871:5872  0 */\n      0x00\n        /* \"SimpleDEX.sol\":5859:5868  amountBIn */\n      dup2\n        /* \"SimpleDEX.sol\":5859:5872  amountBIn > 0 */\n      gt\n        /* \"SimpleDEX.sol\":5851:5897  require(amountBIn > 0, \"Invalid input amount\") */\n      tag_70\n      jumpi\n      mload(0x40)\n      0x08c379a000000000000000000000000000000000000000000000000000000000\n      dup2\n      mstore\n      0x04\n      add\n      tag_71\n      swap1\n      tag_72\n      jump\t// in\n    tag_71:\n      mload(0x40)\n      dup1\n      swap2\n      sub\n      swap1\n      revert\n    tag_70:\n        /* \"SimpleDEX.sol\":5991:5992  0 */\n      0x00\n        /* \"SimpleDEX.sol\":5980:5988  reserveA */\n      sload(0x02)\n        /* \"SimpleDEX.sol\":5980:5992  reserveA > 0 */\n      gt\n        /* \"SimpleDEX.sol\":5980:6008  reserveA > 0 && reserveB > 0 */\n      dup1\n      iszero\n      tag_73\n      jumpi\n      pop\n        /* \"SimpleDEX.sol\":6007:6008  0 */\n      0x00\n        /* \"SimpleDEX.sol\":5996:6004  reserveB */\n      sload(0x03)\n        /* \"SimpleDEX.sol\":5996:6008  reserveB > 0 */\n      gt\n        /* \"SimpleDEX.sol\":5980:6008  reserveA > 0 && reserveB > 0 */\n    tag_73:\n        /* \"SimpleDEX.sol\":5972:6035  require(reserveA > 0 && reserveB > 0, \"Insufficient liquidity\") */\n      tag_74\n      jumpi\n      mload(0x40)\n      0x08c379a000000000000000000000000000000000000000000000000000000000\n      dup2\n      mstore\n      0x04\n      add\n      tag_75\n      swap1\n      tag_76\n      jump\t// in\n    tag_75:\n      mload(0x40)\n      dup1\n      swap2\n      sub\n      swap1\n      revert\n    tag_74:\n        /* \"SimpleDEX.sol\":6236:6254  uint256 amountAOut */\n      0x00\n        /* \"SimpleDEX.sol\":6304:6313  amountBIn */\n      dup2\n        /* \"SimpleDEX.sol\":6293:6301  reserveB */\n      sload(0x03)\n        /* \"SimpleDEX.sol\":6293:6313  reserveB + amountBIn */\n      tag_77\n      swap2\n      swap1\n      tag_78\n      jump\t// in\n    tag_77:\n        /* \"SimpleDEX.sol\":6280:6288  reserveB */\n      sload(0x03)\n        /* \"SimpleDEX.sol\":6269:6277  reserveA */\n      sload(0x02)\n        /* \"SimpleDEX.sol\":6269:6288  reserveA * reserveB */\n      tag_79\n      swap2\n      swap1\n      tag_63\n      jump\t// in\n    tag_79:\n        /* \"SimpleDEX.sol\":6268:6314  (reserveA * reserveB) / (reserveB + amountBIn) */\n      tag_80\n      swap2\n      swap1\n      tag_65\n      jump\t// in\n    tag_80:\n        /* \"SimpleDEX.sol\":6257:6265  reserveA */\n      sload(0x02)\n        /* \"SimpleDEX.sol\":6257:6314  reserveA - (reserveA * reserveB) / (reserveB + amountBIn) */\n      tag_81\n      swap2\n      swap1\n      tag_82\n      jump\t// in\n    tag_81:\n        /* \"SimpleDEX.sol\":6236:6314  uint256 amountAOut = reserveA - (reserveA * reserveB) / (reserveB + amountBIn) */\n      swap1\n      pop\n        /* \"SimpleDEX.sol\":6346:6347  0 */\n      0x00\n        /* \"SimpleDEX.sol\":6333:6343  amountAOut */\n      dup2\n        /* \"SimpleDEX.sol\":6333:6347  amountAOut > 0 */\n      gt\n        /* \"SimpleDEX.sol\":6325:6378  require(amountAOut > 0, \"Insufficient output amount\") */\n      tag_83\n      jumpi\n      mload(0x40)\n      0x08c379a000000000000000000000000000000000000000000000000000000000\n      dup2\n      mstore\n      0x04\n      add\n      tag_84\n      swap1\n      tag_85\n      jump\t// in\n    tag_84:\n      mload(0x40)\n      dup1\n      swap2\n      sub\n      swap1\n      revert\n    tag_83:\n        /* \"SimpleDEX.sol\":6467:6473  tokenB */\n      0x01\n      0x00\n      swap1\n      sload\n      swap1\n      0x0100\n      exp\n      swap1\n      div\n      0xffffffffffffffffffffffffffffffffffffffff\n      and\n        /* \"SimpleDEX.sol\":6460:6487  IERC20(tokenB).transferFrom */\n      0xffffffffffffffffffffffffffffffffffffffff\n      and\n      0x23b872dd\n        /* \"SimpleDEX.sol\":6488:6498  msg.sender */\n      caller\n        /* \"SimpleDEX.sol\":6508:6512  this */\n      address\n        /* \"SimpleDEX.sol\":6515:6524  amountBIn */\n      dup6\n        /* \"SimpleDEX.sol\":6460:6525  IERC20(tokenB).transferFrom(msg.sender, address(this), amountBIn) */\n      mload(0x40)\n      dup5\n      0xffffffff\n      and\n      0xe0\n      shl\n      dup2\n      mstore\n      0x04\n      add\n      tag_86\n      swap4\n      swap3\n      swap2\n      swap1\n      tag_87\n      jump\t// in\n    tag_86:\n      0x20\n      mload(0x40)\n      dup1\n      dup4\n      sub\n      dup2\n      0x00\n      dup8\n      gas\n      call\n      iszero\n      dup1\n      iszero\n      tag_89\n      jumpi\n      returndatasize\n      0x00\n      dup1\n      returndatacopy\n      revert(0x00, returndatasize)\n    tag_89:\n      pop\n      pop\n      pop\n      pop\n      mload(0x40)\n      returndatasize\n      not(0x1f)\n      0x1f\n      dup3\n      add\n      and\n      dup3\n      add\n      dup1\n      0x40\n      mstore\n      pop\n      dup2\n      add\n      swap1\n      tag_90\n      swap2\n      swap1\n      tag_91\n      jump\t// in\n    tag_90:\n      pop\n        /* \"SimpleDEX.sol\":6611:6617  tokenA */\n      0x00\n      dup1\n      sload\n      swap1\n      0x0100\n      exp\n      swap1\n      div\n      0xffffffffffffffffffffffffffffffffffffffff\n      and\n        /* \"SimpleDEX.sol\":6604:6627  IERC20(tokenA).transfer */\n      0xffffffffffffffffffffffffffffffffffffffff\n      and\n      0xa9059cbb\n        /* \"SimpleDEX.sol\":6628:6638  msg.sender */\n      caller\n        /* \"SimpleDEX.sol\":6640:6650  amountAOut */\n      dup4\n        /* \"SimpleDEX.sol\":6604:6651  IERC20(tokenA).transfer(msg.sender, amountAOut) */\n      mload(0x40)\n      dup4\n      0xffffffff\n      and\n      0xe0\n      shl\n      dup2\n      mstore\n      0x04\n      add\n      tag_92\n      swap3\n      swap2\n      swap1\n      tag_93\n      jump\t// in\n    tag_92:\n      0x20\n      mload(0x40)\n      dup1\n      dup4\n      sub\n      dup2\n      0x00\n      dup8\n      gas\n      call\n      iszero\n      dup1\n      iszero\n      tag_95\n      jumpi\n      returndatasize\n      0x00\n      dup1\n      returndatacopy\n      revert(0x00, returndatasize)\n    tag_95:\n      pop\n      pop\n      pop\n      pop\n      mload(0x40)\n      returndatasize\n      not(0x1f)\n      0x1f\n      dup3\n      add\n      and\n      dup3\n      add\n      dup1\n      0x40\n      mstore\n      pop\n      dup2\n      add\n      swap1\n      tag_96\n      swap2\n      swap1\n      tag_91\n      jump\t// in\n    tag_96:\n      pop\n        /* \"SimpleDEX.sol\":6739:6748  amountBIn */\n      dup2\n        /* \"SimpleDEX.sol\":6727:6735  reserveB */\n      0x03\n      0x00\n        /* \"SimpleDEX.sol\":6727:6748  reserveB += amountBIn */\n      dup3\n      dup3\n      sload\n      tag_97\n      swap2\n      swap1\n      tag_78\n      jump\t// in\n    tag_97:\n      swap3\n      pop\n      pop\n      dup2\n      swap1\n      sstore\n      pop\n        /* \"SimpleDEX.sol\":6771:6781  amountAOut */\n      dup1\n        /* \"SimpleDEX.sol\":6759:6767  reserveA */\n      0x02\n      0x00\n        /* \"SimpleDEX.sol\":6759:6781  reserveA -= amountAOut */\n      dup3\n      dup3\n      sload\n      tag_98\n      swap2\n      swap1\n      tag_82\n      jump\t// in\n    tag_98:\n      swap3\n      pop\n      pop\n      dup2\n      swap1\n      sstore\n      pop\n        /* \"SimpleDEX.sol\":6855:6865  msg.sender */\n      caller\n        /* \"SimpleDEX.sol\":6841:6905  TokensSwapped(msg.sender, tokenB, tokenA, amountBIn, amountAOut) */\n      0xffffffffffffffffffffffffffffffffffffffff\n      and\n      0xad56699d0f375866eb895ed27203058a36a713382aaded78eb6b67da266d4332\n        /* \"SimpleDEX.sol\":6867:6873  tokenB */\n      0x01\n      0x00\n      swap1\n      sload\n      swap1\n      0x0100\n      exp\n      swap1\n      div\n      0xffffffffffffffffffffffffffffffffffffffff\n      and\n        /* \"SimpleDEX.sol\":6875:6881  tokenA */\n      0x00\n      dup1\n      sload\n      swap1\n      0x0100\n      exp\n      swap1\n      div\n      0xffffffffffffffffffffffffffffffffffffffff\n      and\n        /* \"SimpleDEX.sol\":6883:6892  amountBIn */\n      dup6\n        /* \"SimpleDEX.sol\":6894:6904  amountAOut */\n      dup6\n        /* \"SimpleDEX.sol\":6841:6905  TokensSwapped(msg.sender, tokenB, tokenA, amountBIn, amountAOut) */\n      mload(0x40)\n      tag_99\n      swap5\n      swap4\n      swap3\n      swap2\n      swap1\n      tag_100\n      jump\t// in\n    tag_99:\n      mload(0x40)\n      dup1\n      swap2\n      sub\n      swap1\n      log2\n        /* \"SimpleDEX.sol\":5685:6913  {... */\n      pop\n        /* \"SimpleDEX.sol\":5638:6913  function swapBforA(uint256 amountBIn) external {... */\n      pop\n      jump\t// out\n        /* \"SimpleDEX.sol\":531:576  mapping(address => uint256) public liquidityB */\n    tag_37:\n      mstore(0x20, 0x05)\n      dup1\n      0x00\n      mstore\n      keccak256(0x00, 0x40)\n      0x00\n      swap2\n      pop\n      swap1\n      pop\n      sload\n      dup2\n      jump\t// out\n        /* \"SimpleDEX.sol\":1685:2260  function addLiquidity(uint256 amountA, uint256 amountB) external {... */\n    tag_42:\n        /* \"SimpleDEX.sol\":1779:1780  0 */\n      0x00\n        /* \"SimpleDEX.sol\":1769:1776  amountA */\n      dup3\n        /* \"SimpleDEX.sol\":1769:1780  amountA > 0 */\n      gt\n        /* \"SimpleDEX.sol\":1769:1795  amountA > 0 && amountB > 0 */\n      dup1\n      iszero\n      tag_102\n      jumpi\n      pop\n        /* \"SimpleDEX.sol\":1794:1795  0 */\n      0x00\n        /* \"SimpleDEX.sol\":1784:1791  amountB */\n      dup2\n        /* \"SimpleDEX.sol\":1784:1795  amountB > 0 */\n      gt\n        /* \"SimpleDEX.sol\":1769:1795  amountA > 0 && amountB > 0 */\n    tag_102:\n        /* \"SimpleDEX.sol\":1761:1825  require(amountA > 0 && amountB > 0, \"Cannot add zero liquidity\") */\n      tag_103\n      jumpi\n      mload(0x40)\n      0x08c379a000000000000000000000000000000000000000000000000000000000\n      dup2\n      mstore\n      0x04\n      add\n      tag_104\n      swap1\n      tag_105\n      jump\t// in\n    tag_104:\n      mload(0x40)\n      dup1\n      swap2\n      sub\n      swap1\n      revert\n    tag_103:\n        /* \"SimpleDEX.sol\":1845:1851  tokenA */\n      0x00\n      dup1\n      sload\n      swap1\n      0x0100\n      exp\n      swap1\n      div\n      0xffffffffffffffffffffffffffffffffffffffff\n      and\n        /* \"SimpleDEX.sol\":1838:1865  IERC20(tokenA).transferFrom */\n      0xffffffffffffffffffffffffffffffffffffffff\n      and\n      0x23b872dd\n        /* \"SimpleDEX.sol\":1866:1876  msg.sender */\n      caller\n        /* \"SimpleDEX.sol\":1886:1890  this */\n      address\n        /* \"SimpleDEX.sol\":1893:1900  amountA */\n      dup6\n        /* \"SimpleDEX.sol\":1838:1901  IERC20(tokenA).transferFrom(msg.sender, address(this), amountA) */\n      mload(0x40)\n      dup5\n      0xffffffff\n      and\n      0xe0\n      shl\n      dup2\n      mstore\n      0x04\n      add\n      tag_106\n      swap4\n      swap3\n      swap2\n      swap1\n      tag_87\n      jump\t// in\n    tag_106:\n      0x20\n      mload(0x40)\n      dup1\n      dup4\n      sub\n      dup2\n      0x00\n      dup8\n      gas\n      call\n      iszero\n      dup1\n      iszero\n      tag_108\n      jumpi\n      returndatasize\n      0x00\n      dup1\n      returndatacopy\n      revert(0x00, returndatasize)\n    tag_108:\n      pop\n      pop\n      pop\n      pop\n      mload(0x40)\n      returndatasize\n      not(0x1f)\n      0x1f\n      dup3\n      add\n      and\n      dup3\n      add\n      dup1\n      0x40\n      mstore\n      pop\n      dup2\n      add\n      swap1\n      tag_109\n      swap2\n      swap1\n      tag_91\n      jump\t// in\n    tag_109:\n      pop\n        /* \"SimpleDEX.sol\":1919:1925  tokenB */\n      0x01\n      0x00\n      swap1\n      sload\n      swap1\n      0x0100\n      exp\n      swap1\n      div\n      0xffffffffffffffffffffffffffffffffffffffff\n      and\n        /* \"SimpleDEX.sol\":1912:1939  IERC20(tokenB).transferFrom */\n      0xffffffffffffffffffffffffffffffffffffffff\n      and\n      0x23b872dd\n        /* \"SimpleDEX.sol\":1940:1950  msg.sender */\n      caller\n        /* \"SimpleDEX.sol\":1960:1964  this */\n      address\n        /* \"SimpleDEX.sol\":1967:1974  amountB */\n      dup5\n        /* \"SimpleDEX.sol\":1912:1975  IERC20(tokenB).transferFrom(msg.sender, address(this), amountB) */\n      mload(0x40)\n      dup5\n      0xffffffff\n      and\n      0xe0\n      shl\n      dup2\n      mstore\n      0x04\n      add\n      tag_110\n      swap4\n      swap3\n      swap2\n      swap1\n      tag_87\n      jump\t// in\n    tag_110:\n      0x20\n      mload(0x40)\n      dup1\n      dup4\n      sub\n      dup2\n      0x00\n      dup8\n      gas\n      call\n      iszero\n      dup1\n      iszero\n      tag_112\n      jumpi\n      returndatasize\n      0x00\n      dup1\n      returndatacopy\n      revert(0x00, returndatasize)\n    tag_112:\n      pop\n      pop\n      pop\n      pop\n      mload(0x40)\n      returndatasize\n      not(0x1f)\n      0x1f\n      dup3\n      add\n      and\n      dup3\n      add\n      dup1\n      0x40\n      mstore\n      pop\n      dup2\n      add\n      swap1\n      tag_113\n      swap2\n      swap1\n      tag_91\n      jump\t// in\n    tag_113:\n      pop\n        /* \"SimpleDEX.sol\":2000:2007  amountA */\n      dup2\n        /* \"SimpleDEX.sol\":1988:1996  reserveA */\n      0x02\n      0x00\n        /* \"SimpleDEX.sol\":1988:2007  reserveA += amountA */\n      dup3\n      dup3\n      sload\n      tag_114\n      swap2\n      swap1\n      tag_78\n      jump\t// in\n    tag_114:\n      swap3\n      pop\n      pop\n      dup2\n      swap1\n      sstore\n      pop\n        /* \"SimpleDEX.sol\":2030:2037  amountB */\n      dup1\n        /* \"SimpleDEX.sol\":2018:2026  reserveB */\n      0x03\n      0x00\n        /* \"SimpleDEX.sol\":2018:2037  reserveB += amountB */\n      dup3\n      dup3\n      sload\n      tag_115\n      swap2\n      swap1\n      tag_78\n      jump\t// in\n    tag_115:\n      swap3\n      pop\n      pop\n      dup2\n      swap1\n      sstore\n      pop\n        /* \"SimpleDEX.sol\":2139:2146  amountA */\n      dup2\n        /* \"SimpleDEX.sol\":2113:2123  liquidityA */\n      0x04\n        /* \"SimpleDEX.sol\":2113:2135  liquidityA[msg.sender] */\n      0x00\n        /* \"SimpleDEX.sol\":2124:2134  msg.sender */\n      caller\n        /* \"SimpleDEX.sol\":2113:2135  liquidityA[msg.sender] */\n      0xffffffffffffffffffffffffffffffffffffffff\n      and\n      0xffffffffffffffffffffffffffffffffffffffff\n      and\n      dup2\n      mstore\n      0x20\n      add\n      swap1\n      dup2\n      mstore\n      0x20\n      add\n      0x00\n      keccak256\n      0x00\n        /* \"SimpleDEX.sol\":2113:2146  liquidityA[msg.sender] += amountA */\n      dup3\n      dup3\n      sload\n      tag_116\n      swap2\n      swap1\n      tag_78\n      jump\t// in\n    tag_116:\n      swap3\n      pop\n      pop\n      dup2\n      swap1\n      sstore\n      pop\n        /* \"SimpleDEX.sol\":2183:2190  amountB */\n      dup1\n        /* \"SimpleDEX.sol\":2157:2167  liquidityB */\n      0x05\n        /* \"SimpleDEX.sol\":2157:2179  liquidityB[msg.sender] */\n      0x00\n        /* \"SimpleDEX.sol\":2168:2178  msg.sender */\n      caller\n        /* \"SimpleDEX.sol\":2157:2179  liquidityB[msg.sender] */\n      0xffffffffffffffffffffffffffffffffffffffff\n      and\n      0xffffffffffffffffffffffffffffffffffffffff\n      and\n      dup2\n      mstore\n      0x20\n      add\n      swap1\n      dup2\n      mstore\n      0x20\n      add\n      0x00\n      keccak256\n      0x00\n        /* \"SimpleDEX.sol\":2157:2190  liquidityB[msg.sender] += amountB */\n      dup3\n      dup3\n      sload\n      tag_117\n      swap2\n      swap1\n      tag_78\n      jump\t// in\n    tag_117:\n      swap3\n      pop\n      pop\n      dup2\n      swap1\n      sstore\n      pop\n        /* \"SimpleDEX.sol\":2223:2233  msg.sender */\n      caller\n        /* \"SimpleDEX.sol\":2208:2252  LiquidityAdded(msg.sender, amountA, amountB) */\n      0xffffffffffffffffffffffffffffffffffffffff\n      and\n      0xac1d76749e5447b7b16f5ab61447e1bd502f3bb4807af3b28e620d1700a6ee45\n        /* \"SimpleDEX.sol\":2235:2242  amountA */\n      dup4\n        /* \"SimpleDEX.sol\":2244:2251  amountB */\n      dup4\n        /* \"SimpleDEX.sol\":2208:2252  LiquidityAdded(msg.sender, amountA, amountB) */\n      mload(0x40)\n      tag_118\n      swap3\n      swap2\n      swap1\n      tag_119\n      jump\t// in\n    tag_118:\n      mload(0x40)\n      dup1\n      swap2\n      sub\n      swap1\n      log2\n        /* \"SimpleDEX.sol\":1685:2260  function addLiquidity(uint256 amountA, uint256 amountB) external {... */\n      pop\n      pop\n      jump\t// out\n        /* \"SimpleDEX.sol\":2542:3442  function removeLiquidity(uint256 amountA, uint256 amountB) external {... */\n    tag_45:\n        /* \"SimpleDEX.sol\":2639:2640  0 */\n      0x00\n        /* \"SimpleDEX.sol\":2629:2636  amountA */\n      dup3\n        /* \"SimpleDEX.sol\":2629:2640  amountA > 0 */\n      gt\n        /* \"SimpleDEX.sol\":2629:2655  amountA > 0 && amountB > 0 */\n      dup1\n      iszero\n      tag_121\n      jumpi\n      pop\n        /* \"SimpleDEX.sol\":2654:2655  0 */\n      0x00\n        /* \"SimpleDEX.sol\":2644:2651  amountB */\n      dup2\n        /* \"SimpleDEX.sol\":2644:2655  amountB > 0 */\n      gt\n        /* \"SimpleDEX.sol\":2629:2655  amountA > 0 && amountB > 0 */\n    tag_121:\n        /* \"SimpleDEX.sol\":2621:2675  require(amountA > 0 && amountB > 0, \"Invalid amounts\") */\n      tag_122\n      jumpi\n      mload(0x40)\n      0x08c379a000000000000000000000000000000000000000000000000000000000\n      dup2\n      mstore\n      0x04\n      add\n      tag_123\n      swap1\n      tag_124\n      jump\t// in\n    tag_123:\n      mload(0x40)\n      dup1\n      swap2\n      sub\n      swap1\n      revert\n    tag_122:\n        /* \"SimpleDEX.sol\":2706:2713  amountA */\n      dup2\n        /* \"SimpleDEX.sol\":2694:2702  reserveA */\n      sload(0x02)\n        /* \"SimpleDEX.sol\":2694:2713  reserveA >= amountA */\n      lt\n      iszero\n        /* \"SimpleDEX.sol\":2694:2736  reserveA >= amountA && reserveB >= amountB */\n      dup1\n      iszero\n      tag_125\n      jumpi\n      pop\n        /* \"SimpleDEX.sol\":2729:2736  amountB */\n      dup1\n        /* \"SimpleDEX.sol\":2717:2725  reserveB */\n      sload(0x03)\n        /* \"SimpleDEX.sol\":2717:2736  reserveB >= amountB */\n      lt\n      iszero\n        /* \"SimpleDEX.sol\":2694:2736  reserveA >= amountA && reserveB >= amountB */\n    tag_125:\n        /* \"SimpleDEX.sol\":2686:2763  require(reserveA >= amountA && reserveB >= amountB, \"Insufficient liquidity\") */\n      tag_126\n      jumpi\n      mload(0x40)\n      0x08c379a000000000000000000000000000000000000000000000000000000000\n      dup2\n      mstore\n      0x04\n      add\n      tag_127\n      swap1\n      tag_76\n      jump\t// in\n    tag_127:\n      mload(0x40)\n      dup1\n      swap2\n      sub\n      swap1\n      revert\n    tag_126:\n        /* \"SimpleDEX.sol\":2885:2892  amountA */\n      dup2\n        /* \"SimpleDEX.sol\":2859:2869  liquidityA */\n      0x04\n        /* \"SimpleDEX.sol\":2859:2881  liquidityA[msg.sender] */\n      0x00\n        /* \"SimpleDEX.sol\":2870:2880  msg.sender */\n      caller\n        /* \"SimpleDEX.sol\":2859:2881  liquidityA[msg.sender] */\n      0xffffffffffffffffffffffffffffffffffffffff\n      and\n      0xffffffffffffffffffffffffffffffffffffffff\n      and\n      dup2\n      mstore\n      0x20\n      add\n      swap1\n      dup2\n      mstore\n      0x20\n      add\n      0x00\n      keccak256\n      sload\n        /* \"SimpleDEX.sol\":2859:2892  liquidityA[msg.sender] >= amountA */\n      lt\n      iszero\n        /* \"SimpleDEX.sol\":2851:2938  require(liquidityA[msg.sender] >= amountA, \"Exceeds contributed liquidity for Token A\") */\n      tag_128\n      jumpi\n      mload(0x40)\n      0x08c379a000000000000000000000000000000000000000000000000000000000\n      dup2\n      mstore\n      0x04\n      add\n      tag_129\n      swap1\n      tag_130\n      jump\t// in\n    tag_129:\n      mload(0x40)\n      dup1\n      swap2\n      sub\n      swap1\n      revert\n    tag_128:\n        /* \"SimpleDEX.sol\":2983:2990  amountB */\n      dup1\n        /* \"SimpleDEX.sol\":2957:2967  liquidityB */\n      0x05\n        /* \"SimpleDEX.sol\":2957:2979  liquidityB[msg.sender] */\n      0x00\n        /* \"SimpleDEX.sol\":2968:2978  msg.sender */\n      caller\n        /* \"SimpleDEX.sol\":2957:2979  liquidityB[msg.sender] */\n      0xffffffffffffffffffffffffffffffffffffffff\n      and\n      0xffffffffffffffffffffffffffffffffffffffff\n      and\n      dup2\n      mstore\n      0x20\n      add\n      swap1\n      dup2\n      mstore\n      0x20\n      add\n      0x00\n      keccak256\n      sload\n        /* \"SimpleDEX.sol\":2957:2990  liquidityB[msg.sender] >= amountB */\n      lt\n      iszero\n        /* \"SimpleDEX.sol\":2949:3036  require(liquidityB[msg.sender] >= amountB, \"Exceeds contributed liquidity for Token B\") */\n      tag_131\n      jumpi\n      mload(0x40)\n      0x08c379a000000000000000000000000000000000000000000000000000000000\n      dup2\n      mstore\n      0x04\n      add\n      tag_132\n      swap1\n      tag_133\n      jump\t// in\n    tag_132:\n      mload(0x40)\n      dup1\n      swap2\n      sub\n      swap1\n      revert\n    tag_131:\n        /* \"SimpleDEX.sol\":3056:3062  tokenA */\n      0x00\n      dup1\n      sload\n      swap1\n      0x0100\n      exp\n      swap1\n      div\n      0xffffffffffffffffffffffffffffffffffffffff\n      and\n        /* \"SimpleDEX.sol\":3049:3072  IERC20(tokenA).transfer */\n      0xffffffffffffffffffffffffffffffffffffffff\n      and\n      0xa9059cbb\n        /* \"SimpleDEX.sol\":3073:3083  msg.sender */\n      caller\n        /* \"SimpleDEX.sol\":3085:3092  amountA */\n      dup5\n        /* \"SimpleDEX.sol\":3049:3093  IERC20(tokenA).transfer(msg.sender, amountA) */\n      mload(0x40)\n      dup4\n      0xffffffff\n      and\n      0xe0\n      shl\n      dup2\n      mstore\n      0x04\n      add\n      tag_134\n      swap3\n      swap2\n      swap1\n      tag_93\n      jump\t// in\n    tag_134:\n      0x20\n      mload(0x40)\n      dup1\n      dup4\n      sub\n      dup2\n      0x00\n      dup8\n      gas\n      call\n      iszero\n      dup1\n      iszero\n      tag_136\n      jumpi\n      returndatasize\n      0x00\n      dup1\n      returndatacopy\n      revert(0x00, returndatasize)\n    tag_136:\n      pop\n      pop\n      pop\n      pop\n      mload(0x40)\n      returndatasize\n      not(0x1f)\n      0x1f\n      dup3\n      add\n      and\n      dup3\n      add\n      dup1\n      0x40\n      mstore\n      pop\n      dup2\n      add\n      swap1\n      tag_137\n      swap2\n      swap1\n      tag_91\n      jump\t// in\n    tag_137:\n      pop\n        /* \"SimpleDEX.sol\":3111:3117  tokenB */\n      0x01\n      0x00\n      swap1\n      sload\n      swap1\n      0x0100\n      exp\n      swap1\n      div\n      0xffffffffffffffffffffffffffffffffffffffff\n      and\n        /* \"SimpleDEX.sol\":3104:3127  IERC20(tokenB).transfer */\n      0xffffffffffffffffffffffffffffffffffffffff\n      and\n      0xa9059cbb\n        /* \"SimpleDEX.sol\":3128:3138  msg.sender */\n      caller\n        /* \"SimpleDEX.sol\":3140:3147  amountB */\n      dup4\n        /* \"SimpleDEX.sol\":3104:3148  IERC20(tokenB).transfer(msg.sender, amountB) */\n      mload(0x40)\n      dup4\n      0xffffffff\n      and\n      0xe0\n      shl\n      dup2\n      mstore\n      0x04\n      add\n      tag_138\n      swap3\n      swap2\n      swap1\n      tag_93\n      jump\t// in\n    tag_138:\n      0x20\n      mload(0x40)\n      dup1\n      dup4\n      sub\n      dup2\n      0x00\n      dup8\n      gas\n      call\n      iszero\n      dup1\n      iszero\n      tag_140\n      jumpi\n      returndatasize\n      0x00\n      dup1\n      returndatacopy\n      revert(0x00, returndatasize)\n    tag_140:\n      pop\n      pop\n      pop\n      pop\n      mload(0x40)\n      returndatasize\n      not(0x1f)\n      0x1f\n      dup3\n      add\n      and\n      dup3\n      add\n      dup1\n      0x40\n      mstore\n      pop\n      dup2\n      add\n      swap1\n      tag_141\n      swap2\n      swap1\n      tag_91\n      jump\t// in\n    tag_141:\n      pop\n        /* \"SimpleDEX.sol\":3173:3180  amountA */\n      dup2\n        /* \"SimpleDEX.sol\":3161:3169  reserveA */\n      0x02\n      0x00\n        /* \"SimpleDEX.sol\":3161:3180  reserveA -= amountA */\n      dup3\n      dup3\n      sload\n      tag_142\n      swap2\n      swap1\n      tag_82\n      jump\t// in\n    tag_142:\n      swap3\n      pop\n      pop\n      dup2\n      swap1\n      sstore\n      pop\n        /* \"SimpleDEX.sol\":3203:3210  amountB */\n      dup1\n        /* \"SimpleDEX.sol\":3191:3199  reserveB */\n      0x03\n      0x00\n        /* \"SimpleDEX.sol\":3191:3210  reserveB -= amountB */\n      dup3\n      dup3\n      sload\n      tag_143\n      swap2\n      swap1\n      tag_82\n      jump\t// in\n    tag_143:\n      swap3\n      pop\n      pop\n      dup2\n      swap1\n      sstore\n      pop\n        /* \"SimpleDEX.sol\":3319:3326  amountA */\n      dup2\n        /* \"SimpleDEX.sol\":3293:3303  liquidityA */\n      0x04\n        /* \"SimpleDEX.sol\":3293:3315  liquidityA[msg.sender] */\n      0x00\n        /* \"SimpleDEX.sol\":3304:3314  msg.sender */\n      caller\n        /* \"SimpleDEX.sol\":3293:3315  liquidityA[msg.sender] */\n      0xffffffffffffffffffffffffffffffffffffffff\n      and\n      0xffffffffffffffffffffffffffffffffffffffff\n      and\n      dup2\n      mstore\n      0x20\n      add\n      swap1\n      dup2\n      mstore\n      0x20\n      add\n      0x00\n      keccak256\n      0x00\n        /* \"SimpleDEX.sol\":3293:3326  liquidityA[msg.sender] -= amountA */\n      dup3\n      dup3\n      sload\n      tag_144\n      swap2\n      swap1\n      tag_82\n      jump\t// in\n    tag_144:\n      swap3\n      pop\n      pop\n      dup2\n      swap1\n      sstore\n      pop\n        /* \"SimpleDEX.sol\":3363:3370  amountB */\n      dup1\n        /* \"SimpleDEX.sol\":3337:3347  liquidityB */\n      0x05\n        /* \"SimpleDEX.sol\":3337:3359  liquidityB[msg.sender] */\n      0x00\n        /* \"SimpleDEX.sol\":3348:3358  msg.sender */\n      caller\n        /* \"SimpleDEX.sol\":3337:3359  liquidityB[msg.sender] */\n      0xffffffffffffffffffffffffffffffffffffffff\n      and\n      0xffffffffffffffffffffffffffffffffffffffff\n      and\n      dup2\n      mstore\n      0x20\n      add\n      swap1\n      dup2\n      mstore\n      0x20\n      add\n      0x00\n      keccak256\n      0x00\n        /* \"SimpleDEX.sol\":3337:3370  liquidityB[msg.sender] -= amountB */\n      dup3\n      dup3\n      sload\n      tag_145\n      swap2\n      swap1\n      tag_82\n      jump\t// in\n    tag_145:\n      swap3\n      pop\n      pop\n      dup2\n      swap1\n      sstore\n      pop\n        /* \"SimpleDEX.sol\":3405:3415  msg.sender */\n      caller\n        /* \"SimpleDEX.sol\":3388:3434  LiquidityRemoved(msg.sender, amountA, amountB) */\n      0xffffffffffffffffffffffffffffffffffffffff\n      and\n      0x96cd817c6329656790ef8fba7675405193677d39619571282f5e21f3a98cd059\n        /* \"SimpleDEX.sol\":3417:3424  amountA */\n      dup4\n        /* \"SimpleDEX.sol\":3426:3433  amountB */\n      dup4\n        /* \"SimpleDEX.sol\":3388:3434  LiquidityRemoved(msg.sender, amountA, amountB) */\n      mload(0x40)\n      tag_146\n      swap3\n      swap2\n      swap1\n      tag_119\n      jump\t// in\n    tag_146:\n      mload(0x40)\n      dup1\n      swap2\n      sub\n      swap1\n      log2\n        /* \"SimpleDEX.sol\":2542:3442  function removeLiquidity(uint256 amountA, uint256 amountB) external {... */\n      pop\n      pop\n      jump\t// out\n        /* \"SimpleDEX.sol\":287:310  uint256 public reserveA */\n    tag_47:\n      sload(0x02)\n      dup2\n      jump\t// out\n        /* \"SimpleDEX.sol\":479:524  mapping(address => uint256) public liquidityA */\n    tag_51:\n      mstore(0x20, 0x04)\n      dup1\n      0x00\n      mstore\n      keccak256(0x00, 0x40)\n      0x00\n      swap2\n      pop\n      swap1\n      pop\n      sload\n      dup2\n      jump\t// out\n        /* \"SimpleDEX.sol\":4128:5464  function swapAforB(uint256 amountAIn) external {... */\n    tag_55:\n        /* \"SimpleDEX.sol\":4361:4362  0 */\n      0x00\n        /* \"SimpleDEX.sol\":4349:4358  amountAIn */\n      dup2\n        /* \"SimpleDEX.sol\":4349:4362  amountAIn > 0 */\n      gt\n        /* \"SimpleDEX.sol\":4341:4387  require(amountAIn > 0, \"Invalid input amount\") */\n      tag_148\n      jumpi\n      mload(0x40)\n      0x08c379a000000000000000000000000000000000000000000000000000000000\n      dup2\n      mstore\n      0x04\n      add\n      tag_149\n      swap1\n      tag_72\n      jump\t// in\n    tag_149:\n      mload(0x40)\n      dup1\n      swap2\n      sub\n      swap1\n      revert\n    tag_148:\n        /* \"SimpleDEX.sol\":4481:4482  0 */\n      0x00\n        /* \"SimpleDEX.sol\":4470:4478  reserveA */\n      sload(0x02)\n        /* \"SimpleDEX.sol\":4470:4482  reserveA > 0 */\n      gt\n        /* \"SimpleDEX.sol\":4470:4498  reserveA > 0 && reserveB > 0 */\n      dup1\n      iszero\n      tag_150\n      jumpi\n      pop\n        /* \"SimpleDEX.sol\":4497:4498  0 */\n      0x00\n        /* \"SimpleDEX.sol\":4486:4494  reserveB */\n      sload(0x03)\n        /* \"SimpleDEX.sol\":4486:4498  reserveB > 0 */\n      gt\n        /* \"SimpleDEX.sol\":4470:4498  reserveA > 0 && reserveB > 0 */\n    tag_150:\n        /* \"SimpleDEX.sol\":4462:4525  require(reserveA > 0 && reserveB > 0, \"Insufficient liquidity\") */\n      tag_151\n      jumpi\n      mload(0x40)\n      0x08c379a000000000000000000000000000000000000000000000000000000000\n      dup2\n      mstore\n      0x04\n      add\n      tag_152\n      swap1\n      tag_76\n      jump\t// in\n    tag_152:\n      mload(0x40)\n      dup1\n      swap2\n      sub\n      swap1\n      revert\n    tag_151:\n        /* \"SimpleDEX.sol\":4787:4805  uint256 amountBOut */\n      0x00\n        /* \"SimpleDEX.sol\":4855:4864  amountAIn */\n      dup2\n        /* \"SimpleDEX.sol\":4844:4852  reserveA */\n      sload(0x02)\n        /* \"SimpleDEX.sol\":4844:4864  reserveA + amountAIn */\n      tag_153\n      swap2\n      swap1\n      tag_78\n      jump\t// in\n    tag_153:\n        /* \"SimpleDEX.sol\":4831:4839  reserveB */\n      sload(0x03)\n        /* \"SimpleDEX.sol\":4820:4828  reserveA */\n      sload(0x02)\n        /* \"SimpleDEX.sol\":4820:4839  reserveA * reserveB */\n      tag_154\n      swap2\n      swap1\n      tag_63\n      jump\t// in\n    tag_154:\n        /* \"SimpleDEX.sol\":4819:4865  (reserveA * reserveB) / (reserveA + amountAIn) */\n      tag_155\n      swap2\n      swap1\n      tag_65\n      jump\t// in\n    tag_155:\n        /* \"SimpleDEX.sol\":4808:4816  reserveB */\n      sload(0x03)\n        /* \"SimpleDEX.sol\":4808:4865  reserveB - (reserveA * reserveB) / (reserveA + amountAIn) */\n      tag_156\n      swap2\n      swap1\n      tag_82\n      jump\t// in\n    tag_156:\n        /* \"SimpleDEX.sol\":4787:4865  uint256 amountBOut = reserveB - (reserveA * reserveB) / (reserveA + amountAIn) */\n      swap1\n      pop\n        /* \"SimpleDEX.sol\":4897:4898  0 */\n      0x00\n        /* \"SimpleDEX.sol\":4884:4894  amountBOut */\n      dup2\n        /* \"SimpleDEX.sol\":4884:4898  amountBOut > 0 */\n      gt\n        /* \"SimpleDEX.sol\":4876:4929  require(amountBOut > 0, \"Insufficient output amount\") */\n      tag_157\n      jumpi\n      mload(0x40)\n      0x08c379a000000000000000000000000000000000000000000000000000000000\n      dup2\n      mstore\n      0x04\n      add\n      tag_158\n      swap1\n      tag_85\n      jump\t// in\n    tag_158:\n      mload(0x40)\n      dup1\n      swap2\n      sub\n      swap1\n      revert\n    tag_157:\n        /* \"SimpleDEX.sol\":5018:5024  tokenA */\n      0x00\n      dup1\n      sload\n      swap1\n      0x0100\n      exp\n      swap1\n      div\n      0xffffffffffffffffffffffffffffffffffffffff\n      and\n        /* \"SimpleDEX.sol\":5011:5038  IERC20(tokenA).transferFrom */\n      0xffffffffffffffffffffffffffffffffffffffff\n      and\n      0x23b872dd\n        /* \"SimpleDEX.sol\":5039:5049  msg.sender */\n      caller\n        /* \"SimpleDEX.sol\":5059:5063  this */\n      address\n        /* \"SimpleDEX.sol\":5066:5075  amountAIn */\n      dup6\n        /* \"SimpleDEX.sol\":5011:5076  IERC20(tokenA).transferFrom(msg.sender, address(this), amountAIn) */\n      mload(0x40)\n      dup5\n      0xffffffff\n      and\n      0xe0\n      shl\n      dup2\n      mstore\n      0x04\n      add\n      tag_159\n      swap4\n      swap3\n      swap2\n      swap1\n      tag_87\n      jump\t// in\n    tag_159:\n      0x20\n      mload(0x40)\n      dup1\n      dup4\n      sub\n      dup2\n      0x00\n      dup8\n      gas\n      call\n      iszero\n      dup1\n      iszero\n      tag_161\n      jumpi\n      returndatasize\n      0x00\n      dup1\n      returndatacopy\n      revert(0x00, returndatasize)\n    tag_161:\n      pop\n      pop\n      pop\n      pop\n      mload(0x40)\n      returndatasize\n      not(0x1f)\n      0x1f\n      dup3\n      add\n      and\n      dup3\n      add\n      dup1\n      0x40\n      mstore\n      pop\n      dup2\n      add\n      swap1\n      tag_162\n      swap2\n      swap1\n      tag_91\n      jump\t// in\n    tag_162:\n      pop\n        /* \"SimpleDEX.sol\":5162:5168  tokenB */\n      0x01\n      0x00\n      swap1\n      sload\n      swap1\n      0x0100\n      exp\n      swap1\n      div\n      0xffffffffffffffffffffffffffffffffffffffff\n      and\n        /* \"SimpleDEX.sol\":5155:5178  IERC20(tokenB).transfer */\n      0xffffffffffffffffffffffffffffffffffffffff\n      and\n      0xa9059cbb\n        /* \"SimpleDEX.sol\":5179:5189  msg.sender */\n      caller\n        /* \"SimpleDEX.sol\":5191:5201  amountBOut */\n      dup4\n        /* \"SimpleDEX.sol\":5155:5202  IERC20(tokenB).transfer(msg.sender, amountBOut) */\n      mload(0x40)\n      dup4\n      0xffffffff\n      and\n      0xe0\n      shl\n      dup2\n      mstore\n      0x04\n      add\n      tag_163\n      swap3\n      swap2\n      swap1\n      tag_93\n      jump\t// in\n    tag_163:\n      0x20\n      mload(0x40)\n      dup1\n      dup4\n      sub\n      dup2\n      0x00\n      dup8\n      gas\n      call\n      iszero\n      dup1\n      iszero\n      tag_165\n      jumpi\n      returndatasize\n      0x00\n      dup1\n      returndatacopy\n      revert(0x00, returndatasize)\n    tag_165:\n      pop\n      pop\n      pop\n      pop\n      mload(0x40)\n      returndatasize\n      not(0x1f)\n      0x1f\n      dup3\n      add\n      and\n      dup3\n      add\n      dup1\n      0x40\n      mstore\n      pop\n      dup2\n      add\n      swap1\n      tag_166\n      swap2\n      swap1\n      tag_91\n      jump\t// in\n    tag_166:\n      pop\n        /* \"SimpleDEX.sol\":5290:5299  amountAIn */\n      dup2\n        /* \"SimpleDEX.sol\":5278:5286  reserveA */\n      0x02\n      0x00\n        /* \"SimpleDEX.sol\":5278:5299  reserveA += amountAIn */\n      dup3\n      dup3\n      sload\n      tag_167\n      swap2\n      swap1\n      tag_78\n      jump\t// in\n    tag_167:\n      swap3\n      pop\n      pop\n      dup2\n      swap1\n      sstore\n      pop\n        /* \"SimpleDEX.sol\":5322:5332  amountBOut */\n      dup1\n        /* \"SimpleDEX.sol\":5310:5318  reserveB */\n      0x03\n      0x00\n        /* \"SimpleDEX.sol\":5310:5332  reserveB -= amountBOut */\n      dup3\n      dup3\n      sload\n      tag_168\n      swap2\n      swap1\n      tag_82\n      jump\t// in\n    tag_168:\n      swap3\n      pop\n      pop\n      dup2\n      swap1\n      sstore\n      pop\n        /* \"SimpleDEX.sol\":5406:5416  msg.sender */\n      caller\n        /* \"SimpleDEX.sol\":5392:5456  TokensSwapped(msg.sender, tokenA, tokenB, amountAIn, amountBOut) */\n      0xffffffffffffffffffffffffffffffffffffffff\n      and\n      0xad56699d0f375866eb895ed27203058a36a713382aaded78eb6b67da266d4332\n        /* \"SimpleDEX.sol\":5418:5424  tokenA */\n      0x00\n      dup1\n      sload\n      swap1\n      0x0100\n      exp\n      swap1\n      div\n      0xffffffffffffffffffffffffffffffffffffffff\n      and\n        /* \"SimpleDEX.sol\":5426:5432  tokenB */\n      0x01\n      0x00\n      swap1\n      sload\n      swap1\n      0x0100\n      exp\n      swap1\n      div\n      0xffffffffffffffffffffffffffffffffffffffff\n      and\n        /* \"SimpleDEX.sol\":5434:5443  amountAIn */\n      dup6\n        /* \"SimpleDEX.sol\":5445:5455  amountBOut */\n      dup6\n        /* \"SimpleDEX.sol\":5392:5456  TokensSwapped(msg.sender, tokenA, tokenB, amountAIn, amountBOut) */\n      mload(0x40)\n      tag_169\n      swap5\n      swap4\n      swap3\n      swap2\n      swap1\n      tag_100\n      jump\t// in\n    tag_169:\n      mload(0x40)\n      dup1\n      swap2\n      sub\n      swap1\n      log2\n        /* \"SimpleDEX.sol\":4175:5464  {... */\n      pop\n        /* \"SimpleDEX.sol\":4128:5464  function swapAforB(uint256 amountAIn) external {... */\n      pop\n      jump\t// out\n        /* \"#utility.yul\":7:133   */\n    tag_170:\n        /* \"#utility.yul\":44:51   */\n      0x00\n        /* \"#utility.yul\":84:126   */\n      0xffffffffffffffffffffffffffffffffffffffff\n        /* \"#utility.yul\":77:82   */\n      dup3\n        /* \"#utility.yul\":73:127   */\n      and\n        /* \"#utility.yul\":62:127   */\n      swap1\n      pop\n        /* \"#utility.yul\":7:133   */\n      swap2\n      swap1\n      pop\n      jump\t// out\n        /* \"#utility.yul\":139:235   */\n    tag_171:\n        /* \"#utility.yul\":176:183   */\n      0x00\n        /* \"#utility.yul\":205:229   */\n      tag_207\n        /* \"#utility.yul\":223:228   */\n      dup3\n        /* \"#utility.yul\":205:229   */\n      tag_170\n      jump\t// in\n    tag_207:\n        /* \"#utility.yul\":194:229   */\n      swap1\n      pop\n        /* \"#utility.yul\":139:235   */\n      swap2\n      swap1\n      pop\n      jump\t// out\n        /* \"#utility.yul\":241:359   */\n    tag_172:\n        /* \"#utility.yul\":328:352   */\n      tag_209\n        /* \"#utility.yul\":346:351   */\n      dup2\n        /* \"#utility.yul\":328:352   */\n      tag_171\n      jump\t// in\n    tag_209:\n        /* \"#utility.yul\":323:326   */\n      dup3\n        /* \"#utility.yul\":316:353   */\n      mstore\n        /* \"#utility.yul\":241:359   */\n      pop\n      pop\n      jump\t// out\n        /* \"#utility.yul\":365:587   */\n    tag_18:\n        /* \"#utility.yul\":458:462   */\n      0x00\n        /* \"#utility.yul\":496:498   */\n      0x20\n        /* \"#utility.yul\":485:494   */\n      dup3\n        /* \"#utility.yul\":481:499   */\n      add\n        /* \"#utility.yul\":473:499   */\n      swap1\n      pop\n        /* \"#utility.yul\":509:580   */\n      tag_211\n        /* \"#utility.yul\":577:578   */\n      0x00\n        /* \"#utility.yul\":566:575   */\n      dup4\n        /* \"#utility.yul\":562:579   */\n      add\n        /* \"#utility.yul\":553:559   */\n      dup5\n        /* \"#utility.yul\":509:580   */\n      tag_172\n      jump\t// in\n    tag_211:\n        /* \"#utility.yul\":365:587   */\n      swap3\n      swap2\n      pop\n      pop\n      jump\t// out\n        /* \"#utility.yul\":593:670   */\n    tag_173:\n        /* \"#utility.yul\":630:637   */\n      0x00\n        /* \"#utility.yul\":659:664   */\n      dup2\n        /* \"#utility.yul\":648:664   */\n      swap1\n      pop\n        /* \"#utility.yul\":593:670   */\n      swap2\n      swap1\n      pop\n      jump\t// out\n        /* \"#utility.yul\":676:794   */\n    tag_174:\n        /* \"#utility.yul\":763:787   */\n      tag_214\n        /* \"#utility.yul\":781:786   */\n      dup2\n        /* \"#utility.yul\":763:787   */\n      tag_173\n      jump\t// in\n    tag_214:\n        /* \"#utility.yul\":758:761   */\n      dup3\n        /* \"#utility.yul\":751:788   */\n      mstore\n        /* \"#utility.yul\":676:794   */\n      pop\n      pop\n      jump\t// out\n        /* \"#utility.yul\":800:1022   */\n    tag_22:\n        /* \"#utility.yul\":893:897   */\n      0x00\n        /* \"#utility.yul\":931:933   */\n      0x20\n        /* \"#utility.yul\":920:929   */\n      dup3\n        /* \"#utility.yul\":916:934   */\n      add\n        /* \"#utility.yul\":908:934   */\n      swap1\n      pop\n        /* \"#utility.yul\":944:1015   */\n      tag_216\n        /* \"#utility.yul\":1012:1013   */\n      0x00\n        /* \"#utility.yul\":1001:1010   */\n      dup4\n        /* \"#utility.yul\":997:1014   */\n      add\n        /* \"#utility.yul\":988:994   */\n      dup5\n        /* \"#utility.yul\":944:1015   */\n      tag_174\n      jump\t// in\n    tag_216:\n        /* \"#utility.yul\":800:1022   */\n      swap3\n      swap2\n      pop\n      pop\n      jump\t// out\n        /* \"#utility.yul\":1109:1226   */\n    tag_176:\n        /* \"#utility.yul\":1218:1219   */\n      0x00\n        /* \"#utility.yul\":1215:1216   */\n      dup1\n        /* \"#utility.yul\":1208:1220   */\n      revert\n        /* \"#utility.yul\":1355:1477   */\n    tag_178:\n        /* \"#utility.yul\":1428:1452   */\n      tag_221\n        /* \"#utility.yul\":1446:1451   */\n      dup2\n        /* \"#utility.yul\":1428:1452   */\n      tag_171\n      jump\t// in\n    tag_221:\n        /* \"#utility.yul\":1421:1426   */\n      dup2\n        /* \"#utility.yul\":1418:1453   */\n      eq\n        /* \"#utility.yul\":1408:1471   */\n      tag_222\n      jumpi\n        /* \"#utility.yul\":1467:1468   */\n      0x00\n        /* \"#utility.yul\":1464:1465   */\n      dup1\n        /* \"#utility.yul\":1457:1469   */\n      revert\n        /* \"#utility.yul\":1408:1471   */\n    tag_222:\n        /* \"#utility.yul\":1355:1477   */\n      pop\n      jump\t// out\n        /* \"#utility.yul\":1483:1622   */\n    tag_179:\n        /* \"#utility.yul\":1529:1534   */\n      0x00\n        /* \"#utility.yul\":1567:1573   */\n      dup2\n        /* \"#utility.yul\":1554:1574   */\n      calldataload\n        /* \"#utility.yul\":1545:1574   */\n      swap1\n      pop\n        /* \"#utility.yul\":1583:1616   */\n      tag_224\n        /* \"#utility.yul\":1610:1615   */\n      dup2\n        /* \"#utility.yul\":1583:1616   */\n      tag_178\n      jump\t// in\n    tag_224:\n        /* \"#utility.yul\":1483:1622   */\n      swap3\n      swap2\n      pop\n      pop\n      jump\t// out\n        /* \"#utility.yul\":1628:1957   */\n    tag_25:\n        /* \"#utility.yul\":1687:1693   */\n      0x00\n        /* \"#utility.yul\":1736:1738   */\n      0x20\n        /* \"#utility.yul\":1724:1733   */\n      dup3\n        /* \"#utility.yul\":1715:1722   */\n      dup5\n        /* \"#utility.yul\":1711:1734   */\n      sub\n        /* \"#utility.yul\":1707:1739   */\n      slt\n        /* \"#utility.yul\":1704:1823   */\n      iszero\n      tag_226\n      jumpi\n        /* \"#utility.yul\":1742:1821   */\n      tag_227\n      tag_176\n      jump\t// in\n    tag_227:\n        /* \"#utility.yul\":1704:1823   */\n    tag_226:\n        /* \"#utility.yul\":1862:1863   */\n      0x00\n        /* \"#utility.yul\":1887:1940   */\n      tag_228\n        /* \"#utility.yul\":1932:1939   */\n      dup5\n        /* \"#utility.yul\":1923:1929   */\n      dup3\n        /* \"#utility.yul\":1912:1921   */\n      dup6\n        /* \"#utility.yul\":1908:1930   */\n      add\n        /* \"#utility.yul\":1887:1940   */\n      tag_179\n      jump\t// in\n    tag_228:\n        /* \"#utility.yul\":1877:1940   */\n      swap2\n      pop\n        /* \"#utility.yul\":1833:1950   */\n      pop\n        /* \"#utility.yul\":1628:1957   */\n      swap3\n      swap2\n      pop\n      pop\n      jump\t// out\n        /* \"#utility.yul\":1963:2085   */\n    tag_180:\n        /* \"#utility.yul\":2036:2060   */\n      tag_230\n        /* \"#utility.yul\":2054:2059   */\n      dup2\n        /* \"#utility.yul\":2036:2060   */\n      tag_173\n      jump\t// in\n    tag_230:\n        /* \"#utility.yul\":2029:2034   */\n      dup2\n        /* \"#utility.yul\":2026:2061   */\n      eq\n        /* \"#utility.yul\":2016:2079   */\n      tag_231\n      jumpi\n        /* \"#utility.yul\":2075:2076   */\n      0x00\n        /* \"#utility.yul\":2072:2073   */\n      dup1\n        /* \"#utility.yul\":2065:2077   */\n      revert\n        /* \"#utility.yul\":2016:2079   */\n    tag_231:\n        /* \"#utility.yul\":1963:2085   */\n      pop\n      jump\t// out\n        /* \"#utility.yul\":2091:2230   */\n    tag_181:\n        /* \"#utility.yul\":2137:2142   */\n      0x00\n        /* \"#utility.yul\":2175:2181   */\n      dup2\n        /* \"#utility.yul\":2162:2182   */\n      calldataload\n        /* \"#utility.yul\":2153:2182   */\n      swap1\n      pop\n        /* \"#utility.yul\":2191:2224   */\n      tag_233\n        /* \"#utility.yul\":2218:2223   */\n      dup2\n        /* \"#utility.yul\":2191:2224   */\n      tag_180\n      jump\t// in\n    tag_233:\n        /* \"#utility.yul\":2091:2230   */\n      swap3\n      swap2\n      pop\n      pop\n      jump\t// out\n        /* \"#utility.yul\":2236:2565   */\n    tag_33:\n        /* \"#utility.yul\":2295:2301   */\n      0x00\n        /* \"#utility.yul\":2344:2346   */\n      0x20\n        /* \"#utility.yul\":2332:2341   */\n      dup3\n        /* \"#utility.yul\":2323:2330   */\n      dup5\n        /* \"#utility.yul\":2319:2342   */\n      sub\n        /* \"#utility.yul\":2315:2347   */\n      slt\n        /* \"#utility.yul\":2312:2431   */\n      iszero\n      tag_235\n      jumpi\n        /* \"#utility.yul\":2350:2429   */\n      tag_236\n      tag_176\n      jump\t// in\n    tag_236:\n        /* \"#utility.yul\":2312:2431   */\n    tag_235:\n        /* \"#utility.yul\":2470:2471   */\n      0x00\n        /* \"#utility.yul\":2495:2548   */\n      tag_237\n        /* \"#utility.yul\":2540:2547   */\n      dup5\n        /* \"#utility.yul\":2531:2537   */\n      dup3\n        /* \"#utility.yul\":2520:2529   */\n      dup6\n        /* \"#utility.yul\":2516:2538   */\n      add\n        /* \"#utility.yul\":2495:2548   */\n      tag_181\n      jump\t// in\n    tag_237:\n        /* \"#utility.yul\":2485:2548   */\n      swap2\n      pop\n        /* \"#utility.yul\":2441:2558   */\n      pop\n        /* \"#utility.yul\":2236:2565   */\n      swap3\n      swap2\n      pop\n      pop\n      jump\t// out\n        /* \"#utility.yul\":2571:3045   */\n    tag_41:\n        /* \"#utility.yul\":2639:2645   */\n      0x00\n        /* \"#utility.yul\":2647:2653   */\n      dup1\n        /* \"#utility.yul\":2696:2698   */\n      0x40\n        /* \"#utility.yul\":2684:2693   */\n      dup4\n        /* \"#utility.yul\":2675:2682   */\n      dup6\n        /* \"#utility.yul\":2671:2694   */\n      sub\n        /* \"#utility.yul\":2667:2699   */\n      slt\n        /* \"#utility.yul\":2664:2783   */\n      iszero\n      tag_239\n      jumpi\n        /* \"#utility.yul\":2702:2781   */\n      tag_240\n      tag_176\n      jump\t// in\n    tag_240:\n        /* \"#utility.yul\":2664:2783   */\n    tag_239:\n        /* \"#utility.yul\":2822:2823   */\n      0x00\n        /* \"#utility.yul\":2847:2900   */\n      tag_241\n        /* \"#utility.yul\":2892:2899   */\n      dup6\n        /* \"#utility.yul\":2883:2889   */\n      dup3\n        /* \"#utility.yul\":2872:2881   */\n      dup7\n        /* \"#utility.yul\":2868:2890   */\n      add\n        /* \"#utility.yul\":2847:2900   */\n      tag_181\n      jump\t// in\n    tag_241:\n        /* \"#utility.yul\":2837:2900   */\n      swap3\n      pop\n        /* \"#utility.yul\":2793:2910   */\n      pop\n        /* \"#utility.yul\":2949:2951   */\n      0x20\n        /* \"#utility.yul\":2975:3028   */\n      tag_242\n        /* \"#utility.yul\":3020:3027   */\n      dup6\n        /* \"#utility.yul\":3011:3017   */\n      dup3\n        /* \"#utility.yul\":3000:3009   */\n      dup7\n        /* \"#utility.yul\":2996:3018   */\n      add\n        /* \"#utility.yul\":2975:3028   */\n      tag_181\n      jump\t// in\n    tag_242:\n        /* \"#utility.yul\":2965:3028   */\n      swap2\n      pop\n        /* \"#utility.yul\":2920:3038   */\n      pop\n        /* \"#utility.yul\":2571:3045   */\n      swap3\n      pop\n      swap3\n      swap1\n      pop\n      jump\t// out\n        /* \"#utility.yul\":3051:3220   */\n    tag_182:\n        /* \"#utility.yul\":3135:3146   */\n      0x00\n        /* \"#utility.yul\":3169:3175   */\n      dup3\n        /* \"#utility.yul\":3164:3167   */\n      dup3\n        /* \"#utility.yul\":3157:3176   */\n      mstore\n        /* \"#utility.yul\":3209:3213   */\n      0x20\n        /* \"#utility.yul\":3204:3207   */\n      dup3\n        /* \"#utility.yul\":3200:3214   */\n      add\n        /* \"#utility.yul\":3185:3214   */\n      swap1\n      pop\n        /* \"#utility.yul\":3051:3220   */\n      swap3\n      swap2\n      pop\n      pop\n      jump\t// out\n        /* \"#utility.yul\":3226:3397   */\n    tag_183:\n        /* \"#utility.yul\":3366:3389   */\n      0x496e76616c696420746f6b656e20616464726573730000000000000000000000\n        /* \"#utility.yul\":3362:3363   */\n      0x00\n        /* \"#utility.yul\":3354:3360   */\n      dup3\n        /* \"#utility.yul\":3350:3364   */\n      add\n        /* \"#utility.yul\":3343:3390   */\n      mstore\n        /* \"#utility.yul\":3226:3397   */\n      pop\n      jump\t// out\n        /* \"#utility.yul\":3403:3769   */\n    tag_184:\n        /* \"#utility.yul\":3545:3548   */\n      0x00\n        /* \"#utility.yul\":3566:3633   */\n      tag_246\n        /* \"#utility.yul\":3630:3632   */\n      0x15\n        /* \"#utility.yul\":3625:3628   */\n      dup4\n        /* \"#utility.yul\":3566:3633   */\n      tag_182\n      jump\t// in\n    tag_246:\n        /* \"#utility.yul\":3559:3633   */\n      swap2\n      pop\n        /* \"#utility.yul\":3642:3735   */\n      tag_247\n        /* \"#utility.yul\":3731:3734   */\n      dup3\n        /* \"#utility.yul\":3642:3735   */\n      tag_183\n      jump\t// in\n    tag_247:\n        /* \"#utility.yul\":3760:3762   */\n      0x20\n        /* \"#utility.yul\":3755:3758   */\n      dup3\n        /* \"#utility.yul\":3751:3763   */\n      add\n        /* \"#utility.yul\":3744:3763   */\n      swap1\n      pop\n        /* \"#utility.yul\":3403:3769   */\n      swap2\n      swap1\n      pop\n      jump\t// out\n        /* \"#utility.yul\":3775:4194   */\n    tag_60:\n        /* \"#utility.yul\":3941:3945   */\n      0x00\n        /* \"#utility.yul\":3979:3981   */\n      0x20\n        /* \"#utility.yul\":3968:3977   */\n      dup3\n        /* \"#utility.yul\":3964:3982   */\n      add\n        /* \"#utility.yul\":3956:3982   */\n      swap1\n      pop\n        /* \"#utility.yul\":4028:4037   */\n      dup2\n        /* \"#utility.yul\":4022:4026   */\n      dup2\n        /* \"#utility.yul\":4018:4038   */\n      sub\n        /* \"#utility.yul\":4014:4015   */\n      0x00\n        /* \"#utility.yul\":4003:4012   */\n      dup4\n        /* \"#utility.yul\":3999:4016   */\n      add\n        /* \"#utility.yul\":3992:4039   */\n      mstore\n        /* \"#utility.yul\":4056:4187   */\n      tag_249\n        /* \"#utility.yul\":4182:4186   */\n      dup2\n        /* \"#utility.yul\":4056:4187   */\n      tag_184\n      jump\t// in\n    tag_249:\n        /* \"#utility.yul\":4048:4187   */\n      swap1\n      pop\n        /* \"#utility.yul\":3775:4194   */\n      swap2\n      swap1\n      pop\n      jump\t// out\n        /* \"#utility.yul\":4200:4380   */\n    tag_185:\n        /* \"#utility.yul\":4248:4325   */\n      0x4e487b7100000000000000000000000000000000000000000000000000000000\n        /* \"#utility.yul\":4245:4246   */\n      0x00\n        /* \"#utility.yul\":4238:4326   */\n      mstore\n        /* \"#utility.yul\":4345:4349   */\n      0x11\n        /* \"#utility.yul\":4342:4343   */\n      0x04\n        /* \"#utility.yul\":4335:4350   */\n      mstore\n        /* \"#utility.yul\":4369:4373   */\n      0x24\n        /* \"#utility.yul\":4366:4367   */\n      0x00\n        /* \"#utility.yul\":4359:4374   */\n      revert\n        /* \"#utility.yul\":4386:4796   */\n    tag_63:\n        /* \"#utility.yul\":4426:4433   */\n      0x00\n        /* \"#utility.yul\":4449:4469   */\n      tag_252\n        /* \"#utility.yul\":4467:4468   */\n      dup3\n        /* \"#utility.yul\":4449:4469   */\n      tag_173\n      jump\t// in\n    tag_252:\n        /* \"#utility.yul\":4444:4469   */\n      swap2\n      pop\n        /* \"#utility.yul\":4483:4503   */\n      tag_253\n        /* \"#utility.yul\":4501:4502   */\n      dup4\n        /* \"#utility.yul\":4483:4503   */\n      tag_173\n      jump\t// in\n    tag_253:\n        /* \"#utility.yul\":4478:4503   */\n      swap3\n      pop\n        /* \"#utility.yul\":4538:4539   */\n      dup3\n        /* \"#utility.yul\":4535:4536   */\n      dup3\n        /* \"#utility.yul\":4531:4540   */\n      mul\n        /* \"#utility.yul\":4560:4590   */\n      tag_254\n        /* \"#utility.yul\":4578:4589   */\n      dup2\n        /* \"#utility.yul\":4560:4590   */\n      tag_173\n      jump\t// in\n    tag_254:\n        /* \"#utility.yul\":4549:4590   */\n      swap2\n      pop\n        /* \"#utility.yul\":4739:4740   */\n      dup3\n        /* \"#utility.yul\":4730:4737   */\n      dup3\n        /* \"#utility.yul\":4726:4741   */\n      div\n        /* \"#utility.yul\":4723:4724   */\n      dup5\n        /* \"#utility.yul\":4720:4742   */\n      eq\n        /* \"#utility.yul\":4700:4701   */\n      dup4\n        /* \"#utility.yul\":4693:4702   */\n      iszero\n        /* \"#utility.yul\":4673:4756   */\n      or\n        /* \"#utility.yul\":4650:4789   */\n      tag_255\n      jumpi\n        /* \"#utility.yul\":4769:4787   */\n      tag_256\n      tag_185\n      jump\t// in\n    tag_256:\n        /* \"#utility.yul\":4650:4789   */\n    tag_255:\n        /* \"#utility.yul\":4434:4796   */\n      pop\n        /* \"#utility.yul\":4386:4796   */\n      swap3\n      swap2\n      pop\n      pop\n      jump\t// out\n        /* \"#utility.yul\":4802:4982   */\n    tag_186:\n        /* \"#utility.yul\":4850:4927   */\n      0x4e487b7100000000000000000000000000000000000000000000000000000000\n        /* \"#utility.yul\":4847:4848   */\n      0x00\n        /* \"#utility.yul\":4840:4928   */\n      mstore\n        /* \"#utility.yul\":4947:4951   */\n      0x12\n        /* \"#utility.yul\":4944:4945   */\n      0x04\n        /* \"#utility.yul\":4937:4952   */\n      mstore\n        /* \"#utility.yul\":4971:4975   */\n      0x24\n        /* \"#utility.yul\":4968:4969   */\n      0x00\n        /* \"#utility.yul\":4961:4976   */\n      revert\n        /* \"#utility.yul\":4988:5173   */\n    tag_65:\n        /* \"#utility.yul\":5028:5029   */\n      0x00\n        /* \"#utility.yul\":5045:5065   */\n      tag_259\n        /* \"#utility.yul\":5063:5064   */\n      dup3\n        /* \"#utility.yul\":5045:5065   */\n      tag_173\n      jump\t// in\n    tag_259:\n        /* \"#utility.yul\":5040:5065   */\n      swap2\n      pop\n        /* \"#utility.yul\":5079:5099   */\n      tag_260\n        /* \"#utility.yul\":5097:5098   */\n      dup4\n        /* \"#utility.yul\":5079:5099   */\n      tag_173\n      jump\t// in\n    tag_260:\n        /* \"#utility.yul\":5074:5099   */\n      swap3\n      pop\n        /* \"#utility.yul\":5118:5119   */\n      dup3\n        /* \"#utility.yul\":5108:5143   */\n      tag_261\n      jumpi\n        /* \"#utility.yul\":5123:5141   */\n      tag_262\n      tag_186\n      jump\t// in\n    tag_262:\n        /* \"#utility.yul\":5108:5143   */\n    tag_261:\n        /* \"#utility.yul\":5165:5166   */\n      dup3\n        /* \"#utility.yul\":5162:5163   */\n      dup3\n        /* \"#utility.yul\":5158:5167   */\n      div\n        /* \"#utility.yul\":5153:5167   */\n      swap1\n      pop\n        /* \"#utility.yul\":4988:5173   */\n      swap3\n      swap2\n      pop\n      pop\n      jump\t// out\n        /* \"#utility.yul\":5179:5349   */\n    tag_187:\n        /* \"#utility.yul\":5319:5341   */\n      0x496e76616c696420696e70757420616d6f756e74000000000000000000000000\n        /* \"#utility.yul\":5315:5316   */\n      0x00\n        /* \"#utility.yul\":5307:5313   */\n      dup3\n        /* \"#utility.yul\":5303:5317   */\n      add\n        /* \"#utility.yul\":5296:5342   */\n      mstore\n        /* \"#utility.yul\":5179:5349   */\n      pop\n      jump\t// out\n        /* \"#utility.yul\":5355:5721   */\n    tag_188:\n        /* \"#utility.yul\":5497:5500   */\n      0x00\n        /* \"#utility.yul\":5518:5585   */\n      tag_265\n        /* \"#utility.yul\":5582:5584   */\n      0x14\n        /* \"#utility.yul\":5577:5580   */\n      dup4\n        /* \"#utility.yul\":5518:5585   */\n      tag_182\n      jump\t// in\n    tag_265:\n        /* \"#utility.yul\":5511:5585   */\n      swap2\n      pop\n        /* \"#utility.yul\":5594:5687   */\n      tag_266\n        /* \"#utility.yul\":5683:5686   */\n      dup3\n        /* \"#utility.yul\":5594:5687   */\n      tag_187\n      jump\t// in\n    tag_266:\n        /* \"#utility.yul\":5712:5714   */\n      0x20\n        /* \"#utility.yul\":5707:5710   */\n      dup3\n        /* \"#utility.yul\":5703:5715   */\n      add\n        /* \"#utility.yul\":5696:5715   */\n      swap1\n      pop\n        /* \"#utility.yul\":5355:5721   */\n      swap2\n      swap1\n      pop\n      jump\t// out\n        /* \"#utility.yul\":5727:6146   */\n    tag_72:\n        /* \"#utility.yul\":5893:5897   */\n      0x00\n        /* \"#utility.yul\":5931:5933   */\n      0x20\n        /* \"#utility.yul\":5920:5929   */\n      dup3\n        /* \"#utility.yul\":5916:5934   */\n      add\n        /* \"#utility.yul\":5908:5934   */\n      swap1\n      pop\n        /* \"#utility.yul\":5980:5989   */\n      dup2\n        /* \"#utility.yul\":5974:5978   */\n      dup2\n        /* \"#utility.yul\":5970:5990   */\n      sub\n        /* \"#utility.yul\":5966:5967   */\n      0x00\n        /* \"#utility.yul\":5955:5964   */\n      dup4\n        /* \"#utility.yul\":5951:5968   */\n      add\n        /* \"#utility.yul\":5944:5991   */\n      mstore\n        /* \"#utility.yul\":6008:6139   */\n      tag_268\n        /* \"#utility.yul\":6134:6138   */\n      dup2\n        /* \"#utility.yul\":6008:6139   */\n      tag_188\n      jump\t// in\n    tag_268:\n        /* \"#utility.yul\":6000:6139   */\n      swap1\n      pop\n        /* \"#utility.yul\":5727:6146   */\n      swap2\n      swap1\n      pop\n      jump\t// out\n        /* \"#utility.yul\":6152:6324   */\n    tag_189:\n        /* \"#utility.yul\":6292:6316   */\n      0x496e73756666696369656e74206c697175696469747900000000000000000000\n        /* \"#utility.yul\":6288:6289   */\n      0x00\n        /* \"#utility.yul\":6280:6286   */\n      dup3\n        /* \"#utility.yul\":6276:6290   */\n      add\n        /* \"#utility.yul\":6269:6317   */\n      mstore\n        /* \"#utility.yul\":6152:6324   */\n      pop\n      jump\t// out\n        /* \"#utility.yul\":6330:6696   */\n    tag_190:\n        /* \"#utility.yul\":6472:6475   */\n      0x00\n        /* \"#utility.yul\":6493:6560   */\n      tag_271\n        /* \"#utility.yul\":6557:6559   */\n      0x16\n        /* \"#utility.yul\":6552:6555   */\n      dup4\n        /* \"#utility.yul\":6493:6560   */\n      tag_182\n      jump\t// in\n    tag_271:\n        /* \"#utility.yul\":6486:6560   */\n      swap2\n      pop\n        /* \"#utility.yul\":6569:6662   */\n      tag_272\n        /* \"#utility.yul\":6658:6661   */\n      dup3\n        /* \"#utility.yul\":6569:6662   */\n      tag_189\n      jump\t// in\n    tag_272:\n        /* \"#utility.yul\":6687:6689   */\n      0x20\n        /* \"#utility.yul\":6682:6685   */\n      dup3\n        /* \"#utility.yul\":6678:6690   */\n      add\n        /* \"#utility.yul\":6671:6690   */\n      swap1\n      pop\n        /* \"#utility.yul\":6330:6696   */\n      swap2\n      swap1\n      pop\n      jump\t// out\n        /* \"#utility.yul\":6702:7121   */\n    tag_76:\n        /* \"#utility.yul\":6868:6872   */\n      0x00\n        /* \"#utility.yul\":6906:6908   */\n      0x20\n        /* \"#utility.yul\":6895:6904   */\n      dup3\n        /* \"#utility.yul\":6891:6909   */\n      add\n        /* \"#utility.yul\":6883:6909   */\n      swap1\n      pop\n        /* \"#utility.yul\":6955:6964   */\n      dup2\n        /* \"#utility.yul\":6949:6953   */\n      dup2\n        /* \"#utility.yul\":6945:6965   */\n      sub\n        /* \"#utility.yul\":6941:6942   */\n      0x00\n        /* \"#utility.yul\":6930:6939   */\n      dup4\n        /* \"#utility.yul\":6926:6943   */\n      add\n        /* \"#utility.yul\":6919:6966   */\n      mstore\n        /* \"#utility.yul\":6983:7114   */\n      tag_274\n        /* \"#utility.yul\":7109:7113   */\n      dup2\n        /* \"#utility.yul\":6983:7114   */\n      tag_190\n      jump\t// in\n    tag_274:\n        /* \"#utility.yul\":6975:7114   */\n      swap1\n      pop\n        /* \"#utility.yul\":6702:7121   */\n      swap2\n      swap1\n      pop\n      jump\t// out\n        /* \"#utility.yul\":7127:7318   */\n    tag_78:\n        /* \"#utility.yul\":7167:7170   */\n      0x00\n        /* \"#utility.yul\":7186:7206   */\n      tag_276\n        /* \"#utility.yul\":7204:7205   */\n      dup3\n        /* \"#utility.yul\":7186:7206   */\n      tag_173\n      jump\t// in\n    tag_276:\n        /* \"#utility.yul\":7181:7206   */\n      swap2\n      pop\n        /* \"#utility.yul\":7220:7240   */\n      tag_277\n        /* \"#utility.yul\":7238:7239   */\n      dup4\n        /* \"#utility.yul\":7220:7240   */\n      tag_173\n      jump\t// in\n    tag_277:\n        /* \"#utility.yul\":7215:7240   */\n      swap3\n      pop\n        /* \"#utility.yul\":7263:7264   */\n      dup3\n        /* \"#utility.yul\":7260:7261   */\n      dup3\n        /* \"#utility.yul\":7256:7265   */\n      add\n        /* \"#utility.yul\":7249:7265   */\n      swap1\n      pop\n        /* \"#utility.yul\":7284:7287   */\n      dup1\n        /* \"#utility.yul\":7281:7282   */\n      dup3\n        /* \"#utility.yul\":7278:7288   */\n      gt\n        /* \"#utility.yul\":7275:7311   */\n      iszero\n      tag_278\n      jumpi\n        /* \"#utility.yul\":7291:7309   */\n      tag_279\n      tag_185\n      jump\t// in\n    tag_279:\n        /* \"#utility.yul\":7275:7311   */\n    tag_278:\n        /* \"#utility.yul\":7127:7318   */\n      swap3\n      swap2\n      pop\n      pop\n      jump\t// out\n        /* \"#utility.yul\":7324:7518   */\n    tag_82:\n        /* \"#utility.yul\":7364:7368   */\n      0x00\n        /* \"#utility.yul\":7384:7404   */\n      tag_281\n        /* \"#utility.yul\":7402:7403   */\n      dup3\n        /* \"#utility.yul\":7384:7404   */\n      tag_173\n      jump\t// in\n    tag_281:\n        /* \"#utility.yul\":7379:7404   */\n      swap2\n      pop\n        /* \"#utility.yul\":7418:7438   */\n      tag_282\n        /* \"#utility.yul\":7436:7437   */\n      dup4\n        /* \"#utility.yul\":7418:7438   */\n      tag_173\n      jump\t// in\n    tag_282:\n        /* \"#utility.yul\":7413:7438   */\n      swap3\n      pop\n        /* \"#utility.yul\":7462:7463   */\n      dup3\n        /* \"#utility.yul\":7459:7460   */\n      dup3\n        /* \"#utility.yul\":7455:7464   */\n      sub\n        /* \"#utility.yul\":7447:7464   */\n      swap1\n      pop\n        /* \"#utility.yul\":7486:7487   */\n      dup2\n        /* \"#utility.yul\":7480:7484   */\n      dup2\n        /* \"#utility.yul\":7477:7488   */\n      gt\n        /* \"#utility.yul\":7474:7511   */\n      iszero\n      tag_283\n      jumpi\n        /* \"#utility.yul\":7491:7509   */\n      tag_284\n      tag_185\n      jump\t// in\n    tag_284:\n        /* \"#utility.yul\":7474:7511   */\n    tag_283:\n        /* \"#utility.yul\":7324:7518   */\n      swap3\n      swap2\n      pop\n      pop\n      jump\t// out\n        /* \"#utility.yul\":7524:7700   */\n    tag_191:\n        /* \"#utility.yul\":7664:7692   */\n      0x496e73756666696369656e74206f757470757420616d6f756e74000000000000\n        /* \"#utility.yul\":7660:7661   */\n      0x00\n        /* \"#utility.yul\":7652:7658   */\n      dup3\n        /* \"#utility.yul\":7648:7662   */\n      add\n        /* \"#utility.yul\":7641:7693   */\n      mstore\n        /* \"#utility.yul\":7524:7700   */\n      pop\n      jump\t// out\n        /* \"#utility.yul\":7706:8072   */\n    tag_192:\n        /* \"#utility.yul\":7848:7851   */\n      0x00\n        /* \"#utility.yul\":7869:7936   */\n      tag_287\n        /* \"#utility.yul\":7933:7935   */\n      0x1a\n        /* \"#utility.yul\":7928:7931   */\n      dup4\n        /* \"#utility.yul\":7869:7936   */\n      tag_182\n      jump\t// in\n    tag_287:\n        /* \"#utility.yul\":7862:7936   */\n      swap2\n      pop\n        /* \"#utility.yul\":7945:8038   */\n      tag_288\n        /* \"#utility.yul\":8034:8037   */\n      dup3\n        /* \"#utility.yul\":7945:8038   */\n      tag_191\n      jump\t// in\n    tag_288:\n        /* \"#utility.yul\":8063:8065   */\n      0x20\n        /* \"#utility.yul\":8058:8061   */\n      dup3\n        /* \"#utility.yul\":8054:8066   */\n      add\n        /* \"#utility.yul\":8047:8066   */\n      swap1\n      pop\n        /* \"#utility.yul\":7706:8072   */\n      swap2\n      swap1\n      pop\n      jump\t// out\n        /* \"#utility.yul\":8078:8497   */\n    tag_85:\n        /* \"#utility.yul\":8244:8248   */\n      0x00\n        /* \"#utility.yul\":8282:8284   */\n      0x20\n        /* \"#utility.yul\":8271:8280   */\n      dup3\n        /* \"#utility.yul\":8267:8285   */\n      add\n        /* \"#utility.yul\":8259:8285   */\n      swap1\n      pop\n        /* \"#utility.yul\":8331:8340   */\n      dup2\n        /* \"#utility.yul\":8325:8329   */\n      dup2\n        /* \"#utility.yul\":8321:8341   */\n      sub\n        /* \"#utility.yul\":8317:8318   */\n      0x00\n        /* \"#utility.yul\":8306:8315   */\n      dup4\n        /* \"#utility.yul\":8302:8319   */\n      add\n        /* \"#utility.yul\":8295:8342   */\n      mstore\n        /* \"#utility.yul\":8359:8490   */\n      tag_290\n        /* \"#utility.yul\":8485:8489   */\n      dup2\n        /* \"#utility.yul\":8359:8490   */\n      tag_192\n      jump\t// in\n    tag_290:\n        /* \"#utility.yul\":8351:8490   */\n      swap1\n      pop\n        /* \"#utility.yul\":8078:8497   */\n      swap2\n      swap1\n      pop\n      jump\t// out\n        /* \"#utility.yul\":8503:8945   */\n    tag_87:\n        /* \"#utility.yul\":8652:8656   */\n      0x00\n        /* \"#utility.yul\":8690:8692   */\n      0x60\n        /* \"#utility.yul\":8679:8688   */\n      dup3\n        /* \"#utility.yul\":8675:8693   */\n      add\n        /* \"#utility.yul\":8667:8693   */\n      swap1\n      pop\n        /* \"#utility.yul\":8703:8774   */\n      tag_292\n        /* \"#utility.yul\":8771:8772   */\n      0x00\n        /* \"#utility.yul\":8760:8769   */\n      dup4\n        /* \"#utility.yul\":8756:8773   */\n      add\n        /* \"#utility.yul\":8747:8753   */\n      dup7\n        /* \"#utility.yul\":8703:8774   */\n      tag_172\n      jump\t// in\n    tag_292:\n        /* \"#utility.yul\":8784:8856   */\n      tag_293\n        /* \"#utility.yul\":8852:8854   */\n      0x20\n        /* \"#utility.yul\":8841:8850   */\n      dup4\n        /* \"#utility.yul\":8837:8855   */\n      add\n        /* \"#utility.yul\":8828:8834   */\n      dup6\n        /* \"#utility.yul\":8784:8856   */\n      tag_172\n      jump\t// in\n    tag_293:\n        /* \"#utility.yul\":8866:8938   */\n      tag_294\n        /* \"#utility.yul\":8934:8936   */\n      0x40\n        /* \"#utility.yul\":8923:8932   */\n      dup4\n        /* \"#utility.yul\":8919:8937   */\n      add\n        /* \"#utility.yul\":8910:8916   */\n      dup5\n        /* \"#utility.yul\":8866:8938   */\n      tag_174\n      jump\t// in\n    tag_294:\n        /* \"#utility.yul\":8503:8945   */\n      swap5\n      swap4\n      pop\n      pop\n      pop\n      pop\n      jump\t// out\n        /* \"#utility.yul\":8951:9041   */\n    tag_193:\n        /* \"#utility.yul\":8985:8992   */\n      0x00\n        /* \"#utility.yul\":9028:9033   */\n      dup2\n        /* \"#utility.yul\":9021:9034   */\n      iszero\n        /* \"#utility.yul\":9014:9035   */\n      iszero\n        /* \"#utility.yul\":9003:9035   */\n      swap1\n      pop\n        /* \"#utility.yul\":8951:9041   */\n      swap2\n      swap1\n      pop\n      jump\t// out\n        /* \"#utility.yul\":9047:9163   */\n    tag_194:\n        /* \"#utility.yul\":9117:9138   */\n      tag_297\n        /* \"#utility.yul\":9132:9137   */\n      dup2\n        /* \"#utility.yul\":9117:9138   */\n      tag_193\n      jump\t// in\n    tag_297:\n        /* \"#utility.yul\":9110:9115   */\n      dup2\n        /* \"#utility.yul\":9107:9139   */\n      eq\n        /* \"#utility.yul\":9097:9157   */\n      tag_298\n      jumpi\n        /* \"#utility.yul\":9153:9154   */\n      0x00\n        /* \"#utility.yul\":9150:9151   */\n      dup1\n        /* \"#utility.yul\":9143:9155   */\n      revert\n        /* \"#utility.yul\":9097:9157   */\n    tag_298:\n        /* \"#utility.yul\":9047:9163   */\n      pop\n      jump\t// out\n        /* \"#utility.yul\":9169:9306   */\n    tag_195:\n        /* \"#utility.yul\":9223:9228   */\n      0x00\n        /* \"#utility.yul\":9254:9260   */\n      dup2\n        /* \"#utility.yul\":9248:9261   */\n      mload\n        /* \"#utility.yul\":9239:9261   */\n      swap1\n      pop\n        /* \"#utility.yul\":9270:9300   */\n      tag_300\n        /* \"#utility.yul\":9294:9299   */\n      dup2\n        /* \"#utility.yul\":9270:9300   */\n      tag_194\n      jump\t// in\n    tag_300:\n        /* \"#utility.yul\":9169:9306   */\n      swap3\n      swap2\n      pop\n      pop\n      jump\t// out\n        /* \"#utility.yul\":9312:9657   */\n    tag_91:\n        /* \"#utility.yul\":9379:9385   */\n      0x00\n        /* \"#utility.yul\":9428:9430   */\n      0x20\n        /* \"#utility.yul\":9416:9425   */\n      dup3\n        /* \"#utility.yul\":9407:9414   */\n      dup5\n        /* \"#utility.yul\":9403:9426   */\n      sub\n        /* \"#utility.yul\":9399:9431   */\n      slt\n        /* \"#utility.yul\":9396:9515   */\n      iszero\n      tag_302\n      jumpi\n        /* \"#utility.yul\":9434:9513   */\n      tag_303\n      tag_176\n      jump\t// in\n    tag_303:\n        /* \"#utility.yul\":9396:9515   */\n    tag_302:\n        /* \"#utility.yul\":9554:9555   */\n      0x00\n        /* \"#utility.yul\":9579:9640   */\n      tag_304\n        /* \"#utility.yul\":9632:9639   */\n      dup5\n        /* \"#utility.yul\":9623:9629   */\n      dup3\n        /* \"#utility.yul\":9612:9621   */\n      dup6\n        /* \"#utility.yul\":9608:9630   */\n      add\n        /* \"#utility.yul\":9579:9640   */\n      tag_195\n      jump\t// in\n    tag_304:\n        /* \"#utility.yul\":9569:9640   */\n      swap2\n      pop\n        /* \"#utility.yul\":9525:9650   */\n      pop\n        /* \"#utility.yul\":9312:9657   */\n      swap3\n      swap2\n      pop\n      pop\n      jump\t// out\n        /* \"#utility.yul\":9663:9995   */\n    tag_93:\n        /* \"#utility.yul\":9784:9788   */\n      0x00\n        /* \"#utility.yul\":9822:9824   */\n      0x40\n        /* \"#utility.yul\":9811:9820   */\n      dup3\n        /* \"#utility.yul\":9807:9825   */\n      add\n        /* \"#utility.yul\":9799:9825   */\n      swap1\n      pop\n        /* \"#utility.yul\":9835:9906   */\n      tag_306\n        /* \"#utility.yul\":9903:9904   */\n      0x00\n        /* \"#utility.yul\":9892:9901   */\n      dup4\n        /* \"#utility.yul\":9888:9905   */\n      add\n        /* \"#utility.yul\":9879:9885   */\n      dup6\n        /* \"#utility.yul\":9835:9906   */\n      tag_172\n      jump\t// in\n    tag_306:\n        /* \"#utility.yul\":9916:9988   */\n      tag_307\n        /* \"#utility.yul\":9984:9986   */\n      0x20\n        /* \"#utility.yul\":9973:9982   */\n      dup4\n        /* \"#utility.yul\":9969:9987   */\n      add\n        /* \"#utility.yul\":9960:9966   */\n      dup5\n        /* \"#utility.yul\":9916:9988   */\n      tag_174\n      jump\t// in\n    tag_307:\n        /* \"#utility.yul\":9663:9995   */\n      swap4\n      swap3\n      pop\n      pop\n      pop\n      jump\t// out\n        /* \"#utility.yul\":10001:10554   */\n    tag_100:\n        /* \"#utility.yul\":10178:10182   */\n      0x00\n        /* \"#utility.yul\":10216:10219   */\n      0x80\n        /* \"#utility.yul\":10205:10214   */\n      dup3\n        /* \"#utility.yul\":10201:10220   */\n      add\n        /* \"#utility.yul\":10193:10220   */\n      swap1\n      pop\n        /* \"#utility.yul\":10230:10301   */\n      tag_309\n        /* \"#utility.yul\":10298:10299   */\n      0x00\n        /* \"#utility.yul\":10287:10296   */\n      dup4\n        /* \"#utility.yul\":10283:10300   */\n      add\n        /* \"#utility.yul\":10274:10280   */\n      dup8\n        /* \"#utility.yul\":10230:10301   */\n      tag_172\n      jump\t// in\n    tag_309:\n        /* \"#utility.yul\":10311:10383   */\n      tag_310\n        /* \"#utility.yul\":10379:10381   */\n      0x20\n        /* \"#utility.yul\":10368:10377   */\n      dup4\n        /* \"#utility.yul\":10364:10382   */\n      add\n        /* \"#utility.yul\":10355:10361   */\n      dup7\n        /* \"#utility.yul\":10311:10383   */\n      tag_172\n      jump\t// in\n    tag_310:\n        /* \"#utility.yul\":10393:10465   */\n      tag_311\n        /* \"#utility.yul\":10461:10463   */\n      0x40\n        /* \"#utility.yul\":10450:10459   */\n      dup4\n        /* \"#utility.yul\":10446:10464   */\n      add\n        /* \"#utility.yul\":10437:10443   */\n      dup6\n        /* \"#utility.yul\":10393:10465   */\n      tag_174\n      jump\t// in\n    tag_311:\n        /* \"#utility.yul\":10475:10547   */\n      tag_312\n        /* \"#utility.yul\":10543:10545   */\n      0x60\n        /* \"#utility.yul\":10532:10541   */\n      dup4\n        /* \"#utility.yul\":10528:10546   */\n      add\n        /* \"#utility.yul\":10519:10525   */\n      dup5\n        /* \"#utility.yul\":10475:10547   */\n      tag_174\n      jump\t// in\n    tag_312:\n        /* \"#utility.yul\":10001:10554   */\n      swap6\n      swap5\n      pop\n      pop\n      pop\n      pop\n      pop\n      jump\t// out\n        /* \"#utility.yul\":10560:10735   */\n    tag_196:\n        /* \"#utility.yul\":10700:10727   */\n      0x43616e6e6f7420616464207a65726f206c697175696469747900000000000000\n        /* \"#utility.yul\":10696:10697   */\n      0x00\n        /* \"#utility.yul\":10688:10694   */\n      dup3\n        /* \"#utility.yul\":10684:10698   */\n      add\n        /* \"#utility.yul\":10677:10728   */\n      mstore\n        /* \"#utility.yul\":10560:10735   */\n      pop\n      jump\t// out\n        /* \"#utility.yul\":10741:11107   */\n    tag_197:\n        /* \"#utility.yul\":10883:10886   */\n      0x00\n        /* \"#utility.yul\":10904:10971   */\n      tag_315\n        /* \"#utility.yul\":10968:10970   */\n      0x19\n        /* \"#utility.yul\":10963:10966   */\n      dup4\n        /* \"#utility.yul\":10904:10971   */\n      tag_182\n      jump\t// in\n    tag_315:\n        /* \"#utility.yul\":10897:10971   */\n      swap2\n      pop\n        /* \"#utility.yul\":10980:11073   */\n      tag_316\n        /* \"#utility.yul\":11069:11072   */\n      dup3\n        /* \"#utility.yul\":10980:11073   */\n      tag_196\n      jump\t// in\n    tag_316:\n        /* \"#utility.yul\":11098:11100   */\n      0x20\n        /* \"#utility.yul\":11093:11096   */\n      dup3\n        /* \"#utility.yul\":11089:11101   */\n      add\n        /* \"#utility.yul\":11082:11101   */\n      swap1\n      pop\n        /* \"#utility.yul\":10741:11107   */\n      swap2\n      swap1\n      pop\n      jump\t// out\n        /* \"#utility.yul\":11113:11532   */\n    tag_105:\n        /* \"#utility.yul\":11279:11283   */\n      0x00\n        /* \"#utility.yul\":11317:11319   */\n      0x20\n        /* \"#utility.yul\":11306:11315   */\n      dup3\n        /* \"#utility.yul\":11302:11320   */\n      add\n        /* \"#utility.yul\":11294:11320   */\n      swap1\n      pop\n        /* \"#utility.yul\":11366:11375   */\n      dup2\n        /* \"#utility.yul\":11360:11364   */\n      dup2\n        /* \"#utility.yul\":11356:11376   */\n      sub\n        /* \"#utility.yul\":11352:11353   */\n      0x00\n        /* \"#utility.yul\":11341:11350   */\n      dup4\n        /* \"#utility.yul\":11337:11354   */\n      add\n        /* \"#utility.yul\":11330:11377   */\n      mstore\n        /* \"#utility.yul\":11394:11525   */\n      tag_318\n        /* \"#utility.yul\":11520:11524   */\n      dup2\n        /* \"#utility.yul\":11394:11525   */\n      tag_197\n      jump\t// in\n    tag_318:\n        /* \"#utility.yul\":11386:11525   */\n      swap1\n      pop\n        /* \"#utility.yul\":11113:11532   */\n      swap2\n      swap1\n      pop\n      jump\t// out\n        /* \"#utility.yul\":11538:11870   */\n    tag_119:\n        /* \"#utility.yul\":11659:11663   */\n      0x00\n        /* \"#utility.yul\":11697:11699   */\n      0x40\n        /* \"#utility.yul\":11686:11695   */\n      dup3\n        /* \"#utility.yul\":11682:11700   */\n      add\n        /* \"#utility.yul\":11674:11700   */\n      swap1\n      pop\n        /* \"#utility.yul\":11710:11781   */\n      tag_320\n        /* \"#utility.yul\":11778:11779   */\n      0x00\n        /* \"#utility.yul\":11767:11776   */\n      dup4\n        /* \"#utility.yul\":11763:11780   */\n      add\n        /* \"#utility.yul\":11754:11760   */\n      dup6\n        /* \"#utility.yul\":11710:11781   */\n      tag_174\n      jump\t// in\n    tag_320:\n        /* \"#utility.yul\":11791:11863   */\n      tag_321\n        /* \"#utility.yul\":11859:11861   */\n      0x20\n        /* \"#utility.yul\":11848:11857   */\n      dup4\n        /* \"#utility.yul\":11844:11862   */\n      add\n        /* \"#utility.yul\":11835:11841   */\n      dup5\n        /* \"#utility.yul\":11791:11863   */\n      tag_174\n      jump\t// in\n    tag_321:\n        /* \"#utility.yul\":11538:11870   */\n      swap4\n      swap3\n      pop\n      pop\n      pop\n      jump\t// out\n        /* \"#utility.yul\":11876:12041   */\n    tag_198:\n        /* \"#utility.yul\":12016:12033   */\n      0x496e76616c696420616d6f756e74730000000000000000000000000000000000\n        /* \"#utility.yul\":12012:12013   */\n      0x00\n        /* \"#utility.yul\":12004:12010   */\n      dup3\n        /* \"#utility.yul\":12000:12014   */\n      add\n        /* \"#utility.yul\":11993:12034   */\n      mstore\n        /* \"#utility.yul\":11876:12041   */\n      pop\n      jump\t// out\n        /* \"#utility.yul\":12047:12413   */\n    tag_199:\n        /* \"#utility.yul\":12189:12192   */\n      0x00\n        /* \"#utility.yul\":12210:12277   */\n      tag_324\n        /* \"#utility.yul\":12274:12276   */\n      0x0f\n        /* \"#utility.yul\":12269:12272   */\n      dup4\n        /* \"#utility.yul\":12210:12277   */\n      tag_182\n      jump\t// in\n    tag_324:\n        /* \"#utility.yul\":12203:12277   */\n      swap2\n      pop\n        /* \"#utility.yul\":12286:12379   */\n      tag_325\n        /* \"#utility.yul\":12375:12378   */\n      dup3\n        /* \"#utility.yul\":12286:12379   */\n      tag_198\n      jump\t// in\n    tag_325:\n        /* \"#utility.yul\":12404:12406   */\n      0x20\n        /* \"#utility.yul\":12399:12402   */\n      dup3\n        /* \"#utility.yul\":12395:12407   */\n      add\n        /* \"#utility.yul\":12388:12407   */\n      swap1\n      pop\n        /* \"#utility.yul\":12047:12413   */\n      swap2\n      swap1\n      pop\n      jump\t// out\n        /* \"#utility.yul\":12419:12838   */\n    tag_124:\n        /* \"#utility.yul\":12585:12589   */\n      0x00\n        /* \"#utility.yul\":12623:12625   */\n      0x20\n        /* \"#utility.yul\":12612:12621   */\n      dup3\n        /* \"#utility.yul\":12608:12626   */\n      add\n        /* \"#utility.yul\":12600:12626   */\n      swap1\n      pop\n        /* \"#utility.yul\":12672:12681   */\n      dup2\n        /* \"#utility.yul\":12666:12670   */\n      dup2\n        /* \"#utility.yul\":12662:12682   */\n      sub\n        /* \"#utility.yul\":12658:12659   */\n      0x00\n        /* \"#utility.yul\":12647:12656   */\n      dup4\n        /* \"#utility.yul\":12643:12660   */\n      add\n        /* \"#utility.yul\":12636:12683   */\n      mstore\n        /* \"#utility.yul\":12700:12831   */\n      tag_327\n        /* \"#utility.yul\":12826:12830   */\n      dup2\n        /* \"#utility.yul\":12700:12831   */\n      tag_199\n      jump\t// in\n    tag_327:\n        /* \"#utility.yul\":12692:12831   */\n      swap1\n      pop\n        /* \"#utility.yul\":12419:12838   */\n      swap2\n      swap1\n      pop\n      jump\t// out\n        /* \"#utility.yul\":12844:13072   */\n    tag_200:\n        /* \"#utility.yul\":12984:13018   */\n      0x4578636565647320636f6e7472696275746564206c697175696469747920666f\n        /* \"#utility.yul\":12980:12981   */\n      0x00\n        /* \"#utility.yul\":12972:12978   */\n      dup3\n        /* \"#utility.yul\":12968:12982   */\n      add\n        /* \"#utility.yul\":12961:13019   */\n      mstore\n        /* \"#utility.yul\":13053:13064   */\n      0x7220546f6b656e20410000000000000000000000000000000000000000000000\n        /* \"#utility.yul\":13048:13050   */\n      0x20\n        /* \"#utility.yul\":13040:13046   */\n      dup3\n        /* \"#utility.yul\":13036:13051   */\n      add\n        /* \"#utility.yul\":13029:13065   */\n      mstore\n        /* \"#utility.yul\":12844:13072   */\n      pop\n      jump\t// out\n        /* \"#utility.yul\":13078:13444   */\n    tag_201:\n        /* \"#utility.yul\":13220:13223   */\n      0x00\n        /* \"#utility.yul\":13241:13308   */\n      tag_330\n        /* \"#utility.yul\":13305:13307   */\n      0x29\n        /* \"#utility.yul\":13300:13303   */\n      dup4\n        /* \"#utility.yul\":13241:13308   */\n      tag_182\n      jump\t// in\n    tag_330:\n        /* \"#utility.yul\":13234:13308   */\n      swap2\n      pop\n        /* \"#utility.yul\":13317:13410   */\n      tag_331\n        /* \"#utility.yul\":13406:13409   */\n      dup3\n        /* \"#utility.yul\":13317:13410   */\n      tag_200\n      jump\t// in\n    tag_331:\n        /* \"#utility.yul\":13435:13437   */\n      0x40\n        /* \"#utility.yul\":13430:13433   */\n      dup3\n        /* \"#utility.yul\":13426:13438   */\n      add\n        /* \"#utility.yul\":13419:13438   */\n      swap1\n      pop\n        /* \"#utility.yul\":13078:13444   */\n      swap2\n      swap1\n      pop\n      jump\t// out\n        /* \"#utility.yul\":13450:13869   */\n    tag_130:\n        /* \"#utility.yul\":13616:13620   */\n      0x00\n        /* \"#utility.yul\":13654:13656   */\n      0x20\n        /* \"#utility.yul\":13643:13652   */\n      dup3\n        /* \"#utility.yul\":13639:13657   */\n      add\n        /* \"#utility.yul\":13631:13657   */\n      swap1\n      pop\n        /* \"#utility.yul\":13703:13712   */\n      dup2\n        /* \"#utility.yul\":13697:13701   */\n      dup2\n        /* \"#utility.yul\":13693:13713   */\n      sub\n        /* \"#utility.yul\":13689:13690   */\n      0x00\n        /* \"#utility.yul\":13678:13687   */\n      dup4\n        /* \"#utility.yul\":13674:13691   */\n      add\n        /* \"#utility.yul\":13667:13714   */\n      mstore\n        /* \"#utility.yul\":13731:13862   */\n      tag_333\n        /* \"#utility.yul\":13857:13861   */\n      dup2\n        /* \"#utility.yul\":13731:13862   */\n      tag_201\n      jump\t// in\n    tag_333:\n        /* \"#utility.yul\":13723:13862   */\n      swap1\n      pop\n        /* \"#utility.yul\":13450:13869   */\n      swap2\n      swap1\n      pop\n      jump\t// out\n        /* \"#utility.yul\":13875:14103   */\n    tag_202:\n        /* \"#utility.yul\":14015:14049   */\n      0x4578636565647320636f6e7472696275746564206c697175696469747920666f\n        /* \"#utility.yul\":14011:14012   */\n      0x00\n        /* \"#utility.yul\":14003:14009   */\n      dup3\n        /* \"#utility.yul\":13999:14013   */\n      add\n        /* \"#utility.yul\":13992:14050   */\n      mstore\n        /* \"#utility.yul\":14084:14095   */\n      0x7220546f6b656e20420000000000000000000000000000000000000000000000\n        /* \"#utility.yul\":14079:14081   */\n      0x20\n        /* \"#utility.yul\":14071:14077   */\n      dup3\n        /* \"#utility.yul\":14067:14082   */\n      add\n        /* \"#utility.yul\":14060:14096   */\n      mstore\n        /* \"#utility.yul\":13875:14103   */\n      pop\n      jump\t// out\n        /* \"#utility.yul\":14109:14475   */\n    tag_203:\n        /* \"#utility.yul\":14251:14254   */\n      0x00\n        /* \"#utility.yul\":14272:14339   */\n      tag_336\n        /* \"#utility.yul\":14336:14338   */\n      0x29\n        /* \"#utility.yul\":14331:14334   */\n      dup4\n        /* \"#utility.yul\":14272:14339   */\n      tag_182\n      jump\t// in\n    tag_336:\n        /* \"#utility.yul\":14265:14339   */\n      swap2\n      pop\n        /* \"#utility.yul\":14348:14441   */\n      tag_337\n        /* \"#utility.yul\":14437:14440   */\n      dup3\n        /* \"#utility.yul\":14348:14441   */\n      tag_202\n      jump\t// in\n    tag_337:\n        /* \"#utility.yul\":14466:14468   */\n      0x40\n        /* \"#utility.yul\":14461:14464   */\n      dup3\n        /* \"#utility.yul\":14457:14469   */\n      add\n        /* \"#utility.yul\":14450:14469   */\n      swap1\n      pop\n        /* \"#utility.yul\":14109:14475   */\n      swap2\n      swap1\n      pop\n      jump\t// out\n        /* \"#utility.yul\":14481:14900   */\n    tag_133:\n        /* \"#utility.yul\":14647:14651   */\n      0x00\n        /* \"#utility.yul\":14685:14687   */\n      0x20\n        /* \"#utility.yul\":14674:14683   */\n      dup3\n        /* \"#utility.yul\":14670:14688   */\n      add\n        /* \"#utility.yul\":14662:14688   */\n      swap1\n      pop\n        /* \"#utility.yul\":14734:14743   */\n      dup2\n        /* \"#utility.yul\":14728:14732   */\n      dup2\n        /* \"#utility.yul\":14724:14744   */\n      sub\n        /* \"#utility.yul\":14720:14721   */\n      0x00\n        /* \"#utility.yul\":14709:14718   */\n      dup4\n        /* \"#utility.yul\":14705:14722   */\n      add\n        /* \"#utility.yul\":14698:14745   */\n      mstore\n        /* \"#utility.yul\":14762:14893   */\n      tag_339\n        /* \"#utility.yul\":14888:14892   */\n      dup2\n        /* \"#utility.yul\":14762:14893   */\n      tag_203\n      jump\t// in\n    tag_339:\n        /* \"#utility.yul\":14754:14893   */\n      swap1\n      pop\n        /* \"#utility.yul\":14481:14900   */\n      swap2\n      swap1\n      pop\n      jump\t// out\n\n    auxdata: 0xa26469706673582212208c06ab8e060129ae806b505e198d2984b420f22f4805880f45a22dcf97c5b75664736f6c634300081a0033\n}\n",
				"bytecode": {
					"linkReferences": {},
					"object": "608060405234801561000f575f80fd5b506040516119ff3803806119ff83398181016040528101906100319190610115565b815f806101000a81548173ffffffffffffffffffffffffffffffffffffffff021916908373ffffffffffffffffffffffffffffffffffffffff1602179055508060015f6101000a81548173ffffffffffffffffffffffffffffffffffffffff021916908373ffffffffffffffffffffffffffffffffffffffff1602179055505050610153565b5f80fd5b5f73ffffffffffffffffffffffffffffffffffffffff82169050919050565b5f6100e4826100bb565b9050919050565b6100f4816100da565b81146100fe575f80fd5b50565b5f8151905061010f816100eb565b92915050565b5f806040838503121561012b5761012a6100b7565b5b5f61013885828601610101565b925050602061014985828601610101565b9150509250929050565b61189f806101605f395ff3fe608060405234801561000f575f80fd5b50600436106100a7575f3560e01c806386731a8f1161006f57806386731a8f146101515780639cd441da146101815780639d7de6b31461019d578063dc5fa6c5146101b9578063e29556ee146101d7578063e4f1f70a14610207576100a7565b80630fc63d10146100ab57806319e36f3b146100c957806341976e09146100e75780635f64b55b146101175780638014a7aa14610135575b5f80fd5b6100b3610223565b6040516100c09190611140565b60405180910390f35b6100d1610246565b6040516100de9190611171565b60405180910390f35b61010160048036038101906100fc91906111b8565b61024c565b60405161010e9190611171565b60405180910390f35b61011f6103d9565b60405161012c9190611140565b60405180910390f35b61014f600480360381019061014a919061120d565b6103fe565b005b61016b600480360381019061016691906111b8565b61070d565b6040516101789190611171565b60405180910390f35b61019b60048036038101906101969190611238565b610722565b005b6101b760048036038101906101b29190611238565b6109d5565b005b6101c1610dd7565b6040516101ce9190611171565b60405180910390f35b6101f160048036038101906101ec91906111b8565b610ddd565b6040516101fe9190611171565b60405180910390f35b610221600480360381019061021c919061120d565b610df2565b005b5f8054906101000a900473ffffffffffffffffffffffffffffffffffffffff1681565b60035481565b5f805f9054906101000a900473ffffffffffffffffffffffffffffffffffffffff1673ffffffffffffffffffffffffffffffffffffffff168273ffffffffffffffffffffffffffffffffffffffff1614806102f3575060015f9054906101000a900473ffffffffffffffffffffffffffffffffffffffff1673ffffffffffffffffffffffffffffffffffffffff168273ffffffffffffffffffffffffffffffffffffffff16145b610332576040517f08c379a0000000000000000000000000000000000000000000000000000000008152600401610329906112d0565b60405180910390fd5b5f8054906101000a900473ffffffffffffffffffffffffffffffffffffffff1673ffffffffffffffffffffffffffffffffffffffff168273ffffffffffffffffffffffffffffffffffffffff16036103ae57600254670de0b6b3a764000060035461039d919061131b565b6103a79190611389565b90506103d4565b600354670de0b6b3a76400006002546103c7919061131b565b6103d19190611389565b90505b919050565b60015f9054906101000a900473ffffffffffffffffffffffffffffffffffffffff1681565b5f8111610440576040517f08c379a000000000000000000000000000000000000000000000000000000000815260040161043790611403565b60405180910390fd5b5f60025411801561045257505f600354115b610491576040517f08c379a00000000000000000000000000000000000000000000000000000000081526004016104889061146b565b60405180910390fd5b5f816003546104a09190611489565b6003546002546104b0919061131b565b6104ba9190611389565b6002546104c791906114bc565b90505f811161050b576040517f08c379a000000000000000000000000000000000000000000000000000000000815260040161050290611539565b60405180910390fd5b60015f9054906101000a900473ffffffffffffffffffffffffffffffffffffffff1673ffffffffffffffffffffffffffffffffffffffff166323b872dd3330856040518463ffffffff1660e01b815260040161056993929190611557565b6020604051808303815f875af1158015610585573d5f803e3d5ffd5b505050506040513d601f19601f820116820180604052508101906105a991906115c1565b505f8054906101000a900473ffffffffffffffffffffffffffffffffffffffff1673ffffffffffffffffffffffffffffffffffffffff1663a9059cbb33836040518363ffffffff1660e01b81526004016106049291906115ec565b6020604051808303815f875af1158015610620573d5f803e3d5ffd5b505050506040513d601f19601f8201168201806040525081019061064491906115c1565b508160035f8282546106569190611489565b925050819055508060025f82825461066e91906114bc565b925050819055503373ffffffffffffffffffffffffffffffffffffffff167fad56699d0f375866eb895ed27203058a36a713382aaded78eb6b67da266d433260015f9054906101000a900473ffffffffffffffffffffffffffffffffffffffff165f8054906101000a900473ffffffffffffffffffffffffffffffffffffffff1685856040516107019493929190611613565b60405180910390a25050565b6005602052805f5260405f205f915090505481565b5f8211801561073057505f81115b61076f576040517f08c379a0000000000000000000000000000000000000000000000000000000008152600401610766906116a0565b60405180910390fd5b5f8054906101000a900473ffffffffffffffffffffffffffffffffffffffff1673ffffffffffffffffffffffffffffffffffffffff166323b872dd3330856040518463ffffffff1660e01b81526004016107cb93929190611557565b6020604051808303815f875af11580156107e7573d5f803e3d5ffd5b505050506040513d601f19601f8201168201806040525081019061080b91906115c1565b5060015f9054906101000a900473ffffffffffffffffffffffffffffffffffffffff1673ffffffffffffffffffffffffffffffffffffffff166323b872dd3330846040518463ffffffff1660e01b815260040161086a93929190611557565b6020604051808303815f875af1158015610886573d5f803e3d5ffd5b505050506040513d601f19601f820116820180604052508101906108aa91906115c1565b508160025f8282546108bc9190611489565b925050819055508060035f8282546108d49190611489565b925050819055508160045f3373ffffffffffffffffffffffffffffffffffffffff1673ffffffffffffffffffffffffffffffffffffffff1681526020019081526020015f205f8282546109279190611489565b925050819055508060055f3373ffffffffffffffffffffffffffffffffffffffff1673ffffffffffffffffffffffffffffffffffffffff1681526020019081526020015f205f82825461097a9190611489565b925050819055503373ffffffffffffffffffffffffffffffffffffffff167fac1d76749e5447b7b16f5ab61447e1bd502f3bb4807af3b28e620d1700a6ee4583836040516109c99291906116be565b60405180910390a25050565b5f821180156109e357505f81115b610a22576040517f08c379a0000000000000000000000000000000000000000000000000000000008152600401610a199061172f565b60405180910390fd5b8160025410158015610a3657508060035410155b610a75576040517f08c379a0000000000000000000000000000000000000000000000000000000008152600401610a6c9061146b565b60405180910390fd5b8160045f3373ffffffffffffffffffffffffffffffffffffffff1673ffffffffffffffffffffffffffffffffffffffff1681526020019081526020015f20541015610af5576040517f08c379a0000000000000000000000000000000000000000000000000000000008152600401610aec906117bd565b60405180910390fd5b8060055f3373ffffffffffffffffffffffffffffffffffffffff1673ffffffffffffffffffffffffffffffffffffffff1681526020019081526020015f20541015610b75576040517f08c379a0000000000000000000000000000000000000000000000000000000008152600401610b6c9061184b565b60405180910390fd5b5f8054906101000a900473ffffffffffffffffffffffffffffffffffffffff1673ffffffffffffffffffffffffffffffffffffffff1663a9059cbb33846040518363ffffffff1660e01b8152600401610bcf9291906115ec565b6020604051808303815f875af1158015610beb573d5f803e3d5ffd5b505050506040513d601f19601f82011682018060405250810190610c0f91906115c1565b5060015f9054906101000a900473ffffffffffffffffffffffffffffffffffffffff1673ffffffffffffffffffffffffffffffffffffffff1663a9059cbb33836040518363ffffffff1660e01b8152600401610c6c9291906115ec565b6020604051808303815f875af1158015610c88573d5f803e3d5ffd5b505050506040513d601f19601f82011682018060405250810190610cac91906115c1565b508160025f828254610cbe91906114bc565b925050819055508060035f828254610cd691906114bc565b925050819055508160045f3373ffffffffffffffffffffffffffffffffffffffff1673ffffffffffffffffffffffffffffffffffffffff1681526020019081526020015f205f828254610d2991906114bc565b925050819055508060055f3373ffffffffffffffffffffffffffffffffffffffff1673ffffffffffffffffffffffffffffffffffffffff1681526020019081526020015f205f828254610d7c91906114bc565b925050819055503373ffffffffffffffffffffffffffffffffffffffff167f96cd817c6329656790ef8fba7675405193677d39619571282f5e21f3a98cd0598383604051610dcb9291906116be565b60405180910390a25050565b60025481565b6004602052805f5260405f205f915090505481565b5f8111610e34576040517f08c379a0000000000000000000000000000000000000000000000000000000008152600401610e2b90611403565b60405180910390fd5b5f600254118015610e4657505f600354115b610e85576040517f08c379a0000000000000000000000000000000000000000000000000000000008152600401610e7c9061146b565b60405180910390fd5b5f81600254610e949190611489565b600354600254610ea4919061131b565b610eae9190611389565b600354610ebb91906114bc565b90505f8111610eff576040517f08c379a0000000000000000000000000000000000000000000000000000000008152600401610ef690611539565b60405180910390fd5b5f8054906101000a900473ffffffffffffffffffffffffffffffffffffffff1673ffffffffffffffffffffffffffffffffffffffff166323b872dd3330856040518463ffffffff1660e01b8152600401610f5b93929190611557565b6020604051808303815f875af1158015610f77573d5f803e3d5ffd5b505050506040513d601f19601f82011682018060405250810190610f9b91906115c1565b5060015f9054906101000a900473ffffffffffffffffffffffffffffffffffffffff1673ffffffffffffffffffffffffffffffffffffffff1663a9059cbb33836040518363ffffffff1660e01b8152600401610ff89291906115ec565b6020604051808303815f875af1158015611014573d5f803e3d5ffd5b505050506040513d601f19601f8201168201806040525081019061103891906115c1565b508160025f82825461104a9190611489565b925050819055508060035f82825461106291906114bc565b925050819055503373ffffffffffffffffffffffffffffffffffffffff167fad56699d0f375866eb895ed27203058a36a713382aaded78eb6b67da266d43325f8054906101000a900473ffffffffffffffffffffffffffffffffffffffff1660015f9054906101000a900473ffffffffffffffffffffffffffffffffffffffff1685856040516110f59493929190611613565b60405180910390a25050565b5f73ffffffffffffffffffffffffffffffffffffffff82169050919050565b5f61112a82611101565b9050919050565b61113a81611120565b82525050565b5f6020820190506111535f830184611131565b92915050565b5f819050919050565b61116b81611159565b82525050565b5f6020820190506111845f830184611162565b92915050565b5f80fd5b61119781611120565b81146111a1575f80fd5b50565b5f813590506111b28161118e565b92915050565b5f602082840312156111cd576111cc61118a565b5b5f6111da848285016111a4565b91505092915050565b6111ec81611159565b81146111f6575f80fd5b50565b5f81359050611207816111e3565b92915050565b5f602082840312156112225761122161118a565b5b5f61122f848285016111f9565b91505092915050565b5f806040838503121561124e5761124d61118a565b5b5f61125b858286016111f9565b925050602061126c858286016111f9565b9150509250929050565b5f82825260208201905092915050565b7f496e76616c696420746f6b656e206164647265737300000000000000000000005f82015250565b5f6112ba601583611276565b91506112c582611286565b602082019050919050565b5f6020820190508181035f8301526112e7816112ae565b9050919050565b7f4e487b71000000000000000000000000000000000000000000000000000000005f52601160045260245ffd5b5f61132582611159565b915061133083611159565b925082820261133e81611159565b91508282048414831517611355576113546112ee565b5b5092915050565b7f4e487b71000000000000000000000000000000000000000000000000000000005f52601260045260245ffd5b5f61139382611159565b915061139e83611159565b9250826113ae576113ad61135c565b5b828204905092915050565b7f496e76616c696420696e70757420616d6f756e740000000000000000000000005f82015250565b5f6113ed601483611276565b91506113f8826113b9565b602082019050919050565b5f6020820190508181035f83015261141a816113e1565b9050919050565b7f496e73756666696369656e74206c6971756964697479000000000000000000005f82015250565b5f611455601683611276565b915061146082611421565b602082019050919050565b5f6020820190508181035f83015261148281611449565b9050919050565b5f61149382611159565b915061149e83611159565b92508282019050808211156114b6576114b56112ee565b5b92915050565b5f6114c682611159565b91506114d183611159565b92508282039050818111156114e9576114e86112ee565b5b92915050565b7f496e73756666696369656e74206f757470757420616d6f756e740000000000005f82015250565b5f611523601a83611276565b915061152e826114ef565b602082019050919050565b5f6020820190508181035f83015261155081611517565b9050919050565b5f60608201905061156a5f830186611131565b6115776020830185611131565b6115846040830184611162565b949350505050565b5f8115159050919050565b6115a08161158c565b81146115aa575f80fd5b50565b5f815190506115bb81611597565b92915050565b5f602082840312156115d6576115d561118a565b5b5f6115e3848285016115ad565b91505092915050565b5f6040820190506115ff5f830185611131565b61160c6020830184611162565b9392505050565b5f6080820190506116265f830187611131565b6116336020830186611131565b6116406040830185611162565b61164d6060830184611162565b95945050505050565b7f43616e6e6f7420616464207a65726f206c6971756964697479000000000000005f82015250565b5f61168a601983611276565b915061169582611656565b602082019050919050565b5f6020820190508181035f8301526116b78161167e565b9050919050565b5f6040820190506116d15f830185611162565b6116de6020830184611162565b9392505050565b7f496e76616c696420616d6f756e747300000000000000000000000000000000005f82015250565b5f611719600f83611276565b9150611724826116e5565b602082019050919050565b5f6020820190508181035f8301526117468161170d565b9050919050565b7f4578636565647320636f6e7472696275746564206c697175696469747920666f5f8201527f7220546f6b656e20410000000000000000000000000000000000000000000000602082015250565b5f6117a7602983611276565b91506117b28261174d565b604082019050919050565b5f6020820190508181035f8301526117d48161179b565b9050919050565b7f4578636565647320636f6e7472696275746564206c697175696469747920666f5f8201527f7220546f6b656e20420000000000000000000000000000000000000000000000602082015250565b5f611835602983611276565b9150611840826117db565b604082019050919050565b5f6020820190508181035f83015261186281611829565b905091905056fea26469706673582212208c06ab8e060129ae806b505e198d2984b420f22f4805880f45a22dcf97c5b75664736f6c634300081a0033",
					"opcodes": "PUSH1 0x80 PUSH1 0x40 MSTORE CALLVALUE DUP1 ISZERO PUSH2 0xF JUMPI PUSH0 DUP1 REVERT JUMPDEST POP PUSH1 0x40 MLOAD PUSH2 0x19FF CODESIZE SUB DUP1 PUSH2 0x19FF DUP4 CODECOPY DUP2 DUP2 ADD PUSH1 0x40 MSTORE DUP2 ADD SWAP1 PUSH2 0x31 SWAP2 SWAP1 PUSH2 0x115 JUMP JUMPDEST DUP2 PUSH0 DUP1 PUSH2 0x100 EXP DUP2 SLOAD DUP2 PUSH20 0xFFFFFFFFFFFFFFFFFFFFFFFFFFFFFFFFFFFFFFFF MUL NOT AND SWAP1 DUP4 PUSH20 0xFFFFFFFFFFFFFFFFFFFFFFFFFFFFFFFFFFFFFFFF AND MUL OR SWAP1 SSTORE POP DUP1 PUSH1 0x1 PUSH0 PUSH2 0x100 EXP DUP2 SLOAD DUP2 PUSH20 0xFFFFFFFFFFFFFFFFFFFFFFFFFFFFFFFFFFFFFFFF MUL NOT AND SWAP1 DUP4 PUSH20 0xFFFFFFFFFFFFFFFFFFFFFFFFFFFFFFFFFFFFFFFF AND MUL OR SWAP1 SSTORE POP POP POP PUSH2 0x153 JUMP JUMPDEST PUSH0 DUP1 REVERT JUMPDEST PUSH0 PUSH20 0xFFFFFFFFFFFFFFFFFFFFFFFFFFFFFFFFFFFFFFFF DUP3 AND SWAP1 POP SWAP2 SWAP1 POP JUMP JUMPDEST PUSH0 PUSH2 0xE4 DUP3 PUSH2 0xBB JUMP JUMPDEST SWAP1 POP SWAP2 SWAP1 POP JUMP JUMPDEST PUSH2 0xF4 DUP2 PUSH2 0xDA JUMP JUMPDEST DUP2 EQ PUSH2 0xFE JUMPI PUSH0 DUP1 REVERT JUMPDEST POP JUMP JUMPDEST PUSH0 DUP2 MLOAD SWAP1 POP PUSH2 0x10F DUP2 PUSH2 0xEB JUMP JUMPDEST SWAP3 SWAP2 POP POP JUMP JUMPDEST PUSH0 DUP1 PUSH1 0x40 DUP4 DUP6 SUB SLT ISZERO PUSH2 0x12B JUMPI PUSH2 0x12A PUSH2 0xB7 JUMP JUMPDEST JUMPDEST PUSH0 PUSH2 0x138 DUP6 DUP3 DUP7 ADD PUSH2 0x101 JUMP JUMPDEST SWAP3 POP POP PUSH1 0x20 PUSH2 0x149 DUP6 DUP3 DUP7 ADD PUSH2 0x101 JUMP JUMPDEST SWAP2 POP POP SWAP3 POP SWAP3 SWAP1 POP JUMP JUMPDEST PUSH2 0x189F DUP1 PUSH2 0x160 PUSH0 CODECOPY PUSH0 RETURN INVALID PUSH1 0x80 PUSH1 0x40 MSTORE CALLVALUE DUP1 ISZERO PUSH2 0xF JUMPI PUSH0 DUP1 REVERT JUMPDEST POP PUSH1 0x4 CALLDATASIZE LT PUSH2 0xA7 JUMPI PUSH0 CALLDATALOAD PUSH1 0xE0 SHR DUP1 PUSH4 0x86731A8F GT PUSH2 0x6F JUMPI DUP1 PUSH4 0x86731A8F EQ PUSH2 0x151 JUMPI DUP1 PUSH4 0x9CD441DA EQ PUSH2 0x181 JUMPI DUP1 PUSH4 0x9D7DE6B3 EQ PUSH2 0x19D JUMPI DUP1 PUSH4 0xDC5FA6C5 EQ PUSH2 0x1B9 JUMPI DUP1 PUSH4 0xE29556EE EQ PUSH2 0x1D7 JUMPI DUP1 PUSH4 0xE4F1F70A EQ PUSH2 0x207 JUMPI PUSH2 0xA7 JUMP JUMPDEST DUP1 PUSH4 0xFC63D10 EQ PUSH2 0xAB JUMPI DUP1 PUSH4 0x19E36F3B EQ PUSH2 0xC9 JUMPI DUP1 PUSH4 0x41976E09 EQ PUSH2 0xE7 JUMPI DUP1 PUSH4 0x5F64B55B EQ PUSH2 0x117 JUMPI DUP1 PUSH4 0x8014A7AA EQ PUSH2 0x135 JUMPI JUMPDEST PUSH0 DUP1 REVERT JUMPDEST PUSH2 0xB3 PUSH2 0x223 JUMP JUMPDEST PUSH1 0x40 MLOAD PUSH2 0xC0 SWAP2 SWAP1 PUSH2 0x1140 JUMP JUMPDEST PUSH1 0x40 MLOAD DUP1 SWAP2 SUB SWAP1 RETURN JUMPDEST PUSH2 0xD1 PUSH2 0x246 JUMP JUMPDEST PUSH1 0x40 MLOAD PUSH2 0xDE SWAP2 SWAP1 PUSH2 0x1171 JUMP JUMPDEST PUSH1 0x40 MLOAD DUP1 SWAP2 SUB SWAP1 RETURN JUMPDEST PUSH2 0x101 PUSH1 0x4 DUP1 CALLDATASIZE SUB DUP2 ADD SWAP1 PUSH2 0xFC SWAP2 SWAP1 PUSH2 0x11B8 JUMP JUMPDEST PUSH2 0x24C JUMP JUMPDEST PUSH1 0x40 MLOAD PUSH2 0x10E SWAP2 SWAP1 PUSH2 0x1171 JUMP JUMPDEST PUSH1 0x40 MLOAD DUP1 SWAP2 SUB SWAP1 RETURN JUMPDEST PUSH2 0x11F PUSH2 0x3D9 JUMP JUMPDEST PUSH1 0x40 MLOAD PUSH2 0x12C SWAP2 SWAP1 PUSH2 0x1140 JUMP JUMPDEST PUSH1 0x40 MLOAD DUP1 SWAP2 SUB SWAP1 RETURN JUMPDEST PUSH2 0x14F PUSH1 0x4 DUP1 CALLDATASIZE SUB DUP2 ADD SWAP1 PUSH2 0x14A SWAP2 SWAP1 PUSH2 0x120D JUMP JUMPDEST PUSH2 0x3FE JUMP JUMPDEST STOP JUMPDEST PUSH2 0x16B PUSH1 0x4 DUP1 CALLDATASIZE SUB DUP2 ADD SWAP1 PUSH2 0x166 SWAP2 SWAP1 PUSH2 0x11B8 JUMP JUMPDEST PUSH2 0x70D JUMP JUMPDEST PUSH1 0x40 MLOAD PUSH2 0x178 SWAP2 SWAP1 PUSH2 0x1171 JUMP JUMPDEST PUSH1 0x40 MLOAD DUP1 SWAP2 SUB SWAP1 RETURN JUMPDEST PUSH2 0x19B PUSH1 0x4 DUP1 CALLDATASIZE SUB DUP2 ADD SWAP1 PUSH2 0x196 SWAP2 SWAP1 PUSH2 0x1238 JUMP JUMPDEST PUSH2 0x722 JUMP JUMPDEST STOP JUMPDEST PUSH2 0x1B7 PUSH1 0x4 DUP1 CALLDATASIZE SUB DUP2 ADD SWAP1 PUSH2 0x1B2 SWAP2 SWAP1 PUSH2 0x1238 JUMP JUMPDEST PUSH2 0x9D5 JUMP JUMPDEST STOP JUMPDEST PUSH2 0x1C1 PUSH2 0xDD7 JUMP JUMPDEST PUSH1 0x40 MLOAD PUSH2 0x1CE SWAP2 SWAP1 PUSH2 0x1171 JUMP JUMPDEST PUSH1 0x40 MLOAD DUP1 SWAP2 SUB SWAP1 RETURN JUMPDEST PUSH2 0x1F1 PUSH1 0x4 DUP1 CALLDATASIZE SUB DUP2 ADD SWAP1 PUSH2 0x1EC SWAP2 SWAP1 PUSH2 0x11B8 JUMP JUMPDEST PUSH2 0xDDD JUMP JUMPDEST PUSH1 0x40 MLOAD PUSH2 0x1FE SWAP2 SWAP1 PUSH2 0x1171 JUMP JUMPDEST PUSH1 0x40 MLOAD DUP1 SWAP2 SUB SWAP1 RETURN JUMPDEST PUSH2 0x221 PUSH1 0x4 DUP1 CALLDATASIZE SUB DUP2 ADD SWAP1 PUSH2 0x21C SWAP2 SWAP1 PUSH2 0x120D JUMP JUMPDEST PUSH2 0xDF2 JUMP JUMPDEST STOP JUMPDEST PUSH0 DUP1 SLOAD SWAP1 PUSH2 0x100 EXP SWAP1 DIV PUSH20 0xFFFFFFFFFFFFFFFFFFFFFFFFFFFFFFFFFFFFFFFF AND DUP2 JUMP JUMPDEST PUSH1 0x3 SLOAD DUP2 JUMP JUMPDEST PUSH0 DUP1 PUSH0 SWAP1 SLOAD SWAP1 PUSH2 0x100 EXP SWAP1 DIV PUSH20 0xFFFFFFFFFFFFFFFFFFFFFFFFFFFFFFFFFFFFFFFF AND PUSH20 0xFFFFFFFFFFFFFFFFFFFFFFFFFFFFFFFFFFFFFFFF AND DUP3 PUSH20 0xFFFFFFFFFFFFFFFFFFFFFFFFFFFFFFFFFFFFFFFF AND EQ DUP1 PUSH2 0x2F3 JUMPI POP PUSH1 0x1 PUSH0 SWAP1 SLOAD SWAP1 PUSH2 0x100 EXP SWAP1 DIV PUSH20 0xFFFFFFFFFFFFFFFFFFFFFFFFFFFFFFFFFFFFFFFF AND PUSH20 0xFFFFFFFFFFFFFFFFFFFFFFFFFFFFFFFFFFFFFFFF AND DUP3 PUSH20 0xFFFFFFFFFFFFFFFFFFFFFFFFFFFFFFFFFFFFFFFF AND EQ JUMPDEST PUSH2 0x332 JUMPI PUSH1 0x40 MLOAD PUSH32 0x8C379A000000000000000000000000000000000000000000000000000000000 DUP2 MSTORE PUSH1 0x4 ADD PUSH2 0x329 SWAP1 PUSH2 0x12D0 JUMP JUMPDEST PUSH1 0x40 MLOAD DUP1 SWAP2 SUB SWAP1 REVERT JUMPDEST PUSH0 DUP1 SLOAD SWAP1 PUSH2 0x100 EXP SWAP1 DIV PUSH20 0xFFFFFFFFFFFFFFFFFFFFFFFFFFFFFFFFFFFFFFFF AND PUSH20 0xFFFFFFFFFFFFFFFFFFFFFFFFFFFFFFFFFFFFFFFF AND DUP3 PUSH20 0xFFFFFFFFFFFFFFFFFFFFFFFFFFFFFFFFFFFFFFFF AND SUB PUSH2 0x3AE JUMPI PUSH1 0x2 SLOAD PUSH8 0xDE0B6B3A7640000 PUSH1 0x3 SLOAD PUSH2 0x39D SWAP2 SWAP1 PUSH2 0x131B JUMP JUMPDEST PUSH2 0x3A7 SWAP2 SWAP1 PUSH2 0x1389 JUMP JUMPDEST SWAP1 POP PUSH2 0x3D4 JUMP JUMPDEST PUSH1 0x3 SLOAD PUSH8 0xDE0B6B3A7640000 PUSH1 0x2 SLOAD PUSH2 0x3C7 SWAP2 SWAP1 PUSH2 0x131B JUMP JUMPDEST PUSH2 0x3D1 SWAP2 SWAP1 PUSH2 0x1389 JUMP JUMPDEST SWAP1 POP JUMPDEST SWAP2 SWAP1 POP JUMP JUMPDEST PUSH1 0x1 PUSH0 SWAP1 SLOAD SWAP1 PUSH2 0x100 EXP SWAP1 DIV PUSH20 0xFFFFFFFFFFFFFFFFFFFFFFFFFFFFFFFFFFFFFFFF AND DUP2 JUMP JUMPDEST PUSH0 DUP2 GT PUSH2 0x440 JUMPI PUSH1 0x40 MLOAD PUSH32 0x8C379A000000000000000000000000000000000000000000000000000000000 DUP2 MSTORE PUSH1 0x4 ADD PUSH2 0x437 SWAP1 PUSH2 0x1403 JUMP JUMPDEST PUSH1 0x40 MLOAD DUP1 SWAP2 SUB SWAP1 REVERT JUMPDEST PUSH0 PUSH1 0x2 SLOAD GT DUP1 ISZERO PUSH2 0x452 JUMPI POP PUSH0 PUSH1 0x3 SLOAD GT JUMPDEST PUSH2 0x491 JUMPI PUSH1 0x40 MLOAD PUSH32 0x8C379A000000000000000000000000000000000000000000000000000000000 DUP2 MSTORE PUSH1 0x4 ADD PUSH2 0x488 SWAP1 PUSH2 0x146B JUMP JUMPDEST PUSH1 0x40 MLOAD DUP1 SWAP2 SUB SWAP1 REVERT JUMPDEST PUSH0 DUP2 PUSH1 0x3 SLOAD PUSH2 0x4A0 SWAP2 SWAP1 PUSH2 0x1489 JUMP JUMPDEST PUSH1 0x3 SLOAD PUSH1 0x2 SLOAD PUSH2 0x4B0 SWAP2 SWAP1 PUSH2 0x131B JUMP JUMPDEST PUSH2 0x4BA SWAP2 SWAP1 PUSH2 0x1389 JUMP JUMPDEST PUSH1 0x2 SLOAD PUSH2 0x4C7 SWAP2 SWAP1 PUSH2 0x14BC JUMP JUMPDEST SWAP1 POP PUSH0 DUP2 GT PUSH2 0x50B JUMPI PUSH1 0x40 MLOAD PUSH32 0x8C379A000000000000000000000000000000000000000000000000000000000 DUP2 MSTORE PUSH1 0x4 ADD PUSH2 0x502 SWAP1 PUSH2 0x1539 JUMP JUMPDEST PUSH1 0x40 MLOAD DUP1 SWAP2 SUB SWAP1 REVERT JUMPDEST PUSH1 0x1 PUSH0 SWAP1 SLOAD SWAP1 PUSH2 0x100 EXP SWAP1 DIV PUSH20 0xFFFFFFFFFFFFFFFFFFFFFFFFFFFFFFFFFFFFFFFF AND PUSH20 0xFFFFFFFFFFFFFFFFFFFFFFFFFFFFFFFFFFFFFFFF AND PUSH4 0x23B872DD CALLER ADDRESS DUP6 PUSH1 0x40 MLOAD DUP5 PUSH4 0xFFFFFFFF AND PUSH1 0xE0 SHL DUP2 MSTORE PUSH1 0x4 ADD PUSH2 0x569 SWAP4 SWAP3 SWAP2 SWAP1 PUSH2 0x1557 JUMP JUMPDEST PUSH1 0x20 PUSH1 0x40 MLOAD DUP1 DUP4 SUB DUP2 PUSH0 DUP8 GAS CALL ISZERO DUP1 ISZERO PUSH2 0x585 JUMPI RETURNDATASIZE PUSH0 DUP1 RETURNDATACOPY RETURNDATASIZE PUSH0 REVERT JUMPDEST POP POP POP POP PUSH1 0x40 MLOAD RETURNDATASIZE PUSH1 0x1F NOT PUSH1 0x1F DUP3 ADD AND DUP3 ADD DUP1 PUSH1 0x40 MSTORE POP DUP2 ADD SWAP1 PUSH2 0x5A9 SWAP2 SWAP1 PUSH2 0x15C1 JUMP JUMPDEST POP PUSH0 DUP1 SLOAD SWAP1 PUSH2 0x100 EXP SWAP1 DIV PUSH20 0xFFFFFFFFFFFFFFFFFFFFFFFFFFFFFFFFFFFFFFFF AND PUSH20 0xFFFFFFFFFFFFFFFFFFFFFFFFFFFFFFFFFFFFFFFF AND PUSH4 0xA9059CBB CALLER DUP4 PUSH1 0x40 MLOAD DUP4 PUSH4 0xFFFFFFFF AND PUSH1 0xE0 SHL DUP2 MSTORE PUSH1 0x4 ADD PUSH2 0x604 SWAP3 SWAP2 SWAP1 PUSH2 0x15EC JUMP JUMPDEST PUSH1 0x20 PUSH1 0x40 MLOAD DUP1 DUP4 SUB DUP2 PUSH0 DUP8 GAS CALL ISZERO DUP1 ISZERO PUSH2 0x620 JUMPI RETURNDATASIZE PUSH0 DUP1 RETURNDATACOPY RETURNDATASIZE PUSH0 REVERT JUMPDEST POP POP POP POP PUSH1 0x40 MLOAD RETURNDATASIZE PUSH1 0x1F NOT PUSH1 0x1F DUP3 ADD AND DUP3 ADD DUP1 PUSH1 0x40 MSTORE POP DUP2 ADD SWAP1 PUSH2 0x644 SWAP2 SWAP1 PUSH2 0x15C1 JUMP JUMPDEST POP DUP2 PUSH1 0x3 PUSH0 DUP3 DUP3 SLOAD PUSH2 0x656 SWAP2 SWAP1 PUSH2 0x1489 JUMP JUMPDEST SWAP3 POP POP DUP2 SWAP1 SSTORE POP DUP1 PUSH1 0x2 PUSH0 DUP3 DUP3 SLOAD PUSH2 0x66E SWAP2 SWAP1 PUSH2 0x14BC JUMP JUMPDEST SWAP3 POP POP DUP2 SWAP1 SSTORE POP CALLER PUSH20 0xFFFFFFFFFFFFFFFFFFFFFFFFFFFFFFFFFFFFFFFF AND PUSH32 0xAD56699D0F375866EB895ED27203058A36A713382AADED78EB6B67DA266D4332 PUSH1 0x1 PUSH0 SWAP1 SLOAD SWAP1 PUSH2 0x100 EXP SWAP1 DIV PUSH20 0xFFFFFFFFFFFFFFFFFFFFFFFFFFFFFFFFFFFFFFFF AND PUSH0 DUP1 SLOAD SWAP1 PUSH2 0x100 EXP SWAP1 DIV PUSH20 0xFFFFFFFFFFFFFFFFFFFFFFFFFFFFFFFFFFFFFFFF AND DUP6 DUP6 PUSH1 0x40 MLOAD PUSH2 0x701 SWAP5 SWAP4 SWAP3 SWAP2 SWAP1 PUSH2 0x1613 JUMP JUMPDEST PUSH1 0x40 MLOAD DUP1 SWAP2 SUB SWAP1 LOG2 POP POP JUMP JUMPDEST PUSH1 0x5 PUSH1 0x20 MSTORE DUP1 PUSH0 MSTORE PUSH1 0x40 PUSH0 KECCAK256 PUSH0 SWAP2 POP SWAP1 POP SLOAD DUP2 JUMP JUMPDEST PUSH0 DUP3 GT DUP1 ISZERO PUSH2 0x730 JUMPI POP PUSH0 DUP2 GT JUMPDEST PUSH2 0x76F JUMPI PUSH1 0x40 MLOAD PUSH32 0x8C379A000000000000000000000000000000000000000000000000000000000 DUP2 MSTORE PUSH1 0x4 ADD PUSH2 0x766 SWAP1 PUSH2 0x16A0 JUMP JUMPDEST PUSH1 0x40 MLOAD DUP1 SWAP2 SUB SWAP1 REVERT JUMPDEST PUSH0 DUP1 SLOAD SWAP1 PUSH2 0x100 EXP SWAP1 DIV PUSH20 0xFFFFFFFFFFFFFFFFFFFFFFFFFFFFFFFFFFFFFFFF AND PUSH20 0xFFFFFFFFFFFFFFFFFFFFFFFFFFFFFFFFFFFFFFFF AND PUSH4 0x23B872DD CALLER ADDRESS DUP6 PUSH1 0x40 MLOAD DUP5 PUSH4 0xFFFFFFFF AND PUSH1 0xE0 SHL DUP2 MSTORE PUSH1 0x4 ADD PUSH2 0x7CB SWAP4 SWAP3 SWAP2 SWAP1 PUSH2 0x1557 JUMP JUMPDEST PUSH1 0x20 PUSH1 0x40 MLOAD DUP1 DUP4 SUB DUP2 PUSH0 DUP8 GAS CALL ISZERO DUP1 ISZERO PUSH2 0x7E7 JUMPI RETURNDATASIZE PUSH0 DUP1 RETURNDATACOPY RETURNDATASIZE PUSH0 REVERT JUMPDEST POP POP POP POP PUSH1 0x40 MLOAD RETURNDATASIZE PUSH1 0x1F NOT PUSH1 0x1F DUP3 ADD AND DUP3 ADD DUP1 PUSH1 0x40 MSTORE POP DUP2 ADD SWAP1 PUSH2 0x80B SWAP2 SWAP1 PUSH2 0x15C1 JUMP JUMPDEST POP PUSH1 0x1 PUSH0 SWAP1 SLOAD SWAP1 PUSH2 0x100 EXP SWAP1 DIV PUSH20 0xFFFFFFFFFFFFFFFFFFFFFFFFFFFFFFFFFFFFFFFF AND PUSH20 0xFFFFFFFFFFFFFFFFFFFFFFFFFFFFFFFFFFFFFFFF AND PUSH4 0x23B872DD CALLER ADDRESS DUP5 PUSH1 0x40 MLOAD DUP5 PUSH4 0xFFFFFFFF AND PUSH1 0xE0 SHL DUP2 MSTORE PUSH1 0x4 ADD PUSH2 0x86A SWAP4 SWAP3 SWAP2 SWAP1 PUSH2 0x1557 JUMP JUMPDEST PUSH1 0x20 PUSH1 0x40 MLOAD DUP1 DUP4 SUB DUP2 PUSH0 DUP8 GAS CALL ISZERO DUP1 ISZERO PUSH2 0x886 JUMPI RETURNDATASIZE PUSH0 DUP1 RETURNDATACOPY RETURNDATASIZE PUSH0 REVERT JUMPDEST POP POP POP POP PUSH1 0x40 MLOAD RETURNDATASIZE PUSH1 0x1F NOT PUSH1 0x1F DUP3 ADD AND DUP3 ADD DUP1 PUSH1 0x40 MSTORE POP DUP2 ADD SWAP1 PUSH2 0x8AA SWAP2 SWAP1 PUSH2 0x15C1 JUMP JUMPDEST POP DUP2 PUSH1 0x2 PUSH0 DUP3 DUP3 SLOAD PUSH2 0x8BC SWAP2 SWAP1 PUSH2 0x1489 JUMP JUMPDEST SWAP3 POP POP DUP2 SWAP1 SSTORE POP DUP1 PUSH1 0x3 PUSH0 DUP3 DUP3 SLOAD PUSH2 0x8D4 SWAP2 SWAP1 PUSH2 0x1489 JUMP JUMPDEST SWAP3 POP POP DUP2 SWAP1 SSTORE POP DUP2 PUSH1 0x4 PUSH0 CALLER PUSH20 0xFFFFFFFFFFFFFFFFFFFFFFFFFFFFFFFFFFFFFFFF AND PUSH20 0xFFFFFFFFFFFFFFFFFFFFFFFFFFFFFFFFFFFFFFFF AND DUP2 MSTORE PUSH1 0x20 ADD SWAP1 DUP2 MSTORE PUSH1 0x20 ADD PUSH0 KECCAK256 PUSH0 DUP3 DUP3 SLOAD PUSH2 0x927 SWAP2 SWAP1 PUSH2 0x1489 JUMP JUMPDEST SWAP3 POP POP DUP2 SWAP1 SSTORE POP DUP1 PUSH1 0x5 PUSH0 CALLER PUSH20 0xFFFFFFFFFFFFFFFFFFFFFFFFFFFFFFFFFFFFFFFF AND PUSH20 0xFFFFFFFFFFFFFFFFFFFFFFFFFFFFFFFFFFFFFFFF AND DUP2 MSTORE PUSH1 0x20 ADD SWAP1 DUP2 MSTORE PUSH1 0x20 ADD PUSH0 KECCAK256 PUSH0 DUP3 DUP3 SLOAD PUSH2 0x97A SWAP2 SWAP1 PUSH2 0x1489 JUMP JUMPDEST SWAP3 POP POP DUP2 SWAP1 SSTORE POP CALLER PUSH20 0xFFFFFFFFFFFFFFFFFFFFFFFFFFFFFFFFFFFFFFFF AND PUSH32 0xAC1D76749E5447B7B16F5AB61447E1BD502F3BB4807AF3B28E620D1700A6EE45 DUP4 DUP4 PUSH1 0x40 MLOAD PUSH2 0x9C9 SWAP3 SWAP2 SWAP1 PUSH2 0x16BE JUMP JUMPDEST PUSH1 0x40 MLOAD DUP1 SWAP2 SUB SWAP1 LOG2 POP POP JUMP JUMPDEST PUSH0 DUP3 GT DUP1 ISZERO PUSH2 0x9E3 JUMPI POP PUSH0 DUP2 GT JUMPDEST PUSH2 0xA22 JUMPI PUSH1 0x40 MLOAD PUSH32 0x8C379A000000000000000000000000000000000000000000000000000000000 DUP2 MSTORE PUSH1 0x4 ADD PUSH2 0xA19 SWAP1 PUSH2 0x172F JUMP JUMPDEST PUSH1 0x40 MLOAD DUP1 SWAP2 SUB SWAP1 REVERT JUMPDEST DUP2 PUSH1 0x2 SLOAD LT ISZERO DUP1 ISZERO PUSH2 0xA36 JUMPI POP DUP1 PUSH1 0x3 SLOAD LT ISZERO JUMPDEST PUSH2 0xA75 JUMPI PUSH1 0x40 MLOAD PUSH32 0x8C379A000000000000000000000000000000000000000000000000000000000 DUP2 MSTORE PUSH1 0x4 ADD PUSH2 0xA6C SWAP1 PUSH2 0x146B JUMP JUMPDEST PUSH1 0x40 MLOAD DUP1 SWAP2 SUB SWAP1 REVERT JUMPDEST DUP2 PUSH1 0x4 PUSH0 CALLER PUSH20 0xFFFFFFFFFFFFFFFFFFFFFFFFFFFFFFFFFFFFFFFF AND PUSH20 0xFFFFFFFFFFFFFFFFFFFFFFFFFFFFFFFFFFFFFFFF AND DUP2 MSTORE PUSH1 0x20 ADD SWAP1 DUP2 MSTORE PUSH1 0x20 ADD PUSH0 KECCAK256 SLOAD LT ISZERO PUSH2 0xAF5 JUMPI PUSH1 0x40 MLOAD PUSH32 0x8C379A000000000000000000000000000000000000000000000000000000000 DUP2 MSTORE PUSH1 0x4 ADD PUSH2 0xAEC SWAP1 PUSH2 0x17BD JUMP JUMPDEST PUSH1 0x40 MLOAD DUP1 SWAP2 SUB SWAP1 REVERT JUMPDEST DUP1 PUSH1 0x5 PUSH0 CALLER PUSH20 0xFFFFFFFFFFFFFFFFFFFFFFFFFFFFFFFFFFFFFFFF AND PUSH20 0xFFFFFFFFFFFFFFFFFFFFFFFFFFFFFFFFFFFFFFFF AND DUP2 MSTORE PUSH1 0x20 ADD SWAP1 DUP2 MSTORE PUSH1 0x20 ADD PUSH0 KECCAK256 SLOAD LT ISZERO PUSH2 0xB75 JUMPI PUSH1 0x40 MLOAD PUSH32 0x8C379A000000000000000000000000000000000000000000000000000000000 DUP2 MSTORE PUSH1 0x4 ADD PUSH2 0xB6C SWAP1 PUSH2 0x184B JUMP JUMPDEST PUSH1 0x40 MLOAD DUP1 SWAP2 SUB SWAP1 REVERT JUMPDEST PUSH0 DUP1 SLOAD SWAP1 PUSH2 0x100 EXP SWAP1 DIV PUSH20 0xFFFFFFFFFFFFFFFFFFFFFFFFFFFFFFFFFFFFFFFF AND PUSH20 0xFFFFFFFFFFFFFFFFFFFFFFFFFFFFFFFFFFFFFFFF AND PUSH4 0xA9059CBB CALLER DUP5 PUSH1 0x40 MLOAD DUP4 PUSH4 0xFFFFFFFF AND PUSH1 0xE0 SHL DUP2 MSTORE PUSH1 0x4 ADD PUSH2 0xBCF SWAP3 SWAP2 SWAP1 PUSH2 0x15EC JUMP JUMPDEST PUSH1 0x20 PUSH1 0x40 MLOAD DUP1 DUP4 SUB DUP2 PUSH0 DUP8 GAS CALL ISZERO DUP1 ISZERO PUSH2 0xBEB JUMPI RETURNDATASIZE PUSH0 DUP1 RETURNDATACOPY RETURNDATASIZE PUSH0 REVERT JUMPDEST POP POP POP POP PUSH1 0x40 MLOAD RETURNDATASIZE PUSH1 0x1F NOT PUSH1 0x1F DUP3 ADD AND DUP3 ADD DUP1 PUSH1 0x40 MSTORE POP DUP2 ADD SWAP1 PUSH2 0xC0F SWAP2 SWAP1 PUSH2 0x15C1 JUMP JUMPDEST POP PUSH1 0x1 PUSH0 SWAP1 SLOAD SWAP1 PUSH2 0x100 EXP SWAP1 DIV PUSH20 0xFFFFFFFFFFFFFFFFFFFFFFFFFFFFFFFFFFFFFFFF AND PUSH20 0xFFFFFFFFFFFFFFFFFFFFFFFFFFFFFFFFFFFFFFFF AND PUSH4 0xA9059CBB CALLER DUP4 PUSH1 0x40 MLOAD DUP4 PUSH4 0xFFFFFFFF AND PUSH1 0xE0 SHL DUP2 MSTORE PUSH1 0x4 ADD PUSH2 0xC6C SWAP3 SWAP2 SWAP1 PUSH2 0x15EC JUMP JUMPDEST PUSH1 0x20 PUSH1 0x40 MLOAD DUP1 DUP4 SUB DUP2 PUSH0 DUP8 GAS CALL ISZERO DUP1 ISZERO PUSH2 0xC88 JUMPI RETURNDATASIZE PUSH0 DUP1 RETURNDATACOPY RETURNDATASIZE PUSH0 REVERT JUMPDEST POP POP POP POP PUSH1 0x40 MLOAD RETURNDATASIZE PUSH1 0x1F NOT PUSH1 0x1F DUP3 ADD AND DUP3 ADD DUP1 PUSH1 0x40 MSTORE POP DUP2 ADD SWAP1 PUSH2 0xCAC SWAP2 SWAP1 PUSH2 0x15C1 JUMP JUMPDEST POP DUP2 PUSH1 0x2 PUSH0 DUP3 DUP3 SLOAD PUSH2 0xCBE SWAP2 SWAP1 PUSH2 0x14BC JUMP JUMPDEST SWAP3 POP POP DUP2 SWAP1 SSTORE POP DUP1 PUSH1 0x3 PUSH0 DUP3 DUP3 SLOAD PUSH2 0xCD6 SWAP2 SWAP1 PUSH2 0x14BC JUMP JUMPDEST SWAP3 POP POP DUP2 SWAP1 SSTORE POP DUP2 PUSH1 0x4 PUSH0 CALLER PUSH20 0xFFFFFFFFFFFFFFFFFFFFFFFFFFFFFFFFFFFFFFFF AND PUSH20 0xFFFFFFFFFFFFFFFFFFFFFFFFFFFFFFFFFFFFFFFF AND DUP2 MSTORE PUSH1 0x20 ADD SWAP1 DUP2 MSTORE PUSH1 0x20 ADD PUSH0 KECCAK256 PUSH0 DUP3 DUP3 SLOAD PUSH2 0xD29 SWAP2 SWAP1 PUSH2 0x14BC JUMP JUMPDEST SWAP3 POP POP DUP2 SWAP1 SSTORE POP DUP1 PUSH1 0x5 PUSH0 CALLER PUSH20 0xFFFFFFFFFFFFFFFFFFFFFFFFFFFFFFFFFFFFFFFF AND PUSH20 0xFFFFFFFFFFFFFFFFFFFFFFFFFFFFFFFFFFFFFFFF AND DUP2 MSTORE PUSH1 0x20 ADD SWAP1 DUP2 MSTORE PUSH1 0x20 ADD PUSH0 KECCAK256 PUSH0 DUP3 DUP3 SLOAD PUSH2 0xD7C SWAP2 SWAP1 PUSH2 0x14BC JUMP JUMPDEST SWAP3 POP POP DUP2 SWAP1 SSTORE POP CALLER PUSH20 0xFFFFFFFFFFFFFFFFFFFFFFFFFFFFFFFFFFFFFFFF AND PUSH32 0x96CD817C6329656790EF8FBA7675405193677D39619571282F5E21F3A98CD059 DUP4 DUP4 PUSH1 0x40 MLOAD PUSH2 0xDCB SWAP3 SWAP2 SWAP1 PUSH2 0x16BE JUMP JUMPDEST PUSH1 0x40 MLOAD DUP1 SWAP2 SUB SWAP1 LOG2 POP POP JUMP JUMPDEST PUSH1 0x2 SLOAD DUP2 JUMP JUMPDEST PUSH1 0x4 PUSH1 0x20 MSTORE DUP1 PUSH0 MSTORE PUSH1 0x40 PUSH0 KECCAK256 PUSH0 SWAP2 POP SWAP1 POP SLOAD DUP2 JUMP JUMPDEST PUSH0 DUP2 GT PUSH2 0xE34 JUMPI PUSH1 0x40 MLOAD PUSH32 0x8C379A000000000000000000000000000000000000000000000000000000000 DUP2 MSTORE PUSH1 0x4 ADD PUSH2 0xE2B SWAP1 PUSH2 0x1403 JUMP JUMPDEST PUSH1 0x40 MLOAD DUP1 SWAP2 SUB SWAP1 REVERT JUMPDEST PUSH0 PUSH1 0x2 SLOAD GT DUP1 ISZERO PUSH2 0xE46 JUMPI POP PUSH0 PUSH1 0x3 SLOAD GT JUMPDEST PUSH2 0xE85 JUMPI PUSH1 0x40 MLOAD PUSH32 0x8C379A000000000000000000000000000000000000000000000000000000000 DUP2 MSTORE PUSH1 0x4 ADD PUSH2 0xE7C SWAP1 PUSH2 0x146B JUMP JUMPDEST PUSH1 0x40 MLOAD DUP1 SWAP2 SUB SWAP1 REVERT JUMPDEST PUSH0 DUP2 PUSH1 0x2 SLOAD PUSH2 0xE94 SWAP2 SWAP1 PUSH2 0x1489 JUMP JUMPDEST PUSH1 0x3 SLOAD PUSH1 0x2 SLOAD PUSH2 0xEA4 SWAP2 SWAP1 PUSH2 0x131B JUMP JUMPDEST PUSH2 0xEAE SWAP2 SWAP1 PUSH2 0x1389 JUMP JUMPDEST PUSH1 0x3 SLOAD PUSH2 0xEBB SWAP2 SWAP1 PUSH2 0x14BC JUMP JUMPDEST SWAP1 POP PUSH0 DUP2 GT PUSH2 0xEFF JUMPI PUSH1 0x40 MLOAD PUSH32 0x8C379A000000000000000000000000000000000000000000000000000000000 DUP2 MSTORE PUSH1 0x4 ADD PUSH2 0xEF6 SWAP1 PUSH2 0x1539 JUMP JUMPDEST PUSH1 0x40 MLOAD DUP1 SWAP2 SUB SWAP1 REVERT JUMPDEST PUSH0 DUP1 SLOAD SWAP1 PUSH2 0x100 EXP SWAP1 DIV PUSH20 0xFFFFFFFFFFFFFFFFFFFFFFFFFFFFFFFFFFFFFFFF AND PUSH20 0xFFFFFFFFFFFFFFFFFFFFFFFFFFFFFFFFFFFFFFFF AND PUSH4 0x23B872DD CALLER ADDRESS DUP6 PUSH1 0x40 MLOAD DUP5 PUSH4 0xFFFFFFFF AND PUSH1 0xE0 SHL DUP2 MSTORE PUSH1 0x4 ADD PUSH2 0xF5B SWAP4 SWAP3 SWAP2 SWAP1 PUSH2 0x1557 JUMP JUMPDEST PUSH1 0x20 PUSH1 0x40 MLOAD DUP1 DUP4 SUB DUP2 PUSH0 DUP8 GAS CALL ISZERO DUP1 ISZERO PUSH2 0xF77 JUMPI RETURNDATASIZE PUSH0 DUP1 RETURNDATACOPY RETURNDATASIZE PUSH0 REVERT JUMPDEST POP POP POP POP PUSH1 0x40 MLOAD RETURNDATASIZE PUSH1 0x1F NOT PUSH1 0x1F DUP3 ADD AND DUP3 ADD DUP1 PUSH1 0x40 MSTORE POP DUP2 ADD SWAP1 PUSH2 0xF9B SWAP2 SWAP1 PUSH2 0x15C1 JUMP JUMPDEST POP PUSH1 0x1 PUSH0 SWAP1 SLOAD SWAP1 PUSH2 0x100 EXP SWAP1 DIV PUSH20 0xFFFFFFFFFFFFFFFFFFFFFFFFFFFFFFFFFFFFFFFF AND PUSH20 0xFFFFFFFFFFFFFFFFFFFFFFFFFFFFFFFFFFFFFFFF AND PUSH4 0xA9059CBB CALLER DUP4 PUSH1 0x40 MLOAD DUP4 PUSH4 0xFFFFFFFF AND PUSH1 0xE0 SHL DUP2 MSTORE PUSH1 0x4 ADD PUSH2 0xFF8 SWAP3 SWAP2 SWAP1 PUSH2 0x15EC JUMP JUMPDEST PUSH1 0x20 PUSH1 0x40 MLOAD DUP1 DUP4 SUB DUP2 PUSH0 DUP8 GAS CALL ISZERO DUP1 ISZERO PUSH2 0x1014 JUMPI RETURNDATASIZE PUSH0 DUP1 RETURNDATACOPY RETURNDATASIZE PUSH0 REVERT JUMPDEST POP POP POP POP PUSH1 0x40 MLOAD RETURNDATASIZE PUSH1 0x1F NOT PUSH1 0x1F DUP3 ADD AND DUP3 ADD DUP1 PUSH1 0x40 MSTORE POP DUP2 ADD SWAP1 PUSH2 0x1038 SWAP2 SWAP1 PUSH2 0x15C1 JUMP JUMPDEST POP DUP2 PUSH1 0x2 PUSH0 DUP3 DUP3 SLOAD PUSH2 0x104A SWAP2 SWAP1 PUSH2 0x1489 JUMP JUMPDEST SWAP3 POP POP DUP2 SWAP1 SSTORE POP DUP1 PUSH1 0x3 PUSH0 DUP3 DUP3 SLOAD PUSH2 0x1062 SWAP2 SWAP1 PUSH2 0x14BC JUMP JUMPDEST SWAP3 POP POP DUP2 SWAP1 SSTORE POP CALLER PUSH20 0xFFFFFFFFFFFFFFFFFFFFFFFFFFFFFFFFFFFFFFFF AND PUSH32 0xAD56699D0F375866EB895ED27203058A36A713382AADED78EB6B67DA266D4332 PUSH0 DUP1 SLOAD SWAP1 PUSH2 0x100 EXP SWAP1 DIV PUSH20 0xFFFFFFFFFFFFFFFFFFFFFFFFFFFFFFFFFFFFFFFF AND PUSH1 0x1 PUSH0 SWAP1 SLOAD SWAP1 PUSH2 0x100 EXP SWAP1 DIV PUSH20 0xFFFFFFFFFFFFFFFFFFFFFFFFFFFFFFFFFFFFFFFF AND DUP6 DUP6 PUSH1 0x40 MLOAD PUSH2 0x10F5 SWAP5 SWAP4 SWAP3 SWAP2 SWAP1 PUSH2 0x1613 JUMP JUMPDEST PUSH1 0x40 MLOAD DUP1 SWAP2 SUB SWAP1 LOG2 POP POP JUMP JUMPDEST PUSH0 PUSH20 0xFFFFFFFFFFFFFFFFFFFFFFFFFFFFFFFFFFFFFFFF DUP3 AND SWAP1 POP SWAP2 SWAP1 POP JUMP JUMPDEST PUSH0 PUSH2 0x112A DUP3 PUSH2 0x1101 JUMP JUMPDEST SWAP1 POP SWAP2 SWAP1 POP JUMP JUMPDEST PUSH2 0x113A DUP2 PUSH2 0x1120 JUMP JUMPDEST DUP3 MSTORE POP POP JUMP JUMPDEST PUSH0 PUSH1 0x20 DUP3 ADD SWAP1 POP PUSH2 0x1153 PUSH0 DUP4 ADD DUP5 PUSH2 0x1131 JUMP JUMPDEST SWAP3 SWAP2 POP POP JUMP JUMPDEST PUSH0 DUP2 SWAP1 POP SWAP2 SWAP1 POP JUMP JUMPDEST PUSH2 0x116B DUP2 PUSH2 0x1159 JUMP JUMPDEST DUP3 MSTORE POP POP JUMP JUMPDEST PUSH0 PUSH1 0x20 DUP3 ADD SWAP1 POP PUSH2 0x1184 PUSH0 DUP4 ADD DUP5 PUSH2 0x1162 JUMP JUMPDEST SWAP3 SWAP2 POP POP JUMP JUMPDEST PUSH0 DUP1 REVERT JUMPDEST PUSH2 0x1197 DUP2 PUSH2 0x1120 JUMP JUMPDEST DUP2 EQ PUSH2 0x11A1 JUMPI PUSH0 DUP1 REVERT JUMPDEST POP JUMP JUMPDEST PUSH0 DUP2 CALLDATALOAD SWAP1 POP PUSH2 0x11B2 DUP2 PUSH2 0x118E JUMP JUMPDEST SWAP3 SWAP2 POP POP JUMP JUMPDEST PUSH0 PUSH1 0x20 DUP3 DUP5 SUB SLT ISZERO PUSH2 0x11CD JUMPI PUSH2 0x11CC PUSH2 0x118A JUMP JUMPDEST JUMPDEST PUSH0 PUSH2 0x11DA DUP5 DUP3 DUP6 ADD PUSH2 0x11A4 JUMP JUMPDEST SWAP2 POP POP SWAP3 SWAP2 POP POP JUMP JUMPDEST PUSH2 0x11EC DUP2 PUSH2 0x1159 JUMP JUMPDEST DUP2 EQ PUSH2 0x11F6 JUMPI PUSH0 DUP1 REVERT JUMPDEST POP JUMP JUMPDEST PUSH0 DUP2 CALLDATALOAD SWAP1 POP PUSH2 0x1207 DUP2 PUSH2 0x11E3 JUMP JUMPDEST SWAP3 SWAP2 POP POP JUMP JUMPDEST PUSH0 PUSH1 0x20 DUP3 DUP5 SUB SLT ISZERO PUSH2 0x1222 JUMPI PUSH2 0x1221 PUSH2 0x118A JUMP JUMPDEST JUMPDEST PUSH0 PUSH2 0x122F DUP5 DUP3 DUP6 ADD PUSH2 0x11F9 JUMP JUMPDEST SWAP2 POP POP SWAP3 SWAP2 POP POP JUMP JUMPDEST PUSH0 DUP1 PUSH1 0x40 DUP4 DUP6 SUB SLT ISZERO PUSH2 0x124E JUMPI PUSH2 0x124D PUSH2 0x118A JUMP JUMPDEST JUMPDEST PUSH0 PUSH2 0x125B DUP6 DUP3 DUP7 ADD PUSH2 0x11F9 JUMP JUMPDEST SWAP3 POP POP PUSH1 0x20 PUSH2 0x126C DUP6 DUP3 DUP7 ADD PUSH2 0x11F9 JUMP JUMPDEST SWAP2 POP POP SWAP3 POP SWAP3 SWAP1 POP JUMP JUMPDEST PUSH0 DUP3 DUP3 MSTORE PUSH1 0x20 DUP3 ADD SWAP1 POP SWAP3 SWAP2 POP POP JUMP JUMPDEST PUSH32 0x496E76616C696420746F6B656E20616464726573730000000000000000000000 PUSH0 DUP3 ADD MSTORE POP JUMP JUMPDEST PUSH0 PUSH2 0x12BA PUSH1 0x15 DUP4 PUSH2 0x1276 JUMP JUMPDEST SWAP2 POP PUSH2 0x12C5 DUP3 PUSH2 0x1286 JUMP JUMPDEST PUSH1 0x20 DUP3 ADD SWAP1 POP SWAP2 SWAP1 POP JUMP JUMPDEST PUSH0 PUSH1 0x20 DUP3 ADD SWAP1 POP DUP2 DUP2 SUB PUSH0 DUP4 ADD MSTORE PUSH2 0x12E7 DUP2 PUSH2 0x12AE JUMP JUMPDEST SWAP1 POP SWAP2 SWAP1 POP JUMP JUMPDEST PUSH32 0x4E487B7100000000000000000000000000000000000000000000000000000000 PUSH0 MSTORE PUSH1 0x11 PUSH1 0x4 MSTORE PUSH1 0x24 PUSH0 REVERT JUMPDEST PUSH0 PUSH2 0x1325 DUP3 PUSH2 0x1159 JUMP JUMPDEST SWAP2 POP PUSH2 0x1330 DUP4 PUSH2 0x1159 JUMP JUMPDEST SWAP3 POP DUP3 DUP3 MUL PUSH2 0x133E DUP2 PUSH2 0x1159 JUMP JUMPDEST SWAP2 POP DUP3 DUP3 DIV DUP5 EQ DUP4 ISZERO OR PUSH2 0x1355 JUMPI PUSH2 0x1354 PUSH2 0x12EE JUMP JUMPDEST JUMPDEST POP SWAP3 SWAP2 POP POP JUMP JUMPDEST PUSH32 0x4E487B7100000000000000000000000000000000000000000000000000000000 PUSH0 MSTORE PUSH1 0x12 PUSH1 0x4 MSTORE PUSH1 0x24 PUSH0 REVERT JUMPDEST PUSH0 PUSH2 0x1393 DUP3 PUSH2 0x1159 JUMP JUMPDEST SWAP2 POP PUSH2 0x139E DUP4 PUSH2 0x1159 JUMP JUMPDEST SWAP3 POP DUP3 PUSH2 0x13AE JUMPI PUSH2 0x13AD PUSH2 0x135C JUMP JUMPDEST JUMPDEST DUP3 DUP3 DIV SWAP1 POP SWAP3 SWAP2 POP POP JUMP JUMPDEST PUSH32 0x496E76616C696420696E70757420616D6F756E74000000000000000000000000 PUSH0 DUP3 ADD MSTORE POP JUMP JUMPDEST PUSH0 PUSH2 0x13ED PUSH1 0x14 DUP4 PUSH2 0x1276 JUMP JUMPDEST SWAP2 POP PUSH2 0x13F8 DUP3 PUSH2 0x13B9 JUMP JUMPDEST PUSH1 0x20 DUP3 ADD SWAP1 POP SWAP2 SWAP1 POP JUMP JUMPDEST PUSH0 PUSH1 0x20 DUP3 ADD SWAP1 POP DUP2 DUP2 SUB PUSH0 DUP4 ADD MSTORE PUSH2 0x141A DUP2 PUSH2 0x13E1 JUMP JUMPDEST SWAP1 POP SWAP2 SWAP1 POP JUMP JUMPDEST PUSH32 0x496E73756666696369656E74206C697175696469747900000000000000000000 PUSH0 DUP3 ADD MSTORE POP JUMP JUMPDEST PUSH0 PUSH2 0x1455 PUSH1 0x16 DUP4 PUSH2 0x1276 JUMP JUMPDEST SWAP2 POP PUSH2 0x1460 DUP3 PUSH2 0x1421 JUMP JUMPDEST PUSH1 0x20 DUP3 ADD SWAP1 POP SWAP2 SWAP1 POP JUMP JUMPDEST PUSH0 PUSH1 0x20 DUP3 ADD SWAP1 POP DUP2 DUP2 SUB PUSH0 DUP4 ADD MSTORE PUSH2 0x1482 DUP2 PUSH2 0x1449 JUMP JUMPDEST SWAP1 POP SWAP2 SWAP1 POP JUMP JUMPDEST PUSH0 PUSH2 0x1493 DUP3 PUSH2 0x1159 JUMP JUMPDEST SWAP2 POP PUSH2 0x149E DUP4 PUSH2 0x1159 JUMP JUMPDEST SWAP3 POP DUP3 DUP3 ADD SWAP1 POP DUP1 DUP3 GT ISZERO PUSH2 0x14B6 JUMPI PUSH2 0x14B5 PUSH2 0x12EE JUMP JUMPDEST JUMPDEST SWAP3 SWAP2 POP POP JUMP JUMPDEST PUSH0 PUSH2 0x14C6 DUP3 PUSH2 0x1159 JUMP JUMPDEST SWAP2 POP PUSH2 0x14D1 DUP4 PUSH2 0x1159 JUMP JUMPDEST SWAP3 POP DUP3 DUP3 SUB SWAP1 POP DUP2 DUP2 GT ISZERO PUSH2 0x14E9 JUMPI PUSH2 0x14E8 PUSH2 0x12EE JUMP JUMPDEST JUMPDEST SWAP3 SWAP2 POP POP JUMP JUMPDEST PUSH32 0x496E73756666696369656E74206F757470757420616D6F756E74000000000000 PUSH0 DUP3 ADD MSTORE POP JUMP JUMPDEST PUSH0 PUSH2 0x1523 PUSH1 0x1A DUP4 PUSH2 0x1276 JUMP JUMPDEST SWAP2 POP PUSH2 0x152E DUP3 PUSH2 0x14EF JUMP JUMPDEST PUSH1 0x20 DUP3 ADD SWAP1 POP SWAP2 SWAP1 POP JUMP JUMPDEST PUSH0 PUSH1 0x20 DUP3 ADD SWAP1 POP DUP2 DUP2 SUB PUSH0 DUP4 ADD MSTORE PUSH2 0x1550 DUP2 PUSH2 0x1517 JUMP JUMPDEST SWAP1 POP SWAP2 SWAP1 POP JUMP JUMPDEST PUSH0 PUSH1 0x60 DUP3 ADD SWAP1 POP PUSH2 0x156A PUSH0 DUP4 ADD DUP7 PUSH2 0x1131 JUMP JUMPDEST PUSH2 0x1577 PUSH1 0x20 DUP4 ADD DUP6 PUSH2 0x1131 JUMP JUMPDEST PUSH2 0x1584 PUSH1 0x40 DUP4 ADD DUP5 PUSH2 0x1162 JUMP JUMPDEST SWAP5 SWAP4 POP POP POP POP JUMP JUMPDEST PUSH0 DUP2 ISZERO ISZERO SWAP1 POP SWAP2 SWAP1 POP JUMP JUMPDEST PUSH2 0x15A0 DUP2 PUSH2 0x158C JUMP JUMPDEST DUP2 EQ PUSH2 0x15AA JUMPI PUSH0 DUP1 REVERT JUMPDEST POP JUMP JUMPDEST PUSH0 DUP2 MLOAD SWAP1 POP PUSH2 0x15BB DUP2 PUSH2 0x1597 JUMP JUMPDEST SWAP3 SWAP2 POP POP JUMP JUMPDEST PUSH0 PUSH1 0x20 DUP3 DUP5 SUB SLT ISZERO PUSH2 0x15D6 JUMPI PUSH2 0x15D5 PUSH2 0x118A JUMP JUMPDEST JUMPDEST PUSH0 PUSH2 0x15E3 DUP5 DUP3 DUP6 ADD PUSH2 0x15AD JUMP JUMPDEST SWAP2 POP POP SWAP3 SWAP2 POP POP JUMP JUMPDEST PUSH0 PUSH1 0x40 DUP3 ADD SWAP1 POP PUSH2 0x15FF PUSH0 DUP4 ADD DUP6 PUSH2 0x1131 JUMP JUMPDEST PUSH2 0x160C PUSH1 0x20 DUP4 ADD DUP5 PUSH2 0x1162 JUMP JUMPDEST SWAP4 SWAP3 POP POP POP JUMP JUMPDEST PUSH0 PUSH1 0x80 DUP3 ADD SWAP1 POP PUSH2 0x1626 PUSH0 DUP4 ADD DUP8 PUSH2 0x1131 JUMP JUMPDEST PUSH2 0x1633 PUSH1 0x20 DUP4 ADD DUP7 PUSH2 0x1131 JUMP JUMPDEST PUSH2 0x1640 PUSH1 0x40 DUP4 ADD DUP6 PUSH2 0x1162 JUMP JUMPDEST PUSH2 0x164D PUSH1 0x60 DUP4 ADD DUP5 PUSH2 0x1162 JUMP JUMPDEST SWAP6 SWAP5 POP POP POP POP POP JUMP JUMPDEST PUSH32 0x43616E6E6F7420616464207A65726F206C697175696469747900000000000000 PUSH0 DUP3 ADD MSTORE POP JUMP JUMPDEST PUSH0 PUSH2 0x168A PUSH1 0x19 DUP4 PUSH2 0x1276 JUMP JUMPDEST SWAP2 POP PUSH2 0x1695 DUP3 PUSH2 0x1656 JUMP JUMPDEST PUSH1 0x20 DUP3 ADD SWAP1 POP SWAP2 SWAP1 POP JUMP JUMPDEST PUSH0 PUSH1 0x20 DUP3 ADD SWAP1 POP DUP2 DUP2 SUB PUSH0 DUP4 ADD MSTORE PUSH2 0x16B7 DUP2 PUSH2 0x167E JUMP JUMPDEST SWAP1 POP SWAP2 SWAP1 POP JUMP JUMPDEST PUSH0 PUSH1 0x40 DUP3 ADD SWAP1 POP PUSH2 0x16D1 PUSH0 DUP4 ADD DUP6 PUSH2 0x1162 JUMP JUMPDEST PUSH2 0x16DE PUSH1 0x20 DUP4 ADD DUP5 PUSH2 0x1162 JUMP JUMPDEST SWAP4 SWAP3 POP POP POP JUMP JUMPDEST PUSH32 0x496E76616C696420616D6F756E74730000000000000000000000000000000000 PUSH0 DUP3 ADD MSTORE POP JUMP JUMPDEST PUSH0 PUSH2 0x1719 PUSH1 0xF DUP4 PUSH2 0x1276 JUMP JUMPDEST SWAP2 POP PUSH2 0x1724 DUP3 PUSH2 0x16E5 JUMP JUMPDEST PUSH1 0x20 DUP3 ADD SWAP1 POP SWAP2 SWAP1 POP JUMP JUMPDEST PUSH0 PUSH1 0x20 DUP3 ADD SWAP1 POP DUP2 DUP2 SUB PUSH0 DUP4 ADD MSTORE PUSH2 0x1746 DUP2 PUSH2 0x170D JUMP JUMPDEST SWAP1 POP SWAP2 SWAP1 POP JUMP JUMPDEST PUSH32 0x4578636565647320636F6E7472696275746564206C697175696469747920666F PUSH0 DUP3 ADD MSTORE PUSH32 0x7220546F6B656E20410000000000000000000000000000000000000000000000 PUSH1 0x20 DUP3 ADD MSTORE POP JUMP JUMPDEST PUSH0 PUSH2 0x17A7 PUSH1 0x29 DUP4 PUSH2 0x1276 JUMP JUMPDEST SWAP2 POP PUSH2 0x17B2 DUP3 PUSH2 0x174D JUMP JUMPDEST PUSH1 0x40 DUP3 ADD SWAP1 POP SWAP2 SWAP1 POP JUMP JUMPDEST PUSH0 PUSH1 0x20 DUP3 ADD SWAP1 POP DUP2 DUP2 SUB PUSH0 DUP4 ADD MSTORE PUSH2 0x17D4 DUP2 PUSH2 0x179B JUMP JUMPDEST SWAP1 POP SWAP2 SWAP1 POP JUMP JUMPDEST PUSH32 0x4578636565647320636F6E7472696275746564206C697175696469747920666F PUSH0 DUP3 ADD MSTORE PUSH32 0x7220546F6B656E20420000000000000000000000000000000000000000000000 PUSH1 0x20 DUP3 ADD MSTORE POP JUMP JUMPDEST PUSH0 PUSH2 0x1835 PUSH1 0x29 DUP4 PUSH2 0x1276 JUMP JUMPDEST SWAP2 POP PUSH2 0x1840 DUP3 PUSH2 0x17DB JUMP JUMPDEST PUSH1 0x40 DUP3 ADD SWAP1 POP SWAP2 SWAP1 POP JUMP JUMPDEST PUSH0 PUSH1 0x20 DUP3 ADD SWAP1 POP DUP2 DUP2 SUB PUSH0 DUP4 ADD MSTORE PUSH2 0x1862 DUP2 PUSH2 0x1829 JUMP JUMPDEST SWAP1 POP SWAP2 SWAP1 POP JUMP INVALID LOG2 PUSH5 0x6970667358 0x22 SLT KECCAK256 DUP13 MOD 0xAB DUP15 MOD ADD 0x29 0xAE DUP1 PUSH12 0x505E198D2984B420F22F4805 DUP9 0xF GASLIMIT LOG2 0x2D 0xCF SWAP8 0xC5 0xB7 JUMP PUSH5 0x736F6C6343 STOP ADDMOD BYTE STOP CALLER "
				},
				"gasEstimates": {
					"creation": {
						"codeDepositCost": "1260600",
						"executionCost": "infinite",
						"totalCost": "infinite"
					},
					"external": {
						"addLiquidity(uint256,uint256)": "infinite",
						"getPrice(address)": "infinite",
						"liquidityA(address)": "2890",
						"liquidityB(address)": "2802",
						"removeLiquidity(uint256,uint256)": "infinite",
						"reserveA()": "2491",
						"reserveB()": "2448",
						"swapAforB(uint256)": "infinite",
						"swapBforA(uint256)": "infinite",
						"tokenA()": "2506",
						"tokenB()": "2575"
					}
				},
				"methodIdentifiers": {
					"addLiquidity(uint256,uint256)": "9cd441da",
					"getPrice(address)": "41976e09",
					"liquidityA(address)": "e29556ee",
					"liquidityB(address)": "86731a8f",
					"removeLiquidity(uint256,uint256)": "9d7de6b3",
					"reserveA()": "dc5fa6c5",
					"reserveB()": "19e36f3b",
					"swapAforB(uint256)": "e4f1f70a",
					"swapBforA(uint256)": "8014a7aa",
					"tokenA()": "0fc63d10",
					"tokenB()": "5f64b55b"
				}
			},
			"storageLayout": {
				"storage": [
					{
						"astId": 82,
						"contract": "SimpleDEX.sol:SimpleDEX",
						"label": "tokenA",
						"offset": 0,
						"slot": "0",
						"type": "t_address"
					},
					{
						"astId": 84,
						"contract": "SimpleDEX.sol:SimpleDEX",
						"label": "tokenB",
						"offset": 0,
						"slot": "1",
						"type": "t_address"
					},
					{
						"astId": 86,
						"contract": "SimpleDEX.sol:SimpleDEX",
						"label": "reserveA",
						"offset": 0,
						"slot": "2",
						"type": "t_uint256"
					},
					{
						"astId": 88,
						"contract": "SimpleDEX.sol:SimpleDEX",
						"label": "reserveB",
						"offset": 0,
						"slot": "3",
						"type": "t_uint256"
					},
					{
						"astId": 92,
						"contract": "SimpleDEX.sol:SimpleDEX",
						"label": "liquidityA",
						"offset": 0,
						"slot": "4",
						"type": "t_mapping(t_address,t_uint256)"
					},
					{
						"astId": 96,
						"contract": "SimpleDEX.sol:SimpleDEX",
						"label": "liquidityB",
						"offset": 0,
						"slot": "5",
						"type": "t_mapping(t_address,t_uint256)"
					}
				],
				"types": {
					"t_address": {
						"encoding": "inplace",
						"label": "address",
						"numberOfBytes": "20"
					},
					"t_mapping(t_address,t_uint256)": {
						"encoding": "mapping",
						"key": "t_address",
						"label": "mapping(address => uint256)",
						"numberOfBytes": "32",
						"value": "t_uint256"
					},
					"t_uint256": {
						"encoding": "inplace",
						"label": "uint256",
						"numberOfBytes": "32"
					}
				}
			},
			"userdoc": {
				"kind": "user",
				"methods": {
					"addLiquidity(uint256,uint256)": {
						"notice": "Adds liquidity to the pool by transferring tokens from the provider to the contract"
					},
					"getPrice(address)": {
						"notice": "Gets the current price of a token in terms of the other token in the pool"
					},
					"removeLiquidity(uint256,uint256)": {
						"notice": "Removes liquidity from the pool by transferring tokens from the contract to the provider"
					},
					"swapAforB(uint256)": {
						"notice": "Swaps Token A for Token B using the constant product formula (X * Y = k)"
					},
					"swapBforA(uint256)": {
						"notice": "Swaps Token B for Token A using the constant product formula (X * Y = k)"
					}
				},
				"version": 1
			}
		}
	}
}